{"contracts/RiseUpNFT.sol":{"RiseUpNFT":{"abi":[{"inputs":[{"internalType":"address","name":"_platformWallet","type":"address"}],"stateMutability":"nonpayable","type":"constructor"},{"inputs":[{"internalType":"address","name":"sender","type":"address"},{"internalType":"uint256","name":"tokenId","type":"uint256"},{"internalType":"address","name":"owner","type":"address"}],"name":"ERC721IncorrectOwner","type":"error"},{"inputs":[{"internalType":"address","name":"operator","type":"address"},{"internalType":"uint256","name":"tokenId","type":"uint256"}],"name":"ERC721InsufficientApproval","type":"error"},{"inputs":[{"internalType":"address","name":"approver","type":"address"}],"name":"ERC721InvalidApprover","type":"error"},{"inputs":[{"internalType":"address","name":"operator","type":"address"}],"name":"ERC721InvalidOperator","type":"error"},{"inputs":[{"internalType":"address","name":"owner","type":"address"}],"name":"ERC721InvalidOwner","type":"error"},{"inputs":[{"internalType":"address","name":"receiver","type":"address"}],"name":"ERC721InvalidReceiver","type":"error"},{"inputs":[{"internalType":"address","name":"sender","type":"address"}],"name":"ERC721InvalidSender","type":"error"},{"inputs":[{"internalType":"uint256","name":"tokenId","type":"uint256"}],"name":"ERC721NonexistentToken","type":"error"},{"inputs":[{"internalType":"address","name":"owner","type":"address"}],"name":"OwnableInvalidOwner","type":"error"},{"inputs":[{"internalType":"address","name":"account","type":"address"}],"name":"OwnableUnauthorizedAccount","type":"error"},{"inputs":[],"name":"ReentrancyGuardReentrantCall","type":"error"},{"anonymous":false,"inputs":[{"indexed":true,"internalType":"address","name":"owner","type":"address"},{"indexed":true,"internalType":"address","name":"approved","type":"address"},{"indexed":true,"internalType":"uint256","name":"tokenId","type":"uint256"}],"name":"Approval","type":"event"},{"anonymous":false,"inputs":[{"indexed":true,"internalType":"address","name":"owner","type":"address"},{"indexed":true,"internalType":"address","name":"operator","type":"address"},{"indexed":false,"internalType":"bool","name":"approved","type":"bool"}],"name":"ApprovalForAll","type":"event"},{"anonymous":false,"inputs":[{"indexed":true,"internalType":"uint256","name":"tokenId","type":"uint256"},{"indexed":true,"internalType":"address","name":"winner","type":"address"},{"indexed":false,"internalType":"uint256","name":"amount","type":"uint256"}],"name":"AuctionEnded","type":"event"},{"anonymous":false,"inputs":[{"indexed":false,"internalType":"uint256","name":"_fromTokenId","type":"uint256"},{"indexed":false,"internalType":"uint256","name":"_toTokenId","type":"uint256"}],"name":"BatchMetadataUpdate","type":"event"},{"anonymous":false,"inputs":[{"indexed":true,"internalType":"uint256","name":"tokenId","type":"uint256"},{"indexed":true,"internalType":"address","name":"bidder","type":"address"},{"indexed":false,"internalType":"uint256","name":"amount","type":"uint256"}],"name":"BidPlaced","type":"event"},{"anonymous":false,"inputs":[{"indexed":false,"internalType":"uint256","name":"_tokenId","type":"uint256"}],"name":"MetadataUpdate","type":"event"},{"anonymous":false,"inputs":[{"indexed":true,"internalType":"uint256","name":"tokenId","type":"uint256"},{"indexed":false,"internalType":"uint256","name":"price","type":"uint256"}],"name":"NFTListed","type":"event"},{"anonymous":false,"inputs":[{"indexed":true,"internalType":"uint256","name":"tokenId","type":"uint256"},{"indexed":true,"internalType":"address","name":"creator","type":"address"},{"indexed":false,"internalType":"enum RiseUpNFT.ContentType","name":"contentType","type":"uint8"},{"indexed":false,"internalType":"string","name":"tokenURI","type":"string"}],"name":"NFTMinted","type":"event"},{"anonymous":false,"inputs":[{"indexed":true,"internalType":"uint256","name":"tokenId","type":"uint256"},{"indexed":true,"internalType":"address","name":"buyer","type":"address"},{"indexed":true,"internalType":"address","name":"seller","type":"address"},{"indexed":false,"internalType":"uint256","name":"price","type":"uint256"}],"name":"NFTPurchased","type":"event"},{"anonymous":false,"inputs":[{"indexed":true,"internalType":"address","name":"previousOwner","type":"address"},{"indexed":true,"internalType":"address","name":"newOwner","type":"address"}],"name":"OwnershipTransferred","type":"event"},{"anonymous":false,"inputs":[{"indexed":true,"internalType":"address","name":"from","type":"address"},{"indexed":true,"internalType":"address","name":"to","type":"address"},{"indexed":true,"internalType":"uint256","name":"tokenId","type":"uint256"}],"name":"Transfer","type":"event"},{"inputs":[{"internalType":"address","name":"to","type":"address"},{"internalType":"uint256","name":"tokenId","type":"uint256"}],"name":"approve","outputs":[],"stateMutability":"nonpayable","type":"function"},{"inputs":[{"internalType":"address","name":"owner","type":"address"}],"name":"balanceOf","outputs":[{"internalType":"uint256","name":"","type":"uint256"}],"stateMutability":"view","type":"function"},{"inputs":[{"internalType":"uint256","name":"tokenId","type":"uint256"}],"name":"buyNFT","outputs":[],"stateMutability":"payable","type":"function"},{"inputs":[{"internalType":"uint256","name":"tokenId","type":"uint256"}],"name":"endAuction","outputs":[],"stateMutability":"nonpayable","type":"function"},{"inputs":[{"internalType":"uint256","name":"tokenId","type":"uint256"}],"name":"getApproved","outputs":[{"internalType":"address","name":"","type":"address"}],"stateMutability":"view","type":"function"},{"inputs":[{"internalType":"uint256","name":"tokenId","type":"uint256"}],"name":"getNFTMetadata","outputs":[{"components":[{"internalType":"enum RiseUpNFT.ContentType","name":"contentType","type":"uint8"},{"internalType":"address","name":"creator","type":"address"},{"internalType":"address","name":"platform","type":"address"},{"internalType":"uint256","name":"royaltyPercentage","type":"uint256"},{"internalType":"uint256","name":"platformFee","type":"uint256"},{"internalType":"string","name":"contentHash","type":"string"},{"internalType":"uint256","name":"originalContentId","type":"uint256"},{"internalType":"bool","name":"isListed","type":"bool"},{"internalType":"uint256","name":"price","type":"uint256"},{"internalType":"uint256","name":"auctionEndTime","type":"uint256"},{"internalType":"address","name":"highestBidder","type":"address"},{"internalType":"uint256","name":"highestBid","type":"uint256"}],"internalType":"struct RiseUpNFT.NFTMetadata","name":"","type":"tuple"}],"stateMutability":"view","type":"function"},{"inputs":[{"internalType":"address","name":"owner","type":"address"},{"internalType":"address","name":"operator","type":"address"}],"name":"isApprovedForAll","outputs":[{"internalType":"bool","name":"","type":"bool"}],"stateMutability":"view","type":"function"},{"inputs":[{"internalType":"uint256","name":"tokenId","type":"uint256"},{"internalType":"uint256","name":"price","type":"uint256"}],"name":"listNFT","outputs":[],"stateMutability":"nonpayable","type":"function"},{"inputs":[{"internalType":"address","name":"to","type":"address"},{"internalType":"string","name":"_tokenURI","type":"string"},{"internalType":"enum RiseUpNFT.ContentType","name":"contentType","type":"uint8"},{"internalType":"uint256","name":"royaltyPercentage","type":"uint256"},{"internalType":"uint256","name":"platformFee","type":"uint256"},{"internalType":"string","name":"contentHash","type":"string"},{"internalType":"uint256","name":"originalContentId","type":"uint256"}],"name":"mintNFT","outputs":[{"internalType":"uint256","name":"","type":"uint256"}],"stateMutability":"nonpayable","type":"function"},{"inputs":[],"name":"name","outputs":[{"internalType":"string","name":"","type":"string"}],"stateMutability":"view","type":"function"},{"inputs":[{"internalType":"uint256","name":"","type":"uint256"}],"name":"nftMetadata","outputs":[{"internalType":"enum RiseUpNFT.ContentType","name":"contentType","type":"uint8"},{"internalType":"address","name":"creator","type":"address"},{"internalType":"address","name":"platform","type":"address"},{"internalType":"uint256","name":"royaltyPercentage","type":"uint256"},{"internalType":"uint256","name":"platformFee","type":"uint256"},{"internalType":"string","name":"contentHash","type":"string"},{"internalType":"uint256","name":"originalContentId","type":"uint256"},{"internalType":"bool","name":"isListed","type":"bool"},{"internalType":"uint256","name":"price","type":"uint256"},{"internalType":"uint256","name":"auctionEndTime","type":"uint256"},{"internalType":"address","name":"highestBidder","type":"address"},{"internalType":"uint256","name":"highestBid","type":"uint256"}],"stateMutability":"view","type":"function"},{"inputs":[],"name":"owner","outputs":[{"internalType":"address","name":"","type":"address"}],"stateMutability":"view","type":"function"},{"inputs":[{"internalType":"uint256","name":"tokenId","type":"uint256"}],"name":"ownerOf","outputs":[{"internalType":"address","name":"","type":"address"}],"stateMutability":"view","type":"function"},{"inputs":[{"internalType":"uint256","name":"tokenId","type":"uint256"}],"name":"placeBid","outputs":[],"stateMutability":"payable","type":"function"},{"inputs":[],"name":"platformWallet","outputs":[{"internalType":"address","name":"","type":"address"}],"stateMutability":"view","type":"function"},{"inputs":[],"name":"renounceOwnership","outputs":[],"stateMutability":"nonpayable","type":"function"},{"inputs":[{"internalType":"address","name":"from","type":"address"},{"internalType":"address","name":"to","type":"address"},{"internalType":"uint256","name":"tokenId","type":"uint256"}],"name":"safeTransferFrom","outputs":[],"stateMutability":"nonpayable","type":"function"},{"inputs":[{"internalType":"address","name":"from","type":"address"},{"internalType":"address","name":"to","type":"address"},{"internalType":"uint256","name":"tokenId","type":"uint256"},{"internalType":"bytes","name":"data","type":"bytes"}],"name":"safeTransferFrom","outputs":[],"stateMutability":"nonpayable","type":"function"},{"inputs":[{"internalType":"address","name":"operator","type":"address"},{"internalType":"bool","name":"approved","type":"bool"}],"name":"setApprovalForAll","outputs":[],"stateMutability":"nonpayable","type":"function"},{"inputs":[{"internalType":"uint256","name":"tokenId","type":"uint256"},{"internalType":"uint256","name":"startingPrice","type":"uint256"},{"internalType":"uint256","name":"duration","type":"uint256"}],"name":"startAuction","outputs":[],"stateMutability":"nonpayable","type":"function"},{"inputs":[{"internalType":"bytes4","name":"interfaceId","type":"bytes4"}],"name":"supportsInterface","outputs":[{"internalType":"bool","name":"","type":"bool"}],"stateMutability":"view","type":"function"},{"inputs":[],"name":"symbol","outputs":[{"internalType":"string","name":"","type":"string"}],"stateMutability":"view","type":"function"},{"inputs":[{"internalType":"uint256","name":"tokenId","type":"uint256"}],"name":"tokenURI","outputs":[{"internalType":"string","name":"","type":"string"}],"stateMutability":"view","type":"function"},{"inputs":[{"internalType":"address","name":"from","type":"address"},{"internalType":"address","name":"to","type":"address"},{"internalType":"uint256","name":"tokenId","type":"uint256"}],"name":"transferFrom","outputs":[],"stateMutability":"nonpayable","type":"function"},{"inputs":[{"internalType":"address","name":"newOwner","type":"address"}],"name":"transferOwnership","outputs":[],"stateMutability":"nonpayable","type":"function"},{"inputs":[{"internalType":"address","name":"newWallet","type":"address"}],"name":"updatePlatformWallet","outputs":[],"stateMutability":"nonpayable","type":"function"}],"evm":{"bytecode":{"linkReferences":{},"object":"6080346200040857601f90601f19906001600160401b0390620024bb388190038581018516830184811184821017620003f2578392829160405283396020928391810103126200040857516001600160a01b03808216959093909186900362000408576200006c6200040d565b91600a835269149a5cd9555c0813919560b21b848401526200008d6200040d565b600381526205255560ec1b85820152835196838811620003f2576000978854956001968781811c91168015620003e7575b89821014620003d35790818684931162000380575b5088908683116001146200031f578b9262000313575b5050600019600383901b1c191690861b1788555b8151938411620002ff5784548581811c91168015620002f4575b87821014620002e057908184869594931162000289575b508692841160011462000228575087926200021c575b5050600019600383901b1c191690821b1781555b3315620002035760075460018060a01b03199433868316176007557f8be0079c531659141344cd1fd0a4f28419497f9722a3daafe3b4186f6b6457e0604051953393169180a36008558315620001c2575050600b541617600b5560405161208d90816200042e8239f35b62461bcd60e51b82526004820152601760248201527f496e76616c696420706c6174666f726d2077616c6c6574000000000000000000604482015260649150fd5b604051631e4fbdf760e01b815260048101859052602490fd5b01519050388062000144565b85895286892086959093929116895b8882821062000272575050841162000258575b505050811b01815562000158565b015160001960f88460031b161c191690553880806200024a565b838501518655889790950194938401930162000237565b90919293508589528689208480870160051c820192898810620002d6575b9187968992969594930160051c01915b828110620002c75750506200012e565b8b8155879650889101620002b7565b92508192620002a7565b634e487b7160e01b89526022600452602489fd5b90607f169062000117565b634e487b7160e01b88526041600452602488fd5b015190503880620000e9565b9084899416918c80528a8d20928d5b8c8282106200036957505084116200034f575b505050811b018855620000fd565b015160001960f88460031b161c1916905538808062000341565b8385015186558c979095019493840193016200032e565b9091508a8052888b208680850160051c8201928b8610620003c9575b918a91869594930160051c01915b828110620003ba575050620000d3565b8d81558594508a9101620003aa565b925081926200039c565b634e487b7160e01b8b52602260045260248bfd5b90607f1690620000be565b634e487b7160e01b600052604160045260246000fd5b600080fd5b60408051919082016001600160401b03811183821017620003f25760405256fe608080604052600436101561001357600080fd5b60003560e01c90816301ffc9a7146118275750806306fdde0314611784578063081812fc14611746578063095ea7b31461165f57806323b872dd1461164857806342842e0e14611620578063495410151461154457806351ed8288146113575780636352211e146113275780636be9a6f1146110f25780636cda59af14610b3d57806370a0823114610ae4578063715018a614610a875780638da5cb5b14610a5e57806391e078bb1461093057806394383f141461086457806395d89b41146107855780639979ef4514610645578063a22cb46514610597578063ada4ef3014610511578063b88d4fde146104af578063b9a2de3a146102a7578063c87b56dd1461024a578063e985e9c5146101f4578063f2fde38b1461016b5763fa2af9da1461013d57600080fd5b3461016657600036600319011261016657600b546040516001600160a01b039091168152602090f35b600080fd5b34610166576020366003190112610166576101846118ec565b61018c611b06565b6001600160a01b039081169081156101db57600754826001600160601b0360a01b821617600755167f8be0079c531659141344cd1fd0a4f28419497f9722a3daafe3b4186f6b6457e0600080a3005b604051631e4fbdf760e01b815260006004820152602490fd5b346101665760403660031901126101665761020d6118ec565b610215611902565b9060018060a01b03809116600052600560205260406000209116600052602052602060ff604060002054166040519015158152f35b346101665760203660031901126101665760043561026781611ed3565b5060005260066020526102a361028060406000206119e2565b600060405161028e816119a4565b526040519182916020835260208301906118ac565b0390f35b34610166576020366003190112610166576004356102c3611ff3565b80600052600a602052604060002090600682016102e360ff825416612016565b600883019283544210610476576009810180546001600160a01b039391929190841690811561044057859261031784611ed3565b92600a82018054998a94612710938460038701546103359089611f58565b0480956002880154610347908a611f58565b0497889161035491611f6b565b9061035e91611f6b565b986103699189611f78565b60ff198154169055600784016000905560009055600090556001600160601b0360a01b865416865586600b541660008215600093849384938493610437575bf1156104185760008080938882945460081c1682821561042e575bf11561041857600080809381938783918315610424575b1690f115610418577fd2aa34a4fdbbc6dff6a3e56f46e0f3ae2a31d7785ff3487aa5c95c642acea50191602091541693604051908152a36001600855005b6040513d6000823e3d90fd5b6108fc92506103da565b506108fc6103c3565b506108fc6103a8565b60405162461bcd60e51b815260206004820152600e60248201526d139bc8189a591cc81c1b1858d95960921b6044820152606490fd5b60405162461bcd60e51b8152602060048201526011602482015270105d58dd1a5bdb881b9bdd08195b991959607a1b6044820152606490fd5b34610166576080366003190112610166576104c86118ec565b6104d0611902565b6064359167ffffffffffffffff831161016657366023840112156101665761050561050f933690602481600401359101611ab1565b9160443591611cc2565b005b346101665760203660031901126101665761052a6118ec565b610532611b06565b6001600160a01b03168015610559576001600160601b0360a01b600b541617600b55600080f35b60405162461bcd60e51b8152602060048201526016602482015275496e76616c69642077616c6c6574206164647265737360501b6044820152606490fd5b34610166576040366003190112610166576105b06118ec565b6024359081151590818303610166576001600160a01b031691821561062c576105fe9033600052600560205260406000208460005260205260406000209060ff801983541691151516179055565b6040519081527f17307eab39ab6107e8899845ad3d59bd9653f200f220920489ca2b5937696c3160203392a3005b604051630b61174360e31b815260048101849052602490fd5b60203660031901126101665760043561065c611ff3565b80600052600a602052604060002061067a60ff600683015416612016565b600881015442101561075057600a8101908154908134111561071d5760090180549091906001600160a01b0316806106f8575b5050336001600160601b0360a01b825416179055349055604051903482527f0e54eff26401bf69b81b26f60bd85ef47f5d85275c1d268d84f68d6897431c4760203393a36001600855005b60008080938193828215610714575bf1156104185783806106ad565b506108fc610707565b60405162461bcd60e51b815260206004820152600b60248201526a42696420746f6f206c6f7760a81b6044820152606490fd5b60405162461bcd60e51b815260206004820152600d60248201526c105d58dd1a5bdb88195b991959609a1b6044820152606490fd5b3461016657600036600319011261016657604051600060018054906107a98261194d565b8085529181811690811561083d57506001146107e4575b6102a3846107d0818603826119c0565b6040519182916020835260208301906118ac565b600081815292507fb10e2d527612073b26eecdfd717e6a320cf44b4afac2b0732d9fcbe2b7fa0cf65b8284106108255750505081016020016107d0826107c0565b8054602085870181019190915290930192810161080d565b60ff191660208087019190915292151560051b850190920192506107d091508390506107c0565b346101665760403660031901126101665760043560243561089761088783611ed3565b6001600160a01b03163314611f1a565b80156108eb5760207fa6cd73580a273eec6c1026108f6b63479fbaef5356dde4ff43e4b38dd187485f9183600052600a8252806007604060002060068101600160ff198254161790550155604051908152a2005b60405162461bcd60e51b815260206004820152601c60248201527f5072696365206d7573742062652067726561746572207468616e2030000000006044820152606490fd5b346101665760603660031901126101665760243560443560043561095661088782611ed3565b8215610a0b5781156109c657600052600a60205260406000209160068301600160ff1982541617905560078301554201908142116109b05760088101919091556000600a82015560090180546001600160a01b0319169055005b634e487b7160e01b600052601160045260246000fd5b60405162461bcd60e51b815260206004820152601f60248201527f4475726174696f6e206d7573742062652067726561746572207468616e2030006044820152606490fd5b60405162461bcd60e51b815260206004820152602560248201527f5374617274696e67207072696365206d75737420626520677265617465722074604482015264068616e20360dc1b6064820152608490fd5b34610166576000366003190112610166576007546040516001600160a01b039091168152602090f35b3461016657600036600319011261016657610aa0611b06565b600780546001600160a01b031981169091556000906001600160a01b03167f8be0079c531659141344cd1fd0a4f28419497f9722a3daafe3b4186f6b6457e08280a3005b34610166576020366003190112610166576001600160a01b03610b056118ec565b168015610b245760005260036020526020604060002054604051908152f35b6040516322718ad960e21b815260006004820152602490fd5b346101665760e036600319011261016657610b566118ec565b60243567ffffffffffffffff811161016657610b76903690600401611ae8565b90600560443510156101665760a43567ffffffffffffffff811161016657610ba2903690600401611ae8565b9161271080606435116110ba576084351161107d576009549160001983146109b057600183016009556001600160a01b03811615611064576001600160a01b0390610bf1906001850190611e17565b1661104b576001820160005260066020526040600020815167ffffffffffffffff8111610f6957610c22825461194d565b601f8111611007575b50806020601f8211600114610fa057600091610f95575b508160011b916000199060031b1c19161790555b7ff8e1a15aba9398e019f0b49df1a4fde98ee17ae345cb5f6b5e2c27f5033e8ce76020604051600185018152a1600b5460405193906001600160a01b0316610c9d85611987565b610ca960443586611f0e565b33602086015260408501526064356060850152608435608085015260a084015260c43560c0840152600060e0840152600061010084015260006101208401526000610140840152600061016084015260018201600052600a602052604060002083516005811015610f7f57815460ff610100600160a81b03602088015160081b169216906affffffffffffffffffffff60a81b161717815560018060a01b036040850151166001600160601b0360a01b600183015416176001820155606084015160028201556080840151600382015560a084015193845167ffffffffffffffff8111610f6957610d9d600484015461194d565b95601f8711610f22575b602096508690601f8311600114610eae579180600a949261016094600092610ea3575b50508160011b916000199060031b1c19161760048501555b60c08101516005850155610e0b60e08201511515600686019060ff801983541691151516179055565b610100810151600785015561012081015160088501556009840160018060a01b03610140830151166001600160601b0360a01b825416179055015191015560405190610e5982604435611a88565b6040848301527fb7b37e2492d607bae7599a39d53c1892b28fb0c4ecbc83938cc737c001cf7494339280610e95600187019460408301906118ac565b0390a3600160405191018152f35b015190508980610dca565b9060048501600052876000209160005b601f1985168110610f0b575092600a94926001926101609583601f19811610610ef2575b505050811b016004850155610de2565b015160001960f88460031b161c19169055898080610ee2565b919289600181928685015181550194019201610ebe565b600484016000526020600020601f830160051c810160208410610f62575b601f890160051c82018110610f56575050610da7565b60008155600101610f40565b5080610f40565b634e487b7160e01b600052604160045260246000fd5b634e487b7160e01b600052602160045260246000fd5b905083015186610c42565b91508260005260206000206000925b601f1983168410610fef576001935082601f19811610610fd6575b5050811b019055610c56565b85015160001960f88460031b161c191690558680610fca565b85810151825560209384019360019092019101610faf565b826000526020600020601f830160051c810160208410611044575b601f830160051c82018110611038575050610c2b565b60008155600101611022565b5080611022565b6040516339e3563760e11b815260006004820152602490fd5b604051633250574960e11b815260006004820152602490fd5b60405162461bcd60e51b81526020600482015260156024820152740a0d8c2e8ccdee4da40cccaca40e8dede40d0d2ced605b1b6044820152606490fd5b60405162461bcd60e51b815260206004820152601060248201526f0a4def2c2d8e8f240e8dede40d0d2ced60831b6044820152606490fd5b3461016657602036600319011261016657600435600061016060405161111781611987565b828152826020820152826040820152826060820152826080820152606060a08201528260c08201528260e0820152826101008201528261012082015282610140820152015280600052600260205260018060a01b0360406000205416156112eb57600052600a6020526040600020600a6040519161119483611987565b80546111a360ff821685611f0e565b60081c6001600160a01b039081166020850152600182015416604084015260028101546060840152600381015460808401526111e1600482016119e2565b60a0840152600581015460c084015260ff600682015416151560e08401526007810154610100840152600881015461012084015260018060a01b036009820154166101408401520154610160820152604051809160208252611247602083018251611a88565b60018060a01b03602082015116604083015260018060a01b03604082015116606083015260608101516080830152608081015160a083015260a081015161016061129f610180928360c08701526101a08601906118ac565b9260c081015160e086015260e0810151151561010086015261010081015161012086015261012081015161014086015260018060a01b0361014082015116828601520151908301520390f35b60405162461bcd60e51b8152602060048201526014602482015273151bdad95b88191bd95cc81b9bdd08195e1a5cdd60621b6044820152606490fd5b34610166576020366003190112610166576020611345600435611ed3565b6040516001600160a01b039091168152f35b60203660031901126101665760043561136e611ff3565b80600052600a6020526040600020600681019160ff8354161561150e5760078201918254928334106114d2576113a383611ed3565b90612710926000846113b9600384015489611f58565b04946113c9600284015489611f58565b04926113de846113d9888b611f6b565b611f6b565b986113ea883388611f78565b60ff19815416905555600080808060018060a01b039788600b54168282156114c9575bf11561041857600080809381935487839183156114bf575b60081c1690f11561041857600080809381931696878282156114b6575bf11561041857813411611483575b6040519182527fef1fb2bd31f5ed737e6054243d9b5eacd3af967f35af45e8fb844ca6dbbe98f960203393a46001600855005b60008080806114928634611f6b565b8181156114ad575b3390f1611450576040513d6000823e3d90fd5b506108fc61149a565b506108fc611442565b6108fc9250611425565b506108fc61140d565b60405162461bcd60e51b8152602060048201526014602482015273125b9cdd59999a58da595b9d081c185e5b595b9d60621b6044820152606490fd5b60405162461bcd60e51b815260206004820152600e60248201526d139195081b9bdd081b1a5cdd195960921b6044820152606490fd5b3461016657602036600319011261016657600435600052600a60205260406000206115ce81549160018060a01b038060018301541691600281015492600382015493611592600484016119e2565b946115f760058501549660ff60068701541692600787015494600888015496600a8a60098b015416990154996040519d8e9d8e60ff8316611a88565b60081c1660208d015260408c015260608b015260808a01526101808060a08b01528901906118ac565b9560c0880152151560e08701526101008601526101208501526101408401526101608301520390f35b346101665761050f61163136611918565b906040519261163f846119a4565b60008452611cc2565b346101665761050f61165936611918565b91611b32565b34610166576040366003190112610166576116786118ec565b60243561168481611ed3565b33151580611733575b80611706575b6116ee576001600160a01b039283169282918491167f8c5be1e5ebec7d5bd14f71427d1e84f3dd0314c0f7b2291e5b200ac8c7c3b925600080a4600090815260046020526040902080546001600160a01b0319169091179055005b60405163a9fbf51f60e01b8152336004820152602490fd5b5060018060a01b038116600052600560205260406000203360005260205260ff6040600020541615611693565b506001600160a01b03811633141561168d565b346101665760203660031901126101665760043561176381611ed3565b506000526004602052602060018060a01b0360406000205416604051908152f35b3461016657600036600319011261016657604051600080546117a58161194d565b8084529060019081811690811561083d57506001146117ce576102a3846107d0818603826119c0565b600080805292507f290decd9548b62a8d60345a988386fc84ba6bc95484008f6362f93160ef3e5635b82841061180f5750505081016020016107d0826107c0565b805460208587018101919091529093019281016117f7565b34610166576020366003190112610166576004359063ffffffff60e01b821680920361016657602091632483248360e11b8114908115611869575b5015158152f35b6380ac58cd60e01b81149150811561189b575b811561188a575b5083611862565b6301ffc9a760e01b14905083611883565b635b5e139f60e01b8114915061187c565b919082519283825260005b8481106118d8575050826000602080949584010152601f8019910116010190565b6020818301810151848301820152016118b7565b600435906001600160a01b038216820361016657565b602435906001600160a01b038216820361016657565b6060906003190112610166576001600160a01b0390600435828116810361016657916024359081168103610166579060443590565b90600182811c9216801561197d575b602083101461196757565b634e487b7160e01b600052602260045260246000fd5b91607f169161195c565b610180810190811067ffffffffffffffff821117610f6957604052565b6020810190811067ffffffffffffffff821117610f6957604052565b90601f8019910116810190811067ffffffffffffffff821117610f6957604052565b90604051918260008254926119f68461194d565b908184526001948581169081600014611a655750600114611a22575b5050611a20925003836119c0565b565b9093915060005260209081600020936000915b818310611a4d575050611a2093508201013880611a12565b85548884018501529485019487945091830191611a35565b915050611a2094506020925060ff191682840152151560051b8201013880611a12565b906005821015610f7f5752565b67ffffffffffffffff8111610f6957601f01601f191660200190565b929192611abd82611a95565b91611acb60405193846119c0565b829481845281830111610166578281602093846000960137010152565b9080601f8301121561016657816020611b0393359101611ab1565b90565b6007546001600160a01b03163303611b1a57565b60405163118cdaa760e01b8152336004820152602490fd5b906001600160a01b03908116801561106457600091848352846020926002845260409383858720541695869133151580611c2c575b509060027fddf252ad1be2c89b69c2b068fc378daa952ba7f163c4a11628f55a4df523b3ef9284611bf9575b85835260038152888320805460010190558683525286812080546001600160a01b0319168517905580a483168203611bcb5750505050565b516364283d7b60e01b81526001600160a01b0392831660048201526024810193909352166044820152606490fd5b600087815260046020526040902080546001600160a01b0319169055848352600381528883208054600019019055611b93565b91939450915080611c81575b15611c4857879291869138611b67565b848887611c65576024915190637e27328960e01b82526004820152fd5b604491519063177e802f60e01b82523360048301526024820152fd5b503386148015611ca6575b80611c385750878252600481523384868420541614611c38565b5085825260058152848220338352815260ff8583205416611c8c565b929092611cd0838583611b32565b833b611cdd575b50505050565b604051630a85bd0160e11b8082523360048301526001600160a01b0392831660248301526044820194909452608060648201529493169260209290918590611d299060848301906118ac565b039483816000978189895af1869181611dd3575b50611d9e575050503d600014611d95573d611d5781611a95565b90611d6560405192836119c0565b81528093823d92013e5b82519283611d9057604051633250574960e11b815260048101849052602490fd5b019050fd5b60609250611d6f565b919450915063ffffffff60e01b1603611dbb575038808080611cd7565b60249060405190633250574960e11b82526004820152fd5b9091508481813d8311611e10575b611deb81836119c0565b81010312611e0c57516001600160e01b031981168103611e0c579038611d3d565b8680fd5b503d611de1565b6000828152600260205260408120546001600160a01b03908116939284917fddf252ad1be2c89b69c2b068fc378daa952ba7f163c4a11628f55a4df523b3ef9183611e9e575b169283611e86575b84815260026020526040812080546001600160a01b0319168517905580a490565b83815260036020526040812060018154019055611e65565b600086815260046020526040902080546001600160a01b03191690558385526003602052604085208054600019019055611e5d565b6000818152600260205260409020546001600160a01b0316908115611ef6575090565b60249060405190637e27328960e01b82526004820152fd5b6005821015610f7f5752565b15611f2157565b60405162461bcd60e51b815260206004820152600f60248201526e2737ba103a37b5b2b71037bbb732b960891b6044820152606490fd5b818102929181159184041417156109b057565b919082039182116109b057565b906001600160a01b0390818116156110645783611f9491611e17565b908082169081611fb757604051637e27328960e01b815260048101869052602490fd5b831603611fc357505050565b6040516364283d7b60e01b81526001600160a01b0392831660048201526024810193909352166044820152606490fd5b600260085414612004576002600855565b604051633ee5aeb560e01b8152600490fd5b1561201d57565b60405162461bcd60e51b815260206004820152601260248201527127232a103737ba1034b71030bab1ba34b7b760711b6044820152606490fdfea2646970667358221220f0d109f47339d42b889e4d5182468f9212a2da6c1375d0161f327a30d8b2a1af64736f6c63430008140033","opcodes":"PUSH1 0x80 CALLVALUE PUSH3 0x408 JUMPI PUSH1 0x1F SWAP1 PUSH1 0x1F NOT SWAP1 PUSH1 0x1 PUSH1 0x1 PUSH1 0x40 SHL SUB SWAP1 PUSH3 0x24BB CODESIZE DUP2 SWAP1 SUB DUP6 DUP2 ADD DUP6 AND DUP4 ADD DUP5 DUP2 GT DUP5 DUP3 LT OR PUSH3 0x3F2 JUMPI DUP4 SWAP3 DUP3 SWAP2 PUSH1 0x40 MSTORE DUP4 CODECOPY PUSH1 0x20 SWAP3 DUP4 SWAP2 DUP2 ADD SUB SLT PUSH3 0x408 JUMPI MLOAD PUSH1 0x1 PUSH1 0x1 PUSH1 0xA0 SHL SUB DUP1 DUP3 AND SWAP6 SWAP1 SWAP4 SWAP1 SWAP2 DUP7 SWAP1 SUB PUSH3 0x408 JUMPI PUSH3 0x6C PUSH3 0x40D JUMP JUMPDEST SWAP2 PUSH1 0xA DUP4 MSTORE PUSH10 0x149A5CD9555C08139195 PUSH1 0xB2 SHL DUP5 DUP5 ADD MSTORE PUSH3 0x8D PUSH3 0x40D JUMP JUMPDEST PUSH1 0x3 DUP2 MSTORE PUSH3 0x52555 PUSH1 0xEC SHL DUP6 DUP3 ADD MSTORE DUP4 MLOAD SWAP7 DUP4 DUP9 GT PUSH3 0x3F2 JUMPI PUSH1 0x0 SWAP8 DUP9 SLOAD SWAP6 PUSH1 0x1 SWAP7 DUP8 DUP2 DUP2 SHR SWAP2 AND DUP1 ISZERO PUSH3 0x3E7 JUMPI JUMPDEST DUP10 DUP3 LT EQ PUSH3 0x3D3 JUMPI SWAP1 DUP2 DUP7 DUP5 SWAP4 GT PUSH3 0x380 JUMPI JUMPDEST POP DUP9 SWAP1 DUP7 DUP4 GT PUSH1 0x1 EQ PUSH3 0x31F JUMPI DUP12 SWAP3 PUSH3 0x313 JUMPI JUMPDEST POP POP PUSH1 0x0 NOT PUSH1 0x3 DUP4 SWAP1 SHL SHR NOT AND SWAP1 DUP7 SHL OR DUP9 SSTORE JUMPDEST DUP2 MLOAD SWAP4 DUP5 GT PUSH3 0x2FF JUMPI DUP5 SLOAD DUP6 DUP2 DUP2 SHR SWAP2 AND DUP1 ISZERO PUSH3 0x2F4 JUMPI JUMPDEST DUP8 DUP3 LT EQ PUSH3 0x2E0 JUMPI SWAP1 DUP2 DUP5 DUP7 SWAP6 SWAP5 SWAP4 GT PUSH3 0x289 JUMPI JUMPDEST POP DUP7 SWAP3 DUP5 GT PUSH1 0x1 EQ PUSH3 0x228 JUMPI POP DUP8 SWAP3 PUSH3 0x21C JUMPI JUMPDEST POP POP PUSH1 0x0 NOT PUSH1 0x3 DUP4 SWAP1 SHL SHR NOT AND SWAP1 DUP3 SHL OR DUP2 SSTORE JUMPDEST CALLER ISZERO PUSH3 0x203 JUMPI PUSH1 0x7 SLOAD PUSH1 0x1 DUP1 PUSH1 0xA0 SHL SUB NOT SWAP5 CALLER DUP7 DUP4 AND OR PUSH1 0x7 SSTORE PUSH32 0x8BE0079C531659141344CD1FD0A4F28419497F9722A3DAAFE3B4186F6B6457E0 PUSH1 0x40 MLOAD SWAP6 CALLER SWAP4 AND SWAP2 DUP1 LOG3 PUSH1 0x8 SSTORE DUP4 ISZERO PUSH3 0x1C2 JUMPI POP POP PUSH1 0xB SLOAD AND OR PUSH1 0xB SSTORE PUSH1 0x40 MLOAD PUSH2 0x208D SWAP1 DUP2 PUSH3 0x42E DUP3 CODECOPY RETURN JUMPDEST PUSH3 0x461BCD PUSH1 0xE5 SHL DUP3 MSTORE PUSH1 0x4 DUP3 ADD MSTORE PUSH1 0x17 PUSH1 0x24 DUP3 ADD MSTORE PUSH32 0x496E76616C696420706C6174666F726D2077616C6C6574000000000000000000 PUSH1 0x44 DUP3 ADD MSTORE PUSH1 0x64 SWAP2 POP REVERT JUMPDEST PUSH1 0x40 MLOAD PUSH4 0x1E4FBDF7 PUSH1 0xE0 SHL DUP2 MSTORE PUSH1 0x4 DUP2 ADD DUP6 SWAP1 MSTORE PUSH1 0x24 SWAP1 REVERT JUMPDEST ADD MLOAD SWAP1 POP CODESIZE DUP1 PUSH3 0x144 JUMP JUMPDEST DUP6 DUP10 MSTORE DUP7 DUP10 KECCAK256 DUP7 SWAP6 SWAP1 SWAP4 SWAP3 SWAP2 AND DUP10 JUMPDEST DUP9 DUP3 DUP3 LT PUSH3 0x272 JUMPI POP POP DUP5 GT PUSH3 0x258 JUMPI JUMPDEST POP POP POP DUP2 SHL ADD DUP2 SSTORE PUSH3 0x158 JUMP JUMPDEST ADD MLOAD PUSH1 0x0 NOT PUSH1 0xF8 DUP5 PUSH1 0x3 SHL AND SHR NOT AND SWAP1 SSTORE CODESIZE DUP1 DUP1 PUSH3 0x24A JUMP JUMPDEST DUP4 DUP6 ADD MLOAD DUP7 SSTORE DUP9 SWAP8 SWAP1 SWAP6 ADD SWAP5 SWAP4 DUP5 ADD SWAP4 ADD PUSH3 0x237 JUMP JUMPDEST SWAP1 SWAP2 SWAP3 SWAP4 POP DUP6 DUP10 MSTORE DUP7 DUP10 KECCAK256 DUP5 DUP1 DUP8 ADD PUSH1 0x5 SHR DUP3 ADD SWAP3 DUP10 DUP9 LT PUSH3 0x2D6 JUMPI JUMPDEST SWAP2 DUP8 SWAP7 DUP10 SWAP3 SWAP7 SWAP6 SWAP5 SWAP4 ADD PUSH1 0x5 SHR ADD SWAP2 JUMPDEST DUP3 DUP2 LT PUSH3 0x2C7 JUMPI POP POP PUSH3 0x12E JUMP JUMPDEST DUP12 DUP2 SSTORE DUP8 SWAP7 POP DUP9 SWAP2 ADD PUSH3 0x2B7 JUMP JUMPDEST SWAP3 POP DUP2 SWAP3 PUSH3 0x2A7 JUMP JUMPDEST PUSH4 0x4E487B71 PUSH1 0xE0 SHL DUP10 MSTORE PUSH1 0x22 PUSH1 0x4 MSTORE PUSH1 0x24 DUP10 REVERT JUMPDEST SWAP1 PUSH1 0x7F AND SWAP1 PUSH3 0x117 JUMP JUMPDEST PUSH4 0x4E487B71 PUSH1 0xE0 SHL DUP9 MSTORE PUSH1 0x41 PUSH1 0x4 MSTORE PUSH1 0x24 DUP9 REVERT JUMPDEST ADD MLOAD SWAP1 POP CODESIZE DUP1 PUSH3 0xE9 JUMP JUMPDEST SWAP1 DUP5 DUP10 SWAP5 AND SWAP2 DUP13 DUP1 MSTORE DUP11 DUP14 KECCAK256 SWAP3 DUP14 JUMPDEST DUP13 DUP3 DUP3 LT PUSH3 0x369 JUMPI POP POP DUP5 GT PUSH3 0x34F JUMPI JUMPDEST POP POP POP DUP2 SHL ADD DUP9 SSTORE PUSH3 0xFD JUMP JUMPDEST ADD MLOAD PUSH1 0x0 NOT PUSH1 0xF8 DUP5 PUSH1 0x3 SHL AND SHR NOT AND SWAP1 SSTORE CODESIZE DUP1 DUP1 PUSH3 0x341 JUMP JUMPDEST DUP4 DUP6 ADD MLOAD DUP7 SSTORE DUP13 SWAP8 SWAP1 SWAP6 ADD SWAP5 SWAP4 DUP5 ADD SWAP4 ADD PUSH3 0x32E JUMP JUMPDEST SWAP1 SWAP2 POP DUP11 DUP1 MSTORE DUP9 DUP12 KECCAK256 DUP7 DUP1 DUP6 ADD PUSH1 0x5 SHR DUP3 ADD SWAP3 DUP12 DUP7 LT PUSH3 0x3C9 JUMPI JUMPDEST SWAP2 DUP11 SWAP2 DUP7 SWAP6 SWAP5 SWAP4 ADD PUSH1 0x5 SHR ADD SWAP2 JUMPDEST DUP3 DUP2 LT PUSH3 0x3BA JUMPI POP POP PUSH3 0xD3 JUMP JUMPDEST DUP14 DUP2 SSTORE DUP6 SWAP5 POP DUP11 SWAP2 ADD PUSH3 0x3AA JUMP JUMPDEST SWAP3 POP DUP2 SWAP3 PUSH3 0x39C JUMP JUMPDEST PUSH4 0x4E487B71 PUSH1 0xE0 SHL DUP12 MSTORE PUSH1 0x22 PUSH1 0x4 MSTORE PUSH1 0x24 DUP12 REVERT JUMPDEST SWAP1 PUSH1 0x7F AND SWAP1 PUSH3 0xBE JUMP JUMPDEST PUSH4 0x4E487B71 PUSH1 0xE0 SHL PUSH1 0x0 MSTORE PUSH1 0x41 PUSH1 0x4 MSTORE PUSH1 0x24 PUSH1 0x0 REVERT JUMPDEST PUSH1 0x0 DUP1 REVERT JUMPDEST PUSH1 0x40 DUP1 MLOAD SWAP2 SWAP1 DUP3 ADD PUSH1 0x1 PUSH1 0x1 PUSH1 0x40 SHL SUB DUP2 GT DUP4 DUP3 LT OR PUSH3 0x3F2 JUMPI PUSH1 0x40 MSTORE JUMP INVALID PUSH1 0x80 DUP1 PUSH1 0x40 MSTORE PUSH1 0x4 CALLDATASIZE LT ISZERO PUSH2 0x13 JUMPI PUSH1 0x0 DUP1 REVERT JUMPDEST PUSH1 0x0 CALLDATALOAD PUSH1 0xE0 SHR SWAP1 DUP2 PUSH4 0x1FFC9A7 EQ PUSH2 0x1827 JUMPI POP DUP1 PUSH4 0x6FDDE03 EQ PUSH2 0x1784 JUMPI DUP1 PUSH4 0x81812FC EQ PUSH2 0x1746 JUMPI DUP1 PUSH4 0x95EA7B3 EQ PUSH2 0x165F JUMPI DUP1 PUSH4 0x23B872DD EQ PUSH2 0x1648 JUMPI DUP1 PUSH4 0x42842E0E EQ PUSH2 0x1620 JUMPI DUP1 PUSH4 0x49541015 EQ PUSH2 0x1544 JUMPI DUP1 PUSH4 0x51ED8288 EQ PUSH2 0x1357 JUMPI DUP1 PUSH4 0x6352211E EQ PUSH2 0x1327 JUMPI DUP1 PUSH4 0x6BE9A6F1 EQ PUSH2 0x10F2 JUMPI DUP1 PUSH4 0x6CDA59AF EQ PUSH2 0xB3D JUMPI DUP1 PUSH4 0x70A08231 EQ PUSH2 0xAE4 JUMPI DUP1 PUSH4 0x715018A6 EQ PUSH2 0xA87 JUMPI DUP1 PUSH4 0x8DA5CB5B EQ PUSH2 0xA5E JUMPI DUP1 PUSH4 0x91E078BB EQ PUSH2 0x930 JUMPI DUP1 PUSH4 0x94383F14 EQ PUSH2 0x864 JUMPI DUP1 PUSH4 0x95D89B41 EQ PUSH2 0x785 JUMPI DUP1 PUSH4 0x9979EF45 EQ PUSH2 0x645 JUMPI DUP1 PUSH4 0xA22CB465 EQ PUSH2 0x597 JUMPI DUP1 PUSH4 0xADA4EF30 EQ PUSH2 0x511 JUMPI DUP1 PUSH4 0xB88D4FDE EQ PUSH2 0x4AF JUMPI DUP1 PUSH4 0xB9A2DE3A EQ PUSH2 0x2A7 JUMPI DUP1 PUSH4 0xC87B56DD EQ PUSH2 0x24A JUMPI DUP1 PUSH4 0xE985E9C5 EQ PUSH2 0x1F4 JUMPI DUP1 PUSH4 0xF2FDE38B EQ PUSH2 0x16B JUMPI PUSH4 0xFA2AF9DA EQ PUSH2 0x13D JUMPI PUSH1 0x0 DUP1 REVERT JUMPDEST CALLVALUE PUSH2 0x166 JUMPI PUSH1 0x0 CALLDATASIZE PUSH1 0x3 NOT ADD SLT PUSH2 0x166 JUMPI PUSH1 0xB SLOAD PUSH1 0x40 MLOAD PUSH1 0x1 PUSH1 0x1 PUSH1 0xA0 SHL SUB SWAP1 SWAP2 AND DUP2 MSTORE PUSH1 0x20 SWAP1 RETURN JUMPDEST PUSH1 0x0 DUP1 REVERT JUMPDEST CALLVALUE PUSH2 0x166 JUMPI PUSH1 0x20 CALLDATASIZE PUSH1 0x3 NOT ADD SLT PUSH2 0x166 JUMPI PUSH2 0x184 PUSH2 0x18EC JUMP JUMPDEST PUSH2 0x18C PUSH2 0x1B06 JUMP JUMPDEST PUSH1 0x1 PUSH1 0x1 PUSH1 0xA0 SHL SUB SWAP1 DUP2 AND SWAP1 DUP2 ISZERO PUSH2 0x1DB JUMPI PUSH1 0x7 SLOAD DUP3 PUSH1 0x1 PUSH1 0x1 PUSH1 0x60 SHL SUB PUSH1 0xA0 SHL DUP3 AND OR PUSH1 0x7 SSTORE AND PUSH32 0x8BE0079C531659141344CD1FD0A4F28419497F9722A3DAAFE3B4186F6B6457E0 PUSH1 0x0 DUP1 LOG3 STOP JUMPDEST PUSH1 0x40 MLOAD PUSH4 0x1E4FBDF7 PUSH1 0xE0 SHL DUP2 MSTORE PUSH1 0x0 PUSH1 0x4 DUP3 ADD MSTORE PUSH1 0x24 SWAP1 REVERT JUMPDEST CALLVALUE PUSH2 0x166 JUMPI PUSH1 0x40 CALLDATASIZE PUSH1 0x3 NOT ADD SLT PUSH2 0x166 JUMPI PUSH2 0x20D PUSH2 0x18EC JUMP JUMPDEST PUSH2 0x215 PUSH2 0x1902 JUMP JUMPDEST SWAP1 PUSH1 0x1 DUP1 PUSH1 0xA0 SHL SUB DUP1 SWAP2 AND PUSH1 0x0 MSTORE PUSH1 0x5 PUSH1 0x20 MSTORE PUSH1 0x40 PUSH1 0x0 KECCAK256 SWAP2 AND PUSH1 0x0 MSTORE PUSH1 0x20 MSTORE PUSH1 0x20 PUSH1 0xFF PUSH1 0x40 PUSH1 0x0 KECCAK256 SLOAD AND PUSH1 0x40 MLOAD SWAP1 ISZERO ISZERO DUP2 MSTORE RETURN JUMPDEST CALLVALUE PUSH2 0x166 JUMPI PUSH1 0x20 CALLDATASIZE PUSH1 0x3 NOT ADD SLT PUSH2 0x166 JUMPI PUSH1 0x4 CALLDATALOAD PUSH2 0x267 DUP2 PUSH2 0x1ED3 JUMP JUMPDEST POP PUSH1 0x0 MSTORE PUSH1 0x6 PUSH1 0x20 MSTORE PUSH2 0x2A3 PUSH2 0x280 PUSH1 0x40 PUSH1 0x0 KECCAK256 PUSH2 0x19E2 JUMP JUMPDEST PUSH1 0x0 PUSH1 0x40 MLOAD PUSH2 0x28E DUP2 PUSH2 0x19A4 JUMP JUMPDEST MSTORE PUSH1 0x40 MLOAD SWAP2 DUP3 SWAP2 PUSH1 0x20 DUP4 MSTORE PUSH1 0x20 DUP4 ADD SWAP1 PUSH2 0x18AC JUMP JUMPDEST SUB SWAP1 RETURN JUMPDEST CALLVALUE PUSH2 0x166 JUMPI PUSH1 0x20 CALLDATASIZE PUSH1 0x3 NOT ADD SLT PUSH2 0x166 JUMPI PUSH1 0x4 CALLDATALOAD PUSH2 0x2C3 PUSH2 0x1FF3 JUMP JUMPDEST DUP1 PUSH1 0x0 MSTORE PUSH1 0xA PUSH1 0x20 MSTORE PUSH1 0x40 PUSH1 0x0 KECCAK256 SWAP1 PUSH1 0x6 DUP3 ADD PUSH2 0x2E3 PUSH1 0xFF DUP3 SLOAD AND PUSH2 0x2016 JUMP JUMPDEST PUSH1 0x8 DUP4 ADD SWAP3 DUP4 SLOAD TIMESTAMP LT PUSH2 0x476 JUMPI PUSH1 0x9 DUP2 ADD DUP1 SLOAD PUSH1 0x1 PUSH1 0x1 PUSH1 0xA0 SHL SUB SWAP4 SWAP2 SWAP3 SWAP2 SWAP1 DUP5 AND SWAP1 DUP2 ISZERO PUSH2 0x440 JUMPI DUP6 SWAP3 PUSH2 0x317 DUP5 PUSH2 0x1ED3 JUMP JUMPDEST SWAP3 PUSH1 0xA DUP3 ADD DUP1 SLOAD SWAP10 DUP11 SWAP5 PUSH2 0x2710 SWAP4 DUP5 PUSH1 0x3 DUP8 ADD SLOAD PUSH2 0x335 SWAP1 DUP10 PUSH2 0x1F58 JUMP JUMPDEST DIV DUP1 SWAP6 PUSH1 0x2 DUP9 ADD SLOAD PUSH2 0x347 SWAP1 DUP11 PUSH2 0x1F58 JUMP JUMPDEST DIV SWAP8 DUP9 SWAP2 PUSH2 0x354 SWAP2 PUSH2 0x1F6B JUMP JUMPDEST SWAP1 PUSH2 0x35E SWAP2 PUSH2 0x1F6B JUMP JUMPDEST SWAP9 PUSH2 0x369 SWAP2 DUP10 PUSH2 0x1F78 JUMP JUMPDEST PUSH1 0xFF NOT DUP2 SLOAD AND SWAP1 SSTORE PUSH1 0x7 DUP5 ADD PUSH1 0x0 SWAP1 SSTORE PUSH1 0x0 SWAP1 SSTORE PUSH1 0x0 SWAP1 SSTORE PUSH1 0x1 PUSH1 0x1 PUSH1 0x60 SHL SUB PUSH1 0xA0 SHL DUP7 SLOAD AND DUP7 SSTORE DUP7 PUSH1 0xB SLOAD AND PUSH1 0x0 DUP3 ISZERO PUSH1 0x0 SWAP4 DUP5 SWAP4 DUP5 SWAP4 DUP5 SWAP4 PUSH2 0x437 JUMPI JUMPDEST CALL ISZERO PUSH2 0x418 JUMPI PUSH1 0x0 DUP1 DUP1 SWAP4 DUP9 DUP3 SWAP5 SLOAD PUSH1 0x8 SHR AND DUP3 DUP3 ISZERO PUSH2 0x42E JUMPI JUMPDEST CALL ISZERO PUSH2 0x418 JUMPI PUSH1 0x0 DUP1 DUP1 SWAP4 DUP2 SWAP4 DUP8 DUP4 SWAP2 DUP4 ISZERO PUSH2 0x424 JUMPI JUMPDEST AND SWAP1 CALL ISZERO PUSH2 0x418 JUMPI PUSH32 0xD2AA34A4FDBBC6DFF6A3E56F46E0F3AE2A31D7785FF3487AA5C95C642ACEA501 SWAP2 PUSH1 0x20 SWAP2 SLOAD AND SWAP4 PUSH1 0x40 MLOAD SWAP1 DUP2 MSTORE LOG3 PUSH1 0x1 PUSH1 0x8 SSTORE STOP JUMPDEST PUSH1 0x40 MLOAD RETURNDATASIZE PUSH1 0x0 DUP3 RETURNDATACOPY RETURNDATASIZE SWAP1 REVERT JUMPDEST PUSH2 0x8FC SWAP3 POP PUSH2 0x3DA JUMP JUMPDEST POP PUSH2 0x8FC PUSH2 0x3C3 JUMP JUMPDEST POP PUSH2 0x8FC PUSH2 0x3A8 JUMP JUMPDEST PUSH1 0x40 MLOAD PUSH3 0x461BCD PUSH1 0xE5 SHL DUP2 MSTORE PUSH1 0x20 PUSH1 0x4 DUP3 ADD MSTORE PUSH1 0xE PUSH1 0x24 DUP3 ADD MSTORE PUSH14 0x139BC8189A591CC81C1B1858D959 PUSH1 0x92 SHL PUSH1 0x44 DUP3 ADD MSTORE PUSH1 0x64 SWAP1 REVERT JUMPDEST PUSH1 0x40 MLOAD PUSH3 0x461BCD PUSH1 0xE5 SHL DUP2 MSTORE PUSH1 0x20 PUSH1 0x4 DUP3 ADD MSTORE PUSH1 0x11 PUSH1 0x24 DUP3 ADD MSTORE PUSH17 0x105D58DD1A5BDB881B9BDD08195B991959 PUSH1 0x7A SHL PUSH1 0x44 DUP3 ADD MSTORE PUSH1 0x64 SWAP1 REVERT JUMPDEST CALLVALUE PUSH2 0x166 JUMPI PUSH1 0x80 CALLDATASIZE PUSH1 0x3 NOT ADD SLT PUSH2 0x166 JUMPI PUSH2 0x4C8 PUSH2 0x18EC JUMP JUMPDEST PUSH2 0x4D0 PUSH2 0x1902 JUMP JUMPDEST PUSH1 0x64 CALLDATALOAD SWAP2 PUSH8 0xFFFFFFFFFFFFFFFF DUP4 GT PUSH2 0x166 JUMPI CALLDATASIZE PUSH1 0x23 DUP5 ADD SLT ISZERO PUSH2 0x166 JUMPI PUSH2 0x505 PUSH2 0x50F SWAP4 CALLDATASIZE SWAP1 PUSH1 0x24 DUP2 PUSH1 0x4 ADD CALLDATALOAD SWAP2 ADD PUSH2 0x1AB1 JUMP JUMPDEST SWAP2 PUSH1 0x44 CALLDATALOAD SWAP2 PUSH2 0x1CC2 JUMP JUMPDEST STOP JUMPDEST CALLVALUE PUSH2 0x166 JUMPI PUSH1 0x20 CALLDATASIZE PUSH1 0x3 NOT ADD SLT PUSH2 0x166 JUMPI PUSH2 0x52A PUSH2 0x18EC JUMP JUMPDEST PUSH2 0x532 PUSH2 0x1B06 JUMP JUMPDEST PUSH1 0x1 PUSH1 0x1 PUSH1 0xA0 SHL SUB AND DUP1 ISZERO PUSH2 0x559 JUMPI PUSH1 0x1 PUSH1 0x1 PUSH1 0x60 SHL SUB PUSH1 0xA0 SHL PUSH1 0xB SLOAD AND OR PUSH1 0xB SSTORE PUSH1 0x0 DUP1 RETURN JUMPDEST PUSH1 0x40 MLOAD PUSH3 0x461BCD PUSH1 0xE5 SHL DUP2 MSTORE PUSH1 0x20 PUSH1 0x4 DUP3 ADD MSTORE PUSH1 0x16 PUSH1 0x24 DUP3 ADD MSTORE PUSH22 0x496E76616C69642077616C6C65742061646472657373 PUSH1 0x50 SHL PUSH1 0x44 DUP3 ADD MSTORE PUSH1 0x64 SWAP1 REVERT JUMPDEST CALLVALUE PUSH2 0x166 JUMPI PUSH1 0x40 CALLDATASIZE PUSH1 0x3 NOT ADD SLT PUSH2 0x166 JUMPI PUSH2 0x5B0 PUSH2 0x18EC JUMP JUMPDEST PUSH1 0x24 CALLDATALOAD SWAP1 DUP2 ISZERO ISZERO SWAP1 DUP2 DUP4 SUB PUSH2 0x166 JUMPI PUSH1 0x1 PUSH1 0x1 PUSH1 0xA0 SHL SUB AND SWAP2 DUP3 ISZERO PUSH2 0x62C JUMPI PUSH2 0x5FE SWAP1 CALLER PUSH1 0x0 MSTORE PUSH1 0x5 PUSH1 0x20 MSTORE PUSH1 0x40 PUSH1 0x0 KECCAK256 DUP5 PUSH1 0x0 MSTORE PUSH1 0x20 MSTORE PUSH1 0x40 PUSH1 0x0 KECCAK256 SWAP1 PUSH1 0xFF DUP1 NOT DUP4 SLOAD AND SWAP2 ISZERO ISZERO AND OR SWAP1 SSTORE JUMP JUMPDEST PUSH1 0x40 MLOAD SWAP1 DUP2 MSTORE PUSH32 0x17307EAB39AB6107E8899845AD3D59BD9653F200F220920489CA2B5937696C31 PUSH1 0x20 CALLER SWAP3 LOG3 STOP JUMPDEST PUSH1 0x40 MLOAD PUSH4 0xB611743 PUSH1 0xE3 SHL DUP2 MSTORE PUSH1 0x4 DUP2 ADD DUP5 SWAP1 MSTORE PUSH1 0x24 SWAP1 REVERT JUMPDEST PUSH1 0x20 CALLDATASIZE PUSH1 0x3 NOT ADD SLT PUSH2 0x166 JUMPI PUSH1 0x4 CALLDATALOAD PUSH2 0x65C PUSH2 0x1FF3 JUMP JUMPDEST DUP1 PUSH1 0x0 MSTORE PUSH1 0xA PUSH1 0x20 MSTORE PUSH1 0x40 PUSH1 0x0 KECCAK256 PUSH2 0x67A PUSH1 0xFF PUSH1 0x6 DUP4 ADD SLOAD AND PUSH2 0x2016 JUMP JUMPDEST PUSH1 0x8 DUP2 ADD SLOAD TIMESTAMP LT ISZERO PUSH2 0x750 JUMPI PUSH1 0xA DUP2 ADD SWAP1 DUP2 SLOAD SWAP1 DUP2 CALLVALUE GT ISZERO PUSH2 0x71D JUMPI PUSH1 0x9 ADD DUP1 SLOAD SWAP1 SWAP2 SWAP1 PUSH1 0x1 PUSH1 0x1 PUSH1 0xA0 SHL SUB AND DUP1 PUSH2 0x6F8 JUMPI JUMPDEST POP POP CALLER PUSH1 0x1 PUSH1 0x1 PUSH1 0x60 SHL SUB PUSH1 0xA0 SHL DUP3 SLOAD AND OR SWAP1 SSTORE CALLVALUE SWAP1 SSTORE PUSH1 0x40 MLOAD SWAP1 CALLVALUE DUP3 MSTORE PUSH32 0xE54EFF26401BF69B81B26F60BD85EF47F5D85275C1D268D84F68D6897431C47 PUSH1 0x20 CALLER SWAP4 LOG3 PUSH1 0x1 PUSH1 0x8 SSTORE STOP JUMPDEST PUSH1 0x0 DUP1 DUP1 SWAP4 DUP2 SWAP4 DUP3 DUP3 ISZERO PUSH2 0x714 JUMPI JUMPDEST CALL ISZERO PUSH2 0x418 JUMPI DUP4 DUP1 PUSH2 0x6AD JUMP JUMPDEST POP PUSH2 0x8FC PUSH2 0x707 JUMP JUMPDEST PUSH1 0x40 MLOAD PUSH3 0x461BCD PUSH1 0xE5 SHL DUP2 MSTORE PUSH1 0x20 PUSH1 0x4 DUP3 ADD MSTORE PUSH1 0xB PUSH1 0x24 DUP3 ADD MSTORE PUSH11 0x42696420746F6F206C6F77 PUSH1 0xA8 SHL PUSH1 0x44 DUP3 ADD MSTORE PUSH1 0x64 SWAP1 REVERT JUMPDEST PUSH1 0x40 MLOAD PUSH3 0x461BCD PUSH1 0xE5 SHL DUP2 MSTORE PUSH1 0x20 PUSH1 0x4 DUP3 ADD MSTORE PUSH1 0xD PUSH1 0x24 DUP3 ADD MSTORE PUSH13 0x105D58DD1A5BDB88195B991959 PUSH1 0x9A SHL PUSH1 0x44 DUP3 ADD MSTORE PUSH1 0x64 SWAP1 REVERT JUMPDEST CALLVALUE PUSH2 0x166 JUMPI PUSH1 0x0 CALLDATASIZE PUSH1 0x3 NOT ADD SLT PUSH2 0x166 JUMPI PUSH1 0x40 MLOAD PUSH1 0x0 PUSH1 0x1 DUP1 SLOAD SWAP1 PUSH2 0x7A9 DUP3 PUSH2 0x194D JUMP JUMPDEST DUP1 DUP6 MSTORE SWAP2 DUP2 DUP2 AND SWAP1 DUP2 ISZERO PUSH2 0x83D JUMPI POP PUSH1 0x1 EQ PUSH2 0x7E4 JUMPI JUMPDEST PUSH2 0x2A3 DUP5 PUSH2 0x7D0 DUP2 DUP7 SUB DUP3 PUSH2 0x19C0 JUMP JUMPDEST PUSH1 0x40 MLOAD SWAP2 DUP3 SWAP2 PUSH1 0x20 DUP4 MSTORE PUSH1 0x20 DUP4 ADD SWAP1 PUSH2 0x18AC JUMP JUMPDEST PUSH1 0x0 DUP2 DUP2 MSTORE SWAP3 POP PUSH32 0xB10E2D527612073B26EECDFD717E6A320CF44B4AFAC2B0732D9FCBE2B7FA0CF6 JUMPDEST DUP3 DUP5 LT PUSH2 0x825 JUMPI POP POP POP DUP2 ADD PUSH1 0x20 ADD PUSH2 0x7D0 DUP3 PUSH2 0x7C0 JUMP JUMPDEST DUP1 SLOAD PUSH1 0x20 DUP6 DUP8 ADD DUP2 ADD SWAP2 SWAP1 SWAP2 MSTORE SWAP1 SWAP4 ADD SWAP3 DUP2 ADD PUSH2 0x80D JUMP JUMPDEST PUSH1 0xFF NOT AND PUSH1 0x20 DUP1 DUP8 ADD SWAP2 SWAP1 SWAP2 MSTORE SWAP3 ISZERO ISZERO PUSH1 0x5 SHL DUP6 ADD SWAP1 SWAP3 ADD SWAP3 POP PUSH2 0x7D0 SWAP2 POP DUP4 SWAP1 POP PUSH2 0x7C0 JUMP JUMPDEST CALLVALUE PUSH2 0x166 JUMPI PUSH1 0x40 CALLDATASIZE PUSH1 0x3 NOT ADD SLT PUSH2 0x166 JUMPI PUSH1 0x4 CALLDATALOAD PUSH1 0x24 CALLDATALOAD PUSH2 0x897 PUSH2 0x887 DUP4 PUSH2 0x1ED3 JUMP JUMPDEST PUSH1 0x1 PUSH1 0x1 PUSH1 0xA0 SHL SUB AND CALLER EQ PUSH2 0x1F1A JUMP JUMPDEST DUP1 ISZERO PUSH2 0x8EB JUMPI PUSH1 0x20 PUSH32 0xA6CD73580A273EEC6C1026108F6B63479FBAEF5356DDE4FF43E4B38DD187485F SWAP2 DUP4 PUSH1 0x0 MSTORE PUSH1 0xA DUP3 MSTORE DUP1 PUSH1 0x7 PUSH1 0x40 PUSH1 0x0 KECCAK256 PUSH1 0x6 DUP2 ADD PUSH1 0x1 PUSH1 0xFF NOT DUP3 SLOAD AND OR SWAP1 SSTORE ADD SSTORE PUSH1 0x40 MLOAD SWAP1 DUP2 MSTORE LOG2 STOP JUMPDEST PUSH1 0x40 MLOAD PUSH3 0x461BCD PUSH1 0xE5 SHL DUP2 MSTORE PUSH1 0x20 PUSH1 0x4 DUP3 ADD MSTORE PUSH1 0x1C PUSH1 0x24 DUP3 ADD MSTORE PUSH32 0x5072696365206D7573742062652067726561746572207468616E203000000000 PUSH1 0x44 DUP3 ADD MSTORE PUSH1 0x64 SWAP1 REVERT JUMPDEST CALLVALUE PUSH2 0x166 JUMPI PUSH1 0x60 CALLDATASIZE PUSH1 0x3 NOT ADD SLT PUSH2 0x166 JUMPI PUSH1 0x24 CALLDATALOAD PUSH1 0x44 CALLDATALOAD PUSH1 0x4 CALLDATALOAD PUSH2 0x956 PUSH2 0x887 DUP3 PUSH2 0x1ED3 JUMP JUMPDEST DUP3 ISZERO PUSH2 0xA0B JUMPI DUP2 ISZERO PUSH2 0x9C6 JUMPI PUSH1 0x0 MSTORE PUSH1 0xA PUSH1 0x20 MSTORE PUSH1 0x40 PUSH1 0x0 KECCAK256 SWAP2 PUSH1 0x6 DUP4 ADD PUSH1 0x1 PUSH1 0xFF NOT DUP3 SLOAD AND OR SWAP1 SSTORE PUSH1 0x7 DUP4 ADD SSTORE TIMESTAMP ADD SWAP1 DUP2 TIMESTAMP GT PUSH2 0x9B0 JUMPI PUSH1 0x8 DUP2 ADD SWAP2 SWAP1 SWAP2 SSTORE PUSH1 0x0 PUSH1 0xA DUP3 ADD SSTORE PUSH1 0x9 ADD DUP1 SLOAD PUSH1 0x1 PUSH1 0x1 PUSH1 0xA0 SHL SUB NOT AND SWAP1 SSTORE STOP JUMPDEST PUSH4 0x4E487B71 PUSH1 0xE0 SHL PUSH1 0x0 MSTORE PUSH1 0x11 PUSH1 0x4 MSTORE PUSH1 0x24 PUSH1 0x0 REVERT JUMPDEST PUSH1 0x40 MLOAD PUSH3 0x461BCD PUSH1 0xE5 SHL DUP2 MSTORE PUSH1 0x20 PUSH1 0x4 DUP3 ADD MSTORE PUSH1 0x1F PUSH1 0x24 DUP3 ADD MSTORE PUSH32 0x4475726174696F6E206D7573742062652067726561746572207468616E203000 PUSH1 0x44 DUP3 ADD MSTORE PUSH1 0x64 SWAP1 REVERT JUMPDEST PUSH1 0x40 MLOAD PUSH3 0x461BCD PUSH1 0xE5 SHL DUP2 MSTORE PUSH1 0x20 PUSH1 0x4 DUP3 ADD MSTORE PUSH1 0x25 PUSH1 0x24 DUP3 ADD MSTORE PUSH32 0x5374617274696E67207072696365206D75737420626520677265617465722074 PUSH1 0x44 DUP3 ADD MSTORE PUSH5 0x68616E203 PUSH1 0xDC SHL PUSH1 0x64 DUP3 ADD MSTORE PUSH1 0x84 SWAP1 REVERT JUMPDEST CALLVALUE PUSH2 0x166 JUMPI PUSH1 0x0 CALLDATASIZE PUSH1 0x3 NOT ADD SLT PUSH2 0x166 JUMPI PUSH1 0x7 SLOAD PUSH1 0x40 MLOAD PUSH1 0x1 PUSH1 0x1 PUSH1 0xA0 SHL SUB SWAP1 SWAP2 AND DUP2 MSTORE PUSH1 0x20 SWAP1 RETURN JUMPDEST CALLVALUE PUSH2 0x166 JUMPI PUSH1 0x0 CALLDATASIZE PUSH1 0x3 NOT ADD SLT PUSH2 0x166 JUMPI PUSH2 0xAA0 PUSH2 0x1B06 JUMP JUMPDEST PUSH1 0x7 DUP1 SLOAD PUSH1 0x1 PUSH1 0x1 PUSH1 0xA0 SHL SUB NOT DUP2 AND SWAP1 SWAP2 SSTORE PUSH1 0x0 SWAP1 PUSH1 0x1 PUSH1 0x1 PUSH1 0xA0 SHL SUB AND PUSH32 0x8BE0079C531659141344CD1FD0A4F28419497F9722A3DAAFE3B4186F6B6457E0 DUP3 DUP1 LOG3 STOP JUMPDEST CALLVALUE PUSH2 0x166 JUMPI PUSH1 0x20 CALLDATASIZE PUSH1 0x3 NOT ADD SLT PUSH2 0x166 JUMPI PUSH1 0x1 PUSH1 0x1 PUSH1 0xA0 SHL SUB PUSH2 0xB05 PUSH2 0x18EC JUMP JUMPDEST AND DUP1 ISZERO PUSH2 0xB24 JUMPI PUSH1 0x0 MSTORE PUSH1 0x3 PUSH1 0x20 MSTORE PUSH1 0x20 PUSH1 0x40 PUSH1 0x0 KECCAK256 SLOAD PUSH1 0x40 MLOAD SWAP1 DUP2 MSTORE RETURN JUMPDEST PUSH1 0x40 MLOAD PUSH4 0x22718AD9 PUSH1 0xE2 SHL DUP2 MSTORE PUSH1 0x0 PUSH1 0x4 DUP3 ADD MSTORE PUSH1 0x24 SWAP1 REVERT JUMPDEST CALLVALUE PUSH2 0x166 JUMPI PUSH1 0xE0 CALLDATASIZE PUSH1 0x3 NOT ADD SLT PUSH2 0x166 JUMPI PUSH2 0xB56 PUSH2 0x18EC JUMP JUMPDEST PUSH1 0x24 CALLDATALOAD PUSH8 0xFFFFFFFFFFFFFFFF DUP2 GT PUSH2 0x166 JUMPI PUSH2 0xB76 SWAP1 CALLDATASIZE SWAP1 PUSH1 0x4 ADD PUSH2 0x1AE8 JUMP JUMPDEST SWAP1 PUSH1 0x5 PUSH1 0x44 CALLDATALOAD LT ISZERO PUSH2 0x166 JUMPI PUSH1 0xA4 CALLDATALOAD PUSH8 0xFFFFFFFFFFFFFFFF DUP2 GT PUSH2 0x166 JUMPI PUSH2 0xBA2 SWAP1 CALLDATASIZE SWAP1 PUSH1 0x4 ADD PUSH2 0x1AE8 JUMP JUMPDEST SWAP2 PUSH2 0x2710 DUP1 PUSH1 0x64 CALLDATALOAD GT PUSH2 0x10BA JUMPI PUSH1 0x84 CALLDATALOAD GT PUSH2 0x107D JUMPI PUSH1 0x9 SLOAD SWAP2 PUSH1 0x0 NOT DUP4 EQ PUSH2 0x9B0 JUMPI PUSH1 0x1 DUP4 ADD PUSH1 0x9 SSTORE PUSH1 0x1 PUSH1 0x1 PUSH1 0xA0 SHL SUB DUP2 AND ISZERO PUSH2 0x1064 JUMPI PUSH1 0x1 PUSH1 0x1 PUSH1 0xA0 SHL SUB SWAP1 PUSH2 0xBF1 SWAP1 PUSH1 0x1 DUP6 ADD SWAP1 PUSH2 0x1E17 JUMP JUMPDEST AND PUSH2 0x104B JUMPI PUSH1 0x1 DUP3 ADD PUSH1 0x0 MSTORE PUSH1 0x6 PUSH1 0x20 MSTORE PUSH1 0x40 PUSH1 0x0 KECCAK256 DUP2 MLOAD PUSH8 0xFFFFFFFFFFFFFFFF DUP2 GT PUSH2 0xF69 JUMPI PUSH2 0xC22 DUP3 SLOAD PUSH2 0x194D JUMP JUMPDEST PUSH1 0x1F DUP2 GT PUSH2 0x1007 JUMPI JUMPDEST POP DUP1 PUSH1 0x20 PUSH1 0x1F DUP3 GT PUSH1 0x1 EQ PUSH2 0xFA0 JUMPI PUSH1 0x0 SWAP2 PUSH2 0xF95 JUMPI JUMPDEST POP DUP2 PUSH1 0x1 SHL SWAP2 PUSH1 0x0 NOT SWAP1 PUSH1 0x3 SHL SHR NOT AND OR SWAP1 SSTORE JUMPDEST PUSH32 0xF8E1A15ABA9398E019F0B49DF1A4FDE98EE17AE345CB5F6B5E2C27F5033E8CE7 PUSH1 0x20 PUSH1 0x40 MLOAD PUSH1 0x1 DUP6 ADD DUP2 MSTORE LOG1 PUSH1 0xB SLOAD PUSH1 0x40 MLOAD SWAP4 SWAP1 PUSH1 0x1 PUSH1 0x1 PUSH1 0xA0 SHL SUB AND PUSH2 0xC9D DUP6 PUSH2 0x1987 JUMP JUMPDEST PUSH2 0xCA9 PUSH1 0x44 CALLDATALOAD DUP7 PUSH2 0x1F0E JUMP JUMPDEST CALLER PUSH1 0x20 DUP7 ADD MSTORE PUSH1 0x40 DUP6 ADD MSTORE PUSH1 0x64 CALLDATALOAD PUSH1 0x60 DUP6 ADD MSTORE PUSH1 0x84 CALLDATALOAD PUSH1 0x80 DUP6 ADD MSTORE PUSH1 0xA0 DUP5 ADD MSTORE PUSH1 0xC4 CALLDATALOAD PUSH1 0xC0 DUP5 ADD MSTORE PUSH1 0x0 PUSH1 0xE0 DUP5 ADD MSTORE PUSH1 0x0 PUSH2 0x100 DUP5 ADD MSTORE PUSH1 0x0 PUSH2 0x120 DUP5 ADD MSTORE PUSH1 0x0 PUSH2 0x140 DUP5 ADD MSTORE PUSH1 0x0 PUSH2 0x160 DUP5 ADD MSTORE PUSH1 0x1 DUP3 ADD PUSH1 0x0 MSTORE PUSH1 0xA PUSH1 0x20 MSTORE PUSH1 0x40 PUSH1 0x0 KECCAK256 DUP4 MLOAD PUSH1 0x5 DUP2 LT ISZERO PUSH2 0xF7F JUMPI DUP2 SLOAD PUSH1 0xFF PUSH2 0x100 PUSH1 0x1 PUSH1 0xA8 SHL SUB PUSH1 0x20 DUP9 ADD MLOAD PUSH1 0x8 SHL AND SWAP3 AND SWAP1 PUSH11 0xFFFFFFFFFFFFFFFFFFFFFF PUSH1 0xA8 SHL AND OR OR DUP2 SSTORE PUSH1 0x1 DUP1 PUSH1 0xA0 SHL SUB PUSH1 0x40 DUP6 ADD MLOAD AND PUSH1 0x1 PUSH1 0x1 PUSH1 0x60 SHL SUB PUSH1 0xA0 SHL PUSH1 0x1 DUP4 ADD SLOAD AND OR PUSH1 0x1 DUP3 ADD SSTORE PUSH1 0x60 DUP5 ADD MLOAD PUSH1 0x2 DUP3 ADD SSTORE PUSH1 0x80 DUP5 ADD MLOAD PUSH1 0x3 DUP3 ADD SSTORE PUSH1 0xA0 DUP5 ADD MLOAD SWAP4 DUP5 MLOAD PUSH8 0xFFFFFFFFFFFFFFFF DUP2 GT PUSH2 0xF69 JUMPI PUSH2 0xD9D PUSH1 0x4 DUP5 ADD SLOAD PUSH2 0x194D JUMP JUMPDEST SWAP6 PUSH1 0x1F DUP8 GT PUSH2 0xF22 JUMPI JUMPDEST PUSH1 0x20 SWAP7 POP DUP7 SWAP1 PUSH1 0x1F DUP4 GT PUSH1 0x1 EQ PUSH2 0xEAE JUMPI SWAP2 DUP1 PUSH1 0xA SWAP5 SWAP3 PUSH2 0x160 SWAP5 PUSH1 0x0 SWAP3 PUSH2 0xEA3 JUMPI JUMPDEST POP POP DUP2 PUSH1 0x1 SHL SWAP2 PUSH1 0x0 NOT SWAP1 PUSH1 0x3 SHL SHR NOT AND OR PUSH1 0x4 DUP6 ADD SSTORE JUMPDEST PUSH1 0xC0 DUP2 ADD MLOAD PUSH1 0x5 DUP6 ADD SSTORE PUSH2 0xE0B PUSH1 0xE0 DUP3 ADD MLOAD ISZERO ISZERO PUSH1 0x6 DUP7 ADD SWAP1 PUSH1 0xFF DUP1 NOT DUP4 SLOAD AND SWAP2 ISZERO ISZERO AND OR SWAP1 SSTORE JUMP JUMPDEST PUSH2 0x100 DUP2 ADD MLOAD PUSH1 0x7 DUP6 ADD SSTORE PUSH2 0x120 DUP2 ADD MLOAD PUSH1 0x8 DUP6 ADD SSTORE PUSH1 0x9 DUP5 ADD PUSH1 0x1 DUP1 PUSH1 0xA0 SHL SUB PUSH2 0x140 DUP4 ADD MLOAD AND PUSH1 0x1 PUSH1 0x1 PUSH1 0x60 SHL SUB PUSH1 0xA0 SHL DUP3 SLOAD AND OR SWAP1 SSTORE ADD MLOAD SWAP2 ADD SSTORE PUSH1 0x40 MLOAD SWAP1 PUSH2 0xE59 DUP3 PUSH1 0x44 CALLDATALOAD PUSH2 0x1A88 JUMP JUMPDEST PUSH1 0x40 DUP5 DUP4 ADD MSTORE PUSH32 0xB7B37E2492D607BAE7599A39D53C1892B28FB0C4ECBC83938CC737C001CF7494 CALLER SWAP3 DUP1 PUSH2 0xE95 PUSH1 0x1 DUP8 ADD SWAP5 PUSH1 0x40 DUP4 ADD SWAP1 PUSH2 0x18AC JUMP JUMPDEST SUB SWAP1 LOG3 PUSH1 0x1 PUSH1 0x40 MLOAD SWAP2 ADD DUP2 MSTORE RETURN JUMPDEST ADD MLOAD SWAP1 POP DUP10 DUP1 PUSH2 0xDCA JUMP JUMPDEST SWAP1 PUSH1 0x4 DUP6 ADD PUSH1 0x0 MSTORE DUP8 PUSH1 0x0 KECCAK256 SWAP2 PUSH1 0x0 JUMPDEST PUSH1 0x1F NOT DUP6 AND DUP2 LT PUSH2 0xF0B JUMPI POP SWAP3 PUSH1 0xA SWAP5 SWAP3 PUSH1 0x1 SWAP3 PUSH2 0x160 SWAP6 DUP4 PUSH1 0x1F NOT DUP2 AND LT PUSH2 0xEF2 JUMPI JUMPDEST POP POP POP DUP2 SHL ADD PUSH1 0x4 DUP6 ADD SSTORE PUSH2 0xDE2 JUMP JUMPDEST ADD MLOAD PUSH1 0x0 NOT PUSH1 0xF8 DUP5 PUSH1 0x3 SHL AND SHR NOT AND SWAP1 SSTORE DUP10 DUP1 DUP1 PUSH2 0xEE2 JUMP JUMPDEST SWAP2 SWAP3 DUP10 PUSH1 0x1 DUP2 SWAP3 DUP7 DUP6 ADD MLOAD DUP2 SSTORE ADD SWAP5 ADD SWAP3 ADD PUSH2 0xEBE JUMP JUMPDEST PUSH1 0x4 DUP5 ADD PUSH1 0x0 MSTORE PUSH1 0x20 PUSH1 0x0 KECCAK256 PUSH1 0x1F DUP4 ADD PUSH1 0x5 SHR DUP2 ADD PUSH1 0x20 DUP5 LT PUSH2 0xF62 JUMPI JUMPDEST PUSH1 0x1F DUP10 ADD PUSH1 0x5 SHR DUP3 ADD DUP2 LT PUSH2 0xF56 JUMPI POP POP PUSH2 0xDA7 JUMP JUMPDEST PUSH1 0x0 DUP2 SSTORE PUSH1 0x1 ADD PUSH2 0xF40 JUMP JUMPDEST POP DUP1 PUSH2 0xF40 JUMP JUMPDEST PUSH4 0x4E487B71 PUSH1 0xE0 SHL PUSH1 0x0 MSTORE PUSH1 0x41 PUSH1 0x4 MSTORE PUSH1 0x24 PUSH1 0x0 REVERT JUMPDEST PUSH4 0x4E487B71 PUSH1 0xE0 SHL PUSH1 0x0 MSTORE PUSH1 0x21 PUSH1 0x4 MSTORE PUSH1 0x24 PUSH1 0x0 REVERT JUMPDEST SWAP1 POP DUP4 ADD MLOAD DUP7 PUSH2 0xC42 JUMP JUMPDEST SWAP2 POP DUP3 PUSH1 0x0 MSTORE PUSH1 0x20 PUSH1 0x0 KECCAK256 PUSH1 0x0 SWAP3 JUMPDEST PUSH1 0x1F NOT DUP4 AND DUP5 LT PUSH2 0xFEF JUMPI PUSH1 0x1 SWAP4 POP DUP3 PUSH1 0x1F NOT DUP2 AND LT PUSH2 0xFD6 JUMPI JUMPDEST POP POP DUP2 SHL ADD SWAP1 SSTORE PUSH2 0xC56 JUMP JUMPDEST DUP6 ADD MLOAD PUSH1 0x0 NOT PUSH1 0xF8 DUP5 PUSH1 0x3 SHL AND SHR NOT AND SWAP1 SSTORE DUP7 DUP1 PUSH2 0xFCA JUMP JUMPDEST DUP6 DUP2 ADD MLOAD DUP3 SSTORE PUSH1 0x20 SWAP4 DUP5 ADD SWAP4 PUSH1 0x1 SWAP1 SWAP3 ADD SWAP2 ADD PUSH2 0xFAF JUMP JUMPDEST DUP3 PUSH1 0x0 MSTORE PUSH1 0x20 PUSH1 0x0 KECCAK256 PUSH1 0x1F DUP4 ADD PUSH1 0x5 SHR DUP2 ADD PUSH1 0x20 DUP5 LT PUSH2 0x1044 JUMPI JUMPDEST PUSH1 0x1F DUP4 ADD PUSH1 0x5 SHR DUP3 ADD DUP2 LT PUSH2 0x1038 JUMPI POP POP PUSH2 0xC2B JUMP JUMPDEST PUSH1 0x0 DUP2 SSTORE PUSH1 0x1 ADD PUSH2 0x1022 JUMP JUMPDEST POP DUP1 PUSH2 0x1022 JUMP JUMPDEST PUSH1 0x40 MLOAD PUSH4 0x39E35637 PUSH1 0xE1 SHL DUP2 MSTORE PUSH1 0x0 PUSH1 0x4 DUP3 ADD MSTORE PUSH1 0x24 SWAP1 REVERT JUMPDEST PUSH1 0x40 MLOAD PUSH4 0x32505749 PUSH1 0xE1 SHL DUP2 MSTORE PUSH1 0x0 PUSH1 0x4 DUP3 ADD MSTORE PUSH1 0x24 SWAP1 REVERT JUMPDEST PUSH1 0x40 MLOAD PUSH3 0x461BCD PUSH1 0xE5 SHL DUP2 MSTORE PUSH1 0x20 PUSH1 0x4 DUP3 ADD MSTORE PUSH1 0x15 PUSH1 0x24 DUP3 ADD MSTORE PUSH21 0xA0D8C2E8CCDEE4DA40CCCACA40E8DEDE40D0D2CED PUSH1 0x5B SHL PUSH1 0x44 DUP3 ADD MSTORE PUSH1 0x64 SWAP1 REVERT JUMPDEST PUSH1 0x40 MLOAD PUSH3 0x461BCD PUSH1 0xE5 SHL DUP2 MSTORE PUSH1 0x20 PUSH1 0x4 DUP3 ADD MSTORE PUSH1 0x10 PUSH1 0x24 DUP3 ADD MSTORE PUSH16 0xA4DEF2C2D8E8F240E8DEDE40D0D2CED PUSH1 0x83 SHL PUSH1 0x44 DUP3 ADD MSTORE PUSH1 0x64 SWAP1 REVERT JUMPDEST CALLVALUE PUSH2 0x166 JUMPI PUSH1 0x20 CALLDATASIZE PUSH1 0x3 NOT ADD SLT PUSH2 0x166 JUMPI PUSH1 0x4 CALLDATALOAD PUSH1 0x0 PUSH2 0x160 PUSH1 0x40 MLOAD PUSH2 0x1117 DUP2 PUSH2 0x1987 JUMP JUMPDEST DUP3 DUP2 MSTORE DUP3 PUSH1 0x20 DUP3 ADD MSTORE DUP3 PUSH1 0x40 DUP3 ADD MSTORE DUP3 PUSH1 0x60 DUP3 ADD MSTORE DUP3 PUSH1 0x80 DUP3 ADD MSTORE PUSH1 0x60 PUSH1 0xA0 DUP3 ADD MSTORE DUP3 PUSH1 0xC0 DUP3 ADD MSTORE DUP3 PUSH1 0xE0 DUP3 ADD MSTORE DUP3 PUSH2 0x100 DUP3 ADD MSTORE DUP3 PUSH2 0x120 DUP3 ADD MSTORE DUP3 PUSH2 0x140 DUP3 ADD MSTORE ADD MSTORE DUP1 PUSH1 0x0 MSTORE PUSH1 0x2 PUSH1 0x20 MSTORE PUSH1 0x1 DUP1 PUSH1 0xA0 SHL SUB PUSH1 0x40 PUSH1 0x0 KECCAK256 SLOAD AND ISZERO PUSH2 0x12EB JUMPI PUSH1 0x0 MSTORE PUSH1 0xA PUSH1 0x20 MSTORE PUSH1 0x40 PUSH1 0x0 KECCAK256 PUSH1 0xA PUSH1 0x40 MLOAD SWAP2 PUSH2 0x1194 DUP4 PUSH2 0x1987 JUMP JUMPDEST DUP1 SLOAD PUSH2 0x11A3 PUSH1 0xFF DUP3 AND DUP6 PUSH2 0x1F0E JUMP JUMPDEST PUSH1 0x8 SHR PUSH1 0x1 PUSH1 0x1 PUSH1 0xA0 SHL SUB SWAP1 DUP2 AND PUSH1 0x20 DUP6 ADD MSTORE PUSH1 0x1 DUP3 ADD SLOAD AND PUSH1 0x40 DUP5 ADD MSTORE PUSH1 0x2 DUP2 ADD SLOAD PUSH1 0x60 DUP5 ADD MSTORE PUSH1 0x3 DUP2 ADD SLOAD PUSH1 0x80 DUP5 ADD MSTORE PUSH2 0x11E1 PUSH1 0x4 DUP3 ADD PUSH2 0x19E2 JUMP JUMPDEST PUSH1 0xA0 DUP5 ADD MSTORE PUSH1 0x5 DUP2 ADD SLOAD PUSH1 0xC0 DUP5 ADD MSTORE PUSH1 0xFF PUSH1 0x6 DUP3 ADD SLOAD AND ISZERO ISZERO PUSH1 0xE0 DUP5 ADD MSTORE PUSH1 0x7 DUP2 ADD SLOAD PUSH2 0x100 DUP5 ADD MSTORE PUSH1 0x8 DUP2 ADD SLOAD PUSH2 0x120 DUP5 ADD MSTORE PUSH1 0x1 DUP1 PUSH1 0xA0 SHL SUB PUSH1 0x9 DUP3 ADD SLOAD AND PUSH2 0x140 DUP5 ADD MSTORE ADD SLOAD PUSH2 0x160 DUP3 ADD MSTORE PUSH1 0x40 MLOAD DUP1 SWAP2 PUSH1 0x20 DUP3 MSTORE PUSH2 0x1247 PUSH1 0x20 DUP4 ADD DUP3 MLOAD PUSH2 0x1A88 JUMP JUMPDEST PUSH1 0x1 DUP1 PUSH1 0xA0 SHL SUB PUSH1 0x20 DUP3 ADD MLOAD AND PUSH1 0x40 DUP4 ADD MSTORE PUSH1 0x1 DUP1 PUSH1 0xA0 SHL SUB PUSH1 0x40 DUP3 ADD MLOAD AND PUSH1 0x60 DUP4 ADD MSTORE PUSH1 0x60 DUP2 ADD MLOAD PUSH1 0x80 DUP4 ADD MSTORE PUSH1 0x80 DUP2 ADD MLOAD PUSH1 0xA0 DUP4 ADD MSTORE PUSH1 0xA0 DUP2 ADD MLOAD PUSH2 0x160 PUSH2 0x129F PUSH2 0x180 SWAP3 DUP4 PUSH1 0xC0 DUP8 ADD MSTORE PUSH2 0x1A0 DUP7 ADD SWAP1 PUSH2 0x18AC JUMP JUMPDEST SWAP3 PUSH1 0xC0 DUP2 ADD MLOAD PUSH1 0xE0 DUP7 ADD MSTORE PUSH1 0xE0 DUP2 ADD MLOAD ISZERO ISZERO PUSH2 0x100 DUP7 ADD MSTORE PUSH2 0x100 DUP2 ADD MLOAD PUSH2 0x120 DUP7 ADD MSTORE PUSH2 0x120 DUP2 ADD MLOAD PUSH2 0x140 DUP7 ADD MSTORE PUSH1 0x1 DUP1 PUSH1 0xA0 SHL SUB PUSH2 0x140 DUP3 ADD MLOAD AND DUP3 DUP7 ADD MSTORE ADD MLOAD SWAP1 DUP4 ADD MSTORE SUB SWAP1 RETURN JUMPDEST PUSH1 0x40 MLOAD PUSH3 0x461BCD PUSH1 0xE5 SHL DUP2 MSTORE PUSH1 0x20 PUSH1 0x4 DUP3 ADD MSTORE PUSH1 0x14 PUSH1 0x24 DUP3 ADD MSTORE PUSH20 0x151BDAD95B88191BD95CC81B9BDD08195E1A5CDD PUSH1 0x62 SHL PUSH1 0x44 DUP3 ADD MSTORE PUSH1 0x64 SWAP1 REVERT JUMPDEST CALLVALUE PUSH2 0x166 JUMPI PUSH1 0x20 CALLDATASIZE PUSH1 0x3 NOT ADD SLT PUSH2 0x166 JUMPI PUSH1 0x20 PUSH2 0x1345 PUSH1 0x4 CALLDATALOAD PUSH2 0x1ED3 JUMP JUMPDEST PUSH1 0x40 MLOAD PUSH1 0x1 PUSH1 0x1 PUSH1 0xA0 SHL SUB SWAP1 SWAP2 AND DUP2 MSTORE RETURN JUMPDEST PUSH1 0x20 CALLDATASIZE PUSH1 0x3 NOT ADD SLT PUSH2 0x166 JUMPI PUSH1 0x4 CALLDATALOAD PUSH2 0x136E PUSH2 0x1FF3 JUMP JUMPDEST DUP1 PUSH1 0x0 MSTORE PUSH1 0xA PUSH1 0x20 MSTORE PUSH1 0x40 PUSH1 0x0 KECCAK256 PUSH1 0x6 DUP2 ADD SWAP2 PUSH1 0xFF DUP4 SLOAD AND ISZERO PUSH2 0x150E JUMPI PUSH1 0x7 DUP3 ADD SWAP2 DUP3 SLOAD SWAP3 DUP4 CALLVALUE LT PUSH2 0x14D2 JUMPI PUSH2 0x13A3 DUP4 PUSH2 0x1ED3 JUMP JUMPDEST SWAP1 PUSH2 0x2710 SWAP3 PUSH1 0x0 DUP5 PUSH2 0x13B9 PUSH1 0x3 DUP5 ADD SLOAD DUP10 PUSH2 0x1F58 JUMP JUMPDEST DIV SWAP5 PUSH2 0x13C9 PUSH1 0x2 DUP5 ADD SLOAD DUP10 PUSH2 0x1F58 JUMP JUMPDEST DIV SWAP3 PUSH2 0x13DE DUP5 PUSH2 0x13D9 DUP9 DUP12 PUSH2 0x1F6B JUMP JUMPDEST PUSH2 0x1F6B JUMP JUMPDEST SWAP9 PUSH2 0x13EA DUP9 CALLER DUP9 PUSH2 0x1F78 JUMP JUMPDEST PUSH1 0xFF NOT DUP2 SLOAD AND SWAP1 SSTORE SSTORE PUSH1 0x0 DUP1 DUP1 DUP1 PUSH1 0x1 DUP1 PUSH1 0xA0 SHL SUB SWAP8 DUP9 PUSH1 0xB SLOAD AND DUP3 DUP3 ISZERO PUSH2 0x14C9 JUMPI JUMPDEST CALL ISZERO PUSH2 0x418 JUMPI PUSH1 0x0 DUP1 DUP1 SWAP4 DUP2 SWAP4 SLOAD DUP8 DUP4 SWAP2 DUP4 ISZERO PUSH2 0x14BF JUMPI JUMPDEST PUSH1 0x8 SHR AND SWAP1 CALL ISZERO PUSH2 0x418 JUMPI PUSH1 0x0 DUP1 DUP1 SWAP4 DUP2 SWAP4 AND SWAP7 DUP8 DUP3 DUP3 ISZERO PUSH2 0x14B6 JUMPI JUMPDEST CALL ISZERO PUSH2 0x418 JUMPI DUP2 CALLVALUE GT PUSH2 0x1483 JUMPI JUMPDEST PUSH1 0x40 MLOAD SWAP2 DUP3 MSTORE PUSH32 0xEF1FB2BD31F5ED737E6054243D9B5EACD3AF967F35AF45E8FB844CA6DBBE98F9 PUSH1 0x20 CALLER SWAP4 LOG4 PUSH1 0x1 PUSH1 0x8 SSTORE STOP JUMPDEST PUSH1 0x0 DUP1 DUP1 DUP1 PUSH2 0x1492 DUP7 CALLVALUE PUSH2 0x1F6B JUMP JUMPDEST DUP2 DUP2 ISZERO PUSH2 0x14AD JUMPI JUMPDEST CALLER SWAP1 CALL PUSH2 0x1450 JUMPI PUSH1 0x40 MLOAD RETURNDATASIZE PUSH1 0x0 DUP3 RETURNDATACOPY RETURNDATASIZE SWAP1 REVERT JUMPDEST POP PUSH2 0x8FC PUSH2 0x149A JUMP JUMPDEST POP PUSH2 0x8FC PUSH2 0x1442 JUMP JUMPDEST PUSH2 0x8FC SWAP3 POP PUSH2 0x1425 JUMP JUMPDEST POP PUSH2 0x8FC PUSH2 0x140D JUMP JUMPDEST PUSH1 0x40 MLOAD PUSH3 0x461BCD PUSH1 0xE5 SHL DUP2 MSTORE PUSH1 0x20 PUSH1 0x4 DUP3 ADD MSTORE PUSH1 0x14 PUSH1 0x24 DUP3 ADD MSTORE PUSH20 0x125B9CDD59999A58DA595B9D081C185E5B595B9D PUSH1 0x62 SHL PUSH1 0x44 DUP3 ADD MSTORE PUSH1 0x64 SWAP1 REVERT JUMPDEST PUSH1 0x40 MLOAD PUSH3 0x461BCD PUSH1 0xE5 SHL DUP2 MSTORE PUSH1 0x20 PUSH1 0x4 DUP3 ADD MSTORE PUSH1 0xE PUSH1 0x24 DUP3 ADD MSTORE PUSH14 0x139195081B9BDD081B1A5CDD1959 PUSH1 0x92 SHL PUSH1 0x44 DUP3 ADD MSTORE PUSH1 0x64 SWAP1 REVERT JUMPDEST CALLVALUE PUSH2 0x166 JUMPI PUSH1 0x20 CALLDATASIZE PUSH1 0x3 NOT ADD SLT PUSH2 0x166 JUMPI PUSH1 0x4 CALLDATALOAD PUSH1 0x0 MSTORE PUSH1 0xA PUSH1 0x20 MSTORE PUSH1 0x40 PUSH1 0x0 KECCAK256 PUSH2 0x15CE DUP2 SLOAD SWAP2 PUSH1 0x1 DUP1 PUSH1 0xA0 SHL SUB DUP1 PUSH1 0x1 DUP4 ADD SLOAD AND SWAP2 PUSH1 0x2 DUP2 ADD SLOAD SWAP3 PUSH1 0x3 DUP3 ADD SLOAD SWAP4 PUSH2 0x1592 PUSH1 0x4 DUP5 ADD PUSH2 0x19E2 JUMP JUMPDEST SWAP5 PUSH2 0x15F7 PUSH1 0x5 DUP6 ADD SLOAD SWAP7 PUSH1 0xFF PUSH1 0x6 DUP8 ADD SLOAD AND SWAP3 PUSH1 0x7 DUP8 ADD SLOAD SWAP5 PUSH1 0x8 DUP9 ADD SLOAD SWAP7 PUSH1 0xA DUP11 PUSH1 0x9 DUP12 ADD SLOAD AND SWAP10 ADD SLOAD SWAP10 PUSH1 0x40 MLOAD SWAP14 DUP15 SWAP14 DUP15 PUSH1 0xFF DUP4 AND PUSH2 0x1A88 JUMP JUMPDEST PUSH1 0x8 SHR AND PUSH1 0x20 DUP14 ADD MSTORE PUSH1 0x40 DUP13 ADD MSTORE PUSH1 0x60 DUP12 ADD MSTORE PUSH1 0x80 DUP11 ADD MSTORE PUSH2 0x180 DUP1 PUSH1 0xA0 DUP12 ADD MSTORE DUP10 ADD SWAP1 PUSH2 0x18AC JUMP JUMPDEST SWAP6 PUSH1 0xC0 DUP9 ADD MSTORE ISZERO ISZERO PUSH1 0xE0 DUP8 ADD MSTORE PUSH2 0x100 DUP7 ADD MSTORE PUSH2 0x120 DUP6 ADD MSTORE PUSH2 0x140 DUP5 ADD MSTORE PUSH2 0x160 DUP4 ADD MSTORE SUB SWAP1 RETURN JUMPDEST CALLVALUE PUSH2 0x166 JUMPI PUSH2 0x50F PUSH2 0x1631 CALLDATASIZE PUSH2 0x1918 JUMP JUMPDEST SWAP1 PUSH1 0x40 MLOAD SWAP3 PUSH2 0x163F DUP5 PUSH2 0x19A4 JUMP JUMPDEST PUSH1 0x0 DUP5 MSTORE PUSH2 0x1CC2 JUMP JUMPDEST CALLVALUE PUSH2 0x166 JUMPI PUSH2 0x50F PUSH2 0x1659 CALLDATASIZE PUSH2 0x1918 JUMP JUMPDEST SWAP2 PUSH2 0x1B32 JUMP JUMPDEST CALLVALUE PUSH2 0x166 JUMPI PUSH1 0x40 CALLDATASIZE PUSH1 0x3 NOT ADD SLT PUSH2 0x166 JUMPI PUSH2 0x1678 PUSH2 0x18EC JUMP JUMPDEST PUSH1 0x24 CALLDATALOAD PUSH2 0x1684 DUP2 PUSH2 0x1ED3 JUMP JUMPDEST CALLER ISZERO ISZERO DUP1 PUSH2 0x1733 JUMPI JUMPDEST DUP1 PUSH2 0x1706 JUMPI JUMPDEST PUSH2 0x16EE JUMPI PUSH1 0x1 PUSH1 0x1 PUSH1 0xA0 SHL SUB SWAP3 DUP4 AND SWAP3 DUP3 SWAP2 DUP5 SWAP2 AND PUSH32 0x8C5BE1E5EBEC7D5BD14F71427D1E84F3DD0314C0F7B2291E5B200AC8C7C3B925 PUSH1 0x0 DUP1 LOG4 PUSH1 0x0 SWAP1 DUP2 MSTORE PUSH1 0x4 PUSH1 0x20 MSTORE PUSH1 0x40 SWAP1 KECCAK256 DUP1 SLOAD PUSH1 0x1 PUSH1 0x1 PUSH1 0xA0 SHL SUB NOT AND SWAP1 SWAP2 OR SWAP1 SSTORE STOP JUMPDEST PUSH1 0x40 MLOAD PUSH4 0xA9FBF51F PUSH1 0xE0 SHL DUP2 MSTORE CALLER PUSH1 0x4 DUP3 ADD MSTORE PUSH1 0x24 SWAP1 REVERT JUMPDEST POP PUSH1 0x1 DUP1 PUSH1 0xA0 SHL SUB DUP2 AND PUSH1 0x0 MSTORE PUSH1 0x5 PUSH1 0x20 MSTORE PUSH1 0x40 PUSH1 0x0 KECCAK256 CALLER PUSH1 0x0 MSTORE PUSH1 0x20 MSTORE PUSH1 0xFF PUSH1 0x40 PUSH1 0x0 KECCAK256 SLOAD AND ISZERO PUSH2 0x1693 JUMP JUMPDEST POP PUSH1 0x1 PUSH1 0x1 PUSH1 0xA0 SHL SUB DUP2 AND CALLER EQ ISZERO PUSH2 0x168D JUMP JUMPDEST CALLVALUE PUSH2 0x166 JUMPI PUSH1 0x20 CALLDATASIZE PUSH1 0x3 NOT ADD SLT PUSH2 0x166 JUMPI PUSH1 0x4 CALLDATALOAD PUSH2 0x1763 DUP2 PUSH2 0x1ED3 JUMP JUMPDEST POP PUSH1 0x0 MSTORE PUSH1 0x4 PUSH1 0x20 MSTORE PUSH1 0x20 PUSH1 0x1 DUP1 PUSH1 0xA0 SHL SUB PUSH1 0x40 PUSH1 0x0 KECCAK256 SLOAD AND PUSH1 0x40 MLOAD SWAP1 DUP2 MSTORE RETURN JUMPDEST CALLVALUE PUSH2 0x166 JUMPI PUSH1 0x0 CALLDATASIZE PUSH1 0x3 NOT ADD SLT PUSH2 0x166 JUMPI PUSH1 0x40 MLOAD PUSH1 0x0 DUP1 SLOAD PUSH2 0x17A5 DUP2 PUSH2 0x194D JUMP JUMPDEST DUP1 DUP5 MSTORE SWAP1 PUSH1 0x1 SWAP1 DUP2 DUP2 AND SWAP1 DUP2 ISZERO PUSH2 0x83D JUMPI POP PUSH1 0x1 EQ PUSH2 0x17CE JUMPI PUSH2 0x2A3 DUP5 PUSH2 0x7D0 DUP2 DUP7 SUB DUP3 PUSH2 0x19C0 JUMP JUMPDEST PUSH1 0x0 DUP1 DUP1 MSTORE SWAP3 POP PUSH32 0x290DECD9548B62A8D60345A988386FC84BA6BC95484008F6362F93160EF3E563 JUMPDEST DUP3 DUP5 LT PUSH2 0x180F JUMPI POP POP POP DUP2 ADD PUSH1 0x20 ADD PUSH2 0x7D0 DUP3 PUSH2 0x7C0 JUMP JUMPDEST DUP1 SLOAD PUSH1 0x20 DUP6 DUP8 ADD DUP2 ADD SWAP2 SWAP1 SWAP2 MSTORE SWAP1 SWAP4 ADD SWAP3 DUP2 ADD PUSH2 0x17F7 JUMP JUMPDEST CALLVALUE PUSH2 0x166 JUMPI PUSH1 0x20 CALLDATASIZE PUSH1 0x3 NOT ADD SLT PUSH2 0x166 JUMPI PUSH1 0x4 CALLDATALOAD SWAP1 PUSH4 0xFFFFFFFF PUSH1 0xE0 SHL DUP3 AND DUP1 SWAP3 SUB PUSH2 0x166 JUMPI PUSH1 0x20 SWAP2 PUSH4 0x24832483 PUSH1 0xE1 SHL DUP2 EQ SWAP1 DUP2 ISZERO PUSH2 0x1869 JUMPI JUMPDEST POP ISZERO ISZERO DUP2 MSTORE RETURN JUMPDEST PUSH4 0x80AC58CD PUSH1 0xE0 SHL DUP2 EQ SWAP2 POP DUP2 ISZERO PUSH2 0x189B JUMPI JUMPDEST DUP2 ISZERO PUSH2 0x188A JUMPI JUMPDEST POP DUP4 PUSH2 0x1862 JUMP JUMPDEST PUSH4 0x1FFC9A7 PUSH1 0xE0 SHL EQ SWAP1 POP DUP4 PUSH2 0x1883 JUMP JUMPDEST PUSH4 0x5B5E139F PUSH1 0xE0 SHL DUP2 EQ SWAP2 POP PUSH2 0x187C JUMP JUMPDEST SWAP2 SWAP1 DUP3 MLOAD SWAP3 DUP4 DUP3 MSTORE PUSH1 0x0 JUMPDEST DUP5 DUP2 LT PUSH2 0x18D8 JUMPI POP POP DUP3 PUSH1 0x0 PUSH1 0x20 DUP1 SWAP5 SWAP6 DUP5 ADD ADD MSTORE PUSH1 0x1F DUP1 NOT SWAP2 ADD AND ADD ADD SWAP1 JUMP JUMPDEST PUSH1 0x20 DUP2 DUP4 ADD DUP2 ADD MLOAD DUP5 DUP4 ADD DUP3 ADD MSTORE ADD PUSH2 0x18B7 JUMP JUMPDEST PUSH1 0x4 CALLDATALOAD SWAP1 PUSH1 0x1 PUSH1 0x1 PUSH1 0xA0 SHL SUB DUP3 AND DUP3 SUB PUSH2 0x166 JUMPI JUMP JUMPDEST PUSH1 0x24 CALLDATALOAD SWAP1 PUSH1 0x1 PUSH1 0x1 PUSH1 0xA0 SHL SUB DUP3 AND DUP3 SUB PUSH2 0x166 JUMPI JUMP JUMPDEST PUSH1 0x60 SWAP1 PUSH1 0x3 NOT ADD SLT PUSH2 0x166 JUMPI PUSH1 0x1 PUSH1 0x1 PUSH1 0xA0 SHL SUB SWAP1 PUSH1 0x4 CALLDATALOAD DUP3 DUP2 AND DUP2 SUB PUSH2 0x166 JUMPI SWAP2 PUSH1 0x24 CALLDATALOAD SWAP1 DUP2 AND DUP2 SUB PUSH2 0x166 JUMPI SWAP1 PUSH1 0x44 CALLDATALOAD SWAP1 JUMP JUMPDEST SWAP1 PUSH1 0x1 DUP3 DUP2 SHR SWAP3 AND DUP1 ISZERO PUSH2 0x197D JUMPI JUMPDEST PUSH1 0x20 DUP4 LT EQ PUSH2 0x1967 JUMPI JUMP JUMPDEST PUSH4 0x4E487B71 PUSH1 0xE0 SHL PUSH1 0x0 MSTORE PUSH1 0x22 PUSH1 0x4 MSTORE PUSH1 0x24 PUSH1 0x0 REVERT JUMPDEST SWAP2 PUSH1 0x7F AND SWAP2 PUSH2 0x195C JUMP JUMPDEST PUSH2 0x180 DUP2 ADD SWAP1 DUP2 LT PUSH8 0xFFFFFFFFFFFFFFFF DUP3 GT OR PUSH2 0xF69 JUMPI PUSH1 0x40 MSTORE JUMP JUMPDEST PUSH1 0x20 DUP2 ADD SWAP1 DUP2 LT PUSH8 0xFFFFFFFFFFFFFFFF DUP3 GT OR PUSH2 0xF69 JUMPI PUSH1 0x40 MSTORE JUMP JUMPDEST SWAP1 PUSH1 0x1F DUP1 NOT SWAP2 ADD AND DUP2 ADD SWAP1 DUP2 LT PUSH8 0xFFFFFFFFFFFFFFFF DUP3 GT OR PUSH2 0xF69 JUMPI PUSH1 0x40 MSTORE JUMP JUMPDEST SWAP1 PUSH1 0x40 MLOAD SWAP2 DUP3 PUSH1 0x0 DUP3 SLOAD SWAP3 PUSH2 0x19F6 DUP5 PUSH2 0x194D JUMP JUMPDEST SWAP1 DUP2 DUP5 MSTORE PUSH1 0x1 SWAP5 DUP6 DUP2 AND SWAP1 DUP2 PUSH1 0x0 EQ PUSH2 0x1A65 JUMPI POP PUSH1 0x1 EQ PUSH2 0x1A22 JUMPI JUMPDEST POP POP PUSH2 0x1A20 SWAP3 POP SUB DUP4 PUSH2 0x19C0 JUMP JUMPDEST JUMP JUMPDEST SWAP1 SWAP4 SWAP2 POP PUSH1 0x0 MSTORE PUSH1 0x20 SWAP1 DUP2 PUSH1 0x0 KECCAK256 SWAP4 PUSH1 0x0 SWAP2 JUMPDEST DUP2 DUP4 LT PUSH2 0x1A4D JUMPI POP POP PUSH2 0x1A20 SWAP4 POP DUP3 ADD ADD CODESIZE DUP1 PUSH2 0x1A12 JUMP JUMPDEST DUP6 SLOAD DUP9 DUP5 ADD DUP6 ADD MSTORE SWAP5 DUP6 ADD SWAP5 DUP8 SWAP5 POP SWAP2 DUP4 ADD SWAP2 PUSH2 0x1A35 JUMP JUMPDEST SWAP2 POP POP PUSH2 0x1A20 SWAP5 POP PUSH1 0x20 SWAP3 POP PUSH1 0xFF NOT AND DUP3 DUP5 ADD MSTORE ISZERO ISZERO PUSH1 0x5 SHL DUP3 ADD ADD CODESIZE DUP1 PUSH2 0x1A12 JUMP JUMPDEST SWAP1 PUSH1 0x5 DUP3 LT ISZERO PUSH2 0xF7F JUMPI MSTORE JUMP JUMPDEST PUSH8 0xFFFFFFFFFFFFFFFF DUP2 GT PUSH2 0xF69 JUMPI PUSH1 0x1F ADD PUSH1 0x1F NOT AND PUSH1 0x20 ADD SWAP1 JUMP JUMPDEST SWAP3 SWAP2 SWAP3 PUSH2 0x1ABD DUP3 PUSH2 0x1A95 JUMP JUMPDEST SWAP2 PUSH2 0x1ACB PUSH1 0x40 MLOAD SWAP4 DUP5 PUSH2 0x19C0 JUMP JUMPDEST DUP3 SWAP5 DUP2 DUP5 MSTORE DUP2 DUP4 ADD GT PUSH2 0x166 JUMPI DUP3 DUP2 PUSH1 0x20 SWAP4 DUP5 PUSH1 0x0 SWAP7 ADD CALLDATACOPY ADD ADD MSTORE JUMP JUMPDEST SWAP1 DUP1 PUSH1 0x1F DUP4 ADD SLT ISZERO PUSH2 0x166 JUMPI DUP2 PUSH1 0x20 PUSH2 0x1B03 SWAP4 CALLDATALOAD SWAP2 ADD PUSH2 0x1AB1 JUMP JUMPDEST SWAP1 JUMP JUMPDEST PUSH1 0x7 SLOAD PUSH1 0x1 PUSH1 0x1 PUSH1 0xA0 SHL SUB AND CALLER SUB PUSH2 0x1B1A JUMPI JUMP JUMPDEST PUSH1 0x40 MLOAD PUSH4 0x118CDAA7 PUSH1 0xE0 SHL DUP2 MSTORE CALLER PUSH1 0x4 DUP3 ADD MSTORE PUSH1 0x24 SWAP1 REVERT JUMPDEST SWAP1 PUSH1 0x1 PUSH1 0x1 PUSH1 0xA0 SHL SUB SWAP1 DUP2 AND DUP1 ISZERO PUSH2 0x1064 JUMPI PUSH1 0x0 SWAP2 DUP5 DUP4 MSTORE DUP5 PUSH1 0x20 SWAP3 PUSH1 0x2 DUP5 MSTORE PUSH1 0x40 SWAP4 DUP4 DUP6 DUP8 KECCAK256 SLOAD AND SWAP6 DUP7 SWAP2 CALLER ISZERO ISZERO DUP1 PUSH2 0x1C2C JUMPI JUMPDEST POP SWAP1 PUSH1 0x2 PUSH32 0xDDF252AD1BE2C89B69C2B068FC378DAA952BA7F163C4A11628F55A4DF523B3EF SWAP3 DUP5 PUSH2 0x1BF9 JUMPI JUMPDEST DUP6 DUP4 MSTORE PUSH1 0x3 DUP2 MSTORE DUP9 DUP4 KECCAK256 DUP1 SLOAD PUSH1 0x1 ADD SWAP1 SSTORE DUP7 DUP4 MSTORE MSTORE DUP7 DUP2 KECCAK256 DUP1 SLOAD PUSH1 0x1 PUSH1 0x1 PUSH1 0xA0 SHL SUB NOT AND DUP6 OR SWAP1 SSTORE DUP1 LOG4 DUP4 AND DUP3 SUB PUSH2 0x1BCB JUMPI POP POP POP POP JUMP JUMPDEST MLOAD PUSH4 0x64283D7B PUSH1 0xE0 SHL DUP2 MSTORE PUSH1 0x1 PUSH1 0x1 PUSH1 0xA0 SHL SUB SWAP3 DUP4 AND PUSH1 0x4 DUP3 ADD MSTORE PUSH1 0x24 DUP2 ADD SWAP4 SWAP1 SWAP4 MSTORE AND PUSH1 0x44 DUP3 ADD MSTORE PUSH1 0x64 SWAP1 REVERT JUMPDEST PUSH1 0x0 DUP8 DUP2 MSTORE PUSH1 0x4 PUSH1 0x20 MSTORE PUSH1 0x40 SWAP1 KECCAK256 DUP1 SLOAD PUSH1 0x1 PUSH1 0x1 PUSH1 0xA0 SHL SUB NOT AND SWAP1 SSTORE DUP5 DUP4 MSTORE PUSH1 0x3 DUP2 MSTORE DUP9 DUP4 KECCAK256 DUP1 SLOAD PUSH1 0x0 NOT ADD SWAP1 SSTORE PUSH2 0x1B93 JUMP JUMPDEST SWAP2 SWAP4 SWAP5 POP SWAP2 POP DUP1 PUSH2 0x1C81 JUMPI JUMPDEST ISZERO PUSH2 0x1C48 JUMPI DUP8 SWAP3 SWAP2 DUP7 SWAP2 CODESIZE PUSH2 0x1B67 JUMP JUMPDEST DUP5 DUP9 DUP8 PUSH2 0x1C65 JUMPI PUSH1 0x24 SWAP2 MLOAD SWAP1 PUSH4 0x7E273289 PUSH1 0xE0 SHL DUP3 MSTORE PUSH1 0x4 DUP3 ADD MSTORE REVERT JUMPDEST PUSH1 0x44 SWAP2 MLOAD SWAP1 PUSH4 0x177E802F PUSH1 0xE0 SHL DUP3 MSTORE CALLER PUSH1 0x4 DUP4 ADD MSTORE PUSH1 0x24 DUP3 ADD MSTORE REVERT JUMPDEST POP CALLER DUP7 EQ DUP1 ISZERO PUSH2 0x1CA6 JUMPI JUMPDEST DUP1 PUSH2 0x1C38 JUMPI POP DUP8 DUP3 MSTORE PUSH1 0x4 DUP2 MSTORE CALLER DUP5 DUP7 DUP5 KECCAK256 SLOAD AND EQ PUSH2 0x1C38 JUMP JUMPDEST POP DUP6 DUP3 MSTORE PUSH1 0x5 DUP2 MSTORE DUP5 DUP3 KECCAK256 CALLER DUP4 MSTORE DUP2 MSTORE PUSH1 0xFF DUP6 DUP4 KECCAK256 SLOAD AND PUSH2 0x1C8C JUMP JUMPDEST SWAP3 SWAP1 SWAP3 PUSH2 0x1CD0 DUP4 DUP6 DUP4 PUSH2 0x1B32 JUMP JUMPDEST DUP4 EXTCODESIZE PUSH2 0x1CDD JUMPI JUMPDEST POP POP POP POP JUMP JUMPDEST PUSH1 0x40 MLOAD PUSH4 0xA85BD01 PUSH1 0xE1 SHL DUP1 DUP3 MSTORE CALLER PUSH1 0x4 DUP4 ADD MSTORE PUSH1 0x1 PUSH1 0x1 PUSH1 0xA0 SHL SUB SWAP3 DUP4 AND PUSH1 0x24 DUP4 ADD MSTORE PUSH1 0x44 DUP3 ADD SWAP5 SWAP1 SWAP5 MSTORE PUSH1 0x80 PUSH1 0x64 DUP3 ADD MSTORE SWAP5 SWAP4 AND SWAP3 PUSH1 0x20 SWAP3 SWAP1 SWAP2 DUP6 SWAP1 PUSH2 0x1D29 SWAP1 PUSH1 0x84 DUP4 ADD SWAP1 PUSH2 0x18AC JUMP JUMPDEST SUB SWAP5 DUP4 DUP2 PUSH1 0x0 SWAP8 DUP2 DUP10 DUP10 GAS CALL DUP7 SWAP2 DUP2 PUSH2 0x1DD3 JUMPI JUMPDEST POP PUSH2 0x1D9E JUMPI POP POP POP RETURNDATASIZE PUSH1 0x0 EQ PUSH2 0x1D95 JUMPI RETURNDATASIZE PUSH2 0x1D57 DUP2 PUSH2 0x1A95 JUMP JUMPDEST SWAP1 PUSH2 0x1D65 PUSH1 0x40 MLOAD SWAP3 DUP4 PUSH2 0x19C0 JUMP JUMPDEST DUP2 MSTORE DUP1 SWAP4 DUP3 RETURNDATASIZE SWAP3 ADD RETURNDATACOPY JUMPDEST DUP3 MLOAD SWAP3 DUP4 PUSH2 0x1D90 JUMPI PUSH1 0x40 MLOAD PUSH4 0x32505749 PUSH1 0xE1 SHL DUP2 MSTORE PUSH1 0x4 DUP2 ADD DUP5 SWAP1 MSTORE PUSH1 0x24 SWAP1 REVERT JUMPDEST ADD SWAP1 POP REVERT JUMPDEST PUSH1 0x60 SWAP3 POP PUSH2 0x1D6F JUMP JUMPDEST SWAP2 SWAP5 POP SWAP2 POP PUSH4 0xFFFFFFFF PUSH1 0xE0 SHL AND SUB PUSH2 0x1DBB JUMPI POP CODESIZE DUP1 DUP1 DUP1 PUSH2 0x1CD7 JUMP JUMPDEST PUSH1 0x24 SWAP1 PUSH1 0x40 MLOAD SWAP1 PUSH4 0x32505749 PUSH1 0xE1 SHL DUP3 MSTORE PUSH1 0x4 DUP3 ADD MSTORE REVERT JUMPDEST SWAP1 SWAP2 POP DUP5 DUP2 DUP2 RETURNDATASIZE DUP4 GT PUSH2 0x1E10 JUMPI JUMPDEST PUSH2 0x1DEB DUP2 DUP4 PUSH2 0x19C0 JUMP JUMPDEST DUP2 ADD SUB SLT PUSH2 0x1E0C JUMPI MLOAD PUSH1 0x1 PUSH1 0x1 PUSH1 0xE0 SHL SUB NOT DUP2 AND DUP2 SUB PUSH2 0x1E0C JUMPI SWAP1 CODESIZE PUSH2 0x1D3D JUMP JUMPDEST DUP7 DUP1 REVERT JUMPDEST POP RETURNDATASIZE PUSH2 0x1DE1 JUMP JUMPDEST PUSH1 0x0 DUP3 DUP2 MSTORE PUSH1 0x2 PUSH1 0x20 MSTORE PUSH1 0x40 DUP2 KECCAK256 SLOAD PUSH1 0x1 PUSH1 0x1 PUSH1 0xA0 SHL SUB SWAP1 DUP2 AND SWAP4 SWAP3 DUP5 SWAP2 PUSH32 0xDDF252AD1BE2C89B69C2B068FC378DAA952BA7F163C4A11628F55A4DF523B3EF SWAP2 DUP4 PUSH2 0x1E9E JUMPI JUMPDEST AND SWAP3 DUP4 PUSH2 0x1E86 JUMPI JUMPDEST DUP5 DUP2 MSTORE PUSH1 0x2 PUSH1 0x20 MSTORE PUSH1 0x40 DUP2 KECCAK256 DUP1 SLOAD PUSH1 0x1 PUSH1 0x1 PUSH1 0xA0 SHL SUB NOT AND DUP6 OR SWAP1 SSTORE DUP1 LOG4 SWAP1 JUMP JUMPDEST DUP4 DUP2 MSTORE PUSH1 0x3 PUSH1 0x20 MSTORE PUSH1 0x40 DUP2 KECCAK256 PUSH1 0x1 DUP2 SLOAD ADD SWAP1 SSTORE PUSH2 0x1E65 JUMP JUMPDEST PUSH1 0x0 DUP7 DUP2 MSTORE PUSH1 0x4 PUSH1 0x20 MSTORE PUSH1 0x40 SWAP1 KECCAK256 DUP1 SLOAD PUSH1 0x1 PUSH1 0x1 PUSH1 0xA0 SHL SUB NOT AND SWAP1 SSTORE DUP4 DUP6 MSTORE PUSH1 0x3 PUSH1 0x20 MSTORE PUSH1 0x40 DUP6 KECCAK256 DUP1 SLOAD PUSH1 0x0 NOT ADD SWAP1 SSTORE PUSH2 0x1E5D JUMP JUMPDEST PUSH1 0x0 DUP2 DUP2 MSTORE PUSH1 0x2 PUSH1 0x20 MSTORE PUSH1 0x40 SWAP1 KECCAK256 SLOAD PUSH1 0x1 PUSH1 0x1 PUSH1 0xA0 SHL SUB AND SWAP1 DUP2 ISZERO PUSH2 0x1EF6 JUMPI POP SWAP1 JUMP JUMPDEST PUSH1 0x24 SWAP1 PUSH1 0x40 MLOAD SWAP1 PUSH4 0x7E273289 PUSH1 0xE0 SHL DUP3 MSTORE PUSH1 0x4 DUP3 ADD MSTORE REVERT JUMPDEST PUSH1 0x5 DUP3 LT ISZERO PUSH2 0xF7F JUMPI MSTORE JUMP JUMPDEST ISZERO PUSH2 0x1F21 JUMPI JUMP JUMPDEST PUSH1 0x40 MLOAD PUSH3 0x461BCD PUSH1 0xE5 SHL DUP2 MSTORE PUSH1 0x20 PUSH1 0x4 DUP3 ADD MSTORE PUSH1 0xF PUSH1 0x24 DUP3 ADD MSTORE PUSH15 0x2737BA103A37B5B2B71037BBB732B9 PUSH1 0x89 SHL PUSH1 0x44 DUP3 ADD MSTORE PUSH1 0x64 SWAP1 REVERT JUMPDEST DUP2 DUP2 MUL SWAP3 SWAP2 DUP2 ISZERO SWAP2 DUP5 DIV EQ OR ISZERO PUSH2 0x9B0 JUMPI JUMP JUMPDEST SWAP2 SWAP1 DUP3 SUB SWAP2 DUP3 GT PUSH2 0x9B0 JUMPI JUMP JUMPDEST SWAP1 PUSH1 0x1 PUSH1 0x1 PUSH1 0xA0 SHL SUB SWAP1 DUP2 DUP2 AND ISZERO PUSH2 0x1064 JUMPI DUP4 PUSH2 0x1F94 SWAP2 PUSH2 0x1E17 JUMP JUMPDEST SWAP1 DUP1 DUP3 AND SWAP1 DUP2 PUSH2 0x1FB7 JUMPI PUSH1 0x40 MLOAD PUSH4 0x7E273289 PUSH1 0xE0 SHL DUP2 MSTORE PUSH1 0x4 DUP2 ADD DUP7 SWAP1 MSTORE PUSH1 0x24 SWAP1 REVERT JUMPDEST DUP4 AND SUB PUSH2 0x1FC3 JUMPI POP POP POP JUMP JUMPDEST PUSH1 0x40 MLOAD PUSH4 0x64283D7B PUSH1 0xE0 SHL DUP2 MSTORE PUSH1 0x1 PUSH1 0x1 PUSH1 0xA0 SHL SUB SWAP3 DUP4 AND PUSH1 0x4 DUP3 ADD MSTORE PUSH1 0x24 DUP2 ADD SWAP4 SWAP1 SWAP4 MSTORE AND PUSH1 0x44 DUP3 ADD MSTORE PUSH1 0x64 SWAP1 REVERT JUMPDEST PUSH1 0x2 PUSH1 0x8 SLOAD EQ PUSH2 0x2004 JUMPI PUSH1 0x2 PUSH1 0x8 SSTORE JUMP JUMPDEST PUSH1 0x40 MLOAD PUSH4 0x3EE5AEB5 PUSH1 0xE0 SHL DUP2 MSTORE PUSH1 0x4 SWAP1 REVERT JUMPDEST ISZERO PUSH2 0x201D JUMPI JUMP JUMPDEST PUSH1 0x40 MLOAD PUSH3 0x461BCD PUSH1 0xE5 SHL DUP2 MSTORE PUSH1 0x20 PUSH1 0x4 DUP3 ADD MSTORE PUSH1 0x12 PUSH1 0x24 DUP3 ADD MSTORE PUSH18 0x27232A103737BA1034B71030BAB1BA34B7B7 PUSH1 0x71 SHL PUSH1 0x44 DUP3 ADD MSTORE PUSH1 0x64 SWAP1 REVERT INVALID LOG2 PUSH5 0x6970667358 0x22 SLT KECCAK256 CREATE 0xD1 MULMOD DELEGATECALL PUSH20 0x39D42B889E4D5182468F9212A2DA6C1375D0161F ORIGIN PUSH27 0x30D8B2A1AF64736F6C634300081400330000000000000000000000 "},"methodIdentifiers":{"approve(address,uint256)":"095ea7b3","balanceOf(address)":"70a08231","buyNFT(uint256)":"51ed8288","endAuction(uint256)":"b9a2de3a","getApproved(uint256)":"081812fc","getNFTMetadata(uint256)":"6be9a6f1","isApprovedForAll(address,address)":"e985e9c5","listNFT(uint256,uint256)":"94383f14","mintNFT(address,string,uint8,uint256,uint256,string,uint256)":"6cda59af","name()":"06fdde03","nftMetadata(uint256)":"49541015","owner()":"8da5cb5b","ownerOf(uint256)":"6352211e","placeBid(uint256)":"9979ef45","platformWallet()":"fa2af9da","renounceOwnership()":"715018a6","safeTransferFrom(address,address,uint256)":"42842e0e","safeTransferFrom(address,address,uint256,bytes)":"b88d4fde","setApprovalForAll(address,bool)":"a22cb465","startAuction(uint256,uint256,uint256)":"91e078bb","supportsInterface(bytes4)":"01ffc9a7","symbol()":"95d89b41","tokenURI(uint256)":"c87b56dd","transferFrom(address,address,uint256)":"23b872dd","transferOwnership(address)":"f2fde38b","updatePlatformWallet(address)":"ada4ef30"}}}}}