{"contracts/RiseUpFanClub.sol":{"RiseUpFanClub":{"abi":[{"inputs":[{"internalType":"address","name":"_nftContract","type":"address"}],"stateMutability":"nonpayable","type":"constructor"},{"inputs":[{"internalType":"address","name":"sender","type":"address"},{"internalType":"uint256","name":"tokenId","type":"uint256"},{"internalType":"address","name":"owner","type":"address"}],"name":"ERC721IncorrectOwner","type":"error"},{"inputs":[{"internalType":"address","name":"operator","type":"address"},{"internalType":"uint256","name":"tokenId","type":"uint256"}],"name":"ERC721InsufficientApproval","type":"error"},{"inputs":[{"internalType":"address","name":"approver","type":"address"}],"name":"ERC721InvalidApprover","type":"error"},{"inputs":[{"internalType":"address","name":"operator","type":"address"}],"name":"ERC721InvalidOperator","type":"error"},{"inputs":[{"internalType":"address","name":"owner","type":"address"}],"name":"ERC721InvalidOwner","type":"error"},{"inputs":[{"internalType":"address","name":"receiver","type":"address"}],"name":"ERC721InvalidReceiver","type":"error"},{"inputs":[{"internalType":"address","name":"sender","type":"address"}],"name":"ERC721InvalidSender","type":"error"},{"inputs":[{"internalType":"uint256","name":"tokenId","type":"uint256"}],"name":"ERC721NonexistentToken","type":"error"},{"inputs":[{"internalType":"address","name":"owner","type":"address"}],"name":"OwnableInvalidOwner","type":"error"},{"inputs":[{"internalType":"address","name":"account","type":"address"}],"name":"OwnableUnauthorizedAccount","type":"error"},{"inputs":[],"name":"ReentrancyGuardReentrantCall","type":"error"},{"anonymous":false,"inputs":[{"indexed":true,"internalType":"uint256","name":"membershipId","type":"uint256"},{"indexed":true,"internalType":"address","name":"contentOwner","type":"address"}],"name":"AccessGranted","type":"event"},{"anonymous":false,"inputs":[{"indexed":true,"internalType":"address","name":"owner","type":"address"},{"indexed":true,"internalType":"address","name":"approved","type":"address"},{"indexed":true,"internalType":"uint256","name":"tokenId","type":"uint256"}],"name":"Approval","type":"event"},{"anonymous":false,"inputs":[{"indexed":true,"internalType":"address","name":"owner","type":"address"},{"indexed":true,"internalType":"address","name":"operator","type":"address"},{"indexed":false,"internalType":"bool","name":"approved","type":"bool"}],"name":"ApprovalForAll","type":"event"},{"anonymous":false,"inputs":[{"indexed":false,"internalType":"uint256","name":"_fromTokenId","type":"uint256"},{"indexed":false,"internalType":"uint256","name":"_toTokenId","type":"uint256"}],"name":"BatchMetadataUpdate","type":"event"},{"anonymous":false,"inputs":[{"indexed":true,"internalType":"uint256","name":"membershipId","type":"uint256"}],"name":"MembershipExpired","type":"event"},{"anonymous":false,"inputs":[{"indexed":true,"internalType":"uint256","name":"membershipId","type":"uint256"},{"indexed":true,"internalType":"address","name":"holder","type":"address"},{"indexed":false,"internalType":"enum RiseUpFanClub.Tier","name":"tier","type":"uint8"}],"name":"MembershipMinted","type":"event"},{"anonymous":false,"inputs":[{"indexed":true,"internalType":"uint256","name":"membershipId","type":"uint256"},{"indexed":false,"internalType":"enum RiseUpFanClub.Tier","name":"oldTier","type":"uint8"},{"indexed":false,"internalType":"enum RiseUpFanClub.Tier","name":"newTier","type":"uint8"}],"name":"MembershipUpgraded","type":"event"},{"anonymous":false,"inputs":[{"indexed":false,"internalType":"uint256","name":"_tokenId","type":"uint256"}],"name":"MetadataUpdate","type":"event"},{"anonymous":false,"inputs":[{"indexed":true,"internalType":"address","name":"previousOwner","type":"address"},{"indexed":true,"internalType":"address","name":"newOwner","type":"address"}],"name":"OwnershipTransferred","type":"event"},{"anonymous":false,"inputs":[{"indexed":true,"internalType":"address","name":"from","type":"address"},{"indexed":true,"internalType":"address","name":"to","type":"address"},{"indexed":true,"internalType":"uint256","name":"tokenId","type":"uint256"}],"name":"Transfer","type":"event"},{"inputs":[{"internalType":"address","name":"to","type":"address"},{"internalType":"uint256","name":"tokenId","type":"uint256"}],"name":"approve","outputs":[],"stateMutability":"nonpayable","type":"function"},{"inputs":[{"internalType":"address","name":"owner","type":"address"}],"name":"balanceOf","outputs":[{"internalType":"uint256","name":"","type":"uint256"}],"stateMutability":"view","type":"function"},{"inputs":[{"internalType":"uint256","name":"ownedCount","type":"uint256"}],"name":"determineTier","outputs":[{"internalType":"enum RiseUpFanClub.Tier","name":"","type":"uint8"}],"stateMutability":"view","type":"function"},{"inputs":[{"internalType":"uint256","name":"tokenId","type":"uint256"}],"name":"getApproved","outputs":[{"internalType":"address","name":"","type":"address"}],"stateMutability":"view","type":"function"},{"inputs":[{"internalType":"uint256","name":"membershipId","type":"uint256"}],"name":"getMembership","outputs":[{"components":[{"internalType":"uint256","name":"membershipId","type":"uint256"},{"internalType":"address","name":"holder","type":"address"},{"internalType":"enum RiseUpFanClub.Tier","name":"tier","type":"uint8"},{"internalType":"uint256","name":"joinedAt","type":"uint256"},{"internalType":"uint256","name":"expiresAt","type":"uint256"},{"internalType":"bool","name":"isActive","type":"bool"},{"internalType":"uint256[]","name":"ownedNFTs","type":"uint256[]"}],"internalType":"struct RiseUpFanClub.Membership","name":"","type":"tuple"}],"stateMutability":"view","type":"function"},{"inputs":[{"internalType":"address","name":"user","type":"address"}],"name":"getNFTIds","outputs":[{"internalType":"uint256[]","name":"","type":"uint256[]"}],"stateMutability":"view","type":"function"},{"inputs":[{"internalType":"address","name":"user","type":"address"}],"name":"getOwnedNFTs","outputs":[{"internalType":"uint256","name":"","type":"uint256"}],"stateMutability":"view","type":"function"},{"inputs":[{"internalType":"address","name":"user","type":"address"},{"internalType":"enum RiseUpFanClub.Tier","name":"requiredTier","type":"uint8"}],"name":"hasAccess","outputs":[{"internalType":"bool","name":"","type":"bool"}],"stateMutability":"view","type":"function"},{"inputs":[{"internalType":"address","name":"owner","type":"address"},{"internalType":"address","name":"operator","type":"address"}],"name":"isApprovedForAll","outputs":[{"internalType":"bool","name":"","type":"bool"}],"stateMutability":"view","type":"function"},{"inputs":[{"internalType":"address","name":"","type":"address"}],"name":"memberToId","outputs":[{"internalType":"uint256","name":"","type":"uint256"}],"stateMutability":"view","type":"function"},{"inputs":[{"internalType":"uint256","name":"","type":"uint256"}],"name":"memberships","outputs":[{"internalType":"uint256","name":"membershipId","type":"uint256"},{"internalType":"address","name":"holder","type":"address"},{"internalType":"enum RiseUpFanClub.Tier","name":"tier","type":"uint8"},{"internalType":"uint256","name":"joinedAt","type":"uint256"},{"internalType":"uint256","name":"expiresAt","type":"uint256"},{"internalType":"bool","name":"isActive","type":"bool"}],"stateMutability":"view","type":"function"},{"inputs":[{"internalType":"address","name":"to","type":"address"},{"internalType":"string","name":"_tokenURI","type":"string"}],"name":"mintMembership","outputs":[{"internalType":"uint256","name":"","type":"uint256"}],"stateMutability":"nonpayable","type":"function"},{"inputs":[],"name":"name","outputs":[{"internalType":"string","name":"","type":"string"}],"stateMutability":"view","type":"function"},{"inputs":[],"name":"nftContract","outputs":[{"internalType":"contract RiseUpNFT","name":"","type":"address"}],"stateMutability":"view","type":"function"},{"inputs":[],"name":"owner","outputs":[{"internalType":"address","name":"","type":"address"}],"stateMutability":"view","type":"function"},{"inputs":[{"internalType":"uint256","name":"tokenId","type":"uint256"}],"name":"ownerOf","outputs":[{"internalType":"address","name":"","type":"address"}],"stateMutability":"view","type":"function"},{"inputs":[],"name":"renounceOwnership","outputs":[],"stateMutability":"nonpayable","type":"function"},{"inputs":[{"internalType":"address","name":"from","type":"address"},{"internalType":"address","name":"to","type":"address"},{"internalType":"uint256","name":"tokenId","type":"uint256"}],"name":"safeTransferFrom","outputs":[],"stateMutability":"nonpayable","type":"function"},{"inputs":[{"internalType":"address","name":"from","type":"address"},{"internalType":"address","name":"to","type":"address"},{"internalType":"uint256","name":"tokenId","type":"uint256"},{"internalType":"bytes","name":"data","type":"bytes"}],"name":"safeTransferFrom","outputs":[],"stateMutability":"nonpayable","type":"function"},{"inputs":[{"internalType":"address","name":"operator","type":"address"},{"internalType":"bool","name":"approved","type":"bool"}],"name":"setApprovalForAll","outputs":[],"stateMutability":"nonpayable","type":"function"},{"inputs":[{"internalType":"bytes4","name":"interfaceId","type":"bytes4"}],"name":"supportsInterface","outputs":[{"internalType":"bool","name":"","type":"bool"}],"stateMutability":"view","type":"function"},{"inputs":[],"name":"symbol","outputs":[{"internalType":"string","name":"","type":"string"}],"stateMutability":"view","type":"function"},{"inputs":[{"internalType":"enum RiseUpFanClub.Tier","name":"","type":"uint8"}],"name":"tierRequirements","outputs":[{"internalType":"uint256","name":"","type":"uint256"}],"stateMutability":"view","type":"function"},{"inputs":[{"internalType":"uint256","name":"tokenId","type":"uint256"}],"name":"tokenURI","outputs":[{"internalType":"string","name":"","type":"string"}],"stateMutability":"view","type":"function"},{"inputs":[{"internalType":"address","name":"from","type":"address"},{"internalType":"address","name":"to","type":"address"},{"internalType":"uint256","name":"tokenId","type":"uint256"}],"name":"transferFrom","outputs":[],"stateMutability":"nonpayable","type":"function"},{"inputs":[{"internalType":"address","name":"newOwner","type":"address"}],"name":"transferOwnership","outputs":[],"stateMutability":"nonpayable","type":"function"},{"inputs":[{"internalType":"uint256","name":"membershipId","type":"uint256"}],"name":"upgradeMembership","outputs":[],"stateMutability":"nonpayable","type":"function"}],"evm":{"bytecode":{"linkReferences":{},"object":"6080346200043d5762001f0190813803601f1991601f838184011682019460018060401b0393838710858811176200044257808492604098895283396020938491810103126200043d57516001600160a01b0380821692918390036200043d576200006962000458565b94600f86526e2934b9b2aab8102330b71021b63ab160891b858701526200008f62000458565b92600493848152635255464360e01b87820152875198838a1162000428576000998a549960019a8b81811c911680156200041d575b8b8210146200040a57908186849311620003b4575b508a908d8784116001146200034957926200033d575b5050600019600383901b1c1916908a1b178a555b81519384116200032a5788548981811c911680156200031f575b898210146200030c579081848695949311620002b5575b5088928411600114620002545750899262000248575b5050600019600383901b1c191690861b1785555b331562000231576007549160018060a01b03199233848216176007558851923391167f8be0079c531659141344cd1fd0a4f28419497f9722a3daafe3b4186f6b6457e08980a3856008558315620001f157876019818989600d8a8a8a6009541617600955838052528083832055815260058282205560028152600a8282205560038152205551611a889081620004798239f35b62461bcd60e51b82528101849052601460248201527f496e76616c6964204e465420636f6e74726163740000000000000000000000006044820152606490fd5b8651631e4fbdf760e01b8152808301879052602490fd5b0151905038806200014a565b898b52888b208a9590939291168b5b8a8282106200029e575050841162000284575b505050811b0185556200015e565b015160001960f88460031b161c1916905538808062000276565b8385015186558c9790950194938401930162000263565b9091929350898b52888b208480870160051c8201928b881062000302575b9187968d92969594930160051c01915b828110620002f357505062000134565b8d81558796508c9101620002e3565b92508192620002d3565b634e487b7160e01b8b526022875260248bfd5b90607f16906200011d565b634e487b7160e01b8a526041865260248afd5b015190503880620000ef565b9190858e95168380528d80852094905b82821062000393575050841162000379575b505050811b018a5562000103565b015160001960f88460031b161c191690553880806200036b565b91929395968291958786015181550195019301908e95949392918e62000359565b9091508c80528a8d208680850160051c8201928d861062000400575b859493910160051c909101908d908f5b838210620003f157505050620000d9565b81558594508e91018f620003e0565b92508192620003d0565b634e487b7160e01b8d526022895260248dfd5b90607f1690620000c4565b604186634e487b7160e01b6000525260246000fd5b600080fd5b634e487b7160e01b600052604160045260246000fd5b60408051919082016001600160401b03811183821017620004425760405256fe608080604052600436101561001357600080fd5b60003560e01c90816301ffc9a7146112825750806306fdde03146111df578063081812fc146111a1578063095ea7b3146110ba57806318148f1b146110955780631a8f8d4514610ee457806323b872dd14610ecd578063321621d714610e5457806334037bef1461094157806338fbf2c61461078657806342842e0e1461075e5780635ab562ff146107245780636352211e146106f457806370a082311461069b578063715018a61461063e5780638da5cb5b1461061557806395d89b4114610536578063a1b1cb43146104fa578063a22cb4651461044c578063b097cca91461041f578063b88d4fde146103bd578063bf3c8b7b1461037c578063c68cc3b614610347578063c87b56dd14610255578063d56d229d1461022c578063e985e9c5146101d65763f2fde38b1461014857600080fd5b346101d15760203660031901126101d157610161611347565b610169611496565b6001600160a01b039081169081156101b857600754826001600160601b0360a01b821617600755167f8be0079c531659141344cd1fd0a4f28419497f9722a3daafe3b4186f6b6457e0600080a3005b604051631e4fbdf760e01b815260006004820152602490fd5b600080fd5b346101d15760403660031901126101d1576101ef611347565b6101f761135d565b9060018060a01b03809116600052600560205260406000209116600052602052602060ff604060002054166040519015158152f35b346101d15760003660031901126101d1576009546040516001600160a01b039091168152602090f35b346101d1576020806003193601126101d157600435610273816117d7565b5060005260068152604060002090604051918260008254610293816114c2565b938484526001918683821691826000146103255750506001146102e6575b50506102bf925003836113ed565b60006040516102cd816113d1565b526102e2604051928284938452830190611307565b0390f35b85925060005281600020906000915b85831061030d5750506102bf935082010185806102b1565b805483890185015287945086939092019181016102f5565b92509350506102bf94915060ff191682840152151560051b82010185806102b1565b346101d15760203660031901126101d15760043560048110156101d157600052600d6020526020604060002054604051908152f35b346101d15760203660031901126101d157610395611347565b506102e26040516103a5816113d1565b60008152604051918291602083526020830190611462565b346101d15760803660031901126101d1576103d6611347565b6103de61135d565b6064359167ffffffffffffffff83116101d157366023840112156101d15761041361041d93369060248160040135910161142b565b9160443591611682565b005b346101d15760203660031901126101d157602061043d6004356119f4565b61044a60405180926113a8565bf35b346101d15760403660031901126101d157610465611347565b60243590811515908183036101d1576001600160a01b03169182156104e1576104b39033600052600560205260406000208460005260205260406000209060ff801983541691151516179055565b6040519081527f17307eab39ab6107e8899845ad3d59bd9653f200f220920489ca2b5937696c3160203392a3005b604051630b61174360e31b815260048101849052602490fd5b346101d15760403660031901126101d157610513611347565b6024359060048210156101d15760209161052c91611859565b6040519015158152f35b346101d15760003660031901126101d1576040516000600180549061055a826114c2565b808552918181169081156105ee5750600114610595575b6102e284610581818603826113ed565b604051918291602083526020830190611307565b600081815292507fb10e2d527612073b26eecdfd717e6a320cf44b4afac2b0732d9fcbe2b7fa0cf65b8284106105d657505050810160200161058182610571565b805460208587018101919091529093019281016105be565b60ff191660208087019190915292151560051b850190920192506105819150839050610571565b346101d15760003660031901126101d1576007546040516001600160a01b039091168152602090f35b346101d15760003660031901126101d157610657611496565b600780546001600160a01b031981169091556000906001600160a01b03167f8be0079c531659141344cd1fd0a4f28419497f9722a3daafe3b4186f6b6457e08280a3005b346101d15760203660031901126101d1576001600160a01b036106bc611347565b1680156106db5760005260036020526020604060002054604051908152f35b6040516322718ad960e21b815260006004820152602490fd5b346101d15760203660031901126101d15760206107126004356117d7565b6040516001600160a01b039091168152f35b346101d15760203660031901126101d1576001600160a01b03610745611347565b16600052600c6020526020604060002054604051908152f35b346101d15761041d61076f36611373565b906040519261077d846113d1565b60008452611682565b346101d1576020806003193601126101d15760043590606060c06040516107ac816113b5565b600081526000848201526000604082015260008382015260006080820152600060a08201520152816000526002815260018060a01b03918260406000205416156108fc57600052600b8152604060002060405190610809826113b5565b80548252600190818101549484840190808716825261083260ff604087019860a01c1688611812565b6002830154906060860191825260038401549260808701938452600560ff6004870154169560a0890196151587520160405180978a83549283815201926000528a6000209160005b8181106108e95750505050916102e29798999161089c886108c39503896113ed565b60c08a019788526040519a8b9a818c5251908b0152511660408901525160608801906113a8565b5160808601525160a085015251151560c08401525160e080840152610100830190611462565b83548552938c019392820192820161087a565b60405162461bcd60e51b815260048101839052601960248201527f4d656d6265727368697020646f6573206e6f74206578697374000000000000006044820152606490fd5b346101d15760403660031901126101d15761095a611347565b60243567ffffffffffffffff81116101d157366023820112156101d15761098b90369060248160040135910161142b565b6001600160a01b0382166000908152600c6020526040902054610e1c576109b0611980565b600a54916000198314610e065760018301600a556001600160a01b03841615610ded57600183016000908152600260205260409020546001600160a01b03168015159081610dac575b6001600160a01b03861660008181526003602090815260408083208054600190810190915589018084526002909252822080546001600160a01b0319168417905592907fddf252ad1be2c89b69c2b068fc378daa952ba7f163c4a11628f55a4df523b3ef9080a4610d935760018301600052600660205260406000209080519067ffffffffffffffff8211610cb3578190610a9484546114c2565b601f8111610d56575b50602090601f8311600114610cea57600092610cdf575b50508160011b916000199060031b1c19161790555b7ff8e1a15aba9398e019f0b49df1a4fde98ee17ae345cb5f6b5e2c27f5033e8ce76020604051600185018152a160405192610b03846113d1565b60008452604051610b13816113b5565b6001840181526001600160a01b038216602082019081529060408101610b398582611812565b6060820190428252608083016000815260a08401916001835260c08501998a5260018901600052600b602052604060002094518555600185019560018060a01b039051166001600160601b0360a01b87541617865551926004841015610cc957610ba8610bcc9460059761181e565b516002850155516003840155511515600483019060ff801983541691151516179055565b01935180519067ffffffffffffffff8211610cb357680100000000000000008211610cb3576020908654838855808410610c96575b50019460005260206000209460005b828110610c8257602086868660018060a01b038116600052600c845260018301604060002055610c4360405180936113a8565b6001600160a01b03169060018301907f49c77333ba19a8a45899e31c8bbaec140159ddd702f0b8c1b9b1d4bc4a2d8679908590a3600160405191018152f35b600190602083519301928189015501610c10565b610cad908860005284846000209182019101611842565b87610c01565b634e487b7160e01b600052604160045260246000fd5b634e487b7160e01b600052602160045260246000fd5b015190508680610ab4565b9250836000526020600020906000935b601f1984168510610d3b576001945083601f19811610610d22575b505050811b019055610ac9565b015160001960f88460031b161c19169055868080610d15565b81810151835560209485019460019093019290910190610cfa565b610d8390856000526020600020601f850160051c81019160208610610d89575b601f0160051c0190611842565b87610a9d565b9091508190610d76565b6040516339e3563760e11b815260006004820152602490fd5b610dd260018601600052600460205260406000206001600160601b0360a01b8154169055565b806000526003602052604060002060001981540190556109f9565b604051633250574960e11b815260006004820152602490fd5b634e487b7160e01b600052601160045260246000fd5b60405162461bcd60e51b815260206004820152601060248201526f20b63932b0b23c90309036b2b6b132b960811b6044820152606490fd5b346101d15760203660031901126101d157600435600052600b60205260c060406000208054906001810154906002810154610eba60ff60046003850154940154169360405195865260018060a01b038116602087015260ff604087019160a01c166113a8565b60608401526080830152151560a0820152f35b346101d15761041d610ede36611373565b916114fc565b346101d1576020806003193601126101d1576004356000818152600b8352604090206001810180549293909291336001600160a01b038416036110585760ff6004820154161561101b57610f36611980565b926004841015610cc95760a01c60ff16936004851015610cc95784841115610fdf57927f352ffa825b5dbfd121a26e29681d13bc73231bf9d64f248978f460eaf2a1be3b94926005610fc193610f8e8460409861181e565b60008751610f9b816113d1565b520180546000825580610fc4575b50600052610fb9855180956113a8565b8301906113a8565ba2005b610fd990826000528360002090810190611842565b88610fa9565b60405162461bcd60e51b81526004810184905260146024820152734e6f207570677261646520617661696c61626c6560601b6044820152606490fd5b60405162461bcd60e51b81526004810183905260156024820152744d656d62657273686970206e6f742061637469766560581b6044820152606490fd5b60405162461bcd60e51b81526004810183905260156024820152742737ba1036b2b6b132b939b434b8103437b63232b960591b6044820152606490fd5b346101d15760203660031901126101d1576110ae611347565b50602060405160008152f35b346101d15760403660031901126101d1576110d3611347565b6024356110df816117d7565b3315158061118e575b80611161575b611149576001600160a01b039283169282918491167f8c5be1e5ebec7d5bd14f71427d1e84f3dd0314c0f7b2291e5b200ac8c7c3b925600080a4600090815260046020526040902080546001600160a01b0319169091179055005b60405163a9fbf51f60e01b8152336004820152602490fd5b5060018060a01b038116600052600560205260406000203360005260205260ff60406000205416156110ee565b506001600160a01b0381163314156110e8565b346101d15760203660031901126101d1576004356111be816117d7565b506000526004602052602060018060a01b0360406000205416604051908152f35b346101d15760003660031901126101d15760405160008054611200816114c2565b808452906001908181169081156105ee5750600114611229576102e284610581818603826113ed565b600080805292507f290decd9548b62a8d60345a988386fc84ba6bc95484008f6362f93160ef3e5635b82841061126a57505050810160200161058182610571565b80546020858701810191909152909301928101611252565b346101d15760203660031901126101d1576004359063ffffffff60e01b82168092036101d157602091632483248360e11b81149081156112c4575b5015158152f35b6380ac58cd60e01b8114915081156112f6575b81156112e5575b50836112bd565b6301ffc9a760e01b149050836112de565b635b5e139f60e01b811491506112d7565b919082519283825260005b848110611333575050826000602080949584010152601f8019910116010190565b602081830181015184830182015201611312565b600435906001600160a01b03821682036101d157565b602435906001600160a01b03821682036101d157565b60609060031901126101d1576001600160a01b039060043582811681036101d1579160243590811681036101d1579060443590565b906004821015610cc95752565b60e0810190811067ffffffffffffffff821117610cb357604052565b6020810190811067ffffffffffffffff821117610cb357604052565b90601f8019910116810190811067ffffffffffffffff821117610cb357604052565b67ffffffffffffffff8111610cb357601f01601f191660200190565b9291926114378261140f565b9161144560405193846113ed565b8294818452818301116101d1578281602093846000960137010152565b90815180825260208080930193019160005b828110611482575050505090565b835185529381019392810192600101611474565b6007546001600160a01b031633036114aa57565b60405163118cdaa760e01b8152336004820152602490fd5b90600182811c921680156114f2575b60208310146114dc57565b634e487b7160e01b600052602260045260246000fd5b91607f16916114d1565b6001600160a01b039182169290918315610ded576000928284528260209560028752604096848888205416968791331515806115ec575b509060027fddf252ad1be2c89b69c2b068fc378daa952ba7f163c4a11628f55a4df523b3ef92846115b9575b858352600381528b8320805460010190558683525289812080546001600160a01b0319168517905580a416928383036115985750505050565b6064945051926364283d7b60e01b8452600484015260248301526044820152fd5b600087815260046020526040902080546001600160a01b0319169055848352600381528b8320805460001901905561155f565b91939450915080611641575b1561160857859291879138611533565b878688611625576024915190637e27328960e01b82526004820152fd5b604491519063177e802f60e01b82523360048301526024820152fd5b503387148015611666575b806115f857508582526004815233858984205416146115f8565b5086825260058152878220338352815260ff888320541661164c565b9290926116908385836114fc565b833b61169d575b50505050565b604051630a85bd0160e11b8082523360048301526001600160a01b03928316602483015260448201949094526080606482015294931692602092909185906116e9906084830190611307565b039483816000978189895af1869181611793575b5061175e575050503d600014611755573d6117178161140f565b9061172560405192836113ed565b81528093823d92013e5b8251928361175057604051633250574960e11b815260048101849052602490fd5b019050fd5b6060925061172f565b919450915063ffffffff60e01b160361177b575038808080611697565b60249060405190633250574960e11b82526004820152fd5b9091508481813d83116117d0575b6117ab81836113ed565b810103126117cc57516001600160e01b0319811681036117cc5790386116fd565b8680fd5b503d6117a1565b6000818152600260205260409020546001600160a01b03169081156117fa575090565b60249060405190637e27328960e01b82526004820152fd5b6004821015610cc95752565b906004811015610cc957815460ff60a01b191660a09190911b60ff60a01b16179055565b81811061184d575050565b60008155600101611842565b6001600160a01b039081166000908152600c602090815260408220549293928015611978578252600b81526040822090604051611895816113b5565b8254815260019182840154968716818301526118bb60ff604084019860a01c1688611812565b6002840154606083015260038401546080830152600560ff6004860154169460a08401951515865201604051918294859382845491828152019389528289209289905b82821061196057505050505060c092916119199103846113ed565b0152511515928361192b575b50505090565b51919250600482101561194c57600483101561194c57501015388080611925565b634e487b7160e01b81526021600452602490fd5b845486528896509485019493830193908301906118fe565b505091505090565b60036000908152600d6020527f26b4a10d0f0b04925c23bd4480ee147c916e5e87a7d68206a533dad160ac81e254156119ee57600281526040812054156119e857600181526040812054156119e2578080526040812054156119df5790565b90565b50600190565b50600290565b50600390565b60009060038252600d6020526040822054811015611a4b57600282526040822054811015611a4457600182526040822054811015611a3d57818052604082205411156119df5790565b5050600190565b5050600290565b505060039056fea26469706673582212204c8b7cb588e83e1a816f38c49559150737c45ba8fcdff8e8c9247fba1ae4fd9e64736f6c63430008140033","opcodes":"PUSH1 0x80 CALLVALUE PUSH3 0x43D JUMPI PUSH3 0x1F01 SWAP1 DUP2 CODESIZE SUB PUSH1 0x1F NOT SWAP2 PUSH1 0x1F DUP4 DUP2 DUP5 ADD AND DUP3 ADD SWAP5 PUSH1 0x1 DUP1 PUSH1 0x40 SHL SUB SWAP4 DUP4 DUP8 LT DUP6 DUP9 GT OR PUSH3 0x442 JUMPI DUP1 DUP5 SWAP3 PUSH1 0x40 SWAP9 DUP10 MSTORE DUP4 CODECOPY PUSH1 0x20 SWAP4 DUP5 SWAP2 DUP2 ADD SUB SLT PUSH3 0x43D JUMPI MLOAD PUSH1 0x1 PUSH1 0x1 PUSH1 0xA0 SHL SUB DUP1 DUP3 AND SWAP3 SWAP2 DUP4 SWAP1 SUB PUSH3 0x43D JUMPI PUSH3 0x69 PUSH3 0x458 JUMP JUMPDEST SWAP5 PUSH1 0xF DUP7 MSTORE PUSH15 0x2934B9B2AAB8102330B71021B63AB1 PUSH1 0x89 SHL DUP6 DUP8 ADD MSTORE PUSH3 0x8F PUSH3 0x458 JUMP JUMPDEST SWAP3 PUSH1 0x4 SWAP4 DUP5 DUP2 MSTORE PUSH4 0x52554643 PUSH1 0xE0 SHL DUP8 DUP3 ADD MSTORE DUP8 MLOAD SWAP9 DUP4 DUP11 GT PUSH3 0x428 JUMPI PUSH1 0x0 SWAP10 DUP11 SLOAD SWAP10 PUSH1 0x1 SWAP11 DUP12 DUP2 DUP2 SHR SWAP2 AND DUP1 ISZERO PUSH3 0x41D JUMPI JUMPDEST DUP12 DUP3 LT EQ PUSH3 0x40A JUMPI SWAP1 DUP2 DUP7 DUP5 SWAP4 GT PUSH3 0x3B4 JUMPI JUMPDEST POP DUP11 SWAP1 DUP14 DUP8 DUP5 GT PUSH1 0x1 EQ PUSH3 0x349 JUMPI SWAP3 PUSH3 0x33D JUMPI JUMPDEST POP POP PUSH1 0x0 NOT PUSH1 0x3 DUP4 SWAP1 SHL SHR NOT AND SWAP1 DUP11 SHL OR DUP11 SSTORE JUMPDEST DUP2 MLOAD SWAP4 DUP5 GT PUSH3 0x32A JUMPI DUP9 SLOAD DUP10 DUP2 DUP2 SHR SWAP2 AND DUP1 ISZERO PUSH3 0x31F JUMPI JUMPDEST DUP10 DUP3 LT EQ PUSH3 0x30C JUMPI SWAP1 DUP2 DUP5 DUP7 SWAP6 SWAP5 SWAP4 GT PUSH3 0x2B5 JUMPI JUMPDEST POP DUP9 SWAP3 DUP5 GT PUSH1 0x1 EQ PUSH3 0x254 JUMPI POP DUP10 SWAP3 PUSH3 0x248 JUMPI JUMPDEST POP POP PUSH1 0x0 NOT PUSH1 0x3 DUP4 SWAP1 SHL SHR NOT AND SWAP1 DUP7 SHL OR DUP6 SSTORE JUMPDEST CALLER ISZERO PUSH3 0x231 JUMPI PUSH1 0x7 SLOAD SWAP2 PUSH1 0x1 DUP1 PUSH1 0xA0 SHL SUB NOT SWAP3 CALLER DUP5 DUP3 AND OR PUSH1 0x7 SSTORE DUP9 MLOAD SWAP3 CALLER SWAP2 AND PUSH32 0x8BE0079C531659141344CD1FD0A4F28419497F9722A3DAAFE3B4186F6B6457E0 DUP10 DUP1 LOG3 DUP6 PUSH1 0x8 SSTORE DUP4 ISZERO PUSH3 0x1F1 JUMPI DUP8 PUSH1 0x19 DUP2 DUP10 DUP10 PUSH1 0xD DUP11 DUP11 DUP11 PUSH1 0x9 SLOAD AND OR PUSH1 0x9 SSTORE DUP4 DUP1 MSTORE MSTORE DUP1 DUP4 DUP4 KECCAK256 SSTORE DUP2 MSTORE PUSH1 0x5 DUP3 DUP3 KECCAK256 SSTORE PUSH1 0x2 DUP2 MSTORE PUSH1 0xA DUP3 DUP3 KECCAK256 SSTORE PUSH1 0x3 DUP2 MSTORE KECCAK256 SSTORE MLOAD PUSH2 0x1A88 SWAP1 DUP2 PUSH3 0x479 DUP3 CODECOPY RETURN JUMPDEST PUSH3 0x461BCD PUSH1 0xE5 SHL DUP3 MSTORE DUP2 ADD DUP5 SWAP1 MSTORE PUSH1 0x14 PUSH1 0x24 DUP3 ADD MSTORE PUSH32 0x496E76616C6964204E465420636F6E7472616374000000000000000000000000 PUSH1 0x44 DUP3 ADD MSTORE PUSH1 0x64 SWAP1 REVERT JUMPDEST DUP7 MLOAD PUSH4 0x1E4FBDF7 PUSH1 0xE0 SHL DUP2 MSTORE DUP1 DUP4 ADD DUP8 SWAP1 MSTORE PUSH1 0x24 SWAP1 REVERT JUMPDEST ADD MLOAD SWAP1 POP CODESIZE DUP1 PUSH3 0x14A JUMP JUMPDEST DUP10 DUP12 MSTORE DUP9 DUP12 KECCAK256 DUP11 SWAP6 SWAP1 SWAP4 SWAP3 SWAP2 AND DUP12 JUMPDEST DUP11 DUP3 DUP3 LT PUSH3 0x29E JUMPI POP POP DUP5 GT PUSH3 0x284 JUMPI JUMPDEST POP POP POP DUP2 SHL ADD DUP6 SSTORE PUSH3 0x15E JUMP JUMPDEST ADD MLOAD PUSH1 0x0 NOT PUSH1 0xF8 DUP5 PUSH1 0x3 SHL AND SHR NOT AND SWAP1 SSTORE CODESIZE DUP1 DUP1 PUSH3 0x276 JUMP JUMPDEST DUP4 DUP6 ADD MLOAD DUP7 SSTORE DUP13 SWAP8 SWAP1 SWAP6 ADD SWAP5 SWAP4 DUP5 ADD SWAP4 ADD PUSH3 0x263 JUMP JUMPDEST SWAP1 SWAP2 SWAP3 SWAP4 POP DUP10 DUP12 MSTORE DUP9 DUP12 KECCAK256 DUP5 DUP1 DUP8 ADD PUSH1 0x5 SHR DUP3 ADD SWAP3 DUP12 DUP9 LT PUSH3 0x302 JUMPI JUMPDEST SWAP2 DUP8 SWAP7 DUP14 SWAP3 SWAP7 SWAP6 SWAP5 SWAP4 ADD PUSH1 0x5 SHR ADD SWAP2 JUMPDEST DUP3 DUP2 LT PUSH3 0x2F3 JUMPI POP POP PUSH3 0x134 JUMP JUMPDEST DUP14 DUP2 SSTORE DUP8 SWAP7 POP DUP13 SWAP2 ADD PUSH3 0x2E3 JUMP JUMPDEST SWAP3 POP DUP2 SWAP3 PUSH3 0x2D3 JUMP JUMPDEST PUSH4 0x4E487B71 PUSH1 0xE0 SHL DUP12 MSTORE PUSH1 0x22 DUP8 MSTORE PUSH1 0x24 DUP12 REVERT JUMPDEST SWAP1 PUSH1 0x7F AND SWAP1 PUSH3 0x11D JUMP JUMPDEST PUSH4 0x4E487B71 PUSH1 0xE0 SHL DUP11 MSTORE PUSH1 0x41 DUP7 MSTORE PUSH1 0x24 DUP11 REVERT JUMPDEST ADD MLOAD SWAP1 POP CODESIZE DUP1 PUSH3 0xEF JUMP JUMPDEST SWAP2 SWAP1 DUP6 DUP15 SWAP6 AND DUP4 DUP1 MSTORE DUP14 DUP1 DUP6 KECCAK256 SWAP5 SWAP1 JUMPDEST DUP3 DUP3 LT PUSH3 0x393 JUMPI POP POP DUP5 GT PUSH3 0x379 JUMPI JUMPDEST POP POP POP DUP2 SHL ADD DUP11 SSTORE PUSH3 0x103 JUMP JUMPDEST ADD MLOAD PUSH1 0x0 NOT PUSH1 0xF8 DUP5 PUSH1 0x3 SHL AND SHR NOT AND SWAP1 SSTORE CODESIZE DUP1 DUP1 PUSH3 0x36B JUMP JUMPDEST SWAP2 SWAP3 SWAP4 SWAP6 SWAP7 DUP3 SWAP2 SWAP6 DUP8 DUP7 ADD MLOAD DUP2 SSTORE ADD SWAP6 ADD SWAP4 ADD SWAP1 DUP15 SWAP6 SWAP5 SWAP4 SWAP3 SWAP2 DUP15 PUSH3 0x359 JUMP JUMPDEST SWAP1 SWAP2 POP DUP13 DUP1 MSTORE DUP11 DUP14 KECCAK256 DUP7 DUP1 DUP6 ADD PUSH1 0x5 SHR DUP3 ADD SWAP3 DUP14 DUP7 LT PUSH3 0x400 JUMPI JUMPDEST DUP6 SWAP5 SWAP4 SWAP2 ADD PUSH1 0x5 SHR SWAP1 SWAP2 ADD SWAP1 DUP14 SWAP1 DUP16 JUMPDEST DUP4 DUP3 LT PUSH3 0x3F1 JUMPI POP POP POP PUSH3 0xD9 JUMP JUMPDEST DUP2 SSTORE DUP6 SWAP5 POP DUP15 SWAP2 ADD DUP16 PUSH3 0x3E0 JUMP JUMPDEST SWAP3 POP DUP2 SWAP3 PUSH3 0x3D0 JUMP JUMPDEST PUSH4 0x4E487B71 PUSH1 0xE0 SHL DUP14 MSTORE PUSH1 0x22 DUP10 MSTORE PUSH1 0x24 DUP14 REVERT JUMPDEST SWAP1 PUSH1 0x7F AND SWAP1 PUSH3 0xC4 JUMP JUMPDEST PUSH1 0x41 DUP7 PUSH4 0x4E487B71 PUSH1 0xE0 SHL PUSH1 0x0 MSTORE MSTORE PUSH1 0x24 PUSH1 0x0 REVERT JUMPDEST PUSH1 0x0 DUP1 REVERT JUMPDEST PUSH4 0x4E487B71 PUSH1 0xE0 SHL PUSH1 0x0 MSTORE PUSH1 0x41 PUSH1 0x4 MSTORE PUSH1 0x24 PUSH1 0x0 REVERT JUMPDEST PUSH1 0x40 DUP1 MLOAD SWAP2 SWAP1 DUP3 ADD PUSH1 0x1 PUSH1 0x1 PUSH1 0x40 SHL SUB DUP2 GT DUP4 DUP3 LT OR PUSH3 0x442 JUMPI PUSH1 0x40 MSTORE JUMP INVALID PUSH1 0x80 DUP1 PUSH1 0x40 MSTORE PUSH1 0x4 CALLDATASIZE LT ISZERO PUSH2 0x13 JUMPI PUSH1 0x0 DUP1 REVERT JUMPDEST PUSH1 0x0 CALLDATALOAD PUSH1 0xE0 SHR SWAP1 DUP2 PUSH4 0x1FFC9A7 EQ PUSH2 0x1282 JUMPI POP DUP1 PUSH4 0x6FDDE03 EQ PUSH2 0x11DF JUMPI DUP1 PUSH4 0x81812FC EQ PUSH2 0x11A1 JUMPI DUP1 PUSH4 0x95EA7B3 EQ PUSH2 0x10BA JUMPI DUP1 PUSH4 0x18148F1B EQ PUSH2 0x1095 JUMPI DUP1 PUSH4 0x1A8F8D45 EQ PUSH2 0xEE4 JUMPI DUP1 PUSH4 0x23B872DD EQ PUSH2 0xECD JUMPI DUP1 PUSH4 0x321621D7 EQ PUSH2 0xE54 JUMPI DUP1 PUSH4 0x34037BEF EQ PUSH2 0x941 JUMPI DUP1 PUSH4 0x38FBF2C6 EQ PUSH2 0x786 JUMPI DUP1 PUSH4 0x42842E0E EQ PUSH2 0x75E JUMPI DUP1 PUSH4 0x5AB562FF EQ PUSH2 0x724 JUMPI DUP1 PUSH4 0x6352211E EQ PUSH2 0x6F4 JUMPI DUP1 PUSH4 0x70A08231 EQ PUSH2 0x69B JUMPI DUP1 PUSH4 0x715018A6 EQ PUSH2 0x63E JUMPI DUP1 PUSH4 0x8DA5CB5B EQ PUSH2 0x615 JUMPI DUP1 PUSH4 0x95D89B41 EQ PUSH2 0x536 JUMPI DUP1 PUSH4 0xA1B1CB43 EQ PUSH2 0x4FA JUMPI DUP1 PUSH4 0xA22CB465 EQ PUSH2 0x44C JUMPI DUP1 PUSH4 0xB097CCA9 EQ PUSH2 0x41F JUMPI DUP1 PUSH4 0xB88D4FDE EQ PUSH2 0x3BD JUMPI DUP1 PUSH4 0xBF3C8B7B EQ PUSH2 0x37C JUMPI DUP1 PUSH4 0xC68CC3B6 EQ PUSH2 0x347 JUMPI DUP1 PUSH4 0xC87B56DD EQ PUSH2 0x255 JUMPI DUP1 PUSH4 0xD56D229D EQ PUSH2 0x22C JUMPI DUP1 PUSH4 0xE985E9C5 EQ PUSH2 0x1D6 JUMPI PUSH4 0xF2FDE38B EQ PUSH2 0x148 JUMPI PUSH1 0x0 DUP1 REVERT JUMPDEST CALLVALUE PUSH2 0x1D1 JUMPI PUSH1 0x20 CALLDATASIZE PUSH1 0x3 NOT ADD SLT PUSH2 0x1D1 JUMPI PUSH2 0x161 PUSH2 0x1347 JUMP JUMPDEST PUSH2 0x169 PUSH2 0x1496 JUMP JUMPDEST PUSH1 0x1 PUSH1 0x1 PUSH1 0xA0 SHL SUB SWAP1 DUP2 AND SWAP1 DUP2 ISZERO PUSH2 0x1B8 JUMPI PUSH1 0x7 SLOAD DUP3 PUSH1 0x1 PUSH1 0x1 PUSH1 0x60 SHL SUB PUSH1 0xA0 SHL DUP3 AND OR PUSH1 0x7 SSTORE AND PUSH32 0x8BE0079C531659141344CD1FD0A4F28419497F9722A3DAAFE3B4186F6B6457E0 PUSH1 0x0 DUP1 LOG3 STOP JUMPDEST PUSH1 0x40 MLOAD PUSH4 0x1E4FBDF7 PUSH1 0xE0 SHL DUP2 MSTORE PUSH1 0x0 PUSH1 0x4 DUP3 ADD MSTORE PUSH1 0x24 SWAP1 REVERT JUMPDEST PUSH1 0x0 DUP1 REVERT JUMPDEST CALLVALUE PUSH2 0x1D1 JUMPI PUSH1 0x40 CALLDATASIZE PUSH1 0x3 NOT ADD SLT PUSH2 0x1D1 JUMPI PUSH2 0x1EF PUSH2 0x1347 JUMP JUMPDEST PUSH2 0x1F7 PUSH2 0x135D JUMP JUMPDEST SWAP1 PUSH1 0x1 DUP1 PUSH1 0xA0 SHL SUB DUP1 SWAP2 AND PUSH1 0x0 MSTORE PUSH1 0x5 PUSH1 0x20 MSTORE PUSH1 0x40 PUSH1 0x0 KECCAK256 SWAP2 AND PUSH1 0x0 MSTORE PUSH1 0x20 MSTORE PUSH1 0x20 PUSH1 0xFF PUSH1 0x40 PUSH1 0x0 KECCAK256 SLOAD AND PUSH1 0x40 MLOAD SWAP1 ISZERO ISZERO DUP2 MSTORE RETURN JUMPDEST CALLVALUE PUSH2 0x1D1 JUMPI PUSH1 0x0 CALLDATASIZE PUSH1 0x3 NOT ADD SLT PUSH2 0x1D1 JUMPI PUSH1 0x9 SLOAD PUSH1 0x40 MLOAD PUSH1 0x1 PUSH1 0x1 PUSH1 0xA0 SHL SUB SWAP1 SWAP2 AND DUP2 MSTORE PUSH1 0x20 SWAP1 RETURN JUMPDEST CALLVALUE PUSH2 0x1D1 JUMPI PUSH1 0x20 DUP1 PUSH1 0x3 NOT CALLDATASIZE ADD SLT PUSH2 0x1D1 JUMPI PUSH1 0x4 CALLDATALOAD PUSH2 0x273 DUP2 PUSH2 0x17D7 JUMP JUMPDEST POP PUSH1 0x0 MSTORE PUSH1 0x6 DUP2 MSTORE PUSH1 0x40 PUSH1 0x0 KECCAK256 SWAP1 PUSH1 0x40 MLOAD SWAP2 DUP3 PUSH1 0x0 DUP3 SLOAD PUSH2 0x293 DUP2 PUSH2 0x14C2 JUMP JUMPDEST SWAP4 DUP5 DUP5 MSTORE PUSH1 0x1 SWAP2 DUP7 DUP4 DUP3 AND SWAP2 DUP3 PUSH1 0x0 EQ PUSH2 0x325 JUMPI POP POP PUSH1 0x1 EQ PUSH2 0x2E6 JUMPI JUMPDEST POP POP PUSH2 0x2BF SWAP3 POP SUB DUP4 PUSH2 0x13ED JUMP JUMPDEST PUSH1 0x0 PUSH1 0x40 MLOAD PUSH2 0x2CD DUP2 PUSH2 0x13D1 JUMP JUMPDEST MSTORE PUSH2 0x2E2 PUSH1 0x40 MLOAD SWAP3 DUP3 DUP5 SWAP4 DUP5 MSTORE DUP4 ADD SWAP1 PUSH2 0x1307 JUMP JUMPDEST SUB SWAP1 RETURN JUMPDEST DUP6 SWAP3 POP PUSH1 0x0 MSTORE DUP2 PUSH1 0x0 KECCAK256 SWAP1 PUSH1 0x0 SWAP2 JUMPDEST DUP6 DUP4 LT PUSH2 0x30D JUMPI POP POP PUSH2 0x2BF SWAP4 POP DUP3 ADD ADD DUP6 DUP1 PUSH2 0x2B1 JUMP JUMPDEST DUP1 SLOAD DUP4 DUP10 ADD DUP6 ADD MSTORE DUP8 SWAP5 POP DUP7 SWAP4 SWAP1 SWAP3 ADD SWAP2 DUP2 ADD PUSH2 0x2F5 JUMP JUMPDEST SWAP3 POP SWAP4 POP POP PUSH2 0x2BF SWAP5 SWAP2 POP PUSH1 0xFF NOT AND DUP3 DUP5 ADD MSTORE ISZERO ISZERO PUSH1 0x5 SHL DUP3 ADD ADD DUP6 DUP1 PUSH2 0x2B1 JUMP JUMPDEST CALLVALUE PUSH2 0x1D1 JUMPI PUSH1 0x20 CALLDATASIZE PUSH1 0x3 NOT ADD SLT PUSH2 0x1D1 JUMPI PUSH1 0x4 CALLDATALOAD PUSH1 0x4 DUP2 LT ISZERO PUSH2 0x1D1 JUMPI PUSH1 0x0 MSTORE PUSH1 0xD PUSH1 0x20 MSTORE PUSH1 0x20 PUSH1 0x40 PUSH1 0x0 KECCAK256 SLOAD PUSH1 0x40 MLOAD SWAP1 DUP2 MSTORE RETURN JUMPDEST CALLVALUE PUSH2 0x1D1 JUMPI PUSH1 0x20 CALLDATASIZE PUSH1 0x3 NOT ADD SLT PUSH2 0x1D1 JUMPI PUSH2 0x395 PUSH2 0x1347 JUMP JUMPDEST POP PUSH2 0x2E2 PUSH1 0x40 MLOAD PUSH2 0x3A5 DUP2 PUSH2 0x13D1 JUMP JUMPDEST PUSH1 0x0 DUP2 MSTORE PUSH1 0x40 MLOAD SWAP2 DUP3 SWAP2 PUSH1 0x20 DUP4 MSTORE PUSH1 0x20 DUP4 ADD SWAP1 PUSH2 0x1462 JUMP JUMPDEST CALLVALUE PUSH2 0x1D1 JUMPI PUSH1 0x80 CALLDATASIZE PUSH1 0x3 NOT ADD SLT PUSH2 0x1D1 JUMPI PUSH2 0x3D6 PUSH2 0x1347 JUMP JUMPDEST PUSH2 0x3DE PUSH2 0x135D JUMP JUMPDEST PUSH1 0x64 CALLDATALOAD SWAP2 PUSH8 0xFFFFFFFFFFFFFFFF DUP4 GT PUSH2 0x1D1 JUMPI CALLDATASIZE PUSH1 0x23 DUP5 ADD SLT ISZERO PUSH2 0x1D1 JUMPI PUSH2 0x413 PUSH2 0x41D SWAP4 CALLDATASIZE SWAP1 PUSH1 0x24 DUP2 PUSH1 0x4 ADD CALLDATALOAD SWAP2 ADD PUSH2 0x142B JUMP JUMPDEST SWAP2 PUSH1 0x44 CALLDATALOAD SWAP2 PUSH2 0x1682 JUMP JUMPDEST STOP JUMPDEST CALLVALUE PUSH2 0x1D1 JUMPI PUSH1 0x20 CALLDATASIZE PUSH1 0x3 NOT ADD SLT PUSH2 0x1D1 JUMPI PUSH1 0x20 PUSH2 0x43D PUSH1 0x4 CALLDATALOAD PUSH2 0x19F4 JUMP JUMPDEST PUSH2 0x44A PUSH1 0x40 MLOAD DUP1 SWAP3 PUSH2 0x13A8 JUMP JUMPDEST RETURN JUMPDEST CALLVALUE PUSH2 0x1D1 JUMPI PUSH1 0x40 CALLDATASIZE PUSH1 0x3 NOT ADD SLT PUSH2 0x1D1 JUMPI PUSH2 0x465 PUSH2 0x1347 JUMP JUMPDEST PUSH1 0x24 CALLDATALOAD SWAP1 DUP2 ISZERO ISZERO SWAP1 DUP2 DUP4 SUB PUSH2 0x1D1 JUMPI PUSH1 0x1 PUSH1 0x1 PUSH1 0xA0 SHL SUB AND SWAP2 DUP3 ISZERO PUSH2 0x4E1 JUMPI PUSH2 0x4B3 SWAP1 CALLER PUSH1 0x0 MSTORE PUSH1 0x5 PUSH1 0x20 MSTORE PUSH1 0x40 PUSH1 0x0 KECCAK256 DUP5 PUSH1 0x0 MSTORE PUSH1 0x20 MSTORE PUSH1 0x40 PUSH1 0x0 KECCAK256 SWAP1 PUSH1 0xFF DUP1 NOT DUP4 SLOAD AND SWAP2 ISZERO ISZERO AND OR SWAP1 SSTORE JUMP JUMPDEST PUSH1 0x40 MLOAD SWAP1 DUP2 MSTORE PUSH32 0x17307EAB39AB6107E8899845AD3D59BD9653F200F220920489CA2B5937696C31 PUSH1 0x20 CALLER SWAP3 LOG3 STOP JUMPDEST PUSH1 0x40 MLOAD PUSH4 0xB611743 PUSH1 0xE3 SHL DUP2 MSTORE PUSH1 0x4 DUP2 ADD DUP5 SWAP1 MSTORE PUSH1 0x24 SWAP1 REVERT JUMPDEST CALLVALUE PUSH2 0x1D1 JUMPI PUSH1 0x40 CALLDATASIZE PUSH1 0x3 NOT ADD SLT PUSH2 0x1D1 JUMPI PUSH2 0x513 PUSH2 0x1347 JUMP JUMPDEST PUSH1 0x24 CALLDATALOAD SWAP1 PUSH1 0x4 DUP3 LT ISZERO PUSH2 0x1D1 JUMPI PUSH1 0x20 SWAP2 PUSH2 0x52C SWAP2 PUSH2 0x1859 JUMP JUMPDEST PUSH1 0x40 MLOAD SWAP1 ISZERO ISZERO DUP2 MSTORE RETURN JUMPDEST CALLVALUE PUSH2 0x1D1 JUMPI PUSH1 0x0 CALLDATASIZE PUSH1 0x3 NOT ADD SLT PUSH2 0x1D1 JUMPI PUSH1 0x40 MLOAD PUSH1 0x0 PUSH1 0x1 DUP1 SLOAD SWAP1 PUSH2 0x55A DUP3 PUSH2 0x14C2 JUMP JUMPDEST DUP1 DUP6 MSTORE SWAP2 DUP2 DUP2 AND SWAP1 DUP2 ISZERO PUSH2 0x5EE JUMPI POP PUSH1 0x1 EQ PUSH2 0x595 JUMPI JUMPDEST PUSH2 0x2E2 DUP5 PUSH2 0x581 DUP2 DUP7 SUB DUP3 PUSH2 0x13ED JUMP JUMPDEST PUSH1 0x40 MLOAD SWAP2 DUP3 SWAP2 PUSH1 0x20 DUP4 MSTORE PUSH1 0x20 DUP4 ADD SWAP1 PUSH2 0x1307 JUMP JUMPDEST PUSH1 0x0 DUP2 DUP2 MSTORE SWAP3 POP PUSH32 0xB10E2D527612073B26EECDFD717E6A320CF44B4AFAC2B0732D9FCBE2B7FA0CF6 JUMPDEST DUP3 DUP5 LT PUSH2 0x5D6 JUMPI POP POP POP DUP2 ADD PUSH1 0x20 ADD PUSH2 0x581 DUP3 PUSH2 0x571 JUMP JUMPDEST DUP1 SLOAD PUSH1 0x20 DUP6 DUP8 ADD DUP2 ADD SWAP2 SWAP1 SWAP2 MSTORE SWAP1 SWAP4 ADD SWAP3 DUP2 ADD PUSH2 0x5BE JUMP JUMPDEST PUSH1 0xFF NOT AND PUSH1 0x20 DUP1 DUP8 ADD SWAP2 SWAP1 SWAP2 MSTORE SWAP3 ISZERO ISZERO PUSH1 0x5 SHL DUP6 ADD SWAP1 SWAP3 ADD SWAP3 POP PUSH2 0x581 SWAP2 POP DUP4 SWAP1 POP PUSH2 0x571 JUMP JUMPDEST CALLVALUE PUSH2 0x1D1 JUMPI PUSH1 0x0 CALLDATASIZE PUSH1 0x3 NOT ADD SLT PUSH2 0x1D1 JUMPI PUSH1 0x7 SLOAD PUSH1 0x40 MLOAD PUSH1 0x1 PUSH1 0x1 PUSH1 0xA0 SHL SUB SWAP1 SWAP2 AND DUP2 MSTORE PUSH1 0x20 SWAP1 RETURN JUMPDEST CALLVALUE PUSH2 0x1D1 JUMPI PUSH1 0x0 CALLDATASIZE PUSH1 0x3 NOT ADD SLT PUSH2 0x1D1 JUMPI PUSH2 0x657 PUSH2 0x1496 JUMP JUMPDEST PUSH1 0x7 DUP1 SLOAD PUSH1 0x1 PUSH1 0x1 PUSH1 0xA0 SHL SUB NOT DUP2 AND SWAP1 SWAP2 SSTORE PUSH1 0x0 SWAP1 PUSH1 0x1 PUSH1 0x1 PUSH1 0xA0 SHL SUB AND PUSH32 0x8BE0079C531659141344CD1FD0A4F28419497F9722A3DAAFE3B4186F6B6457E0 DUP3 DUP1 LOG3 STOP JUMPDEST CALLVALUE PUSH2 0x1D1 JUMPI PUSH1 0x20 CALLDATASIZE PUSH1 0x3 NOT ADD SLT PUSH2 0x1D1 JUMPI PUSH1 0x1 PUSH1 0x1 PUSH1 0xA0 SHL SUB PUSH2 0x6BC PUSH2 0x1347 JUMP JUMPDEST AND DUP1 ISZERO PUSH2 0x6DB JUMPI PUSH1 0x0 MSTORE PUSH1 0x3 PUSH1 0x20 MSTORE PUSH1 0x20 PUSH1 0x40 PUSH1 0x0 KECCAK256 SLOAD PUSH1 0x40 MLOAD SWAP1 DUP2 MSTORE RETURN JUMPDEST PUSH1 0x40 MLOAD PUSH4 0x22718AD9 PUSH1 0xE2 SHL DUP2 MSTORE PUSH1 0x0 PUSH1 0x4 DUP3 ADD MSTORE PUSH1 0x24 SWAP1 REVERT JUMPDEST CALLVALUE PUSH2 0x1D1 JUMPI PUSH1 0x20 CALLDATASIZE PUSH1 0x3 NOT ADD SLT PUSH2 0x1D1 JUMPI PUSH1 0x20 PUSH2 0x712 PUSH1 0x4 CALLDATALOAD PUSH2 0x17D7 JUMP JUMPDEST PUSH1 0x40 MLOAD PUSH1 0x1 PUSH1 0x1 PUSH1 0xA0 SHL SUB SWAP1 SWAP2 AND DUP2 MSTORE RETURN JUMPDEST CALLVALUE PUSH2 0x1D1 JUMPI PUSH1 0x20 CALLDATASIZE PUSH1 0x3 NOT ADD SLT PUSH2 0x1D1 JUMPI PUSH1 0x1 PUSH1 0x1 PUSH1 0xA0 SHL SUB PUSH2 0x745 PUSH2 0x1347 JUMP JUMPDEST AND PUSH1 0x0 MSTORE PUSH1 0xC PUSH1 0x20 MSTORE PUSH1 0x20 PUSH1 0x40 PUSH1 0x0 KECCAK256 SLOAD PUSH1 0x40 MLOAD SWAP1 DUP2 MSTORE RETURN JUMPDEST CALLVALUE PUSH2 0x1D1 JUMPI PUSH2 0x41D PUSH2 0x76F CALLDATASIZE PUSH2 0x1373 JUMP JUMPDEST SWAP1 PUSH1 0x40 MLOAD SWAP3 PUSH2 0x77D DUP5 PUSH2 0x13D1 JUMP JUMPDEST PUSH1 0x0 DUP5 MSTORE PUSH2 0x1682 JUMP JUMPDEST CALLVALUE PUSH2 0x1D1 JUMPI PUSH1 0x20 DUP1 PUSH1 0x3 NOT CALLDATASIZE ADD SLT PUSH2 0x1D1 JUMPI PUSH1 0x4 CALLDATALOAD SWAP1 PUSH1 0x60 PUSH1 0xC0 PUSH1 0x40 MLOAD PUSH2 0x7AC DUP2 PUSH2 0x13B5 JUMP JUMPDEST PUSH1 0x0 DUP2 MSTORE PUSH1 0x0 DUP5 DUP3 ADD MSTORE PUSH1 0x0 PUSH1 0x40 DUP3 ADD MSTORE PUSH1 0x0 DUP4 DUP3 ADD MSTORE PUSH1 0x0 PUSH1 0x80 DUP3 ADD MSTORE PUSH1 0x0 PUSH1 0xA0 DUP3 ADD MSTORE ADD MSTORE DUP2 PUSH1 0x0 MSTORE PUSH1 0x2 DUP2 MSTORE PUSH1 0x1 DUP1 PUSH1 0xA0 SHL SUB SWAP2 DUP3 PUSH1 0x40 PUSH1 0x0 KECCAK256 SLOAD AND ISZERO PUSH2 0x8FC JUMPI PUSH1 0x0 MSTORE PUSH1 0xB DUP2 MSTORE PUSH1 0x40 PUSH1 0x0 KECCAK256 PUSH1 0x40 MLOAD SWAP1 PUSH2 0x809 DUP3 PUSH2 0x13B5 JUMP JUMPDEST DUP1 SLOAD DUP3 MSTORE PUSH1 0x1 SWAP1 DUP2 DUP2 ADD SLOAD SWAP5 DUP5 DUP5 ADD SWAP1 DUP1 DUP8 AND DUP3 MSTORE PUSH2 0x832 PUSH1 0xFF PUSH1 0x40 DUP8 ADD SWAP9 PUSH1 0xA0 SHR AND DUP9 PUSH2 0x1812 JUMP JUMPDEST PUSH1 0x2 DUP4 ADD SLOAD SWAP1 PUSH1 0x60 DUP7 ADD SWAP2 DUP3 MSTORE PUSH1 0x3 DUP5 ADD SLOAD SWAP3 PUSH1 0x80 DUP8 ADD SWAP4 DUP5 MSTORE PUSH1 0x5 PUSH1 0xFF PUSH1 0x4 DUP8 ADD SLOAD AND SWAP6 PUSH1 0xA0 DUP10 ADD SWAP7 ISZERO ISZERO DUP8 MSTORE ADD PUSH1 0x40 MLOAD DUP1 SWAP8 DUP11 DUP4 SLOAD SWAP3 DUP4 DUP2 MSTORE ADD SWAP3 PUSH1 0x0 MSTORE DUP11 PUSH1 0x0 KECCAK256 SWAP2 PUSH1 0x0 JUMPDEST DUP2 DUP2 LT PUSH2 0x8E9 JUMPI POP POP POP POP SWAP2 PUSH2 0x2E2 SWAP8 SWAP9 SWAP10 SWAP2 PUSH2 0x89C DUP9 PUSH2 0x8C3 SWAP6 SUB DUP10 PUSH2 0x13ED JUMP JUMPDEST PUSH1 0xC0 DUP11 ADD SWAP8 DUP9 MSTORE PUSH1 0x40 MLOAD SWAP11 DUP12 SWAP11 DUP2 DUP13 MSTORE MLOAD SWAP1 DUP12 ADD MSTORE MLOAD AND PUSH1 0x40 DUP10 ADD MSTORE MLOAD PUSH1 0x60 DUP9 ADD SWAP1 PUSH2 0x13A8 JUMP JUMPDEST MLOAD PUSH1 0x80 DUP7 ADD MSTORE MLOAD PUSH1 0xA0 DUP6 ADD MSTORE MLOAD ISZERO ISZERO PUSH1 0xC0 DUP5 ADD MSTORE MLOAD PUSH1 0xE0 DUP1 DUP5 ADD MSTORE PUSH2 0x100 DUP4 ADD SWAP1 PUSH2 0x1462 JUMP JUMPDEST DUP4 SLOAD DUP6 MSTORE SWAP4 DUP13 ADD SWAP4 SWAP3 DUP3 ADD SWAP3 DUP3 ADD PUSH2 0x87A JUMP JUMPDEST PUSH1 0x40 MLOAD PUSH3 0x461BCD PUSH1 0xE5 SHL DUP2 MSTORE PUSH1 0x4 DUP2 ADD DUP4 SWAP1 MSTORE PUSH1 0x19 PUSH1 0x24 DUP3 ADD MSTORE PUSH32 0x4D656D6265727368697020646F6573206E6F7420657869737400000000000000 PUSH1 0x44 DUP3 ADD MSTORE PUSH1 0x64 SWAP1 REVERT JUMPDEST CALLVALUE PUSH2 0x1D1 JUMPI PUSH1 0x40 CALLDATASIZE PUSH1 0x3 NOT ADD SLT PUSH2 0x1D1 JUMPI PUSH2 0x95A PUSH2 0x1347 JUMP JUMPDEST PUSH1 0x24 CALLDATALOAD PUSH8 0xFFFFFFFFFFFFFFFF DUP2 GT PUSH2 0x1D1 JUMPI CALLDATASIZE PUSH1 0x23 DUP3 ADD SLT ISZERO PUSH2 0x1D1 JUMPI PUSH2 0x98B SWAP1 CALLDATASIZE SWAP1 PUSH1 0x24 DUP2 PUSH1 0x4 ADD CALLDATALOAD SWAP2 ADD PUSH2 0x142B JUMP JUMPDEST PUSH1 0x1 PUSH1 0x1 PUSH1 0xA0 SHL SUB DUP3 AND PUSH1 0x0 SWAP1 DUP2 MSTORE PUSH1 0xC PUSH1 0x20 MSTORE PUSH1 0x40 SWAP1 KECCAK256 SLOAD PUSH2 0xE1C JUMPI PUSH2 0x9B0 PUSH2 0x1980 JUMP JUMPDEST PUSH1 0xA SLOAD SWAP2 PUSH1 0x0 NOT DUP4 EQ PUSH2 0xE06 JUMPI PUSH1 0x1 DUP4 ADD PUSH1 0xA SSTORE PUSH1 0x1 PUSH1 0x1 PUSH1 0xA0 SHL SUB DUP5 AND ISZERO PUSH2 0xDED JUMPI PUSH1 0x1 DUP4 ADD PUSH1 0x0 SWAP1 DUP2 MSTORE PUSH1 0x2 PUSH1 0x20 MSTORE PUSH1 0x40 SWAP1 KECCAK256 SLOAD PUSH1 0x1 PUSH1 0x1 PUSH1 0xA0 SHL SUB AND DUP1 ISZERO ISZERO SWAP1 DUP2 PUSH2 0xDAC JUMPI JUMPDEST PUSH1 0x1 PUSH1 0x1 PUSH1 0xA0 SHL SUB DUP7 AND PUSH1 0x0 DUP2 DUP2 MSTORE PUSH1 0x3 PUSH1 0x20 SWAP1 DUP2 MSTORE PUSH1 0x40 DUP1 DUP4 KECCAK256 DUP1 SLOAD PUSH1 0x1 SWAP1 DUP2 ADD SWAP1 SWAP2 SSTORE DUP10 ADD DUP1 DUP5 MSTORE PUSH1 0x2 SWAP1 SWAP3 MSTORE DUP3 KECCAK256 DUP1 SLOAD PUSH1 0x1 PUSH1 0x1 PUSH1 0xA0 SHL SUB NOT AND DUP5 OR SWAP1 SSTORE SWAP3 SWAP1 PUSH32 0xDDF252AD1BE2C89B69C2B068FC378DAA952BA7F163C4A11628F55A4DF523B3EF SWAP1 DUP1 LOG4 PUSH2 0xD93 JUMPI PUSH1 0x1 DUP4 ADD PUSH1 0x0 MSTORE PUSH1 0x6 PUSH1 0x20 MSTORE PUSH1 0x40 PUSH1 0x0 KECCAK256 SWAP1 DUP1 MLOAD SWAP1 PUSH8 0xFFFFFFFFFFFFFFFF DUP3 GT PUSH2 0xCB3 JUMPI DUP2 SWAP1 PUSH2 0xA94 DUP5 SLOAD PUSH2 0x14C2 JUMP JUMPDEST PUSH1 0x1F DUP2 GT PUSH2 0xD56 JUMPI JUMPDEST POP PUSH1 0x20 SWAP1 PUSH1 0x1F DUP4 GT PUSH1 0x1 EQ PUSH2 0xCEA JUMPI PUSH1 0x0 SWAP3 PUSH2 0xCDF JUMPI JUMPDEST POP POP DUP2 PUSH1 0x1 SHL SWAP2 PUSH1 0x0 NOT SWAP1 PUSH1 0x3 SHL SHR NOT AND OR SWAP1 SSTORE JUMPDEST PUSH32 0xF8E1A15ABA9398E019F0B49DF1A4FDE98EE17AE345CB5F6B5E2C27F5033E8CE7 PUSH1 0x20 PUSH1 0x40 MLOAD PUSH1 0x1 DUP6 ADD DUP2 MSTORE LOG1 PUSH1 0x40 MLOAD SWAP3 PUSH2 0xB03 DUP5 PUSH2 0x13D1 JUMP JUMPDEST PUSH1 0x0 DUP5 MSTORE PUSH1 0x40 MLOAD PUSH2 0xB13 DUP2 PUSH2 0x13B5 JUMP JUMPDEST PUSH1 0x1 DUP5 ADD DUP2 MSTORE PUSH1 0x1 PUSH1 0x1 PUSH1 0xA0 SHL SUB DUP3 AND PUSH1 0x20 DUP3 ADD SWAP1 DUP2 MSTORE SWAP1 PUSH1 0x40 DUP2 ADD PUSH2 0xB39 DUP6 DUP3 PUSH2 0x1812 JUMP JUMPDEST PUSH1 0x60 DUP3 ADD SWAP1 TIMESTAMP DUP3 MSTORE PUSH1 0x80 DUP4 ADD PUSH1 0x0 DUP2 MSTORE PUSH1 0xA0 DUP5 ADD SWAP2 PUSH1 0x1 DUP4 MSTORE PUSH1 0xC0 DUP6 ADD SWAP10 DUP11 MSTORE PUSH1 0x1 DUP10 ADD PUSH1 0x0 MSTORE PUSH1 0xB PUSH1 0x20 MSTORE PUSH1 0x40 PUSH1 0x0 KECCAK256 SWAP5 MLOAD DUP6 SSTORE PUSH1 0x1 DUP6 ADD SWAP6 PUSH1 0x1 DUP1 PUSH1 0xA0 SHL SUB SWAP1 MLOAD AND PUSH1 0x1 PUSH1 0x1 PUSH1 0x60 SHL SUB PUSH1 0xA0 SHL DUP8 SLOAD AND OR DUP7 SSTORE MLOAD SWAP3 PUSH1 0x4 DUP5 LT ISZERO PUSH2 0xCC9 JUMPI PUSH2 0xBA8 PUSH2 0xBCC SWAP5 PUSH1 0x5 SWAP8 PUSH2 0x181E JUMP JUMPDEST MLOAD PUSH1 0x2 DUP6 ADD SSTORE MLOAD PUSH1 0x3 DUP5 ADD SSTORE MLOAD ISZERO ISZERO PUSH1 0x4 DUP4 ADD SWAP1 PUSH1 0xFF DUP1 NOT DUP4 SLOAD AND SWAP2 ISZERO ISZERO AND OR SWAP1 SSTORE JUMP JUMPDEST ADD SWAP4 MLOAD DUP1 MLOAD SWAP1 PUSH8 0xFFFFFFFFFFFFFFFF DUP3 GT PUSH2 0xCB3 JUMPI PUSH9 0x10000000000000000 DUP3 GT PUSH2 0xCB3 JUMPI PUSH1 0x20 SWAP1 DUP7 SLOAD DUP4 DUP9 SSTORE DUP1 DUP5 LT PUSH2 0xC96 JUMPI JUMPDEST POP ADD SWAP5 PUSH1 0x0 MSTORE PUSH1 0x20 PUSH1 0x0 KECCAK256 SWAP5 PUSH1 0x0 JUMPDEST DUP3 DUP2 LT PUSH2 0xC82 JUMPI PUSH1 0x20 DUP7 DUP7 DUP7 PUSH1 0x1 DUP1 PUSH1 0xA0 SHL SUB DUP2 AND PUSH1 0x0 MSTORE PUSH1 0xC DUP5 MSTORE PUSH1 0x1 DUP4 ADD PUSH1 0x40 PUSH1 0x0 KECCAK256 SSTORE PUSH2 0xC43 PUSH1 0x40 MLOAD DUP1 SWAP4 PUSH2 0x13A8 JUMP JUMPDEST PUSH1 0x1 PUSH1 0x1 PUSH1 0xA0 SHL SUB AND SWAP1 PUSH1 0x1 DUP4 ADD SWAP1 PUSH32 0x49C77333BA19A8A45899E31C8BBAEC140159DDD702F0B8C1B9B1D4BC4A2D8679 SWAP1 DUP6 SWAP1 LOG3 PUSH1 0x1 PUSH1 0x40 MLOAD SWAP2 ADD DUP2 MSTORE RETURN JUMPDEST PUSH1 0x1 SWAP1 PUSH1 0x20 DUP4 MLOAD SWAP4 ADD SWAP3 DUP2 DUP10 ADD SSTORE ADD PUSH2 0xC10 JUMP JUMPDEST PUSH2 0xCAD SWAP1 DUP9 PUSH1 0x0 MSTORE DUP5 DUP5 PUSH1 0x0 KECCAK256 SWAP2 DUP3 ADD SWAP2 ADD PUSH2 0x1842 JUMP JUMPDEST DUP8 PUSH2 0xC01 JUMP JUMPDEST PUSH4 0x4E487B71 PUSH1 0xE0 SHL PUSH1 0x0 MSTORE PUSH1 0x41 PUSH1 0x4 MSTORE PUSH1 0x24 PUSH1 0x0 REVERT JUMPDEST PUSH4 0x4E487B71 PUSH1 0xE0 SHL PUSH1 0x0 MSTORE PUSH1 0x21 PUSH1 0x4 MSTORE PUSH1 0x24 PUSH1 0x0 REVERT JUMPDEST ADD MLOAD SWAP1 POP DUP7 DUP1 PUSH2 0xAB4 JUMP JUMPDEST SWAP3 POP DUP4 PUSH1 0x0 MSTORE PUSH1 0x20 PUSH1 0x0 KECCAK256 SWAP1 PUSH1 0x0 SWAP4 JUMPDEST PUSH1 0x1F NOT DUP5 AND DUP6 LT PUSH2 0xD3B JUMPI PUSH1 0x1 SWAP5 POP DUP4 PUSH1 0x1F NOT DUP2 AND LT PUSH2 0xD22 JUMPI JUMPDEST POP POP POP DUP2 SHL ADD SWAP1 SSTORE PUSH2 0xAC9 JUMP JUMPDEST ADD MLOAD PUSH1 0x0 NOT PUSH1 0xF8 DUP5 PUSH1 0x3 SHL AND SHR NOT AND SWAP1 SSTORE DUP7 DUP1 DUP1 PUSH2 0xD15 JUMP JUMPDEST DUP2 DUP2 ADD MLOAD DUP4 SSTORE PUSH1 0x20 SWAP5 DUP6 ADD SWAP5 PUSH1 0x1 SWAP1 SWAP4 ADD SWAP3 SWAP1 SWAP2 ADD SWAP1 PUSH2 0xCFA JUMP JUMPDEST PUSH2 0xD83 SWAP1 DUP6 PUSH1 0x0 MSTORE PUSH1 0x20 PUSH1 0x0 KECCAK256 PUSH1 0x1F DUP6 ADD PUSH1 0x5 SHR DUP2 ADD SWAP2 PUSH1 0x20 DUP7 LT PUSH2 0xD89 JUMPI JUMPDEST PUSH1 0x1F ADD PUSH1 0x5 SHR ADD SWAP1 PUSH2 0x1842 JUMP JUMPDEST DUP8 PUSH2 0xA9D JUMP JUMPDEST SWAP1 SWAP2 POP DUP2 SWAP1 PUSH2 0xD76 JUMP JUMPDEST PUSH1 0x40 MLOAD PUSH4 0x39E35637 PUSH1 0xE1 SHL DUP2 MSTORE PUSH1 0x0 PUSH1 0x4 DUP3 ADD MSTORE PUSH1 0x24 SWAP1 REVERT JUMPDEST PUSH2 0xDD2 PUSH1 0x1 DUP7 ADD PUSH1 0x0 MSTORE PUSH1 0x4 PUSH1 0x20 MSTORE PUSH1 0x40 PUSH1 0x0 KECCAK256 PUSH1 0x1 PUSH1 0x1 PUSH1 0x60 SHL SUB PUSH1 0xA0 SHL DUP2 SLOAD AND SWAP1 SSTORE JUMP JUMPDEST DUP1 PUSH1 0x0 MSTORE PUSH1 0x3 PUSH1 0x20 MSTORE PUSH1 0x40 PUSH1 0x0 KECCAK256 PUSH1 0x0 NOT DUP2 SLOAD ADD SWAP1 SSTORE PUSH2 0x9F9 JUMP JUMPDEST PUSH1 0x40 MLOAD PUSH4 0x32505749 PUSH1 0xE1 SHL DUP2 MSTORE PUSH1 0x0 PUSH1 0x4 DUP3 ADD MSTORE PUSH1 0x24 SWAP1 REVERT JUMPDEST PUSH4 0x4E487B71 PUSH1 0xE0 SHL PUSH1 0x0 MSTORE PUSH1 0x11 PUSH1 0x4 MSTORE PUSH1 0x24 PUSH1 0x0 REVERT JUMPDEST PUSH1 0x40 MLOAD PUSH3 0x461BCD PUSH1 0xE5 SHL DUP2 MSTORE PUSH1 0x20 PUSH1 0x4 DUP3 ADD MSTORE PUSH1 0x10 PUSH1 0x24 DUP3 ADD MSTORE PUSH16 0x20B63932B0B23C90309036B2B6B132B9 PUSH1 0x81 SHL PUSH1 0x44 DUP3 ADD MSTORE PUSH1 0x64 SWAP1 REVERT JUMPDEST CALLVALUE PUSH2 0x1D1 JUMPI PUSH1 0x20 CALLDATASIZE PUSH1 0x3 NOT ADD SLT PUSH2 0x1D1 JUMPI PUSH1 0x4 CALLDATALOAD PUSH1 0x0 MSTORE PUSH1 0xB PUSH1 0x20 MSTORE PUSH1 0xC0 PUSH1 0x40 PUSH1 0x0 KECCAK256 DUP1 SLOAD SWAP1 PUSH1 0x1 DUP2 ADD SLOAD SWAP1 PUSH1 0x2 DUP2 ADD SLOAD PUSH2 0xEBA PUSH1 0xFF PUSH1 0x4 PUSH1 0x3 DUP6 ADD SLOAD SWAP5 ADD SLOAD AND SWAP4 PUSH1 0x40 MLOAD SWAP6 DUP7 MSTORE PUSH1 0x1 DUP1 PUSH1 0xA0 SHL SUB DUP2 AND PUSH1 0x20 DUP8 ADD MSTORE PUSH1 0xFF PUSH1 0x40 DUP8 ADD SWAP2 PUSH1 0xA0 SHR AND PUSH2 0x13A8 JUMP JUMPDEST PUSH1 0x60 DUP5 ADD MSTORE PUSH1 0x80 DUP4 ADD MSTORE ISZERO ISZERO PUSH1 0xA0 DUP3 ADD MSTORE RETURN JUMPDEST CALLVALUE PUSH2 0x1D1 JUMPI PUSH2 0x41D PUSH2 0xEDE CALLDATASIZE PUSH2 0x1373 JUMP JUMPDEST SWAP2 PUSH2 0x14FC JUMP JUMPDEST CALLVALUE PUSH2 0x1D1 JUMPI PUSH1 0x20 DUP1 PUSH1 0x3 NOT CALLDATASIZE ADD SLT PUSH2 0x1D1 JUMPI PUSH1 0x4 CALLDATALOAD PUSH1 0x0 DUP2 DUP2 MSTORE PUSH1 0xB DUP4 MSTORE PUSH1 0x40 SWAP1 KECCAK256 PUSH1 0x1 DUP2 ADD DUP1 SLOAD SWAP3 SWAP4 SWAP1 SWAP3 SWAP2 CALLER PUSH1 0x1 PUSH1 0x1 PUSH1 0xA0 SHL SUB DUP5 AND SUB PUSH2 0x1058 JUMPI PUSH1 0xFF PUSH1 0x4 DUP3 ADD SLOAD AND ISZERO PUSH2 0x101B JUMPI PUSH2 0xF36 PUSH2 0x1980 JUMP JUMPDEST SWAP3 PUSH1 0x4 DUP5 LT ISZERO PUSH2 0xCC9 JUMPI PUSH1 0xA0 SHR PUSH1 0xFF AND SWAP4 PUSH1 0x4 DUP6 LT ISZERO PUSH2 0xCC9 JUMPI DUP5 DUP5 GT ISZERO PUSH2 0xFDF JUMPI SWAP3 PUSH32 0x352FFA825B5DBFD121A26E29681D13BC73231BF9D64F248978F460EAF2A1BE3B SWAP5 SWAP3 PUSH1 0x5 PUSH2 0xFC1 SWAP4 PUSH2 0xF8E DUP5 PUSH1 0x40 SWAP9 PUSH2 0x181E JUMP JUMPDEST PUSH1 0x0 DUP8 MLOAD PUSH2 0xF9B DUP2 PUSH2 0x13D1 JUMP JUMPDEST MSTORE ADD DUP1 SLOAD PUSH1 0x0 DUP3 SSTORE DUP1 PUSH2 0xFC4 JUMPI JUMPDEST POP PUSH1 0x0 MSTORE PUSH2 0xFB9 DUP6 MLOAD DUP1 SWAP6 PUSH2 0x13A8 JUMP JUMPDEST DUP4 ADD SWAP1 PUSH2 0x13A8 JUMP JUMPDEST LOG2 STOP JUMPDEST PUSH2 0xFD9 SWAP1 DUP3 PUSH1 0x0 MSTORE DUP4 PUSH1 0x0 KECCAK256 SWAP1 DUP2 ADD SWAP1 PUSH2 0x1842 JUMP JUMPDEST DUP9 PUSH2 0xFA9 JUMP JUMPDEST PUSH1 0x40 MLOAD PUSH3 0x461BCD PUSH1 0xE5 SHL DUP2 MSTORE PUSH1 0x4 DUP2 ADD DUP5 SWAP1 MSTORE PUSH1 0x14 PUSH1 0x24 DUP3 ADD MSTORE PUSH20 0x4E6F207570677261646520617661696C61626C65 PUSH1 0x60 SHL PUSH1 0x44 DUP3 ADD MSTORE PUSH1 0x64 SWAP1 REVERT JUMPDEST PUSH1 0x40 MLOAD PUSH3 0x461BCD PUSH1 0xE5 SHL DUP2 MSTORE PUSH1 0x4 DUP2 ADD DUP4 SWAP1 MSTORE PUSH1 0x15 PUSH1 0x24 DUP3 ADD MSTORE PUSH21 0x4D656D62657273686970206E6F7420616374697665 PUSH1 0x58 SHL PUSH1 0x44 DUP3 ADD MSTORE PUSH1 0x64 SWAP1 REVERT JUMPDEST PUSH1 0x40 MLOAD PUSH3 0x461BCD PUSH1 0xE5 SHL DUP2 MSTORE PUSH1 0x4 DUP2 ADD DUP4 SWAP1 MSTORE PUSH1 0x15 PUSH1 0x24 DUP3 ADD MSTORE PUSH21 0x2737BA1036B2B6B132B939B434B8103437B63232B9 PUSH1 0x59 SHL PUSH1 0x44 DUP3 ADD MSTORE PUSH1 0x64 SWAP1 REVERT JUMPDEST CALLVALUE PUSH2 0x1D1 JUMPI PUSH1 0x20 CALLDATASIZE PUSH1 0x3 NOT ADD SLT PUSH2 0x1D1 JUMPI PUSH2 0x10AE PUSH2 0x1347 JUMP JUMPDEST POP PUSH1 0x20 PUSH1 0x40 MLOAD PUSH1 0x0 DUP2 MSTORE RETURN JUMPDEST CALLVALUE PUSH2 0x1D1 JUMPI PUSH1 0x40 CALLDATASIZE PUSH1 0x3 NOT ADD SLT PUSH2 0x1D1 JUMPI PUSH2 0x10D3 PUSH2 0x1347 JUMP JUMPDEST PUSH1 0x24 CALLDATALOAD PUSH2 0x10DF DUP2 PUSH2 0x17D7 JUMP JUMPDEST CALLER ISZERO ISZERO DUP1 PUSH2 0x118E JUMPI JUMPDEST DUP1 PUSH2 0x1161 JUMPI JUMPDEST PUSH2 0x1149 JUMPI PUSH1 0x1 PUSH1 0x1 PUSH1 0xA0 SHL SUB SWAP3 DUP4 AND SWAP3 DUP3 SWAP2 DUP5 SWAP2 AND PUSH32 0x8C5BE1E5EBEC7D5BD14F71427D1E84F3DD0314C0F7B2291E5B200AC8C7C3B925 PUSH1 0x0 DUP1 LOG4 PUSH1 0x0 SWAP1 DUP2 MSTORE PUSH1 0x4 PUSH1 0x20 MSTORE PUSH1 0x40 SWAP1 KECCAK256 DUP1 SLOAD PUSH1 0x1 PUSH1 0x1 PUSH1 0xA0 SHL SUB NOT AND SWAP1 SWAP2 OR SWAP1 SSTORE STOP JUMPDEST PUSH1 0x40 MLOAD PUSH4 0xA9FBF51F PUSH1 0xE0 SHL DUP2 MSTORE CALLER PUSH1 0x4 DUP3 ADD MSTORE PUSH1 0x24 SWAP1 REVERT JUMPDEST POP PUSH1 0x1 DUP1 PUSH1 0xA0 SHL SUB DUP2 AND PUSH1 0x0 MSTORE PUSH1 0x5 PUSH1 0x20 MSTORE PUSH1 0x40 PUSH1 0x0 KECCAK256 CALLER PUSH1 0x0 MSTORE PUSH1 0x20 MSTORE PUSH1 0xFF PUSH1 0x40 PUSH1 0x0 KECCAK256 SLOAD AND ISZERO PUSH2 0x10EE JUMP JUMPDEST POP PUSH1 0x1 PUSH1 0x1 PUSH1 0xA0 SHL SUB DUP2 AND CALLER EQ ISZERO PUSH2 0x10E8 JUMP JUMPDEST CALLVALUE PUSH2 0x1D1 JUMPI PUSH1 0x20 CALLDATASIZE PUSH1 0x3 NOT ADD SLT PUSH2 0x1D1 JUMPI PUSH1 0x4 CALLDATALOAD PUSH2 0x11BE DUP2 PUSH2 0x17D7 JUMP JUMPDEST POP PUSH1 0x0 MSTORE PUSH1 0x4 PUSH1 0x20 MSTORE PUSH1 0x20 PUSH1 0x1 DUP1 PUSH1 0xA0 SHL SUB PUSH1 0x40 PUSH1 0x0 KECCAK256 SLOAD AND PUSH1 0x40 MLOAD SWAP1 DUP2 MSTORE RETURN JUMPDEST CALLVALUE PUSH2 0x1D1 JUMPI PUSH1 0x0 CALLDATASIZE PUSH1 0x3 NOT ADD SLT PUSH2 0x1D1 JUMPI PUSH1 0x40 MLOAD PUSH1 0x0 DUP1 SLOAD PUSH2 0x1200 DUP2 PUSH2 0x14C2 JUMP JUMPDEST DUP1 DUP5 MSTORE SWAP1 PUSH1 0x1 SWAP1 DUP2 DUP2 AND SWAP1 DUP2 ISZERO PUSH2 0x5EE JUMPI POP PUSH1 0x1 EQ PUSH2 0x1229 JUMPI PUSH2 0x2E2 DUP5 PUSH2 0x581 DUP2 DUP7 SUB DUP3 PUSH2 0x13ED JUMP JUMPDEST PUSH1 0x0 DUP1 DUP1 MSTORE SWAP3 POP PUSH32 0x290DECD9548B62A8D60345A988386FC84BA6BC95484008F6362F93160EF3E563 JUMPDEST DUP3 DUP5 LT PUSH2 0x126A JUMPI POP POP POP DUP2 ADD PUSH1 0x20 ADD PUSH2 0x581 DUP3 PUSH2 0x571 JUMP JUMPDEST DUP1 SLOAD PUSH1 0x20 DUP6 DUP8 ADD DUP2 ADD SWAP2 SWAP1 SWAP2 MSTORE SWAP1 SWAP4 ADD SWAP3 DUP2 ADD PUSH2 0x1252 JUMP JUMPDEST CALLVALUE PUSH2 0x1D1 JUMPI PUSH1 0x20 CALLDATASIZE PUSH1 0x3 NOT ADD SLT PUSH2 0x1D1 JUMPI PUSH1 0x4 CALLDATALOAD SWAP1 PUSH4 0xFFFFFFFF PUSH1 0xE0 SHL DUP3 AND DUP1 SWAP3 SUB PUSH2 0x1D1 JUMPI PUSH1 0x20 SWAP2 PUSH4 0x24832483 PUSH1 0xE1 SHL DUP2 EQ SWAP1 DUP2 ISZERO PUSH2 0x12C4 JUMPI JUMPDEST POP ISZERO ISZERO DUP2 MSTORE RETURN JUMPDEST PUSH4 0x80AC58CD PUSH1 0xE0 SHL DUP2 EQ SWAP2 POP DUP2 ISZERO PUSH2 0x12F6 JUMPI JUMPDEST DUP2 ISZERO PUSH2 0x12E5 JUMPI JUMPDEST POP DUP4 PUSH2 0x12BD JUMP JUMPDEST PUSH4 0x1FFC9A7 PUSH1 0xE0 SHL EQ SWAP1 POP DUP4 PUSH2 0x12DE JUMP JUMPDEST PUSH4 0x5B5E139F PUSH1 0xE0 SHL DUP2 EQ SWAP2 POP PUSH2 0x12D7 JUMP JUMPDEST SWAP2 SWAP1 DUP3 MLOAD SWAP3 DUP4 DUP3 MSTORE PUSH1 0x0 JUMPDEST DUP5 DUP2 LT PUSH2 0x1333 JUMPI POP POP DUP3 PUSH1 0x0 PUSH1 0x20 DUP1 SWAP5 SWAP6 DUP5 ADD ADD MSTORE PUSH1 0x1F DUP1 NOT SWAP2 ADD AND ADD ADD SWAP1 JUMP JUMPDEST PUSH1 0x20 DUP2 DUP4 ADD DUP2 ADD MLOAD DUP5 DUP4 ADD DUP3 ADD MSTORE ADD PUSH2 0x1312 JUMP JUMPDEST PUSH1 0x4 CALLDATALOAD SWAP1 PUSH1 0x1 PUSH1 0x1 PUSH1 0xA0 SHL SUB DUP3 AND DUP3 SUB PUSH2 0x1D1 JUMPI JUMP JUMPDEST PUSH1 0x24 CALLDATALOAD SWAP1 PUSH1 0x1 PUSH1 0x1 PUSH1 0xA0 SHL SUB DUP3 AND DUP3 SUB PUSH2 0x1D1 JUMPI JUMP JUMPDEST PUSH1 0x60 SWAP1 PUSH1 0x3 NOT ADD SLT PUSH2 0x1D1 JUMPI PUSH1 0x1 PUSH1 0x1 PUSH1 0xA0 SHL SUB SWAP1 PUSH1 0x4 CALLDATALOAD DUP3 DUP2 AND DUP2 SUB PUSH2 0x1D1 JUMPI SWAP2 PUSH1 0x24 CALLDATALOAD SWAP1 DUP2 AND DUP2 SUB PUSH2 0x1D1 JUMPI SWAP1 PUSH1 0x44 CALLDATALOAD SWAP1 JUMP JUMPDEST SWAP1 PUSH1 0x4 DUP3 LT ISZERO PUSH2 0xCC9 JUMPI MSTORE JUMP JUMPDEST PUSH1 0xE0 DUP2 ADD SWAP1 DUP2 LT PUSH8 0xFFFFFFFFFFFFFFFF DUP3 GT OR PUSH2 0xCB3 JUMPI PUSH1 0x40 MSTORE JUMP JUMPDEST PUSH1 0x20 DUP2 ADD SWAP1 DUP2 LT PUSH8 0xFFFFFFFFFFFFFFFF DUP3 GT OR PUSH2 0xCB3 JUMPI PUSH1 0x40 MSTORE JUMP JUMPDEST SWAP1 PUSH1 0x1F DUP1 NOT SWAP2 ADD AND DUP2 ADD SWAP1 DUP2 LT PUSH8 0xFFFFFFFFFFFFFFFF DUP3 GT OR PUSH2 0xCB3 JUMPI PUSH1 0x40 MSTORE JUMP JUMPDEST PUSH8 0xFFFFFFFFFFFFFFFF DUP2 GT PUSH2 0xCB3 JUMPI PUSH1 0x1F ADD PUSH1 0x1F NOT AND PUSH1 0x20 ADD SWAP1 JUMP JUMPDEST SWAP3 SWAP2 SWAP3 PUSH2 0x1437 DUP3 PUSH2 0x140F JUMP JUMPDEST SWAP2 PUSH2 0x1445 PUSH1 0x40 MLOAD SWAP4 DUP5 PUSH2 0x13ED JUMP JUMPDEST DUP3 SWAP5 DUP2 DUP5 MSTORE DUP2 DUP4 ADD GT PUSH2 0x1D1 JUMPI DUP3 DUP2 PUSH1 0x20 SWAP4 DUP5 PUSH1 0x0 SWAP7 ADD CALLDATACOPY ADD ADD MSTORE JUMP JUMPDEST SWAP1 DUP2 MLOAD DUP1 DUP3 MSTORE PUSH1 0x20 DUP1 DUP1 SWAP4 ADD SWAP4 ADD SWAP2 PUSH1 0x0 JUMPDEST DUP3 DUP2 LT PUSH2 0x1482 JUMPI POP POP POP POP SWAP1 JUMP JUMPDEST DUP4 MLOAD DUP6 MSTORE SWAP4 DUP2 ADD SWAP4 SWAP3 DUP2 ADD SWAP3 PUSH1 0x1 ADD PUSH2 0x1474 JUMP JUMPDEST PUSH1 0x7 SLOAD PUSH1 0x1 PUSH1 0x1 PUSH1 0xA0 SHL SUB AND CALLER SUB PUSH2 0x14AA JUMPI JUMP JUMPDEST PUSH1 0x40 MLOAD PUSH4 0x118CDAA7 PUSH1 0xE0 SHL DUP2 MSTORE CALLER PUSH1 0x4 DUP3 ADD MSTORE PUSH1 0x24 SWAP1 REVERT JUMPDEST SWAP1 PUSH1 0x1 DUP3 DUP2 SHR SWAP3 AND DUP1 ISZERO PUSH2 0x14F2 JUMPI JUMPDEST PUSH1 0x20 DUP4 LT EQ PUSH2 0x14DC JUMPI JUMP JUMPDEST PUSH4 0x4E487B71 PUSH1 0xE0 SHL PUSH1 0x0 MSTORE PUSH1 0x22 PUSH1 0x4 MSTORE PUSH1 0x24 PUSH1 0x0 REVERT JUMPDEST SWAP2 PUSH1 0x7F AND SWAP2 PUSH2 0x14D1 JUMP JUMPDEST PUSH1 0x1 PUSH1 0x1 PUSH1 0xA0 SHL SUB SWAP2 DUP3 AND SWAP3 SWAP1 SWAP2 DUP4 ISZERO PUSH2 0xDED JUMPI PUSH1 0x0 SWAP3 DUP3 DUP5 MSTORE DUP3 PUSH1 0x20 SWAP6 PUSH1 0x2 DUP8 MSTORE PUSH1 0x40 SWAP7 DUP5 DUP9 DUP9 KECCAK256 SLOAD AND SWAP7 DUP8 SWAP2 CALLER ISZERO ISZERO DUP1 PUSH2 0x15EC JUMPI JUMPDEST POP SWAP1 PUSH1 0x2 PUSH32 0xDDF252AD1BE2C89B69C2B068FC378DAA952BA7F163C4A11628F55A4DF523B3EF SWAP3 DUP5 PUSH2 0x15B9 JUMPI JUMPDEST DUP6 DUP4 MSTORE PUSH1 0x3 DUP2 MSTORE DUP12 DUP4 KECCAK256 DUP1 SLOAD PUSH1 0x1 ADD SWAP1 SSTORE DUP7 DUP4 MSTORE MSTORE DUP10 DUP2 KECCAK256 DUP1 SLOAD PUSH1 0x1 PUSH1 0x1 PUSH1 0xA0 SHL SUB NOT AND DUP6 OR SWAP1 SSTORE DUP1 LOG4 AND SWAP3 DUP4 DUP4 SUB PUSH2 0x1598 JUMPI POP POP POP POP JUMP JUMPDEST PUSH1 0x64 SWAP5 POP MLOAD SWAP3 PUSH4 0x64283D7B PUSH1 0xE0 SHL DUP5 MSTORE PUSH1 0x4 DUP5 ADD MSTORE PUSH1 0x24 DUP4 ADD MSTORE PUSH1 0x44 DUP3 ADD MSTORE REVERT JUMPDEST PUSH1 0x0 DUP8 DUP2 MSTORE PUSH1 0x4 PUSH1 0x20 MSTORE PUSH1 0x40 SWAP1 KECCAK256 DUP1 SLOAD PUSH1 0x1 PUSH1 0x1 PUSH1 0xA0 SHL SUB NOT AND SWAP1 SSTORE DUP5 DUP4 MSTORE PUSH1 0x3 DUP2 MSTORE DUP12 DUP4 KECCAK256 DUP1 SLOAD PUSH1 0x0 NOT ADD SWAP1 SSTORE PUSH2 0x155F JUMP JUMPDEST SWAP2 SWAP4 SWAP5 POP SWAP2 POP DUP1 PUSH2 0x1641 JUMPI JUMPDEST ISZERO PUSH2 0x1608 JUMPI DUP6 SWAP3 SWAP2 DUP8 SWAP2 CODESIZE PUSH2 0x1533 JUMP JUMPDEST DUP8 DUP7 DUP9 PUSH2 0x1625 JUMPI PUSH1 0x24 SWAP2 MLOAD SWAP1 PUSH4 0x7E273289 PUSH1 0xE0 SHL DUP3 MSTORE PUSH1 0x4 DUP3 ADD MSTORE REVERT JUMPDEST PUSH1 0x44 SWAP2 MLOAD SWAP1 PUSH4 0x177E802F PUSH1 0xE0 SHL DUP3 MSTORE CALLER PUSH1 0x4 DUP4 ADD MSTORE PUSH1 0x24 DUP3 ADD MSTORE REVERT JUMPDEST POP CALLER DUP8 EQ DUP1 ISZERO PUSH2 0x1666 JUMPI JUMPDEST DUP1 PUSH2 0x15F8 JUMPI POP DUP6 DUP3 MSTORE PUSH1 0x4 DUP2 MSTORE CALLER DUP6 DUP10 DUP5 KECCAK256 SLOAD AND EQ PUSH2 0x15F8 JUMP JUMPDEST POP DUP7 DUP3 MSTORE PUSH1 0x5 DUP2 MSTORE DUP8 DUP3 KECCAK256 CALLER DUP4 MSTORE DUP2 MSTORE PUSH1 0xFF DUP9 DUP4 KECCAK256 SLOAD AND PUSH2 0x164C JUMP JUMPDEST SWAP3 SWAP1 SWAP3 PUSH2 0x1690 DUP4 DUP6 DUP4 PUSH2 0x14FC JUMP JUMPDEST DUP4 EXTCODESIZE PUSH2 0x169D JUMPI JUMPDEST POP POP POP POP JUMP JUMPDEST PUSH1 0x40 MLOAD PUSH4 0xA85BD01 PUSH1 0xE1 SHL DUP1 DUP3 MSTORE CALLER PUSH1 0x4 DUP4 ADD MSTORE PUSH1 0x1 PUSH1 0x1 PUSH1 0xA0 SHL SUB SWAP3 DUP4 AND PUSH1 0x24 DUP4 ADD MSTORE PUSH1 0x44 DUP3 ADD SWAP5 SWAP1 SWAP5 MSTORE PUSH1 0x80 PUSH1 0x64 DUP3 ADD MSTORE SWAP5 SWAP4 AND SWAP3 PUSH1 0x20 SWAP3 SWAP1 SWAP2 DUP6 SWAP1 PUSH2 0x16E9 SWAP1 PUSH1 0x84 DUP4 ADD SWAP1 PUSH2 0x1307 JUMP JUMPDEST SUB SWAP5 DUP4 DUP2 PUSH1 0x0 SWAP8 DUP2 DUP10 DUP10 GAS CALL DUP7 SWAP2 DUP2 PUSH2 0x1793 JUMPI JUMPDEST POP PUSH2 0x175E JUMPI POP POP POP RETURNDATASIZE PUSH1 0x0 EQ PUSH2 0x1755 JUMPI RETURNDATASIZE PUSH2 0x1717 DUP2 PUSH2 0x140F JUMP JUMPDEST SWAP1 PUSH2 0x1725 PUSH1 0x40 MLOAD SWAP3 DUP4 PUSH2 0x13ED JUMP JUMPDEST DUP2 MSTORE DUP1 SWAP4 DUP3 RETURNDATASIZE SWAP3 ADD RETURNDATACOPY JUMPDEST DUP3 MLOAD SWAP3 DUP4 PUSH2 0x1750 JUMPI PUSH1 0x40 MLOAD PUSH4 0x32505749 PUSH1 0xE1 SHL DUP2 MSTORE PUSH1 0x4 DUP2 ADD DUP5 SWAP1 MSTORE PUSH1 0x24 SWAP1 REVERT JUMPDEST ADD SWAP1 POP REVERT JUMPDEST PUSH1 0x60 SWAP3 POP PUSH2 0x172F JUMP JUMPDEST SWAP2 SWAP5 POP SWAP2 POP PUSH4 0xFFFFFFFF PUSH1 0xE0 SHL AND SUB PUSH2 0x177B JUMPI POP CODESIZE DUP1 DUP1 DUP1 PUSH2 0x1697 JUMP JUMPDEST PUSH1 0x24 SWAP1 PUSH1 0x40 MLOAD SWAP1 PUSH4 0x32505749 PUSH1 0xE1 SHL DUP3 MSTORE PUSH1 0x4 DUP3 ADD MSTORE REVERT JUMPDEST SWAP1 SWAP2 POP DUP5 DUP2 DUP2 RETURNDATASIZE DUP4 GT PUSH2 0x17D0 JUMPI JUMPDEST PUSH2 0x17AB DUP2 DUP4 PUSH2 0x13ED JUMP JUMPDEST DUP2 ADD SUB SLT PUSH2 0x17CC JUMPI MLOAD PUSH1 0x1 PUSH1 0x1 PUSH1 0xE0 SHL SUB NOT DUP2 AND DUP2 SUB PUSH2 0x17CC JUMPI SWAP1 CODESIZE PUSH2 0x16FD JUMP JUMPDEST DUP7 DUP1 REVERT JUMPDEST POP RETURNDATASIZE PUSH2 0x17A1 JUMP JUMPDEST PUSH1 0x0 DUP2 DUP2 MSTORE PUSH1 0x2 PUSH1 0x20 MSTORE PUSH1 0x40 SWAP1 KECCAK256 SLOAD PUSH1 0x1 PUSH1 0x1 PUSH1 0xA0 SHL SUB AND SWAP1 DUP2 ISZERO PUSH2 0x17FA JUMPI POP SWAP1 JUMP JUMPDEST PUSH1 0x24 SWAP1 PUSH1 0x40 MLOAD SWAP1 PUSH4 0x7E273289 PUSH1 0xE0 SHL DUP3 MSTORE PUSH1 0x4 DUP3 ADD MSTORE REVERT JUMPDEST PUSH1 0x4 DUP3 LT ISZERO PUSH2 0xCC9 JUMPI MSTORE JUMP JUMPDEST SWAP1 PUSH1 0x4 DUP2 LT ISZERO PUSH2 0xCC9 JUMPI DUP2 SLOAD PUSH1 0xFF PUSH1 0xA0 SHL NOT AND PUSH1 0xA0 SWAP2 SWAP1 SWAP2 SHL PUSH1 0xFF PUSH1 0xA0 SHL AND OR SWAP1 SSTORE JUMP JUMPDEST DUP2 DUP2 LT PUSH2 0x184D JUMPI POP POP JUMP JUMPDEST PUSH1 0x0 DUP2 SSTORE PUSH1 0x1 ADD PUSH2 0x1842 JUMP JUMPDEST PUSH1 0x1 PUSH1 0x1 PUSH1 0xA0 SHL SUB SWAP1 DUP2 AND PUSH1 0x0 SWAP1 DUP2 MSTORE PUSH1 0xC PUSH1 0x20 SWAP1 DUP2 MSTORE PUSH1 0x40 DUP3 KECCAK256 SLOAD SWAP3 SWAP4 SWAP3 DUP1 ISZERO PUSH2 0x1978 JUMPI DUP3 MSTORE PUSH1 0xB DUP2 MSTORE PUSH1 0x40 DUP3 KECCAK256 SWAP1 PUSH1 0x40 MLOAD PUSH2 0x1895 DUP2 PUSH2 0x13B5 JUMP JUMPDEST DUP3 SLOAD DUP2 MSTORE PUSH1 0x1 SWAP2 DUP3 DUP5 ADD SLOAD SWAP7 DUP8 AND DUP2 DUP4 ADD MSTORE PUSH2 0x18BB PUSH1 0xFF PUSH1 0x40 DUP5 ADD SWAP9 PUSH1 0xA0 SHR AND DUP9 PUSH2 0x1812 JUMP JUMPDEST PUSH1 0x2 DUP5 ADD SLOAD PUSH1 0x60 DUP4 ADD MSTORE PUSH1 0x3 DUP5 ADD SLOAD PUSH1 0x80 DUP4 ADD MSTORE PUSH1 0x5 PUSH1 0xFF PUSH1 0x4 DUP7 ADD SLOAD AND SWAP5 PUSH1 0xA0 DUP5 ADD SWAP6 ISZERO ISZERO DUP7 MSTORE ADD PUSH1 0x40 MLOAD SWAP2 DUP3 SWAP5 DUP6 SWAP4 DUP3 DUP5 SLOAD SWAP2 DUP3 DUP2 MSTORE ADD SWAP4 DUP10 MSTORE DUP3 DUP10 KECCAK256 SWAP3 DUP10 SWAP1 JUMPDEST DUP3 DUP3 LT PUSH2 0x1960 JUMPI POP POP POP POP POP PUSH1 0xC0 SWAP3 SWAP2 PUSH2 0x1919 SWAP2 SUB DUP5 PUSH2 0x13ED JUMP JUMPDEST ADD MSTORE MLOAD ISZERO ISZERO SWAP3 DUP4 PUSH2 0x192B JUMPI JUMPDEST POP POP POP SWAP1 JUMP JUMPDEST MLOAD SWAP2 SWAP3 POP PUSH1 0x4 DUP3 LT ISZERO PUSH2 0x194C JUMPI PUSH1 0x4 DUP4 LT ISZERO PUSH2 0x194C JUMPI POP LT ISZERO CODESIZE DUP1 DUP1 PUSH2 0x1925 JUMP JUMPDEST PUSH4 0x4E487B71 PUSH1 0xE0 SHL DUP2 MSTORE PUSH1 0x21 PUSH1 0x4 MSTORE PUSH1 0x24 SWAP1 REVERT JUMPDEST DUP5 SLOAD DUP7 MSTORE DUP9 SWAP7 POP SWAP5 DUP6 ADD SWAP5 SWAP4 DUP4 ADD SWAP4 SWAP1 DUP4 ADD SWAP1 PUSH2 0x18FE JUMP JUMPDEST POP POP SWAP2 POP POP SWAP1 JUMP JUMPDEST PUSH1 0x3 PUSH1 0x0 SWAP1 DUP2 MSTORE PUSH1 0xD PUSH1 0x20 MSTORE PUSH32 0x26B4A10D0F0B04925C23BD4480EE147C916E5E87A7D68206A533DAD160AC81E2 SLOAD ISZERO PUSH2 0x19EE JUMPI PUSH1 0x2 DUP2 MSTORE PUSH1 0x40 DUP2 KECCAK256 SLOAD ISZERO PUSH2 0x19E8 JUMPI PUSH1 0x1 DUP2 MSTORE PUSH1 0x40 DUP2 KECCAK256 SLOAD ISZERO PUSH2 0x19E2 JUMPI DUP1 DUP1 MSTORE PUSH1 0x40 DUP2 KECCAK256 SLOAD ISZERO PUSH2 0x19DF JUMPI SWAP1 JUMP JUMPDEST SWAP1 JUMP JUMPDEST POP PUSH1 0x1 SWAP1 JUMP JUMPDEST POP PUSH1 0x2 SWAP1 JUMP JUMPDEST POP PUSH1 0x3 SWAP1 JUMP JUMPDEST PUSH1 0x0 SWAP1 PUSH1 0x3 DUP3 MSTORE PUSH1 0xD PUSH1 0x20 MSTORE PUSH1 0x40 DUP3 KECCAK256 SLOAD DUP2 LT ISZERO PUSH2 0x1A4B JUMPI PUSH1 0x2 DUP3 MSTORE PUSH1 0x40 DUP3 KECCAK256 SLOAD DUP2 LT ISZERO PUSH2 0x1A44 JUMPI PUSH1 0x1 DUP3 MSTORE PUSH1 0x40 DUP3 KECCAK256 SLOAD DUP2 LT ISZERO PUSH2 0x1A3D JUMPI DUP2 DUP1 MSTORE PUSH1 0x40 DUP3 KECCAK256 SLOAD GT ISZERO PUSH2 0x19DF JUMPI SWAP1 JUMP JUMPDEST POP POP PUSH1 0x1 SWAP1 JUMP JUMPDEST POP POP PUSH1 0x2 SWAP1 JUMP JUMPDEST POP POP PUSH1 0x3 SWAP1 JUMP INVALID LOG2 PUSH5 0x6970667358 0x22 SLT KECCAK256 0x4C DUP12 PUSH29 0xB588E83E1A816F38C49559150737C45BA8FCDFF8E8C9247FBA1AE4FD9E PUSH5 0x736F6C6343 STOP ADDMOD EQ STOP CALLER "},"methodIdentifiers":{"approve(address,uint256)":"095ea7b3","balanceOf(address)":"70a08231","determineTier(uint256)":"b097cca9","getApproved(uint256)":"081812fc","getMembership(uint256)":"38fbf2c6","getNFTIds(address)":"bf3c8b7b","getOwnedNFTs(address)":"18148f1b","hasAccess(address,uint8)":"a1b1cb43","isApprovedForAll(address,address)":"e985e9c5","memberToId(address)":"5ab562ff","memberships(uint256)":"321621d7","mintMembership(address,string)":"34037bef","name()":"06fdde03","nftContract()":"d56d229d","owner()":"8da5cb5b","ownerOf(uint256)":"6352211e","renounceOwnership()":"715018a6","safeTransferFrom(address,address,uint256)":"42842e0e","safeTransferFrom(address,address,uint256,bytes)":"b88d4fde","setApprovalForAll(address,bool)":"a22cb465","supportsInterface(bytes4)":"01ffc9a7","symbol()":"95d89b41","tierRequirements(uint8)":"c68cc3b6","tokenURI(uint256)":"c87b56dd","transferFrom(address,address,uint256)":"23b872dd","transferOwnership(address)":"f2fde38b","upgradeMembership(uint256)":"1a8f8d45"}}}}}