{
  "_format": "hh-sol-artifact-1",
  "contractName": "RiseUpFanClub",
  "sourceName": "contracts/RiseUpFanClub.sol",
  "abi": [
    {
      "inputs": [
        {
          "internalType": "address",
          "name": "_nftContract",
          "type": "address"
        }
      ],
      "stateMutability": "nonpayable",
      "type": "constructor"
    },
    {
      "inputs": [
        {
          "internalType": "address",
          "name": "sender",
          "type": "address"
        },
        {
          "internalType": "uint256",
          "name": "tokenId",
          "type": "uint256"
        },
        {
          "internalType": "address",
          "name": "owner",
          "type": "address"
        }
      ],
      "name": "ERC721IncorrectOwner",
      "type": "error"
    },
    {
      "inputs": [
        {
          "internalType": "address",
          "name": "operator",
          "type": "address"
        },
        {
          "internalType": "uint256",
          "name": "tokenId",
          "type": "uint256"
        }
      ],
      "name": "ERC721InsufficientApproval",
      "type": "error"
    },
    {
      "inputs": [
        {
          "internalType": "address",
          "name": "approver",
          "type": "address"
        }
      ],
      "name": "ERC721InvalidApprover",
      "type": "error"
    },
    {
      "inputs": [
        {
          "internalType": "address",
          "name": "operator",
          "type": "address"
        }
      ],
      "name": "ERC721InvalidOperator",
      "type": "error"
    },
    {
      "inputs": [
        {
          "internalType": "address",
          "name": "owner",
          "type": "address"
        }
      ],
      "name": "ERC721InvalidOwner",
      "type": "error"
    },
    {
      "inputs": [
        {
          "internalType": "address",
          "name": "receiver",
          "type": "address"
        }
      ],
      "name": "ERC721InvalidReceiver",
      "type": "error"
    },
    {
      "inputs": [
        {
          "internalType": "address",
          "name": "sender",
          "type": "address"
        }
      ],
      "name": "ERC721InvalidSender",
      "type": "error"
    },
    {
      "inputs": [
        {
          "internalType": "uint256",
          "name": "tokenId",
          "type": "uint256"
        }
      ],
      "name": "ERC721NonexistentToken",
      "type": "error"
    },
    {
      "inputs": [
        {
          "internalType": "address",
          "name": "owner",
          "type": "address"
        }
      ],
      "name": "OwnableInvalidOwner",
      "type": "error"
    },
    {
      "inputs": [
        {
          "internalType": "address",
          "name": "account",
          "type": "address"
        }
      ],
      "name": "OwnableUnauthorizedAccount",
      "type": "error"
    },
    {
      "inputs": [],
      "name": "ReentrancyGuardReentrantCall",
      "type": "error"
    },
    {
      "anonymous": false,
      "inputs": [
        {
          "indexed": true,
          "internalType": "uint256",
          "name": "membershipId",
          "type": "uint256"
        },
        {
          "indexed": true,
          "internalType": "address",
          "name": "contentOwner",
          "type": "address"
        }
      ],
      "name": "AccessGranted",
      "type": "event"
    },
    {
      "anonymous": false,
      "inputs": [
        {
          "indexed": true,
          "internalType": "address",
          "name": "owner",
          "type": "address"
        },
        {
          "indexed": true,
          "internalType": "address",
          "name": "approved",
          "type": "address"
        },
        {
          "indexed": true,
          "internalType": "uint256",
          "name": "tokenId",
          "type": "uint256"
        }
      ],
      "name": "Approval",
      "type": "event"
    },
    {
      "anonymous": false,
      "inputs": [
        {
          "indexed": true,
          "internalType": "address",
          "name": "owner",
          "type": "address"
        },
        {
          "indexed": true,
          "internalType": "address",
          "name": "operator",
          "type": "address"
        },
        {
          "indexed": false,
          "internalType": "bool",
          "name": "approved",
          "type": "bool"
        }
      ],
      "name": "ApprovalForAll",
      "type": "event"
    },
    {
      "anonymous": false,
      "inputs": [
        {
          "indexed": false,
          "internalType": "uint256",
          "name": "_fromTokenId",
          "type": "uint256"
        },
        {
          "indexed": false,
          "internalType": "uint256",
          "name": "_toTokenId",
          "type": "uint256"
        }
      ],
      "name": "BatchMetadataUpdate",
      "type": "event"
    },
    {
      "anonymous": false,
      "inputs": [
        {
          "indexed": true,
          "internalType": "uint256",
          "name": "membershipId",
          "type": "uint256"
        }
      ],
      "name": "MembershipExpired",
      "type": "event"
    },
    {
      "anonymous": false,
      "inputs": [
        {
          "indexed": true,
          "internalType": "uint256",
          "name": "membershipId",
          "type": "uint256"
        },
        {
          "indexed": true,
          "internalType": "address",
          "name": "holder",
          "type": "address"
        },
        {
          "indexed": false,
          "internalType": "enum RiseUpFanClub.Tier",
          "name": "tier",
          "type": "uint8"
        }
      ],
      "name": "MembershipMinted",
      "type": "event"
    },
    {
      "anonymous": false,
      "inputs": [
        {
          "indexed": true,
          "internalType": "uint256",
          "name": "membershipId",
          "type": "uint256"
        },
        {
          "indexed": false,
          "internalType": "enum RiseUpFanClub.Tier",
          "name": "oldTier",
          "type": "uint8"
        },
        {
          "indexed": false,
          "internalType": "enum RiseUpFanClub.Tier",
          "name": "newTier",
          "type": "uint8"
        }
      ],
      "name": "MembershipUpgraded",
      "type": "event"
    },
    {
      "anonymous": false,
      "inputs": [
        {
          "indexed": false,
          "internalType": "uint256",
          "name": "_tokenId",
          "type": "uint256"
        }
      ],
      "name": "MetadataUpdate",
      "type": "event"
    },
    {
      "anonymous": false,
      "inputs": [
        {
          "indexed": true,
          "internalType": "address",
          "name": "previousOwner",
          "type": "address"
        },
        {
          "indexed": true,
          "internalType": "address",
          "name": "newOwner",
          "type": "address"
        }
      ],
      "name": "OwnershipTransferred",
      "type": "event"
    },
    {
      "anonymous": false,
      "inputs": [
        {
          "indexed": true,
          "internalType": "address",
          "name": "from",
          "type": "address"
        },
        {
          "indexed": true,
          "internalType": "address",
          "name": "to",
          "type": "address"
        },
        {
          "indexed": true,
          "internalType": "uint256",
          "name": "tokenId",
          "type": "uint256"
        }
      ],
      "name": "Transfer",
      "type": "event"
    },
    {
      "inputs": [
        {
          "internalType": "address",
          "name": "to",
          "type": "address"
        },
        {
          "internalType": "uint256",
          "name": "tokenId",
          "type": "uint256"
        }
      ],
      "name": "approve",
      "outputs": [],
      "stateMutability": "nonpayable",
      "type": "function"
    },
    {
      "inputs": [
        {
          "internalType": "address",
          "name": "owner",
          "type": "address"
        }
      ],
      "name": "balanceOf",
      "outputs": [
        {
          "internalType": "uint256",
          "name": "",
          "type": "uint256"
        }
      ],
      "stateMutability": "view",
      "type": "function"
    },
    {
      "inputs": [
        {
          "internalType": "uint256",
          "name": "ownedCount",
          "type": "uint256"
        }
      ],
      "name": "determineTier",
      "outputs": [
        {
          "internalType": "enum RiseUpFanClub.Tier",
          "name": "",
          "type": "uint8"
        }
      ],
      "stateMutability": "view",
      "type": "function"
    },
    {
      "inputs": [
        {
          "internalType": "uint256",
          "name": "tokenId",
          "type": "uint256"
        }
      ],
      "name": "getApproved",
      "outputs": [
        {
          "internalType": "address",
          "name": "",
          "type": "address"
        }
      ],
      "stateMutability": "view",
      "type": "function"
    },
    {
      "inputs": [
        {
          "internalType": "uint256",
          "name": "membershipId",
          "type": "uint256"
        }
      ],
      "name": "getMembership",
      "outputs": [
        {
          "components": [
            {
              "internalType": "uint256",
              "name": "membershipId",
              "type": "uint256"
            },
            {
              "internalType": "address",
              "name": "holder",
              "type": "address"
            },
            {
              "internalType": "enum RiseUpFanClub.Tier",
              "name": "tier",
              "type": "uint8"
            },
            {
              "internalType": "uint256",
              "name": "joinedAt",
              "type": "uint256"
            },
            {
              "internalType": "uint256",
              "name": "expiresAt",
              "type": "uint256"
            },
            {
              "internalType": "bool",
              "name": "isActive",
              "type": "bool"
            },
            {
              "internalType": "uint256[]",
              "name": "ownedNFTs",
              "type": "uint256[]"
            }
          ],
          "internalType": "struct RiseUpFanClub.Membership",
          "name": "",
          "type": "tuple"
        }
      ],
      "stateMutability": "view",
      "type": "function"
    },
    {
      "inputs": [
        {
          "internalType": "address",
          "name": "user",
          "type": "address"
        }
      ],
      "name": "getNFTIds",
      "outputs": [
        {
          "internalType": "uint256[]",
          "name": "",
          "type": "uint256[]"
        }
      ],
      "stateMutability": "view",
      "type": "function"
    },
    {
      "inputs": [
        {
          "internalType": "address",
          "name": "user",
          "type": "address"
        }
      ],
      "name": "getOwnedNFTs",
      "outputs": [
        {
          "internalType": "uint256",
          "name": "",
          "type": "uint256"
        }
      ],
      "stateMutability": "view",
      "type": "function"
    },
    {
      "inputs": [
        {
          "internalType": "address",
          "name": "user",
          "type": "address"
        },
        {
          "internalType": "enum RiseUpFanClub.Tier",
          "name": "requiredTier",
          "type": "uint8"
        }
      ],
      "name": "hasAccess",
      "outputs": [
        {
          "internalType": "bool",
          "name": "",
          "type": "bool"
        }
      ],
      "stateMutability": "view",
      "type": "function"
    },
    {
      "inputs": [
        {
          "internalType": "address",
          "name": "owner",
          "type": "address"
        },
        {
          "internalType": "address",
          "name": "operator",
          "type": "address"
        }
      ],
      "name": "isApprovedForAll",
      "outputs": [
        {
          "internalType": "bool",
          "name": "",
          "type": "bool"
        }
      ],
      "stateMutability": "view",
      "type": "function"
    },
    {
      "inputs": [
        {
          "internalType": "address",
          "name": "",
          "type": "address"
        }
      ],
      "name": "memberToId",
      "outputs": [
        {
          "internalType": "uint256",
          "name": "",
          "type": "uint256"
        }
      ],
      "stateMutability": "view",
      "type": "function"
    },
    {
      "inputs": [
        {
          "internalType": "uint256",
          "name": "",
          "type": "uint256"
        }
      ],
      "name": "memberships",
      "outputs": [
        {
          "internalType": "uint256",
          "name": "membershipId",
          "type": "uint256"
        },
        {
          "internalType": "address",
          "name": "holder",
          "type": "address"
        },
        {
          "internalType": "enum RiseUpFanClub.Tier",
          "name": "tier",
          "type": "uint8"
        },
        {
          "internalType": "uint256",
          "name": "joinedAt",
          "type": "uint256"
        },
        {
          "internalType": "uint256",
          "name": "expiresAt",
          "type": "uint256"
        },
        {
          "internalType": "bool",
          "name": "isActive",
          "type": "bool"
        }
      ],
      "stateMutability": "view",
      "type": "function"
    },
    {
      "inputs": [
        {
          "internalType": "address",
          "name": "to",
          "type": "address"
        },
        {
          "internalType": "string",
          "name": "_tokenURI",
          "type": "string"
        }
      ],
      "name": "mintMembership",
      "outputs": [
        {
          "internalType": "uint256",
          "name": "",
          "type": "uint256"
        }
      ],
      "stateMutability": "nonpayable",
      "type": "function"
    },
    {
      "inputs": [],
      "name": "name",
      "outputs": [
        {
          "internalType": "string",
          "name": "",
          "type": "string"
        }
      ],
      "stateMutability": "view",
      "type": "function"
    },
    {
      "inputs": [],
      "name": "nftContract",
      "outputs": [
        {
          "internalType": "contract RiseUpNFT",
          "name": "",
          "type": "address"
        }
      ],
      "stateMutability": "view",
      "type": "function"
    },
    {
      "inputs": [],
      "name": "owner",
      "outputs": [
        {
          "internalType": "address",
          "name": "",
          "type": "address"
        }
      ],
      "stateMutability": "view",
      "type": "function"
    },
    {
      "inputs": [
        {
          "internalType": "uint256",
          "name": "tokenId",
          "type": "uint256"
        }
      ],
      "name": "ownerOf",
      "outputs": [
        {
          "internalType": "address",
          "name": "",
          "type": "address"
        }
      ],
      "stateMutability": "view",
      "type": "function"
    },
    {
      "inputs": [],
      "name": "renounceOwnership",
      "outputs": [],
      "stateMutability": "nonpayable",
      "type": "function"
    },
    {
      "inputs": [
        {
          "internalType": "address",
          "name": "from",
          "type": "address"
        },
        {
          "internalType": "address",
          "name": "to",
          "type": "address"
        },
        {
          "internalType": "uint256",
          "name": "tokenId",
          "type": "uint256"
        }
      ],
      "name": "safeTransferFrom",
      "outputs": [],
      "stateMutability": "nonpayable",
      "type": "function"
    },
    {
      "inputs": [
        {
          "internalType": "address",
          "name": "from",
          "type": "address"
        },
        {
          "internalType": "address",
          "name": "to",
          "type": "address"
        },
        {
          "internalType": "uint256",
          "name": "tokenId",
          "type": "uint256"
        },
        {
          "internalType": "bytes",
          "name": "data",
          "type": "bytes"
        }
      ],
      "name": "safeTransferFrom",
      "outputs": [],
      "stateMutability": "nonpayable",
      "type": "function"
    },
    {
      "inputs": [
        {
          "internalType": "address",
          "name": "operator",
          "type": "address"
        },
        {
          "internalType": "bool",
          "name": "approved",
          "type": "bool"
        }
      ],
      "name": "setApprovalForAll",
      "outputs": [],
      "stateMutability": "nonpayable",
      "type": "function"
    },
    {
      "inputs": [
        {
          "internalType": "bytes4",
          "name": "interfaceId",
          "type": "bytes4"
        }
      ],
      "name": "supportsInterface",
      "outputs": [
        {
          "internalType": "bool",
          "name": "",
          "type": "bool"
        }
      ],
      "stateMutability": "view",
      "type": "function"
    },
    {
      "inputs": [],
      "name": "symbol",
      "outputs": [
        {
          "internalType": "string",
          "name": "",
          "type": "string"
        }
      ],
      "stateMutability": "view",
      "type": "function"
    },
    {
      "inputs": [
        {
          "internalType": "enum RiseUpFanClub.Tier",
          "name": "",
          "type": "uint8"
        }
      ],
      "name": "tierRequirements",
      "outputs": [
        {
          "internalType": "uint256",
          "name": "",
          "type": "uint256"
        }
      ],
      "stateMutability": "view",
      "type": "function"
    },
    {
      "inputs": [
        {
          "internalType": "uint256",
          "name": "tokenId",
          "type": "uint256"
        }
      ],
      "name": "tokenURI",
      "outputs": [
        {
          "internalType": "string",
          "name": "",
          "type": "string"
        }
      ],
      "stateMutability": "view",
      "type": "function"
    },
    {
      "inputs": [
        {
          "internalType": "address",
          "name": "from",
          "type": "address"
        },
        {
          "internalType": "address",
          "name": "to",
          "type": "address"
        },
        {
          "internalType": "uint256",
          "name": "tokenId",
          "type": "uint256"
        }
      ],
      "name": "transferFrom",
      "outputs": [],
      "stateMutability": "nonpayable",
      "type": "function"
    },
    {
      "inputs": [
        {
          "internalType": "address",
          "name": "newOwner",
          "type": "address"
        }
      ],
      "name": "transferOwnership",
      "outputs": [],
      "stateMutability": "nonpayable",
      "type": "function"
    },
    {
      "inputs": [
        {
          "internalType": "uint256",
          "name": "membershipId",
          "type": "uint256"
        }
      ],
      "name": "upgradeMembership",
      "outputs": [],
      "stateMutability": "nonpayable",
      "type": "function"
    }
  ],
  "bytecode": "0x6080346200043d5762001f0190813803601f1991601f838184011682019460018060401b0393838710858811176200044257808492604098895283396020938491810103126200043d57516001600160a01b0380821692918390036200043d576200006962000458565b94600f86526e2934b9b2aab8102330b71021b63ab160891b858701526200008f62000458565b92600493848152635255464360e01b87820152875198838a1162000428576000998a549960019a8b81811c911680156200041d575b8b8210146200040a57908186849311620003b4575b508a908d8784116001146200034957926200033d575b5050600019600383901b1c1916908a1b178a555b81519384116200032a5788548981811c911680156200031f575b898210146200030c579081848695949311620002b5575b5088928411600114620002545750899262000248575b5050600019600383901b1c191690861b1785555b331562000231576007549160018060a01b03199233848216176007558851923391167f8be0079c531659141344cd1fd0a4f28419497f9722a3daafe3b4186f6b6457e08980a3856008558315620001f157876019818989600d8a8a8a6009541617600955838052528083832055815260058282205560028152600a8282205560038152205551611a889081620004798239f35b62461bcd60e51b82528101849052601460248201527f496e76616c6964204e465420636f6e74726163740000000000000000000000006044820152606490fd5b8651631e4fbdf760e01b8152808301879052602490fd5b0151905038806200014a565b898b52888b208a9590939291168b5b8a8282106200029e575050841162000284575b505050811b0185556200015e565b015160001960f88460031b161c1916905538808062000276565b8385015186558c9790950194938401930162000263565b9091929350898b52888b208480870160051c8201928b881062000302575b9187968d92969594930160051c01915b828110620002f357505062000134565b8d81558796508c9101620002e3565b92508192620002d3565b634e487b7160e01b8b526022875260248bfd5b90607f16906200011d565b634e487b7160e01b8a526041865260248afd5b015190503880620000ef565b9190858e95168380528d80852094905b82821062000393575050841162000379575b505050811b018a5562000103565b015160001960f88460031b161c191690553880806200036b565b91929395968291958786015181550195019301908e95949392918e62000359565b9091508c80528a8d208680850160051c8201928d861062000400575b859493910160051c909101908d908f5b838210620003f157505050620000d9565b81558594508e91018f620003e0565b92508192620003d0565b634e487b7160e01b8d526022895260248dfd5b90607f1690620000c4565b604186634e487b7160e01b6000525260246000fd5b600080fd5b634e487b7160e01b600052604160045260246000fd5b60408051919082016001600160401b03811183821017620004425760405256fe608080604052600436101561001357600080fd5b60003560e01c90816301ffc9a7146112825750806306fdde03146111df578063081812fc146111a1578063095ea7b3146110ba57806318148f1b146110955780631a8f8d4514610ee457806323b872dd14610ecd578063321621d714610e5457806334037bef1461094157806338fbf2c61461078657806342842e0e1461075e5780635ab562ff146107245780636352211e146106f457806370a082311461069b578063715018a61461063e5780638da5cb5b1461061557806395d89b4114610536578063a1b1cb43146104fa578063a22cb4651461044c578063b097cca91461041f578063b88d4fde146103bd578063bf3c8b7b1461037c578063c68cc3b614610347578063c87b56dd14610255578063d56d229d1461022c578063e985e9c5146101d65763f2fde38b1461014857600080fd5b346101d15760203660031901126101d157610161611347565b610169611496565b6001600160a01b039081169081156101b857600754826001600160601b0360a01b821617600755167f8be0079c531659141344cd1fd0a4f28419497f9722a3daafe3b4186f6b6457e0600080a3005b604051631e4fbdf760e01b815260006004820152602490fd5b600080fd5b346101d15760403660031901126101d1576101ef611347565b6101f761135d565b9060018060a01b03809116600052600560205260406000209116600052602052602060ff604060002054166040519015158152f35b346101d15760003660031901126101d1576009546040516001600160a01b039091168152602090f35b346101d1576020806003193601126101d157600435610273816117d7565b5060005260068152604060002090604051918260008254610293816114c2565b938484526001918683821691826000146103255750506001146102e6575b50506102bf925003836113ed565b60006040516102cd816113d1565b526102e2604051928284938452830190611307565b0390f35b85925060005281600020906000915b85831061030d5750506102bf935082010185806102b1565b805483890185015287945086939092019181016102f5565b92509350506102bf94915060ff191682840152151560051b82010185806102b1565b346101d15760203660031901126101d15760043560048110156101d157600052600d6020526020604060002054604051908152f35b346101d15760203660031901126101d157610395611347565b506102e26040516103a5816113d1565b60008152604051918291602083526020830190611462565b346101d15760803660031901126101d1576103d6611347565b6103de61135d565b6064359167ffffffffffffffff83116101d157366023840112156101d15761041361041d93369060248160040135910161142b565b9160443591611682565b005b346101d15760203660031901126101d157602061043d6004356119f4565b61044a60405180926113a8565bf35b346101d15760403660031901126101d157610465611347565b60243590811515908183036101d1576001600160a01b03169182156104e1576104b39033600052600560205260406000208460005260205260406000209060ff801983541691151516179055565b6040519081527f17307eab39ab6107e8899845ad3d59bd9653f200f220920489ca2b5937696c3160203392a3005b604051630b61174360e31b815260048101849052602490fd5b346101d15760403660031901126101d157610513611347565b6024359060048210156101d15760209161052c91611859565b6040519015158152f35b346101d15760003660031901126101d1576040516000600180549061055a826114c2565b808552918181169081156105ee5750600114610595575b6102e284610581818603826113ed565b604051918291602083526020830190611307565b600081815292507fb10e2d527612073b26eecdfd717e6a320cf44b4afac2b0732d9fcbe2b7fa0cf65b8284106105d657505050810160200161058182610571565b805460208587018101919091529093019281016105be565b60ff191660208087019190915292151560051b850190920192506105819150839050610571565b346101d15760003660031901126101d1576007546040516001600160a01b039091168152602090f35b346101d15760003660031901126101d157610657611496565b600780546001600160a01b031981169091556000906001600160a01b03167f8be0079c531659141344cd1fd0a4f28419497f9722a3daafe3b4186f6b6457e08280a3005b346101d15760203660031901126101d1576001600160a01b036106bc611347565b1680156106db5760005260036020526020604060002054604051908152f35b6040516322718ad960e21b815260006004820152602490fd5b346101d15760203660031901126101d15760206107126004356117d7565b6040516001600160a01b039091168152f35b346101d15760203660031901126101d1576001600160a01b03610745611347565b16600052600c6020526020604060002054604051908152f35b346101d15761041d61076f36611373565b906040519261077d846113d1565b60008452611682565b346101d1576020806003193601126101d15760043590606060c06040516107ac816113b5565b600081526000848201526000604082015260008382015260006080820152600060a08201520152816000526002815260018060a01b03918260406000205416156108fc57600052600b8152604060002060405190610809826113b5565b80548252600190818101549484840190808716825261083260ff604087019860a01c1688611812565b6002830154906060860191825260038401549260808701938452600560ff6004870154169560a0890196151587520160405180978a83549283815201926000528a6000209160005b8181106108e95750505050916102e29798999161089c886108c39503896113ed565b60c08a019788526040519a8b9a818c5251908b0152511660408901525160608801906113a8565b5160808601525160a085015251151560c08401525160e080840152610100830190611462565b83548552938c019392820192820161087a565b60405162461bcd60e51b815260048101839052601960248201527f4d656d6265727368697020646f6573206e6f74206578697374000000000000006044820152606490fd5b346101d15760403660031901126101d15761095a611347565b60243567ffffffffffffffff81116101d157366023820112156101d15761098b90369060248160040135910161142b565b6001600160a01b0382166000908152600c6020526040902054610e1c576109b0611980565b600a54916000198314610e065760018301600a556001600160a01b03841615610ded57600183016000908152600260205260409020546001600160a01b03168015159081610dac575b6001600160a01b03861660008181526003602090815260408083208054600190810190915589018084526002909252822080546001600160a01b0319168417905592907fddf252ad1be2c89b69c2b068fc378daa952ba7f163c4a11628f55a4df523b3ef9080a4610d935760018301600052600660205260406000209080519067ffffffffffffffff8211610cb3578190610a9484546114c2565b601f8111610d56575b50602090601f8311600114610cea57600092610cdf575b50508160011b916000199060031b1c19161790555b7ff8e1a15aba9398e019f0b49df1a4fde98ee17ae345cb5f6b5e2c27f5033e8ce76020604051600185018152a160405192610b03846113d1565b60008452604051610b13816113b5565b6001840181526001600160a01b038216602082019081529060408101610b398582611812565b6060820190428252608083016000815260a08401916001835260c08501998a5260018901600052600b602052604060002094518555600185019560018060a01b039051166001600160601b0360a01b87541617865551926004841015610cc957610ba8610bcc9460059761181e565b516002850155516003840155511515600483019060ff801983541691151516179055565b01935180519067ffffffffffffffff8211610cb357680100000000000000008211610cb3576020908654838855808410610c96575b50019460005260206000209460005b828110610c8257602086868660018060a01b038116600052600c845260018301604060002055610c4360405180936113a8565b6001600160a01b03169060018301907f49c77333ba19a8a45899e31c8bbaec140159ddd702f0b8c1b9b1d4bc4a2d8679908590a3600160405191018152f35b600190602083519301928189015501610c10565b610cad908860005284846000209182019101611842565b87610c01565b634e487b7160e01b600052604160045260246000fd5b634e487b7160e01b600052602160045260246000fd5b015190508680610ab4565b9250836000526020600020906000935b601f1984168510610d3b576001945083601f19811610610d22575b505050811b019055610ac9565b015160001960f88460031b161c19169055868080610d15565b81810151835560209485019460019093019290910190610cfa565b610d8390856000526020600020601f850160051c81019160208610610d89575b601f0160051c0190611842565b87610a9d565b9091508190610d76565b6040516339e3563760e11b815260006004820152602490fd5b610dd260018601600052600460205260406000206001600160601b0360a01b8154169055565b806000526003602052604060002060001981540190556109f9565b604051633250574960e11b815260006004820152602490fd5b634e487b7160e01b600052601160045260246000fd5b60405162461bcd60e51b815260206004820152601060248201526f20b63932b0b23c90309036b2b6b132b960811b6044820152606490fd5b346101d15760203660031901126101d157600435600052600b60205260c060406000208054906001810154906002810154610eba60ff60046003850154940154169360405195865260018060a01b038116602087015260ff604087019160a01c166113a8565b60608401526080830152151560a0820152f35b346101d15761041d610ede36611373565b916114fc565b346101d1576020806003193601126101d1576004356000818152600b8352604090206001810180549293909291336001600160a01b038416036110585760ff6004820154161561101b57610f36611980565b926004841015610cc95760a01c60ff16936004851015610cc95784841115610fdf57927f352ffa825b5dbfd121a26e29681d13bc73231bf9d64f248978f460eaf2a1be3b94926005610fc193610f8e8460409861181e565b60008751610f9b816113d1565b520180546000825580610fc4575b50600052610fb9855180956113a8565b8301906113a8565ba2005b610fd990826000528360002090810190611842565b88610fa9565b60405162461bcd60e51b81526004810184905260146024820152734e6f207570677261646520617661696c61626c6560601b6044820152606490fd5b60405162461bcd60e51b81526004810183905260156024820152744d656d62657273686970206e6f742061637469766560581b6044820152606490fd5b60405162461bcd60e51b81526004810183905260156024820152742737ba1036b2b6b132b939b434b8103437b63232b960591b6044820152606490fd5b346101d15760203660031901126101d1576110ae611347565b50602060405160008152f35b346101d15760403660031901126101d1576110d3611347565b6024356110df816117d7565b3315158061118e575b80611161575b611149576001600160a01b039283169282918491167f8c5be1e5ebec7d5bd14f71427d1e84f3dd0314c0f7b2291e5b200ac8c7c3b925600080a4600090815260046020526040902080546001600160a01b0319169091179055005b60405163a9fbf51f60e01b8152336004820152602490fd5b5060018060a01b038116600052600560205260406000203360005260205260ff60406000205416156110ee565b506001600160a01b0381163314156110e8565b346101d15760203660031901126101d1576004356111be816117d7565b506000526004602052602060018060a01b0360406000205416604051908152f35b346101d15760003660031901126101d15760405160008054611200816114c2565b808452906001908181169081156105ee5750600114611229576102e284610581818603826113ed565b600080805292507f290decd9548b62a8d60345a988386fc84ba6bc95484008f6362f93160ef3e5635b82841061126a57505050810160200161058182610571565b80546020858701810191909152909301928101611252565b346101d15760203660031901126101d1576004359063ffffffff60e01b82168092036101d157602091632483248360e11b81149081156112c4575b5015158152f35b6380ac58cd60e01b8114915081156112f6575b81156112e5575b50836112bd565b6301ffc9a760e01b149050836112de565b635b5e139f60e01b811491506112d7565b919082519283825260005b848110611333575050826000602080949584010152601f8019910116010190565b602081830181015184830182015201611312565b600435906001600160a01b03821682036101d157565b602435906001600160a01b03821682036101d157565b60609060031901126101d1576001600160a01b039060043582811681036101d1579160243590811681036101d1579060443590565b906004821015610cc95752565b60e0810190811067ffffffffffffffff821117610cb357604052565b6020810190811067ffffffffffffffff821117610cb357604052565b90601f8019910116810190811067ffffffffffffffff821117610cb357604052565b67ffffffffffffffff8111610cb357601f01601f191660200190565b9291926114378261140f565b9161144560405193846113ed565b8294818452818301116101d1578281602093846000960137010152565b90815180825260208080930193019160005b828110611482575050505090565b835185529381019392810192600101611474565b6007546001600160a01b031633036114aa57565b60405163118cdaa760e01b8152336004820152602490fd5b90600182811c921680156114f2575b60208310146114dc57565b634e487b7160e01b600052602260045260246000fd5b91607f16916114d1565b6001600160a01b039182169290918315610ded576000928284528260209560028752604096848888205416968791331515806115ec575b509060027fddf252ad1be2c89b69c2b068fc378daa952ba7f163c4a11628f55a4df523b3ef92846115b9575b858352600381528b8320805460010190558683525289812080546001600160a01b0319168517905580a416928383036115985750505050565b6064945051926364283d7b60e01b8452600484015260248301526044820152fd5b600087815260046020526040902080546001600160a01b0319169055848352600381528b8320805460001901905561155f565b91939450915080611641575b1561160857859291879138611533565b878688611625576024915190637e27328960e01b82526004820152fd5b604491519063177e802f60e01b82523360048301526024820152fd5b503387148015611666575b806115f857508582526004815233858984205416146115f8565b5086825260058152878220338352815260ff888320541661164c565b9290926116908385836114fc565b833b61169d575b50505050565b604051630a85bd0160e11b8082523360048301526001600160a01b03928316602483015260448201949094526080606482015294931692602092909185906116e9906084830190611307565b039483816000978189895af1869181611793575b5061175e575050503d600014611755573d6117178161140f565b9061172560405192836113ed565b81528093823d92013e5b8251928361175057604051633250574960e11b815260048101849052602490fd5b019050fd5b6060925061172f565b919450915063ffffffff60e01b160361177b575038808080611697565b60249060405190633250574960e11b82526004820152fd5b9091508481813d83116117d0575b6117ab81836113ed565b810103126117cc57516001600160e01b0319811681036117cc5790386116fd565b8680fd5b503d6117a1565b6000818152600260205260409020546001600160a01b03169081156117fa575090565b60249060405190637e27328960e01b82526004820152fd5b6004821015610cc95752565b906004811015610cc957815460ff60a01b191660a09190911b60ff60a01b16179055565b81811061184d575050565b60008155600101611842565b6001600160a01b039081166000908152600c602090815260408220549293928015611978578252600b81526040822090604051611895816113b5565b8254815260019182840154968716818301526118bb60ff604084019860a01c1688611812565b6002840154606083015260038401546080830152600560ff6004860154169460a08401951515865201604051918294859382845491828152019389528289209289905b82821061196057505050505060c092916119199103846113ed565b0152511515928361192b575b50505090565b51919250600482101561194c57600483101561194c57501015388080611925565b634e487b7160e01b81526021600452602490fd5b845486528896509485019493830193908301906118fe565b505091505090565b60036000908152600d6020527f26b4a10d0f0b04925c23bd4480ee147c916e5e87a7d68206a533dad160ac81e254156119ee57600281526040812054156119e857600181526040812054156119e2578080526040812054156119df5790565b90565b50600190565b50600290565b50600390565b60009060038252600d6020526040822054811015611a4b57600282526040822054811015611a4457600182526040822054811015611a3d57818052604082205411156119df5790565b5050600190565b5050600290565b505060039056fea26469706673582212204c8b7cb588e83e1a816f38c49559150737c45ba8fcdff8e8c9247fba1ae4fd9e64736f6c63430008140033",
  "linkReferences": {},
  "deployedLinkReferences": {}
}