{
  "_format": "hh-sol-artifact-1",
  "contractName": "RiseUpLoyalty",
  "sourceName": "contracts/RiseUpLoyalty.sol",
  "abi": [
    {
      "inputs": [
        {
          "internalType": "address",
          "name": "_nftContract",
          "type": "address"
        }
      ],
      "stateMutability": "nonpayable",
      "type": "constructor"
    },
    {
      "inputs": [
        {
          "internalType": "address",
          "name": "sender",
          "type": "address"
        },
        {
          "internalType": "uint256",
          "name": "tokenId",
          "type": "uint256"
        },
        {
          "internalType": "address",
          "name": "owner",
          "type": "address"
        }
      ],
      "name": "ERC721IncorrectOwner",
      "type": "error"
    },
    {
      "inputs": [
        {
          "internalType": "address",
          "name": "operator",
          "type": "address"
        },
        {
          "internalType": "uint256",
          "name": "tokenId",
          "type": "uint256"
        }
      ],
      "name": "ERC721InsufficientApproval",
      "type": "error"
    },
    {
      "inputs": [
        {
          "internalType": "address",
          "name": "approver",
          "type": "address"
        }
      ],
      "name": "ERC721InvalidApprover",
      "type": "error"
    },
    {
      "inputs": [
        {
          "internalType": "address",
          "name": "operator",
          "type": "address"
        }
      ],
      "name": "ERC721InvalidOperator",
      "type": "error"
    },
    {
      "inputs": [
        {
          "internalType": "address",
          "name": "owner",
          "type": "address"
        }
      ],
      "name": "ERC721InvalidOwner",
      "type": "error"
    },
    {
      "inputs": [
        {
          "internalType": "address",
          "name": "receiver",
          "type": "address"
        }
      ],
      "name": "ERC721InvalidReceiver",
      "type": "error"
    },
    {
      "inputs": [
        {
          "internalType": "address",
          "name": "sender",
          "type": "address"
        }
      ],
      "name": "ERC721InvalidSender",
      "type": "error"
    },
    {
      "inputs": [
        {
          "internalType": "uint256",
          "name": "tokenId",
          "type": "uint256"
        }
      ],
      "name": "ERC721NonexistentToken",
      "type": "error"
    },
    {
      "inputs": [
        {
          "internalType": "address",
          "name": "owner",
          "type": "address"
        }
      ],
      "name": "OwnableInvalidOwner",
      "type": "error"
    },
    {
      "inputs": [
        {
          "internalType": "address",
          "name": "account",
          "type": "address"
        }
      ],
      "name": "OwnableUnauthorizedAccount",
      "type": "error"
    },
    {
      "inputs": [],
      "name": "ReentrancyGuardReentrantCall",
      "type": "error"
    },
    {
      "anonymous": false,
      "inputs": [
        {
          "indexed": true,
          "internalType": "uint256",
          "name": "achievementId",
          "type": "uint256"
        },
        {
          "indexed": false,
          "internalType": "string",
          "name": "name",
          "type": "string"
        },
        {
          "indexed": false,
          "internalType": "uint256",
          "name": "rarity",
          "type": "uint256"
        }
      ],
      "name": "AchievementCreated",
      "type": "event"
    },
    {
      "anonymous": false,
      "inputs": [
        {
          "indexed": true,
          "internalType": "address",
          "name": "user",
          "type": "address"
        },
        {
          "indexed": true,
          "internalType": "uint256",
          "name": "achievementId",
          "type": "uint256"
        },
        {
          "indexed": false,
          "internalType": "uint256",
          "name": "tokenId",
          "type": "uint256"
        }
      ],
      "name": "AchievementEarned",
      "type": "event"
    },
    {
      "anonymous": false,
      "inputs": [
        {
          "indexed": true,
          "internalType": "address",
          "name": "owner",
          "type": "address"
        },
        {
          "indexed": true,
          "internalType": "address",
          "name": "approved",
          "type": "address"
        },
        {
          "indexed": true,
          "internalType": "uint256",
          "name": "tokenId",
          "type": "uint256"
        }
      ],
      "name": "Approval",
      "type": "event"
    },
    {
      "anonymous": false,
      "inputs": [
        {
          "indexed": true,
          "internalType": "address",
          "name": "owner",
          "type": "address"
        },
        {
          "indexed": true,
          "internalType": "address",
          "name": "operator",
          "type": "address"
        },
        {
          "indexed": false,
          "internalType": "bool",
          "name": "approved",
          "type": "bool"
        }
      ],
      "name": "ApprovalForAll",
      "type": "event"
    },
    {
      "anonymous": false,
      "inputs": [
        {
          "indexed": false,
          "internalType": "uint256",
          "name": "_fromTokenId",
          "type": "uint256"
        },
        {
          "indexed": false,
          "internalType": "uint256",
          "name": "_toTokenId",
          "type": "uint256"
        }
      ],
      "name": "BatchMetadataUpdate",
      "type": "event"
    },
    {
      "anonymous": false,
      "inputs": [
        {
          "indexed": true,
          "internalType": "address",
          "name": "user",
          "type": "address"
        },
        {
          "indexed": false,
          "internalType": "uint256",
          "name": "newLevel",
          "type": "uint256"
        }
      ],
      "name": "LevelUp",
      "type": "event"
    },
    {
      "anonymous": false,
      "inputs": [
        {
          "indexed": false,
          "internalType": "uint256",
          "name": "_tokenId",
          "type": "uint256"
        }
      ],
      "name": "MetadataUpdate",
      "type": "event"
    },
    {
      "anonymous": false,
      "inputs": [
        {
          "indexed": true,
          "internalType": "uint256",
          "name": "tokenId",
          "type": "uint256"
        },
        {
          "indexed": true,
          "internalType": "address",
          "name": "staker",
          "type": "address"
        }
      ],
      "name": "NFTStaked",
      "type": "event"
    },
    {
      "anonymous": false,
      "inputs": [
        {
          "indexed": true,
          "internalType": "uint256",
          "name": "tokenId",
          "type": "uint256"
        },
        {
          "indexed": true,
          "internalType": "address",
          "name": "staker",
          "type": "address"
        }
      ],
      "name": "NFTUnstaked",
      "type": "event"
    },
    {
      "anonymous": false,
      "inputs": [
        {
          "indexed": true,
          "internalType": "address",
          "name": "previousOwner",
          "type": "address"
        },
        {
          "indexed": true,
          "internalType": "address",
          "name": "newOwner",
          "type": "address"
        }
      ],
      "name": "OwnershipTransferred",
      "type": "event"
    },
    {
      "anonymous": false,
      "inputs": [
        {
          "indexed": true,
          "internalType": "address",
          "name": "user",
          "type": "address"
        },
        {
          "indexed": false,
          "internalType": "uint256",
          "name": "points",
          "type": "uint256"
        },
        {
          "indexed": false,
          "internalType": "string",
          "name": "reason",
          "type": "string"
        }
      ],
      "name": "PointsEarned",
      "type": "event"
    },
    {
      "anonymous": false,
      "inputs": [
        {
          "indexed": true,
          "internalType": "address",
          "name": "user",
          "type": "address"
        },
        {
          "indexed": false,
          "internalType": "uint256",
          "name": "amount",
          "type": "uint256"
        }
      ],
      "name": "RewardsClaimed",
      "type": "event"
    },
    {
      "anonymous": false,
      "inputs": [
        {
          "indexed": true,
          "internalType": "address",
          "name": "from",
          "type": "address"
        },
        {
          "indexed": true,
          "internalType": "address",
          "name": "to",
          "type": "address"
        },
        {
          "indexed": true,
          "internalType": "uint256",
          "name": "tokenId",
          "type": "uint256"
        }
      ],
      "name": "Transfer",
      "type": "event"
    },
    {
      "inputs": [
        {
          "internalType": "uint256",
          "name": "",
          "type": "uint256"
        }
      ],
      "name": "achievements",
      "outputs": [
        {
          "internalType": "uint256",
          "name": "id",
          "type": "uint256"
        },
        {
          "internalType": "string",
          "name": "name",
          "type": "string"
        },
        {
          "internalType": "string",
          "name": "description",
          "type": "string"
        },
        {
          "internalType": "string",
          "name": "category",
          "type": "string"
        },
        {
          "internalType": "uint256",
          "name": "rarity",
          "type": "uint256"
        },
        {
          "internalType": "uint256",
          "name": "pointsReward",
          "type": "uint256"
        },
        {
          "internalType": "bool",
          "name": "isActive",
          "type": "bool"
        },
        {
          "internalType": "uint256",
          "name": "totalMinted",
          "type": "uint256"
        },
        {
          "internalType": "uint256",
          "name": "maxSupply",
          "type": "uint256"
        }
      ],
      "stateMutability": "view",
      "type": "function"
    },
    {
      "inputs": [
        {
          "internalType": "address",
          "name": "to",
          "type": "address"
        },
        {
          "internalType": "uint256",
          "name": "tokenId",
          "type": "uint256"
        }
      ],
      "name": "approve",
      "outputs": [],
      "stateMutability": "nonpayable",
      "type": "function"
    },
    {
      "inputs": [
        {
          "internalType": "address",
          "name": "user",
          "type": "address"
        },
        {
          "internalType": "string",
          "name": "activityType",
          "type": "string"
        },
        {
          "internalType": "uint256",
          "name": "multiplier",
          "type": "uint256"
        }
      ],
      "name": "awardActivityPoints",
      "outputs": [],
      "stateMutability": "nonpayable",
      "type": "function"
    },
    {
      "inputs": [
        {
          "internalType": "address",
          "name": "owner",
          "type": "address"
        }
      ],
      "name": "balanceOf",
      "outputs": [
        {
          "internalType": "uint256",
          "name": "",
          "type": "uint256"
        }
      ],
      "stateMutability": "view",
      "type": "function"
    },
    {
      "inputs": [
        {
          "internalType": "uint256",
          "name": "tokenId",
          "type": "uint256"
        }
      ],
      "name": "claimStakingRewards",
      "outputs": [],
      "stateMutability": "nonpayable",
      "type": "function"
    },
    {
      "inputs": [
        {
          "internalType": "string",
          "name": "name",
          "type": "string"
        },
        {
          "internalType": "string",
          "name": "description",
          "type": "string"
        },
        {
          "internalType": "string",
          "name": "category",
          "type": "string"
        },
        {
          "internalType": "uint256",
          "name": "rarity",
          "type": "uint256"
        },
        {
          "internalType": "uint256",
          "name": "pointsReward",
          "type": "uint256"
        },
        {
          "internalType": "uint256",
          "name": "maxSupply",
          "type": "uint256"
        }
      ],
      "name": "createAchievement",
      "outputs": [
        {
          "internalType": "uint256",
          "name": "",
          "type": "uint256"
        }
      ],
      "stateMutability": "nonpayable",
      "type": "function"
    },
    {
      "inputs": [
        {
          "internalType": "uint256",
          "name": "achievementId",
          "type": "uint256"
        },
        {
          "internalType": "address",
          "name": "recipient",
          "type": "address"
        }
      ],
      "name": "earnAchievement",
      "outputs": [
        {
          "internalType": "uint256",
          "name": "",
          "type": "uint256"
        }
      ],
      "stateMutability": "nonpayable",
      "type": "function"
    },
    {
      "inputs": [
        {
          "internalType": "uint256",
          "name": "tokenId",
          "type": "uint256"
        }
      ],
      "name": "getApproved",
      "outputs": [
        {
          "internalType": "address",
          "name": "",
          "type": "address"
        }
      ],
      "stateMutability": "view",
      "type": "function"
    },
    {
      "inputs": [
        {
          "internalType": "uint256",
          "name": "tokenId",
          "type": "uint256"
        }
      ],
      "name": "getStakingInfo",
      "outputs": [
        {
          "internalType": "address",
          "name": "staker",
          "type": "address"
        },
        {
          "internalType": "uint256",
          "name": "stakedAt",
          "type": "uint256"
        },
        {
          "internalType": "uint256",
          "name": "accumulatedRewards",
          "type": "uint256"
        },
        {
          "internalType": "bool",
          "name": "isActive",
          "type": "bool"
        }
      ],
      "stateMutability": "view",
      "type": "function"
    },
    {
      "inputs": [
        {
          "internalType": "address",
          "name": "user",
          "type": "address"
        }
      ],
      "name": "getUserStats",
      "outputs": [
        {
          "internalType": "uint256",
          "name": "totalPoints",
          "type": "uint256"
        },
        {
          "internalType": "uint256",
          "name": "level",
          "type": "uint256"
        },
        {
          "internalType": "uint256",
          "name": "achievementsEarned",
          "type": "uint256"
        },
        {
          "internalType": "uint256",
          "name": "nftsOwned",
          "type": "uint256"
        },
        {
          "internalType": "uint256",
          "name": "nftsCreated",
          "type": "uint256"
        },
        {
          "internalType": "uint256",
          "name": "tradesCompleted",
          "type": "uint256"
        }
      ],
      "stateMutability": "view",
      "type": "function"
    },
    {
      "inputs": [
        {
          "internalType": "address",
          "name": "owner",
          "type": "address"
        },
        {
          "internalType": "address",
          "name": "operator",
          "type": "address"
        }
      ],
      "name": "isApprovedForAll",
      "outputs": [
        {
          "internalType": "bool",
          "name": "",
          "type": "bool"
        }
      ],
      "stateMutability": "view",
      "type": "function"
    },
    {
      "inputs": [],
      "name": "name",
      "outputs": [
        {
          "internalType": "string",
          "name": "",
          "type": "string"
        }
      ],
      "stateMutability": "view",
      "type": "function"
    },
    {
      "inputs": [],
      "name": "nftContract",
      "outputs": [
        {
          "internalType": "contract RiseUpNFT",
          "name": "",
          "type": "address"
        }
      ],
      "stateMutability": "view",
      "type": "function"
    },
    {
      "inputs": [],
      "name": "owner",
      "outputs": [
        {
          "internalType": "address",
          "name": "",
          "type": "address"
        }
      ],
      "stateMutability": "view",
      "type": "function"
    },
    {
      "inputs": [
        {
          "internalType": "uint256",
          "name": "tokenId",
          "type": "uint256"
        }
      ],
      "name": "ownerOf",
      "outputs": [
        {
          "internalType": "address",
          "name": "",
          "type": "address"
        }
      ],
      "stateMutability": "view",
      "type": "function"
    },
    {
      "inputs": [],
      "name": "pointsPerAchievement",
      "outputs": [
        {
          "internalType": "uint256",
          "name": "",
          "type": "uint256"
        }
      ],
      "stateMutability": "view",
      "type": "function"
    },
    {
      "inputs": [],
      "name": "pointsPerNFT",
      "outputs": [
        {
          "internalType": "uint256",
          "name": "",
          "type": "uint256"
        }
      ],
      "stateMutability": "view",
      "type": "function"
    },
    {
      "inputs": [],
      "name": "pointsPerTrade",
      "outputs": [
        {
          "internalType": "uint256",
          "name": "",
          "type": "uint256"
        }
      ],
      "stateMutability": "view",
      "type": "function"
    },
    {
      "inputs": [],
      "name": "renounceOwnership",
      "outputs": [],
      "stateMutability": "nonpayable",
      "type": "function"
    },
    {
      "inputs": [
        {
          "internalType": "address",
          "name": "from",
          "type": "address"
        },
        {
          "internalType": "address",
          "name": "to",
          "type": "address"
        },
        {
          "internalType": "uint256",
          "name": "tokenId",
          "type": "uint256"
        }
      ],
      "name": "safeTransferFrom",
      "outputs": [],
      "stateMutability": "nonpayable",
      "type": "function"
    },
    {
      "inputs": [
        {
          "internalType": "address",
          "name": "from",
          "type": "address"
        },
        {
          "internalType": "address",
          "name": "to",
          "type": "address"
        },
        {
          "internalType": "uint256",
          "name": "tokenId",
          "type": "uint256"
        },
        {
          "internalType": "bytes",
          "name": "data",
          "type": "bytes"
        }
      ],
      "name": "safeTransferFrom",
      "outputs": [],
      "stateMutability": "nonpayable",
      "type": "function"
    },
    {
      "inputs": [
        {
          "internalType": "address",
          "name": "operator",
          "type": "address"
        },
        {
          "internalType": "bool",
          "name": "approved",
          "type": "bool"
        }
      ],
      "name": "setApprovalForAll",
      "outputs": [],
      "stateMutability": "nonpayable",
      "type": "function"
    },
    {
      "inputs": [
        {
          "internalType": "uint256",
          "name": "tokenId",
          "type": "uint256"
        }
      ],
      "name": "stakeNFT",
      "outputs": [],
      "stateMutability": "nonpayable",
      "type": "function"
    },
    {
      "inputs": [
        {
          "internalType": "uint256",
          "name": "",
          "type": "uint256"
        }
      ],
      "name": "stakedTokens",
      "outputs": [
        {
          "internalType": "uint256",
          "name": "",
          "type": "uint256"
        }
      ],
      "stateMutability": "view",
      "type": "function"
    },
    {
      "inputs": [
        {
          "internalType": "uint256",
          "name": "",
          "type": "uint256"
        }
      ],
      "name": "stakes",
      "outputs": [
        {
          "internalType": "uint256",
          "name": "tokenId",
          "type": "uint256"
        },
        {
          "internalType": "address",
          "name": "staker",
          "type": "address"
        },
        {
          "internalType": "uint256",
          "name": "stakedAt",
          "type": "uint256"
        },
        {
          "internalType": "uint256",
          "name": "lastClaimTime",
          "type": "uint256"
        },
        {
          "internalType": "uint256",
          "name": "accumulatedRewards",
          "type": "uint256"
        },
        {
          "internalType": "bool",
          "name": "isActive",
          "type": "bool"
        }
      ],
      "stateMutability": "view",
      "type": "function"
    },
    {
      "inputs": [],
      "name": "stakingRewardRate",
      "outputs": [
        {
          "internalType": "uint256",
          "name": "",
          "type": "uint256"
        }
      ],
      "stateMutability": "view",
      "type": "function"
    },
    {
      "inputs": [
        {
          "internalType": "bytes4",
          "name": "interfaceId",
          "type": "bytes4"
        }
      ],
      "name": "supportsInterface",
      "outputs": [
        {
          "internalType": "bool",
          "name": "",
          "type": "bool"
        }
      ],
      "stateMutability": "view",
      "type": "function"
    },
    {
      "inputs": [],
      "name": "symbol",
      "outputs": [
        {
          "internalType": "string",
          "name": "",
          "type": "string"
        }
      ],
      "stateMutability": "view",
      "type": "function"
    },
    {
      "inputs": [
        {
          "internalType": "uint256",
          "name": "tokenId",
          "type": "uint256"
        }
      ],
      "name": "tokenURI",
      "outputs": [
        {
          "internalType": "string",
          "name": "",
          "type": "string"
        }
      ],
      "stateMutability": "view",
      "type": "function"
    },
    {
      "inputs": [
        {
          "internalType": "address",
          "name": "from",
          "type": "address"
        },
        {
          "internalType": "address",
          "name": "to",
          "type": "address"
        },
        {
          "internalType": "uint256",
          "name": "tokenId",
          "type": "uint256"
        }
      ],
      "name": "transferFrom",
      "outputs": [],
      "stateMutability": "nonpayable",
      "type": "function"
    },
    {
      "inputs": [
        {
          "internalType": "address",
          "name": "newOwner",
          "type": "address"
        }
      ],
      "name": "transferOwnership",
      "outputs": [],
      "stateMutability": "nonpayable",
      "type": "function"
    },
    {
      "inputs": [
        {
          "internalType": "uint256",
          "name": "tokenId",
          "type": "uint256"
        }
      ],
      "name": "unstakeNFT",
      "outputs": [],
      "stateMutability": "nonpayable",
      "type": "function"
    },
    {
      "inputs": [
        {
          "internalType": "uint256",
          "name": "_pointsPerNFT",
          "type": "uint256"
        },
        {
          "internalType": "uint256",
          "name": "_pointsPerTrade",
          "type": "uint256"
        },
        {
          "internalType": "uint256",
          "name": "_pointsPerAchievement",
          "type": "uint256"
        },
        {
          "internalType": "uint256",
          "name": "_stakingRewardRate",
          "type": "uint256"
        }
      ],
      "name": "updatePointsRates",
      "outputs": [],
      "stateMutability": "nonpayable",
      "type": "function"
    },
    {
      "inputs": [
        {
          "internalType": "address",
          "name": "user",
          "type": "address"
        },
        {
          "internalType": "uint256",
          "name": "count",
          "type": "uint256"
        }
      ],
      "name": "updateUserNFTCount",
      "outputs": [],
      "stateMutability": "nonpayable",
      "type": "function"
    },
    {
      "inputs": [
        {
          "internalType": "address",
          "name": "",
          "type": "address"
        }
      ],
      "name": "userProfiles",
      "outputs": [
        {
          "internalType": "uint256",
          "name": "totalPoints",
          "type": "uint256"
        },
        {
          "internalType": "uint256",
          "name": "level",
          "type": "uint256"
        },
        {
          "internalType": "uint256",
          "name": "joinDate",
          "type": "uint256"
        },
        {
          "internalType": "uint256",
          "name": "lastActivity",
          "type": "uint256"
        },
        {
          "internalType": "uint256",
          "name": "nftsOwned",
          "type": "uint256"
        },
        {
          "internalType": "uint256",
          "name": "nftsCreated",
          "type": "uint256"
        },
        {
          "internalType": "uint256",
          "name": "tradesCompleted",
          "type": "uint256"
        },
        {
          "internalType": "uint256",
          "name": "achievementsEarned",
          "type": "uint256"
        }
      ],
      "stateMutability": "view",
      "type": "function"
    }
  ],
  "bytecode": "0x6080346200201357601f6200480038819003918201601f19168301916001600160401b03831184841017620010ec578084926020946040528339810103126200201357516001600160a01b038082169182900362002013576200006162002039565b91601383527f52697365557020416368696576656d656e74730000000000000000000000000060208401526200009662002039565b60048152635255504160e01b602082015283519092906001600160401b038111620010ec57600054600181811c9116801562002008575b6020821014620010cb57601f811162001fb0575b50602094601f821160011462001f385794819293949560009262001f2c575b50508160011b916000199060031b1c1916176000555b82516001600160401b038111620010ec57600154600181811c9116801562001f21575b6020821014620010cb57601f811162001ec8575b506020601f821160011462001e4f578192939460009262001e43575b50508160011b916000199060031b1c1916176001555b331562001e2a5760078054336001600160a01b0319808316821790935560405192939091167f8be0079c531659141344cd1fd0a4f28419497f9722a3daafe3b4186f6b6457e0600080a36001600855600a601055600560115560196012556001601355821562001de857506009541617600955620001fc62002039565b6009815268119a5c9cdd0813919560ba1b60208201526200021c62002039565b90601382527f4d696e7420796f7572206669727374204e46540000000000000000000000000060208301526200025162002039565b600881526731b932b0ba34b7b760c11b6020820152600a5492906000198414620012ce5760018401600a556200028662002018565b916001850183528360208401526040830152606082015260016080820152603260a0820152600160c0820152600060e08201526103e861010082015260018301600052600c60205260406000209080518255602081015180519060018060401b038211620010ec57600184015490600182811c9216801562001ddd575b6020831014620010cb5781601f84931162001d85575b50602090601f831160011462001d0e5760009262001d02575b50508160011b916000199060031b1c19161760018301555b60408101518051906001600160401b038211620010ec57600284015490600182811c9216801562001cf7575b6020831014620010cb5781601f84931162001c9f575b50602090601f831160011462001c285760009262001c1c575b50508160011b916000199060031b1c19161760028301555b60608101518051906001600160401b038211620010ec576003840154600181811c9116801562001c11575b6020821014620010cb57601f811162001bc5575b50602090601f831160011462001b4a579180600894926101009460009262001b3e575b50508160011b916000199060031b1c19161760038501555b6080810151600485015560a0810151600585015560c0810151151560ff8019600687015416911617600685015560e0810151600785015501519101556040516040815281519182604083015260005b83811062001b275783600080516020620047c08339815191528460608160018a60008488850101528160208401520194601f80199101168101030190a2620004cd62002039565b600981526821b7b63632b1ba37b960b91b6020820152620004ed62002039565b90600b82526a4f776e203130204e46547360a81b60208301526200051062002039565b600a80825269195b99d859d95b595b9d60b21b60208301525492906000198414620012ce5760018401600a556200054662002018565b916001850183528360208401526040830152606082015260026080820152606460a0820152600160c0820152600060e08201526101f461010082015260018301600052600c60205260406000209080518255602081015180519060018060401b038211620010ec57600184015490600182811c9216801562001b1c575b6020831014620010cb5781601f84931162001ac4575b50602090601f831160011462001a4d5760009262001a41575b50508160011b916000199060031b1c19161760018301555b60408101518051906001600160401b038211620010ec57600284015490600182811c9216801562001a36575b6020831014620010cb5781601f849311620019de575b50602090601f831160011462001967576000926200195b575b50508160011b916000199060031b1c19161760028301555b60608101518051906001600160401b038211620010ec576003840154600181811c9116801562001950575b6020821014620010cb57601f811162001904575b50602090601f83116001146200188957918060089492610100946000926200187d575b50508160011b916000199060031b1c19161760038501555b6080810151600485015560a081015160058501556006840160c0820151151560ff8019835416911617905560e0810151600785015501519101556040516040815281519182604083015260005b838110620018665783600080516020620047c08339815191528460608160018a6000848885010152600260208401520194601f80199101168101030190a26200078c62002039565b60068152652a3930b232b960d11b6020820152620007a962002039565b906011825270436f6d706c65746520352074726164657360781b6020830152620007d262002039565b600781526674726164696e6760c81b6020820152600a5492906000198414620012ce5760018401600a556200080662002018565b9060018501825260208201928484526040830152606082015260026080820152604b60a0820152600160c0820152600060e08201526103e861010082015260018401600052600c602052604060002091815183555180519060018060401b038211620010ec57600184015490600182811c921680156200185b575b6020831014620010cb5781601f84931162001803575b50602090601f83116001146200178c5760009262001780575b50508160011b916000199060031b1c19161760018301555b60408101518051906001600160401b038211620010ec57600284015490600182811c9216801562001775575b6020831014620010cb5781601f8493116200171d575b50602090601f8311600114620016a6576000926200169a575b50508160011b916000199060031b1c19161760028301555b60608101518051906001600160401b038211620010ec576003840154600181811c911680156200168f575b6020821014620010cb57601f811162001643575b50602090601f8311600114620015c85791806008949261010094600092620015bc575b50508160011b916000199060031b1c19161760038501555b6080810151600485015560a081015160058501556006840160c0820151151560ff8019835416911617905560e0810151600785015501519101556040516040815281519182604083015260005b838110620015a55783600080516020620047c08339815191528460608160018a6000848885010152600260208401520194601f80199101168101030190a262000a4a62002039565b601181527021b7b6b6bab734ba3c90213ab4b63232b960791b602082015262000a7262002039565b90600f82526e5265666572203320667269656e647360881b602083015262000a9962002039565b6009815268636f6d6d756e69747960b81b6020820152600a5492906000198414620012ce5760018401600a5562000acf62002018565b9060018501825260208201928484526040830152606082015260036080820152609660a0820152600160c0820152600060e082015260c861010082015260018401600052600c602052604060002091815183555180519060018060401b038211620010ec57600184015490600182811c921680156200159a575b6020831014620010cb5781601f84931162001542575b50602090601f8311600114620014cb57600092620014bf575b50508160011b916000199060031b1c19161760018301555b60408101518051906001600160401b038211620010ec57600284015490600182811c92168015620014b4575b6020831014620010cb5781601f8493116200145c575b50602090601f8311600114620013e557600092620013d9575b50508160011b916000199060031b1c19161760028301555b60608101518051906001600160401b038211620010ec576003840154600181811c91168015620013ce575b6020821014620010cb57601f811162001382575b50602090601f8311600114620013075791806008949261010094600092620012fb575b50508160011b916000199060031b1c19161760038501555b6080810151600485015560a081015160058501556006840160c0820151151560ff8019835416911617905560e0810151600785015501519101556040516040815281519182604083015260005b838110620012e45783600080516020620047c08339815191528460608160018a6000848885010152600360208401520194601f80199101168101030190a262000d1262002039565b60118152702632b3b2b73230b93c9021b932b0ba37b960791b602082015262000d3a62002039565b90600e82526d437265617465203530204e46547360901b602083015262000d6062002039565b600881526731b932b0ba34b7b760c11b6020820152600a5492906000198414620012ce5760018401600a5562000d9562002018565b9160018501835283602084015260408301526060820152600560808201526101f460a0820152600160c0820152600060e0820152600a61010082015260018301600052600c60205260406000209080518255602081015180519060018060401b038211620010ec57600184015490600182811c92168015620012c3575b6020831014620010cb5781601f8493116200126b575b50602090601f8311600114620011f457600092620011e8575b50508160011b916000199060031b1c19161760018301555b60408101518051906001600160401b038211620010ec57600284015490600182811c92168015620011dd575b6020831014620010cb5781601f84931162001185575b50602090601f83116001146200110e5760009262001102575b50508160011b916000199060031b1c19161760028301555b60608101518051906001600160401b038211620010ec576003840154600181811c91168015620010e1575b6020821014620010cb57601f81116200107f575b50602090601f831160011462001004579180600894926101009460009262000ff8575b50508160011b916000199060031b1c19161760038501555b6080810151600485015560a081015160058501556006840160c0820151151560ff8019835416911617905560e0810151600785015501519101556040516040815281519182604083015260005b83811062000fe15783600080516020620047c08339815191528460608160018a6000848885010152600560208401520194601f80199101168101030190a260405161274690816200205a8239f35b806020809284010151606082860101520162000f93565b01519050888062000f2e565b906003850160005260206000209160005b601f198516811062001066575092600894926001926101009583601f198116106200104c575b505050811b01600385015562000f46565b015160001960f88460031b161c191690558880806200103b565b9192602060018192868501518155019401920162001015565b600385016000526020600020601f840160051c810160208510620010c3575b601f830160051c82018110620010b657505062000f0b565b600081556001016200109e565b50806200109e565b634e487b7160e01b600052602260045260246000fd5b90607f169062000ef7565b634e487b7160e01b600052604160045260246000fd5b01519050868062000eb4565b9250600285016000526020600020906000935b601f198416851062001169576001945083601f198116106200114f575b505050811b01600283015562000ecc565b015160001960f88460031b161c191690558680806200113e565b8181015183556020948501946001909301929091019062001121565b909150600285016000526020600020601f840160051c810160208510620011d5575b90849392915b601f830160051c82018110620011c557505062000e9b565b60008155859450600101620011ad565b5080620011a7565b91607f169162000e85565b01519050868062000e41565b9250600185016000526020600020906000935b601f19841685106200124f576001945083601f1981161062001235575b505050811b01600183015562000e59565b015160001960f88460031b161c1916905586808062001224565b8181015183556020948501946001909301929091019062001207565b909150600185016000526020600020601f840160051c810160208510620012bb575b90849392915b601f830160051c82018110620012ab57505062000e28565b6000815585945060010162001293565b50806200128d565b91607f169162000e12565b634e487b7160e01b600052601160045260246000fd5b806020809284010151606082860101520162000cca565b01519050888062000c65565b906003850160005260206000209160005b601f198516811062001369575092600894926001926101009583601f198116106200134f575b505050811b01600385015562000c7d565b015160001960f88460031b161c191690558880806200133e565b9192602060018192868501518155019401920162001318565b600385016000526020600020601f840160051c810160208510620013c6575b601f830160051c82018110620013b957505062000c42565b60008155600101620013a1565b5080620013a1565b90607f169062000c2e565b01519050868062000beb565b9250600285016000526020600020906000935b601f198416851062001440576001945083601f1981161062001426575b505050811b01600283015562000c03565b015160001960f88460031b161c1916905586808062001415565b81810151835560209485019460019093019290910190620013f8565b909150600285016000526020600020601f840160051c810160208510620014ac575b90849392915b601f830160051c820181106200149c57505062000bd2565b6000815585945060010162001484565b50806200147e565b91607f169162000bbc565b01519050868062000b78565b9250600185016000526020600020906000935b601f198416851062001526576001945083601f198116106200150c575b505050811b01600183015562000b90565b015160001960f88460031b161c19169055868080620014fb565b81810151835560209485019460019093019290910190620014de565b909150600185016000526020600020601f840160051c81016020851062001592575b90849392915b601f830160051c820181106200158257505062000b5f565b600081558594506001016200156a565b508062001564565b91607f169162000b49565b806020809284010151606082860101520162000a02565b0151905088806200099d565b906003850160005260206000209160005b601f19851681106200162a575092600894926001926101009583601f1981161062001610575b505050811b016003850155620009b5565b015160001960f88460031b161c19169055888080620015ff565b91926020600181928685015181550194019201620015d9565b600385016000526020600020601f840160051c81016020851062001687575b601f830160051c820181106200167a5750506200097a565b6000815560010162001662565b508062001662565b90607f169062000966565b01519050868062000923565b9250600285016000526020600020906000935b601f198416851062001701576001945083601f19811610620016e7575b505050811b0160028301556200093b565b015160001960f88460031b161c19169055868080620016d6565b81810151835560209485019460019093019290910190620016b9565b909150600285016000526020600020601f840160051c8101602085106200176d575b90849392915b601f830160051c820181106200175d5750506200090a565b6000815585945060010162001745565b50806200173f565b91607f1691620008f4565b015190508680620008b0565b9250600185016000526020600020906000935b601f1984168510620017e7576001945083601f19811610620017cd575b505050811b016001830155620008c8565b015160001960f88460031b161c19169055868080620017bc565b818101518355602094850194600190930192909101906200179f565b909150600185016000526020600020601f840160051c81016020851062001853575b90849392915b601f830160051c820181106200184357505062000897565b600081558594506001016200182b565b508062001825565b91607f169162000881565b806020809284010151606082860101520162000744565b015190508880620006df565b906003850160005260206000209160005b601f1985168110620018eb575092600894926001926101009583601f19811610620018d1575b505050811b016003850155620006f7565b015160001960f88460031b161c19169055888080620018c0565b919260206001819286850151815501940192016200189a565b600385016000526020600020601f840160051c81016020851062001948575b601f830160051c820181106200193b575050620006bc565b6000815560010162001923565b508062001923565b90607f1690620006a8565b01519050868062000665565b9250600285016000526020600020906000935b601f1984168510620019c2576001945083601f19811610620019a8575b505050811b0160028301556200067d565b015160001960f88460031b161c1916905586808062001997565b818101518355602094850194600190930192909101906200197a565b909150600285016000526020600020601f840160051c81016020851062001a2e575b90849392915b601f830160051c8201811062001a1e5750506200064c565b6000815585945060010162001a06565b508062001a00565b91607f169162000636565b015190508680620005f2565b9250600185016000526020600020906000935b601f198416851062001aa8576001945083601f1981161062001a8e575b505050811b0160018301556200060a565b015160001960f88460031b161c1916905586808062001a7d565b8181015183556020948501946001909301929091019062001a60565b909150600185016000526020600020601f840160051c81016020851062001b14575b90849392915b601f830160051c8201811062001b04575050620005d9565b6000815585945060010162001aec565b508062001ae6565b91607f1691620005c3565b806020809284010151606082860101520162000486565b0151905038806200041f565b906003850160005260206000209160005b601f198516811062001bac575092600894926001926101009583601f1981161062001b92575b505050811b01600385015562000437565b015160001960f88460031b161c1916905538808062001b81565b9192602060018192868501518155019401920162001b5b565b600385016000526020600020601f840160051c81016020851062001c09575b601f830160051c8201811062001bfc575050620003fc565b6000815560010162001be4565b508062001be4565b90607f1690620003e8565b015190503880620003a5565b9250600285016000526020600020906000935b601f198416851062001c83576001945083601f1981161062001c69575b505050811b016002830155620003bd565b015160001960f88460031b161c1916905538808062001c58565b8181015183556020948501946001909301929091019062001c3b565b909150600285016000526020600020601f840160051c81016020851062001cef575b90849392915b601f830160051c8201811062001cdf5750506200038c565b6000815585945060010162001cc7565b508062001cc1565b91607f169162000376565b01519050388062000332565b9250600185016000526020600020906000935b601f198416851062001d69576001945083601f1981161062001d4f575b505050811b0160018301556200034a565b015160001960f88460031b161c1916905538808062001d3e565b8181015183556020948501946001909301929091019062001d21565b909150600185016000526020600020601f840160051c81016020851062001dd5575b90849392915b601f830160051c8201811062001dc557505062000319565b6000815585945060010162001dad565b508062001da7565b91607f169162000303565b62461bcd60e51b815260206004820152601460248201527f496e76616c6964204e465420636f6e74726163740000000000000000000000006044820152606490fd5b604051631e4fbdf760e01b815260006004820152602490fd5b01519050388062000169565b60016000908152600080516020620047e08339815191529190601f198416905b81811062001eaf5750958360019596971062001e95575b505050811b016001556200017f565b015160001960f88460031b161c1916905538808062001e86565b9192602060018192868b01518155019401920162001e6f565b6001600052600080516020620047e0833981519152601f830160051c8101916020841062001f16575b601f0160051c01905b81811062001f0957506200014d565b6000815560010162001efa565b909150819062001ef1565b90607f169062000139565b01519050388062000100565b6000808052601f19831696600080516020620047a08339815191529290915b88811062001f975750836001959697981062001f7d575b505050811b0160005562000116565b015160001960f88460031b161c1916905538808062001f6e565b9192602060018192868501518155019401920162001f57565b60008052600080516020620047a0833981519152601f830160051c8101916020841062001ffd575b601f0160051c01905b81811062001ff05750620000e1565b6000815560010162001fe1565b909150819062001fd8565b90607f1690620000cd565b600080fd5b6040519061012082016001600160401b03811183821017620010ec57604052565b60408051919082016001600160401b03811183821017620010ec5760405256fe608080604052600436101561001357600080fd5b600090813560e01c90816301ffc9a71461187a5750806306fdde03146117ab578063081812fc1461176e578063095ea7b31461168b57806323b872dd1461167357806327aed72e146115ab578063332d56d714611524578063381d43cd1461139557806342842e0e1461136d57806344fbc63a1461134f5780634e43603a146112de5780634f3fc2df146112c05780635816fcf41461128b5780636352211e1461125a5780636cc6e0421461123c5780636eb604e014610ffc57806370a0823114610fa4578063715018a614610f465780638841940c146109f85780638da5cb5b146109cf5780638fad26271461097e57806395d89b411461089f5780639ca1af8c14610881578063a22cb465146107d3578063b88d4fde14610770578063c078855514610746578063c1dfa0bb1461064c578063c87b56dd146105ee578063d56d229d146105c5578063d5a44f8614610556578063d5b1930e1461050e578063d6ff198014610311578063e985e9c5146102bd578063e9c4aa6a1461022f5763f2fde38b146101a257600080fd5b3461022c57602036600319011261022c576101bb611941565b6101c3611b7c565b6001600160a01b0390811690811561021357600754826001600160601b0360a01b821617600755167f8be0079c531659141344cd1fd0a4f28419497f9722a3daafe3b4186f6b6457e0600080a380f35b604051631e4fbdf760e01b815260048101849052602490fd5b80fd5b503461022c57602036600319011261022c5760406080916004358152600e6020522060a060405191610260836119f4565b80548352600180831b03600182015416928360208201526002820154908160408201526003830154606082015260ff6005600485015494858985015201541615159384910152604051938452602084015260408301526060820152f35b503461022c57604036600319011261022c576102d7611941565b60406102e161195c565b9260018060a01b0380931681526005602052209116600052602052602060ff604060002054166040519015158152f35b503461022c57606036600319011261022c5761032b611941565b6024356001600160401b03811161050a5761034a903690600401611b5e565b604435610355611b7c565b6000908251906020917f6de3de1f4444e1a6126b9362e2fbc2027e70294db019b8e39d8802fd11f81046838601918220671b999d17db5a5b9d60c21b8560405161039e81611a2a565b600881520152036103f75750600d9192506103bb90601054612374565b9160018060a01b0385166000525260056040600020016103db81546120db565b90555b806103e7578380f35b6103f0926123ab565b3880808380f35b7fee0a7fd7e9904342e0eaad1ee555336813d7f7f02e24621c04f6ff0396574ccf855182206b6e66745f707572636861736560a01b8560405161043981611a2a565b600c815201520361047d5750600d91925061045690601154612374565b9160018060a01b03851660005252600660406000200161047681546120db565b90556103de565b7ff08dddbbd586ce267e7d8f2ada7d611c3ed72802d1e1631b631ce7ea062982539085519020686e66745f747261646560b81b846040516104bd81611a2a565b600981520152146104d0575b50506103de565b600d9192506104e190601154612374565b9160018060a01b03851660005252600660406000200161050181546120db565b905538806104c9565b8280fd5b503461022c57604036600319011261022c57610528611941565b610530611b7c565b6001600160a01b03168152600d6020526040812060243560048201554260039091015580f35b503461022c57602036600319011261022c57604060c0916004358152600e6020522080549060018060a01b0360018201541690600281015460038201549060ff6005600485015494015416936040519586526020860152604085015260608401526080830152151560a0820152f35b503461022c578060031936011261022c576009546040516001600160a01b039091168152602090f35b503461022c57602036600319011261022c5760043561060c81611e9c565b5060005260066020526106486106256040600020611a66565b600060405161063381611a0f565b52604051918291602083526020830190611901565b0390f35b503461022c57602036600319011261022c5760043580600052600e6020526040600020600560018060a01b039161068a8360018301541633146125e4565b019061069960ff83541661261d565b6106a283612656565b60095416803b15610742576040516323b872dd60e01b8152306004820152336024820152604481018490529084908290606490829084905af1801561073657610727575b50805460ff191690556000818152600f602052604081205533907fd6f2770e374f42fe8f5b99d070b54210cad71f37a5f48a348bfa442a4a9644998380a380f35b610730906119e1565b386106e6565b6040513d6000823e3d90fd5b8380fd5b503461022c57602036600319011261022c5760406020916004358152600f83522054604051908152f35b503461022c57608036600319011261022c5761078a611941565b61079261195c565b606435916001600160401b0383116107425736602384011215610742576107c66107d0933690602481600401359101611b27565b9160443591611d47565b80f35b503461022c57604036600319011261022c576107ed611941565b6024359081151590818303610742576001600160a01b031691821561086857610839903385526005602052604085208460005260205260406000209060ff801983541691151516179055565b6040519081527f17307eab39ab6107e8899845ad3d59bd9653f200f220920489ca2b5937696c3160203392a380f35b604051630b61174360e31b815260048101849052602490fd5b503461022c578060031936011261022c576020601054604051908152f35b503461022c578060031936011261022c57604051600060018054906108c3826119a7565b8085529181811690811561095757506001146108fe575b610648846108ea81860382611a45565b604051918291602083526020830190611901565b600081815292507fb10e2d527612073b26eecdfd717e6a320cf44b4afac2b0732d9fcbe2b7fa0cf65b82841061093f5750505081016020016108ea826108da565b80546020858701810191909152909301928101610927565b60ff191660208087019190915292151560051b850190920192506108ea91508390506108da565b503461022c57602036600319011261022c576107d060043580600052600e6020526109ca60ff600560406000206109c260018060a01b0360018301541633146125e4565b01541661261d565b612656565b503461022c578060031936011261022c576007546040516001600160a01b039091168152602090f35b503461022c5760c036600319011261022c576004356001600160401b038111610f4257610a29903690600401611b5e565b6024356001600160401b03811161050a57610a48903690600401611b5e565b906044356001600160401b03811161074257610a68903690600401611b5e565b91610a71611b7c565b610a7c600a546120db565b9283600a556040519161012083018381106001600160401b03821117610f2c5760405284835283602084015260408301526060820152606435608082015260843560a0820152600160c08201528360e082015260a435610100820152828452600c60205260408420908051825560208101518051906001600160401b038211610d84578190610b0e60018601546119a7565b601f8111610edc575b50602090601f8311600114610e6d578892610e62575b50508160011b916000199060031b1c19161760018301555b60408101518051906001600160401b038211610d84578190610b6a60028601546119a7565b601f8111610e12575b50602090601f8311600114610da3578892610d98575b50508160011b916000199060031b1c19161760028301555b60608101518051906001600160401b038211610d8457610bc460038501546119a7565b601f8111610d40575b5060209686959493929188916001601f851114610ca6579383610c899694600894610100947f09835815f8f52c8ebfec788622bd3bf2aaa72f6e6df4b16c0c82406cd8784a729a9892610c9b575b50508160011b916000199060031b1c19161760038501555b6080810151600485015560a08101516005850155610c6660c08201511515600686019060ff801983541691151516179055565b60e081015160078501550151910155604051918291604083526040830190611901565b606435878301520390a2604051908152f35b015190503880610c1b565b9190600386018352898320925b601f1985168110610d26575093600184600894610100947f09835815f8f52c8ebfec788622bd3bf2aaa72f6e6df4b16c0c82406cd8784a729a98610c899a98601f19811610610d0d575b505050811b016003850155610c33565b015160001960f88460031b161c19169055388080610cfd565b818301518455899850600190930192918a01918a01610cb3565b60038501885260208820601f840160051c810160208510610d7d575b601f830160051c82018110610d72575050610bcd565b898155600101610d5c565b5080610d5c565b634e487b7160e01b87526041600452602487fd5b015190503880610b89565b9250600285018852602088209088935b601f1984168510610df7576001945083601f19811610610dde575b505050811b016002830155610ba1565b015160001960f88460031b161c19169055388080610dce565b81810151835560209485019460019093019290910190610db3565b90915060028501885260208820601f840160051c810160208510610e5b575b90849392915b601f830160051c82018110610e4d575050610b73565b8a8155859450600101610e37565b5080610e31565b015190503880610b2d565b9250600185018852602088209088935b601f1984168510610ec1576001945083601f19811610610ea8575b505050811b016001830155610b45565b015160001960f88460031b161c19169055388080610e98565b81810151835560209485019460019093019290910190610e7d565b90915060018501885260208820601f840160051c810160208510610f25575b90849392915b601f830160051c82018110610f17575050610b17565b8a8155859450600101610f01565b5080610efb565b634e487b7160e01b600052604160045260246000fd5b5080fd5b503461022c578060031936011261022c57610f5f611b7c565b600780546001600160a01b031981169091556000906001600160a01b03167f8be0079c531659141344cd1fd0a4f28419497f9722a3daafe3b4186f6b6457e08280a380f35b503461022c57602036600319011261022c576001600160a01b03610fc6611941565b168015610fe3578160409160209352600383522054604051908152f35b6040516322718ad960e21b815260048101839052602490fd5b503461022c57602080600319360112610f42576004359060018060a01b0380600954166040516331a9108f60e11b81528460048201528381602481855afa9081156112315786916111f7575b5082339116036111c057838552600f8352604085205461118a57803b15611186576040516323b872dd60e01b8152336004820152306024820152604481018590529085908290606490829084905af1801561117b57611161575b5090611131600f926005604051916110b9836119f4565b86835284830133815260408401428152606085019042825260808601928b845260a0870194600186528b8d52600e8a5260408d2097518855600188019151166001600160601b0360a01b82541617905551600286015551600385015551600484015551151591019060ff801983541691151516179055565b5280604083205533907f2ed768209dd0fb9390afdc2a04c1672d180cc8bc21fe47053644efa81160a8cd8380a380f35b600f929194611172611131926119e1565b949192506110a2565b6040513d87823e3d90fd5b8480fd5b60405162461bcd60e51b815260048101849052600e60248201526d105b1c9958591e481cdd185ad95960921b6044820152606490fd5b60405162461bcd60e51b815260048101849052600f60248201526e2737ba103a37b5b2b71037bbb732b960891b6044820152606490fd5b90508381813d831161122a575b61120e8183611a45565b81010312611226575182811681036112265738611048565b8580fd5b503d611204565b6040513d88823e3d90fd5b503461022c578060031936011261022c576020601254604051908152f35b503461022c57602036600319011261022c576020611279600435611e9c565b6040516001600160a01b039091168152f35b503461022c57608036600319011261022c576112a5611b7c565b60043560105560243560115560443560125560643560135580f35b503461022c578060031936011261022c576020601354604051908152f35b503461022c57602036600319011261022c5760c0906040906001600160a01b03611306611941565b168152600d6020522080549060018101549060078101546004820154906006600584015493015493604051958652602086015260408501526060840152608083015260a0820152f35b503461022c578060031936011261022c576020601154604051908152f35b503461022c576107d061137f36611972565b906040519261138d84611a0f565b858452611d47565b503461022c57604036600319011261022c576004356113b261195c565b906113bb611b7c565b808352600c60205260408320916113d860ff600685015416612055565b6113f060088401548015908115611516575b5061209a565b6113fb600b546120db565b9283600b5561140a8483612127565b6040516b616368696576656d656e742d60a01b602082015283602c820152602c8152606081018181106001600160401b03821117610d84576020969261145961147a93600593604052886121ff565b6007810161146781546120db565b90550154611473612100565b90846123ab565b6001600160a01b0382166000908152600d602052604090819020916002830180541561150d575b50600783016114b081546120db565b905584815260088301875220805460ff19166001179055426003909101556040518381526001600160a01b03909116907fd78a986f1b68efbb7aa63e2f23bc0a13968027713b8571440e8f9640c2361ee1908590a3604051908152f35b429055386114a1565b9050600785015410386113ea565b503461022c57602036600319011261022c57610100906040906001600160a01b0361154d611941565b168152600d60205220805490600181015490600281015460038201546004830154906005840154926007600686015495015495604051978852602088015260408701526060860152608085015260a084015260c083015260e0820152f35b503461022c57602036600319011261022c576040906004358152600c6020522080546115d960018301611a66565b916115e660028201611a66565b6115f260038301611a66565b91600481015492600582015461165260ff6006850154169261164460086007870154960154966116366040519b8c9b8c5260208c61012091829101528c0190611901565b908a820360408c0152611901565b9088820360608a0152611901565b94608087015260a0860152151560c085015260e08401526101008301520390f35b503461022c576107d061168536611972565b91611ba8565b503461022c57604036600319011261022c576116a5611941565b6024356116b181611e9c565b3315158061175b575b80611730575b611718576001600160a01b039283169282918491167f8c5be1e5ebec7d5bd14f71427d1e84f3dd0314c0f7b2291e5b200ac8c7c3b9258680a4825260046020526040822080546001600160a01b031916909117905580f35b60405163a9fbf51f60e01b8152336004820152602490fd5b506001600160a01b038116845260056020908152604080862033875290915284205460ff16156116c0565b506001600160a01b0381163314156116ba565b503461022c57602036600319011261022c5760209060043561178f81611e9c565b50815260048252604060018060a01b0391205416604051908152f35b503461022c578060031936011261022c57604051908080546117cc816119a7565b8085529160019180831690811561185057506001146117f6575b610648856108ea81870382611a45565b80809450527f290decd9548b62a8d60345a988386fc84ba6bc95484008f6362f93160ef3e5635b8284106118385750505081016020016108ea826106486117e6565b8054602085870181019190915290930192810161181d565b869550610648969350602092506108ea94915060ff191682840152151560051b82010192936117e6565b905034610f42576020366003190112610f425760043563ffffffff60e01b811680910361050a5760209250632483248360e11b81149081156118be575b5015158152f35b6380ac58cd60e01b8114915081156118f0575b81156118df575b50386118b7565b6301ffc9a760e01b149050386118d8565b635b5e139f60e01b811491506118d1565b919082519283825260005b84811061192d575050826000602080949584010152601f8019910116010190565b60208183018101518483018201520161190c565b600435906001600160a01b038216820361195757565b600080fd5b602435906001600160a01b038216820361195757565b6060906003190112611957576001600160a01b0390600435828116810361195757916024359081168103611957579060443590565b90600182811c921680156119d7575b60208310146119c157565b634e487b7160e01b600052602260045260246000fd5b91607f16916119b6565b6001600160401b038111610f2c57604052565b60c081019081106001600160401b03821117610f2c57604052565b602081019081106001600160401b03821117610f2c57604052565b604081019081106001600160401b03821117610f2c57604052565b90601f801991011681019081106001600160401b03821117610f2c57604052565b9060405191826000825492611a7a846119a7565b908184526001948581169081600014611ae95750600114611aa6575b5050611aa492500383611a45565b565b9093915060005260209081600020936000915b818310611ad1575050611aa493508201013880611a96565b85548884018501529485019487945091830191611ab9565b915050611aa494506020925060ff191682840152151560051b8201013880611a96565b6001600160401b038111610f2c57601f01601f191660200190565b929192611b3382611b0c565b91611b416040519384611a45565b829481845281830111611957578281602093846000960137010152565b9080601f8301121561195757816020611b7993359101611b27565b90565b6007546001600160a01b03163303611b9057565b60405163118cdaa760e01b8152336004820152602490fd5b6001600160a01b039182169290918315611d2e57600092828452826020956002875260409684888820541696879133151580611c98575b509060027fddf252ad1be2c89b69c2b068fc378daa952ba7f163c4a11628f55a4df523b3ef9284611c65575b858352600381528b8320805460010190558683525289812080546001600160a01b0319168517905580a41692838303611c445750505050565b6064945051926364283d7b60e01b8452600484015260248301526044820152fd5b600087815260046020526040902080546001600160a01b0319169055848352600381528b83208054600019019055611c0b565b91939450915080611ced575b15611cb457859291879138611bdf565b878688611cd1576024915190637e27328960e01b82526004820152fd5b604491519063177e802f60e01b82523360048301526024820152fd5b503387148015611d12575b80611ca45750858252600481523385898420541614611ca4565b5086825260058152878220338352815260ff8883205416611cf8565b604051633250574960e11b815260006004820152602490fd5b929092611d55838583611ba8565b833b611d62575b50505050565b604051630a85bd0160e11b8082523360048301526001600160a01b0392831660248301526044820194909452608060648201529493169260209290918590611dae906084830190611901565b039483816000978189895af1869181611e58575b50611e23575050503d600014611e1a573d611ddc81611b0c565b90611dea6040519283611a45565b81528093823d92013e5b82519283611e1557604051633250574960e11b815260048101849052602490fd5b019050fd5b60609250611df4565b919450915063ffffffff60e01b1603611e40575038808080611d5c565b60249060405190633250574960e11b82526004820152fd5b9091508481813d8311611e95575b611e708183611a45565b81010312611e9157516001600160e01b031981168103611e91579038611dc2565b8680fd5b503d611e66565b6000818152600260205260409020546001600160a01b0316908115611ebf575090565b60249060405190637e27328960e01b82526004820152fd5b611edf611b7c565b611ef381600052600c602052604060002090565b91611f0a611f05600685015460ff1690565b612055565b611f2160088401548015908115611516575061209a565b611f34611f2f600b546120db565b600b55565b611fac6005600b5494611f478685612127565b611f8b604051611f8581611f778960208301602c916b616368696576656d656e742d60a01b8252600c8201520190565b03601f198101835282611a45565b876121ff565b60078101611f9981546120db565b90550154611fa5612100565b90836123ab565b6001600160a01b0381166000908152600d602052604090206002810180541561204c575b5060078101611fdf81546120db565b9055612008611ffb846008840190600052602052604060002090565b805460ff19166001179055565b42600391909101556040518381526001600160a01b0391909116907fd78a986f1b68efbb7aa63e2f23bc0a13968027713b8571440e8f9640c2361ee190602090a390565b42905538611fd0565b1561205c57565b60405162461bcd60e51b8152602060048201526016602482015275416368696576656d656e74206e6f742061637469766560501b6044820152606490fd5b156120a157565b60405162461bcd60e51b815260206004820152601260248201527113585e081cdd5c1c1b1e481c995858da195960721b6044820152606490fd5b60001981146120ea5760010190565b634e487b7160e01b600052601160045260246000fd5b6040519061210d82611a2a565b600b82526a1858da1a595d995b595b9d60aa1b6020830152565b6001600160a01b0391908216908115611d2e5760009281845260026020526040842054169182151592836121ca575b81855260036020526040852060018154019055828552600260205260408520826001600160601b0360a01b8254161790557fddf252ad1be2c89b69c2b068fc378daa952ba7f163c4a11628f55a4df523b3ef8580a46121b25750565b602490604051906339e3563760e11b82526004820152fd5b600083815260046020526040902080546001600160a01b03191690558085526003602052604085208054600019019055612156565b9190916000908082526020916006835260408120908551906001600160401b0382116123605761222f83546119a7565b601f811161231d575b508490601f831160011461229957907ff8e1a15aba9398e019f0b49df1a4fde98ee17ae345cb5f6b5e2c27f5033e8ce796978361228e575b50508160011b916000199060031b1c19161790555b604051908152a1565b015190503880612270565b9196601f198816848452868420935b81811061230657509160019391897ff8e1a15aba9398e019f0b49df1a4fde98ee17ae345cb5f6b5e2c27f5033e8ce7999a94106122ed575b505050811b019055612285565b015160001960f88460031b161c191690553880806122e0565b9293876001819287860151815501950193016122a8565b838252858220601f840160051c810191878510612356575b601f0160051c01905b81811061234b5750612238565b82815560010161233e565b9091508190612335565b634e487b7160e01b81526041600452602490fd5b818102929181159184041417156120ea57565b919082018092116120ea57565b604090611b79939281528160208201520190611901565b9160018060a01b0383169283600052600d60205283604060002060016123e36123d5878454612387565b80845542600385015561257e565b910180548211612548575b5050506001600160a01b0381166000908152600d60205260409020600a6004820154101580612525575b612514575b600560068201541015806124f1575b6124e0575b60326005820154101590816124b0575b5061247e575b507fb51b16cb4103a8ce441e52afe5cfabab49df83ba6b570adcde7724f975bdf7d09161247960405192839283612394565b0390a2565b612489906005611ed7565b507fb51b16cb4103a8ce441e52afe5cfabab49df83ba6b570adcde7724f975bdf7d0612447565b6124da91506124cf60086124d692016005600052602052604060002090565b5460ff1690565b1590565b38612441565b6124eb826003611ed7565b50612431565b5061250f6124d66124cf600884016003600052602052604060002090565b61242c565b61251f826002611ed7565b5061241d565b506125436124d66124cf600884016002600052602052604060002090565b612418565b817f91e51c29e7e87a74ad3b8ccba98538970f50a4309242735467f41e27c6b0fbac9260209255604051908152a28338806123ee565b60648082106125dd5790600191805b82101561259957505090565b90916125a4906120db565b916125af8380612374565b828102908082048414901517156125c85790919061258d565b60246000634e487b7160e01b81526011600452fd5b5050600190565b156125eb57565b60405162461bcd60e51b815260206004820152600a6024820152692737ba1039ba30b5b2b960b11b6044820152606490fd5b1561262457565b60405162461bcd60e51b815260206004820152600a602482015269139bdd081cdd185ad95960b21b6044820152606490fd5b600052600e602052604060002060038101805442034281116120ea57612683620151809160135490612374565b04918261268f57505050565b6001817ffc30cddea38e2bf4d6ea7d3f9ed3b6ad7f176419f4963bd81318067a4aee73fe936004602094016126c5878254612387565b90554290550180546040516001600160a01b0392916127049190879085166126ec83611a2a565b60078352667374616b696e6760c81b878401526123ab565b541692604051908152a256fea2646970667358221220ad796790a1fa6b166cad8058cfda476268557daae1165d60e3d02cbd0cd5935d64736f6c63430008140033290decd9548b62a8d60345a988386fc84ba6bc95484008f6362f93160ef3e56309835815f8f52c8ebfec788622bd3bf2aaa72f6e6df4b16c0c82406cd8784a72b10e2d527612073b26eecdfd717e6a320cf44b4afac2b0732d9fcbe2b7fa0cf6",
  "linkReferences": {},
  "deployedLinkReferences": {}
}