{
  "_format": "hh-sol-artifact-1",
  "contractName": "RiseUpRoyalty",
  "sourceName": "contracts/RiseUpRoyalty.sol",
  "abi": [
    {
      "inputs": [
        {
          "internalType": "address",
          "name": "_nftContract",
          "type": "address"
        },
        {
          "internalType": "address",
          "name": "_platformWallet",
          "type": "address"
        }
      ],
      "stateMutability": "nonpayable",
      "type": "constructor"
    },
    {
      "inputs": [
        {
          "internalType": "address",
          "name": "owner",
          "type": "address"
        }
      ],
      "name": "OwnableInvalidOwner",
      "type": "error"
    },
    {
      "inputs": [
        {
          "internalType": "address",
          "name": "account",
          "type": "address"
        }
      ],
      "name": "OwnableUnauthorizedAccount",
      "type": "error"
    },
    {
      "inputs": [],
      "name": "ReentrancyGuardReentrantCall",
      "type": "error"
    },
    {
      "anonymous": false,
      "inputs": [
        {
          "indexed": true,
          "internalType": "address",
          "name": "previousOwner",
          "type": "address"
        },
        {
          "indexed": true,
          "internalType": "address",
          "name": "newOwner",
          "type": "address"
        }
      ],
      "name": "OwnershipTransferred",
      "type": "event"
    },
    {
      "anonymous": false,
      "inputs": [
        {
          "indexed": true,
          "internalType": "uint256",
          "name": "tokenId",
          "type": "uint256"
        },
        {
          "indexed": true,
          "internalType": "address",
          "name": "recipient",
          "type": "address"
        },
        {
          "indexed": false,
          "internalType": "uint256",
          "name": "amount",
          "type": "uint256"
        }
      ],
      "name": "RoyaltyClaimed",
      "type": "event"
    },
    {
      "anonymous": false,
      "inputs": [
        {
          "indexed": true,
          "internalType": "uint256",
          "name": "tokenId",
          "type": "uint256"
        },
        {
          "indexed": true,
          "internalType": "address",
          "name": "recipient",
          "type": "address"
        },
        {
          "indexed": false,
          "internalType": "uint256",
          "name": "percentage",
          "type": "uint256"
        }
      ],
      "name": "RoyaltySplitSet",
      "type": "event"
    },
    {
      "anonymous": false,
      "inputs": [
        {
          "indexed": true,
          "internalType": "uint256",
          "name": "tokenId",
          "type": "uint256"
        },
        {
          "indexed": true,
          "internalType": "address",
          "name": "recipient",
          "type": "address"
        },
        {
          "indexed": false,
          "internalType": "uint256",
          "name": "amount",
          "type": "uint256"
        }
      ],
      "name": "StreamingRoyaltyClaimed",
      "type": "event"
    },
    {
      "anonymous": false,
      "inputs": [
        {
          "indexed": true,
          "internalType": "uint256",
          "name": "tokenId",
          "type": "uint256"
        },
        {
          "indexed": true,
          "internalType": "address",
          "name": "streamer",
          "type": "address"
        },
        {
          "indexed": false,
          "internalType": "uint256",
          "name": "streams",
          "type": "uint256"
        }
      ],
      "name": "StreamingRoyaltyRecorded",
      "type": "event"
    },
    {
      "inputs": [
        {
          "internalType": "uint256",
          "name": "tokenId",
          "type": "uint256"
        },
        {
          "internalType": "uint256",
          "name": "salePrice",
          "type": "uint256"
        }
      ],
      "name": "calculateRoyalty",
      "outputs": [
        {
          "internalType": "address[]",
          "name": "recipients",
          "type": "address[]"
        },
        {
          "internalType": "uint256[]",
          "name": "amounts",
          "type": "uint256[]"
        }
      ],
      "stateMutability": "view",
      "type": "function"
    },
    {
      "inputs": [
        {
          "internalType": "uint256",
          "name": "tokenId",
          "type": "uint256"
        }
      ],
      "name": "claimRoyalties",
      "outputs": [],
      "stateMutability": "nonpayable",
      "type": "function"
    },
    {
      "inputs": [
        {
          "internalType": "uint256",
          "name": "tokenId",
          "type": "uint256"
        }
      ],
      "name": "claimStreamingRoyalties",
      "outputs": [],
      "stateMutability": "nonpayable",
      "type": "function"
    },
    {
      "inputs": [
        {
          "internalType": "uint256",
          "name": "tokenId",
          "type": "uint256"
        },
        {
          "internalType": "uint256",
          "name": "salePrice",
          "type": "uint256"
        }
      ],
      "name": "distributeRoyalties",
      "outputs": [],
      "stateMutability": "payable",
      "type": "function"
    },
    {
      "inputs": [],
      "name": "emergencyWithdraw",
      "outputs": [],
      "stateMutability": "nonpayable",
      "type": "function"
    },
    {
      "inputs": [
        {
          "internalType": "uint256",
          "name": "tokenId",
          "type": "uint256"
        }
      ],
      "name": "getRoyaltySplits",
      "outputs": [
        {
          "components": [
            {
              "internalType": "address",
              "name": "recipient",
              "type": "address"
            },
            {
              "internalType": "uint256",
              "name": "percentage",
              "type": "uint256"
            },
            {
              "internalType": "bool",
              "name": "isActive",
              "type": "bool"
            }
          ],
          "internalType": "struct RiseUpRoyalty.RoyaltySplit[]",
          "name": "",
          "type": "tuple[]"
        }
      ],
      "stateMutability": "view",
      "type": "function"
    },
    {
      "inputs": [
        {
          "internalType": "uint256",
          "name": "tokenId",
          "type": "uint256"
        }
      ],
      "name": "getStreamingRoyalty",
      "outputs": [
        {
          "internalType": "uint256",
          "name": "totalStreams",
          "type": "uint256"
        },
        {
          "internalType": "uint256",
          "name": "totalEarnings",
          "type": "uint256"
        },
        {
          "internalType": "uint256",
          "name": "lastClaimTime",
          "type": "uint256"
        },
        {
          "internalType": "uint256",
          "name": "claimableAmount",
          "type": "uint256"
        }
      ],
      "stateMutability": "view",
      "type": "function"
    },
    {
      "inputs": [],
      "name": "nftContract",
      "outputs": [
        {
          "internalType": "contract RiseUpNFT",
          "name": "",
          "type": "address"
        }
      ],
      "stateMutability": "view",
      "type": "function"
    },
    {
      "inputs": [],
      "name": "owner",
      "outputs": [
        {
          "internalType": "address",
          "name": "",
          "type": "address"
        }
      ],
      "stateMutability": "view",
      "type": "function"
    },
    {
      "inputs": [],
      "name": "platformFee",
      "outputs": [
        {
          "internalType": "uint256",
          "name": "",
          "type": "uint256"
        }
      ],
      "stateMutability": "view",
      "type": "function"
    },
    {
      "inputs": [],
      "name": "platformWallet",
      "outputs": [
        {
          "internalType": "address",
          "name": "",
          "type": "address"
        }
      ],
      "stateMutability": "view",
      "type": "function"
    },
    {
      "inputs": [
        {
          "internalType": "uint256",
          "name": "tokenId",
          "type": "uint256"
        },
        {
          "internalType": "address",
          "name": "streamer",
          "type": "address"
        },
        {
          "internalType": "uint256",
          "name": "streams",
          "type": "uint256"
        },
        {
          "internalType": "uint256",
          "name": "earnings",
          "type": "uint256"
        }
      ],
      "name": "recordStreamingRoyalty",
      "outputs": [],
      "stateMutability": "nonpayable",
      "type": "function"
    },
    {
      "inputs": [],
      "name": "renounceOwnership",
      "outputs": [],
      "stateMutability": "nonpayable",
      "type": "function"
    },
    {
      "inputs": [
        {
          "internalType": "uint256",
          "name": "",
          "type": "uint256"
        },
        {
          "internalType": "uint256",
          "name": "",
          "type": "uint256"
        }
      ],
      "name": "royaltySplits",
      "outputs": [
        {
          "internalType": "address",
          "name": "recipient",
          "type": "address"
        },
        {
          "internalType": "uint256",
          "name": "percentage",
          "type": "uint256"
        },
        {
          "internalType": "bool",
          "name": "isActive",
          "type": "bool"
        }
      ],
      "stateMutability": "view",
      "type": "function"
    },
    {
      "inputs": [
        {
          "internalType": "uint256",
          "name": "tokenId",
          "type": "uint256"
        },
        {
          "internalType": "address[]",
          "name": "recipients",
          "type": "address[]"
        },
        {
          "internalType": "uint256[]",
          "name": "percentages",
          "type": "uint256[]"
        }
      ],
      "name": "setRoyaltySplits",
      "outputs": [],
      "stateMutability": "nonpayable",
      "type": "function"
    },
    {
      "inputs": [
        {
          "internalType": "uint256",
          "name": "",
          "type": "uint256"
        },
        {
          "internalType": "address",
          "name": "",
          "type": "address"
        }
      ],
      "name": "streamCounts",
      "outputs": [
        {
          "internalType": "uint256",
          "name": "",
          "type": "uint256"
        }
      ],
      "stateMutability": "view",
      "type": "function"
    },
    {
      "inputs": [
        {
          "internalType": "uint256",
          "name": "",
          "type": "uint256"
        }
      ],
      "name": "streamingRoyalties",
      "outputs": [
        {
          "internalType": "uint256",
          "name": "tokenId",
          "type": "uint256"
        },
        {
          "internalType": "address",
          "name": "streamer",
          "type": "address"
        },
        {
          "internalType": "uint256",
          "name": "totalStreams",
          "type": "uint256"
        },
        {
          "internalType": "uint256",
          "name": "totalEarnings",
          "type": "uint256"
        },
        {
          "internalType": "uint256",
          "name": "lastClaimTime",
          "type": "uint256"
        }
      ],
      "stateMutability": "view",
      "type": "function"
    },
    {
      "inputs": [
        {
          "internalType": "uint256",
          "name": "",
          "type": "uint256"
        }
      ],
      "name": "totalRoyaltyPercentage",
      "outputs": [
        {
          "internalType": "uint256",
          "name": "",
          "type": "uint256"
        }
      ],
      "stateMutability": "view",
      "type": "function"
    },
    {
      "inputs": [
        {
          "internalType": "address",
          "name": "newOwner",
          "type": "address"
        }
      ],
      "name": "transferOwnership",
      "outputs": [],
      "stateMutability": "nonpayable",
      "type": "function"
    },
    {
      "inputs": [
        {
          "internalType": "uint256",
          "name": "newFee",
          "type": "uint256"
        }
      ],
      "name": "updatePlatformFee",
      "outputs": [],
      "stateMutability": "nonpayable",
      "type": "function"
    },
    {
      "inputs": [
        {
          "internalType": "address",
          "name": "newWallet",
          "type": "address"
        }
      ],
      "name": "updatePlatformWallet",
      "outputs": [],
      "stateMutability": "nonpayable",
      "type": "function"
    },
    {
      "stateMutability": "payable",
      "type": "receive"
    }
  ],
  "bytecode": "0x6080346200018e576200196990601f38839003908101601f19168201906001600160401b038211838310176200019357808391604095869485528339810103126200018e576200005d60206200005583620001a9565b9201620001a9565b60016000553315620001765760018054336001600160a01b0319808316821790935585519492936001600160a01b0393909284929083167f8be0079c531659141344cd1fd0a4f28419497f9722a3daafe3b4186f6b6457e0600080a360fa6007551693841562000134575016918215620000f0578160025416176002556008541617600855516117aa9081620001bf8239f35b835162461bcd60e51b815260206004820152601760248201527f496e76616c696420706c6174666f726d2077616c6c65740000000000000000006044820152606490fd5b62461bcd60e51b815260206004820152601460248201527f496e76616c6964204e465420636f6e74726163740000000000000000000000006044820152606490fd5b8251631e4fbdf760e01b815260006004820152602490fd5b600080fd5b634e487b7160e01b600052604160045260246000fd5b51906001600160a01b03821682036200018e5756fe6080604090808252600480361015610022575b505050361561002057600080fd5b005b600091823560e01c90816321e922a5146112515750806326232a2e14611232578063363c85d31461120a5780633d4a855c1461105a578063569cb7f514610f49578063715018a614610eec57806373b8bded14610e9857806386ad310f14610c9257806389311ac014610c4f5780638da5cb5b14610c26578063aa0b598814610bc4578063ada4ef3014610b3c578063b0708a3514610a9f578063b46402cf14610a3c578063cb1f53ec1461054f578063d56d229d14610526578063db2e21bc146104d6578063f2fde38b1461044a578063f4c5bcfc14610235578063fa2af9da1461020c5763fc973d1f03610012573461020857602090816003193601126102045791909135815260039081835283812091825461014081611392565b9161014d87519384611370565b8183528583018095855286852085915b8483106101bc575050505050845193808501918186525180925285850193925b82811061018a5785850386f35b835180516001600160a01b0316865280830151868401528701511515878601526060909401939281019260010161017d565b83896001928c9b98999b516101d081611322565b848060a01b03865416815284860154838201528d60ff6002880154161515908201528152019201920191909795949761015d565b8280fd5b5080fd5b82843461020857816003193601126102085760085490516001600160a01b039091168152602090f35b5082903461020457608036600319011261020457356102526112c4565b9160443592606435916102636113aa565b83865260059260209380855282882091825415610425575b60029182840161028c8a8254611443565b9055600380850161029e848254611443565b9055888b52808852858b20908154918c6102b784611392565b966102c48a519889611370565b8488528b88019282528b80832092935b8685106103e357505050505050508251610323575b5050915195865250506001600160a01b0316927f4f33a3a599ab1e174189415bb5d1ad875314bda034dcc87eb346781fd6c644ab9190a380f35b919689949598919693995b88518110156103ac57808981878a610349610359968561142f565b51015161035e575b505050611413565b61032e565b61036e610377926127109461142f565b5101518b6113ea565b046001600160a01b0361038a838d61142f565b5151168852858d0187526103a2898920918254611443565b9055898187610351565b5096509692975050917f4f33a3a599ab1e174189415bb5d1ad875314bda034dcc87eb346781fd6c644ab93509091928780806102e9565b60019186918d8051906103f582611322565b858060a01b038854168252858801548483015260ff87890154161515908201528152019301930192918c906102d4565b8683556001830180546001600160a01b0319166001600160a01b03871617905561027b565b50829034610204576020366003190112610204576104666112da565b9061046f6113aa565b6001600160a01b039182169283156104c0575050600154826001600160601b0360a01b821617600155167f8be0079c531659141344cd1fd0a4f28419497f9722a3daafe3b4186f6b6457e08380a380f35b51631e4fbdf760e01b8152908101849052602490fd5b8284346102085781600319360112610208576104f06113aa565b8180808060018060a01b0360015416479082821561051d575bf115610513575080f35b51903d90823e3d90fd5b506108fc610509565b82843461020857816003193601126102085760025490516001600160a01b039091168152602090f35b503461020857606036600319011261020857803560249283359267ffffffffffffffff93848111610204573660238201121561020457808201359261059384611392565b916105a089519384611370565b848352602094888685019160051b830101913683116109f4578901905b828210610a1d57505050604496873596871161020857366023880112156102085786840135966105ec88611392565b976105f98b51998a611370565b80895282878a019160051b83010191368311610a195783889101915b838310610a095750506002548b516331a9108f60e11b81528088018a90526001600160a01b03979350915087908290859082908a165afa9081156109ff5784916109c6575b50853391160361099557835188510361095e5783511561091f5786835260038652898320805490848155816108d5575b505090918081905b855182101561087957866106a6838861142f565b511615610843576106b7828b61142f565b5115158061082d575b156107f657888352600388528b83208a8d6106e8858b6106e0828d61142f565b51169361142f565b51908051926106f684611322565b83528b830191825282019260018452805490680100000000000000008210156107e45790610729916001820181556112f0565b9290926107d3578f8c908f948f94988e6107b68f9e9d9c9b6107b06107ca9c859c60026107be988895887f46538dc29e520772e095a2f3e078aea9efeb9382940f252483eacfd28109f74e9e51166001600160601b0360a01b835416178255516001820155019051151560ff801983541691161790556107a9838d61142f565b5190611443565b9f61142f565b51169661142f565b519051908152a3611413565b90919293610692565b634e487b7160e01b87528688528887fd5b634e487b7160e01b8852604189528988fd5b50505071496e76616c69642070657263656e7461676560701b886012606494888d519562461bcd60e51b8752860152840152820152fd5b5061271061083b838c61142f565b5111156106c0565b50505070125b9d985b1a59081c9958da5c1a595b9d607a1b886011606494888d519562461bcd60e51b8752860152840152820152fd5b90508a83888a8d88612710871161089557505085525282205580f35b601d9192507f546f74616c2070657263656e746167652065786365656473203130302500000093606496519562461bcd60e51b8752860152840152820152fd5b8160030291600383040361090d578452868420908101905b8181101561068a57808560039255856001820155856002820155016108ed565b634e487b7160e01b8552601183528385fd5b7f4174206c65617374206f6e6520726563697069656e742072657175697265640089601f606494898e519562461bcd60e51b8752860152840152820152fd5b74082e4e4c2f240d8cadccee8d040dad2e6dac2e8c6d605b1b896015606494898e519562461bcd60e51b8752860152840152820152fd5b6e2737ba103a37b5b2b71037bbb732b960891b89600f606494898e519562461bcd60e51b8752860152840152820152fd5b90508681813d83116109f8575b6109dd8183611370565b810103126109f4576109ee906113d6565b3861065a565b8380fd5b503d6109d3565b8b513d86823e3d90fd5b8235815291810191889101610615565b8480fd5b81356001600160a01b0381168103610a195781529086019086016105bd565b82843461020857610a4c366112a9565b929081526003602052818120908154841015610a9c5750606092610a6f916112f0565b509060018060a01b038254169160ff60026001830154920154169082519384526020840152151590820152f35b80fd5b8284346102085790610ab9610ab3366112a9565b906114a5565b9091835193849381850191855280518092526060850191602080920190845b818110610b1c57505050848203818601528080855193848152019401925b828110610b0557505050500390f35b835185528695509381019392810192600101610af6565b82516001600160a01b031685528897509383019391830191600101610ad8565b5082903461020457602036600319011261020457610b586112da565b610b606113aa565b6001600160a01b0316918215610b885750506001600160601b0360a01b600854161760085580f35b906020606492519162461bcd60e51b83528201526016602482015275496e76616c69642077616c6c6574206164647265737360501b6044820152fd5b5082903461020457602036600319011261020457803591610be36113aa565b6103e88311610bf457505060075580f35b906020606492519162461bcd60e51b8352820152600c60248201526b08ccaca40e8dede40d0d2ced60a31b6044820152fd5b82843461020857816003193601126102085760015490516001600160a01b039091168152602090f35b508290346102045781600319360112610204576020928291610c6f6112c4565b90358252600685528282206001600160a01b039091168252845220549051908152f35b5082346102045760209283600319360112610a9c57823590610cb2611450565b818152600380865283822090815490610cca82611392565b92610cd787519485611370565b82845284528784208490898086015b858410610e5757505050505050805115610e1c5747948515610de15750815b8151811015610dd95784610d19828461142f565b510151610d2f575b610d2a90611413565b610d05565b612710610d4988610d40848661142f565b510151886113ea565b0480158015610d5a575b5050610d21565b848080808560018060a01b039586610d728a8c61142f565b515116908390610dd0575bf115610dc65790857e5ff6321fbc462bad97d71220393208f0286cd4482b70c04f592526a75656d38a8594610db5610d2a978961142f565b515116938a51908152a39088610d53565b86513d86823e3d90fd5b506108fc610d7d565b826001815580f35b845162461bcd60e51b815290810187905260156024820152744e6f20726f79616c7469657320746f20636c61696d60581b6044820152606490fd5b835162461bcd60e51b81528086018790526015602482015274139bc81c9bde585b1d1e481cdc1b1a5d1cc81cd95d605a1b6044820152606490fd5b60019185918b51610e6781611322565b848060a01b038654168152848601548382015260ff60028701541615158d8201528152019201920191908a90610ce6565b50823461020457602036600319011261020457608092823581526005602052818082209133815260058301602052205491600282015493600383015492015491815194855260208501528301526060820152f35b8234610a9c5780600319360112610a9c57610f056113aa565b600180546001600160a01b0319811690915581906001600160a01b03167f8be0079c531659141344cd1fd0a4f28419497f9722a3daafe3b4186f6b6457e08280a380f35b508234610204576020806003193601126109f457823591610f68611450565b8285526005825280852080541561101e57600581019433875285845282872054958615610fe457338852845286838120554291015584808080873382f115610fdb57907fe267abd0153fc8c1b7e54035b5bbccaf9564b35340f9ed99df3986bd78d15e9a91519384523393a36001815580f35b513d85823e3d90fd5b835162461bcd60e51b815280830186905260146024820152734e6f206561726e696e677320746f20636c61696d60601b6044820152606490fd5b815162461bcd60e51b815280860184905260166024820152754e6f2073747265616d696e6720726f79616c7469657360501b6044820152606490fd5b509161107a90611069366112a9565b611074939193611450565b836114a5565b92908490815b85518710156110a65761109a6110a0916107a9898961142f565b96611413565b95611080565b94939550868534106111c757825b825181101561116d576110c7818761142f565b516110db575b6110d690611413565b6110b4565b6001600160a01b0384808080846110f2878a61142f565b51166110fe878d61142f565b5190828215611164575bf11561115a57906110d69161111d828661142f565b5116867e5ff6321fbc462bad97d71220393208f0286cd4482b70c04f592526a75656d3602061114c858c61142f565b518d51908152a390506110cd565b88513d86823e3d90fd5b506108fc611108565b83888389803411611181575b836001815580f35b803403913483116111b45750838080938193829034146111ab575b3390f115610513578080611179565b506108fc61119c565b634e487b7160e01b855260119052602484fd5b606490602088519162461bcd60e51b8352820152601c60248201527f496e73756666696369656e7420726f79616c7479207061796d656e74000000006044820152fd5b5082903461020457602036600319011261020457602092818392358252845220549051908152f35b8284346102085781600319360112610208576020906007549051908152f35b91849150346109f45760203660031901126109f4578160a0948235815260056020522090815492600180871b036001840154166002840154926003850154940154948652602086015284015260608301526080820152f35b60409060031901126112bf576004359060243590565b600080fd5b602435906001600160a01b03821682036112bf57565b600435906001600160a01b03821682036112bf57565b805482101561130c576000526003602060002091020190600090565b634e487b7160e01b600052603260045260246000fd5b6060810190811067ffffffffffffffff82111761133e57604052565b634e487b7160e01b600052604160045260246000fd5b6040810190811067ffffffffffffffff82111761133e57604052565b90601f8019910116810190811067ffffffffffffffff82111761133e57604052565b67ffffffffffffffff811161133e5760051b60200190565b6001546001600160a01b031633036113be57565b60405163118cdaa760e01b8152336004820152602490fd5b51906001600160a01b03821682036112bf57565b818102929181159184041417156113fd57565b634e487b7160e01b600052601160045260246000fd5b60001981146113fd5760010190565b80511561130c5760200190565b805182101561130c5760209160051b010190565b919082018092116113fd57565b600260005414611461576002600055565b604051633ee5aeb560e01b8152600490fd5b9061147d82611392565b61148a6040519182611370565b828152809261149b601f1991611392565b0190602036910137565b91906000908382526003602091818352604095868520928354906114c882611392565b946114d58a519687611370565b828652875285872087908787015b8b89868510611734575050505050505082511561158e57506115058251611473565b956115108351611473565b945b835181101561158657808261152a611536938761142f565b51015161153b57611413565b611512565b6001600160a01b0361154d828761142f565b51511661155a828b61142f565b526127106115758761156c848961142f565b510151866113ea565b04611580828961142f565b52611413565b505050505090565b92959390915060018060a01b03818160025416946024875180978193634954101560e01b835260048301525afa93841561172a57828095611621575b5050916127109391611612938651966115e288611354565b600188528936818a013751986115f78a611354565b60018a5236818b013761160987611422565b911690526113ea565b0461161c84611422565b529190565b91945091503d8082843e6116358184611370565b8201916101808184031261020857600581511015610208576116588882016113d6565b916116648783016113d6565b5060608201519360a08301519067ffffffffffffffff918281116109f457840181601f820112156109f4578051928311611716578951916116ae601f8501601f19168e0184611370565b8383528c84830101116109f457918b918493845b83811061170057505001015260e082015180151503610a9c57509161161293916116f36101406127109795016113d6565b50909481939294506115ca565b81810185015183820186015286955084016116c2565b634e487b7160e01b84526041600452602484fd5b85513d84823e3d90fd5b600192828793519061174582611322565b858060a01b038754168252858701548483015260ff6002880154161515908201528152019201920191906114e356fea2646970667358221220bd19a0c97c4ab656c80c1f4fd560a4195442da961b0eea37fcd4745543fc9d2564736f6c63430008140033",
  "linkReferences": {},
  "deployedLinkReferences": {}
}