{
  "_format": "hh-sol-artifact-1",
  "contractName": "RiseUpDAO",
  "sourceName": "contracts/RiseUpDAO.sol",
  "abi": [
    {
      "inputs": [
        {
          "internalType": "address",
          "name": "_governanceToken",
          "type": "address"
        }
      ],
      "stateMutability": "nonpayable",
      "type": "constructor"
    },
    {
      "inputs": [
        {
          "internalType": "address",
          "name": "owner",
          "type": "address"
        }
      ],
      "name": "OwnableInvalidOwner",
      "type": "error"
    },
    {
      "inputs": [
        {
          "internalType": "address",
          "name": "account",
          "type": "address"
        }
      ],
      "name": "OwnableUnauthorizedAccount",
      "type": "error"
    },
    {
      "inputs": [],
      "name": "ReentrancyGuardReentrantCall",
      "type": "error"
    },
    {
      "anonymous": false,
      "inputs": [
        {
          "indexed": true,
          "internalType": "address",
          "name": "previousOwner",
          "type": "address"
        },
        {
          "indexed": true,
          "internalType": "address",
          "name": "newOwner",
          "type": "address"
        }
      ],
      "name": "OwnershipTransferred",
      "type": "event"
    },
    {
      "anonymous": false,
      "inputs": [
        {
          "indexed": true,
          "internalType": "uint256",
          "name": "proposalId",
          "type": "uint256"
        }
      ],
      "name": "ProposalCanceled",
      "type": "event"
    },
    {
      "anonymous": false,
      "inputs": [
        {
          "indexed": true,
          "internalType": "uint256",
          "name": "proposalId",
          "type": "uint256"
        },
        {
          "indexed": true,
          "internalType": "address",
          "name": "proposer",
          "type": "address"
        },
        {
          "indexed": false,
          "internalType": "string",
          "name": "title",
          "type": "string"
        }
      ],
      "name": "ProposalCreated",
      "type": "event"
    },
    {
      "anonymous": false,
      "inputs": [
        {
          "indexed": true,
          "internalType": "uint256",
          "name": "proposalId",
          "type": "uint256"
        }
      ],
      "name": "ProposalExecuted",
      "type": "event"
    },
    {
      "anonymous": false,
      "inputs": [
        {
          "indexed": true,
          "internalType": "uint256",
          "name": "allocationId",
          "type": "uint256"
        },
        {
          "indexed": true,
          "internalType": "address",
          "name": "recipient",
          "type": "address"
        },
        {
          "indexed": false,
          "internalType": "uint256",
          "name": "amount",
          "type": "uint256"
        }
      ],
      "name": "TreasuryAllocationCreated",
      "type": "event"
    },
    {
      "anonymous": false,
      "inputs": [
        {
          "indexed": true,
          "internalType": "uint256",
          "name": "allocationId",
          "type": "uint256"
        },
        {
          "indexed": true,
          "internalType": "address",
          "name": "recipient",
          "type": "address"
        }
      ],
      "name": "TreasuryFundsClaimed",
      "type": "event"
    },
    {
      "anonymous": false,
      "inputs": [
        {
          "indexed": true,
          "internalType": "uint256",
          "name": "proposalId",
          "type": "uint256"
        },
        {
          "indexed": true,
          "internalType": "address",
          "name": "voter",
          "type": "address"
        },
        {
          "indexed": false,
          "internalType": "uint8",
          "name": "support",
          "type": "uint8"
        },
        {
          "indexed": false,
          "internalType": "uint256",
          "name": "votes",
          "type": "uint256"
        }
      ],
      "name": "VoteCast",
      "type": "event"
    },
    {
      "inputs": [
        {
          "internalType": "address",
          "name": "recipient",
          "type": "address"
        },
        {
          "internalType": "uint256",
          "name": "amount",
          "type": "uint256"
        },
        {
          "internalType": "string",
          "name": "purpose",
          "type": "string"
        }
      ],
      "name": "allocateTreasuryFunds",
      "outputs": [],
      "stateMutability": "nonpayable",
      "type": "function"
    },
    {
      "inputs": [
        {
          "internalType": "uint256",
          "name": "proposalId",
          "type": "uint256"
        }
      ],
      "name": "cancelProposal",
      "outputs": [],
      "stateMutability": "nonpayable",
      "type": "function"
    },
    {
      "inputs": [
        {
          "internalType": "uint256",
          "name": "proposalId",
          "type": "uint256"
        },
        {
          "internalType": "uint8",
          "name": "support",
          "type": "uint8"
        }
      ],
      "name": "castVote",
      "outputs": [],
      "stateMutability": "nonpayable",
      "type": "function"
    },
    {
      "inputs": [
        {
          "internalType": "uint256",
          "name": "allocationId",
          "type": "uint256"
        }
      ],
      "name": "claimTreasuryFunds",
      "outputs": [],
      "stateMutability": "nonpayable",
      "type": "function"
    },
    {
      "inputs": [],
      "name": "emergencyWithdraw",
      "outputs": [],
      "stateMutability": "nonpayable",
      "type": "function"
    },
    {
      "inputs": [
        {
          "internalType": "uint256",
          "name": "proposalId",
          "type": "uint256"
        }
      ],
      "name": "executeProposal",
      "outputs": [],
      "stateMutability": "nonpayable",
      "type": "function"
    },
    {
      "inputs": [
        {
          "internalType": "uint256",
          "name": "proposalId",
          "type": "uint256"
        }
      ],
      "name": "getProposalState",
      "outputs": [
        {
          "internalType": "uint256",
          "name": "forVotes",
          "type": "uint256"
        },
        {
          "internalType": "uint256",
          "name": "againstVotes",
          "type": "uint256"
        },
        {
          "internalType": "uint256",
          "name": "abstainVotes",
          "type": "uint256"
        },
        {
          "internalType": "bool",
          "name": "executed",
          "type": "bool"
        },
        {
          "internalType": "bool",
          "name": "canceled",
          "type": "bool"
        },
        {
          "internalType": "uint256",
          "name": "endTime",
          "type": "uint256"
        }
      ],
      "stateMutability": "view",
      "type": "function"
    },
    {
      "inputs": [
        {
          "internalType": "uint256",
          "name": "proposalId",
          "type": "uint256"
        },
        {
          "internalType": "address",
          "name": "voter",
          "type": "address"
        }
      ],
      "name": "getVote",
      "outputs": [
        {
          "internalType": "bool",
          "name": "hasVoted",
          "type": "bool"
        },
        {
          "internalType": "uint8",
          "name": "support",
          "type": "uint8"
        },
        {
          "internalType": "uint256",
          "name": "votes",
          "type": "uint256"
        }
      ],
      "stateMutability": "view",
      "type": "function"
    },
    {
      "inputs": [],
      "name": "governanceToken",
      "outputs": [
        {
          "internalType": "contract RiseUpGovernanceToken",
          "name": "",
          "type": "address"
        }
      ],
      "stateMutability": "view",
      "type": "function"
    },
    {
      "inputs": [
        {
          "internalType": "address",
          "name": "",
          "type": "address"
        }
      ],
      "name": "lastVoteTime",
      "outputs": [
        {
          "internalType": "uint256",
          "name": "",
          "type": "uint256"
        }
      ],
      "stateMutability": "view",
      "type": "function"
    },
    {
      "inputs": [],
      "name": "owner",
      "outputs": [
        {
          "internalType": "address",
          "name": "",
          "type": "address"
        }
      ],
      "stateMutability": "view",
      "type": "function"
    },
    {
      "inputs": [],
      "name": "proposalCount",
      "outputs": [
        {
          "internalType": "uint256",
          "name": "",
          "type": "uint256"
        }
      ],
      "stateMutability": "view",
      "type": "function"
    },
    {
      "inputs": [],
      "name": "proposalThreshold",
      "outputs": [
        {
          "internalType": "uint256",
          "name": "",
          "type": "uint256"
        }
      ],
      "stateMutability": "view",
      "type": "function"
    },
    {
      "inputs": [
        {
          "internalType": "uint256",
          "name": "",
          "type": "uint256"
        }
      ],
      "name": "proposals",
      "outputs": [
        {
          "internalType": "uint256",
          "name": "id",
          "type": "uint256"
        },
        {
          "internalType": "address",
          "name": "proposer",
          "type": "address"
        },
        {
          "internalType": "string",
          "name": "title",
          "type": "string"
        },
        {
          "internalType": "string",
          "name": "description",
          "type": "string"
        },
        {
          "internalType": "string",
          "name": "proposalType",
          "type": "string"
        },
        {
          "internalType": "bytes",
          "name": "data",
          "type": "bytes"
        },
        {
          "internalType": "uint256",
          "name": "value",
          "type": "uint256"
        },
        {
          "internalType": "uint256",
          "name": "startTime",
          "type": "uint256"
        },
        {
          "internalType": "uint256",
          "name": "endTime",
          "type": "uint256"
        },
        {
          "internalType": "uint256",
          "name": "forVotes",
          "type": "uint256"
        },
        {
          "internalType": "uint256",
          "name": "againstVotes",
          "type": "uint256"
        },
        {
          "internalType": "uint256",
          "name": "abstainVotes",
          "type": "uint256"
        },
        {
          "internalType": "bool",
          "name": "executed",
          "type": "bool"
        },
        {
          "internalType": "bool",
          "name": "canceled",
          "type": "bool"
        }
      ],
      "stateMutability": "view",
      "type": "function"
    },
    {
      "inputs": [
        {
          "internalType": "string",
          "name": "title",
          "type": "string"
        },
        {
          "internalType": "string",
          "name": "description",
          "type": "string"
        },
        {
          "internalType": "string",
          "name": "proposalType",
          "type": "string"
        },
        {
          "internalType": "bytes",
          "name": "data",
          "type": "bytes"
        },
        {
          "internalType": "uint256",
          "name": "value",
          "type": "uint256"
        }
      ],
      "name": "propose",
      "outputs": [
        {
          "internalType": "uint256",
          "name": "",
          "type": "uint256"
        }
      ],
      "stateMutability": "nonpayable",
      "type": "function"
    },
    {
      "inputs": [],
      "name": "quorumThreshold",
      "outputs": [
        {
          "internalType": "uint256",
          "name": "",
          "type": "uint256"
        }
      ],
      "stateMutability": "view",
      "type": "function"
    },
    {
      "inputs": [],
      "name": "renounceOwnership",
      "outputs": [],
      "stateMutability": "nonpayable",
      "type": "function"
    },
    {
      "inputs": [
        {
          "internalType": "address",
          "name": "newOwner",
          "type": "address"
        }
      ],
      "name": "transferOwnership",
      "outputs": [],
      "stateMutability": "nonpayable",
      "type": "function"
    },
    {
      "inputs": [
        {
          "internalType": "uint256",
          "name": "",
          "type": "uint256"
        }
      ],
      "name": "treasuryAllocations",
      "outputs": [
        {
          "internalType": "address",
          "name": "recipient",
          "type": "address"
        },
        {
          "internalType": "uint256",
          "name": "amount",
          "type": "uint256"
        },
        {
          "internalType": "string",
          "name": "purpose",
          "type": "string"
        },
        {
          "internalType": "uint256",
          "name": "allocatedAt",
          "type": "uint256"
        },
        {
          "internalType": "bool",
          "name": "claimed",
          "type": "bool"
        }
      ],
      "stateMutability": "view",
      "type": "function"
    },
    {
      "inputs": [
        {
          "internalType": "uint256",
          "name": "newThreshold",
          "type": "uint256"
        }
      ],
      "name": "updateProposalThreshold",
      "outputs": [],
      "stateMutability": "nonpayable",
      "type": "function"
    },
    {
      "inputs": [
        {
          "internalType": "uint256",
          "name": "newThreshold",
          "type": "uint256"
        }
      ],
      "name": "updateQuorumThreshold",
      "outputs": [],
      "stateMutability": "nonpayable",
      "type": "function"
    },
    {
      "inputs": [
        {
          "internalType": "uint256",
          "name": "newDelay",
          "type": "uint256"
        }
      ],
      "name": "updateVotingDelay",
      "outputs": [],
      "stateMutability": "nonpayable",
      "type": "function"
    },
    {
      "inputs": [
        {
          "internalType": "uint256",
          "name": "newPeriod",
          "type": "uint256"
        }
      ],
      "name": "updateVotingPeriod",
      "outputs": [],
      "stateMutability": "nonpayable",
      "type": "function"
    },
    {
      "inputs": [],
      "name": "votingDelay",
      "outputs": [
        {
          "internalType": "uint256",
          "name": "",
          "type": "uint256"
        }
      ],
      "stateMutability": "view",
      "type": "function"
    },
    {
      "inputs": [],
      "name": "votingPeriod",
      "outputs": [
        {
          "internalType": "uint256",
          "name": "",
          "type": "uint256"
        }
      ],
      "stateMutability": "view",
      "type": "function"
    },
    {
      "inputs": [
        {
          "internalType": "address",
          "name": "",
          "type": "address"
        }
      ],
      "name": "votingPower",
      "outputs": [
        {
          "internalType": "uint256",
          "name": "",
          "type": "uint256"
        }
      ],
      "stateMutability": "view",
      "type": "function"
    },
    {
      "stateMutability": "payable",
      "type": "receive"
    }
  ],
  "bytecode": "0x6080346100f357601f611d2c38819003918201601f19168301916001600160401b038311848410176100f8578084926020946040528339810103126100f357516001600160a01b0390818116908190036100f35733156100da5760005460018060a01b0319903382821617600055604051933391167f8be0079c531659141344cd1fd0a4f28419497f9722a3daafe3b4186f6b6457e0600080a36001805562093a8060085562015180600955683635c9adc5dea00000600a5569021e19e0c9bab2400000600b556002541617600255611c1d908161010f8239f35b604051631e4fbdf760e01b815260006004820152602490fd5b600080fd5b634e487b7160e01b600052604160045260246000fdfe608080604052600436101561001d575b50361561001b57600080fd5b005b60003560e01c908162ae2524146116fb57508063013cf08b1461159557806302a251a3146115775780630d61b519146112d357806317a6917e146111f5578063210a5e87146111d45780633932abb1146111b65780635678138814610eee57806357ad627914610ecd57806363d61a1914610eac578063715018a614610e535780637b7a91dd14610e355780638da5cb5b14610e0c5780638f0979ec14610b585780639080936f14610aeb578063b58131b014610acd578063bc3f931f14610a13578063c07473f6146109d9578063da35c664146109bb578063db2e21bc14610974578063e0a8f6f514610890578063e2e24985146107fd578063ef00ef43146107dc578063f2fde38b14610753578063f96dae0a1461072a5763fe06a97814610147573861000f565b346107115760a0366003190112610711576004356001600160401b038111610711576101779036906004016118d9565b60249081356001600160401b038111610711576101989036906004016118d9565b906044356001600160401b038111610711576101b89036906004016118d9565b906064356001600160401b0381116107115736602382011215610711576101e89036908681600401359101611893565b6002546040516370a0823160e01b8152336004820152919491906020908290889082906001600160a01b03165afa90811561071e576000916106e7575b50600a54116106a35760075492600019841461068e576001840160075561024e60095442611974565b61025a60085482611974565b9160018601600052600360205260406000209360018701855560018501336001600160601b0360a01b82541617905585516001600160401b038111610601576102b3816102aa6002890154611747565b60028901611997565b806020601f821160011461062157600091610616575b508160011b916000199060031b1c19161760028601555b8051906001600160401b03821161060157819061030d8261030460038a0154611747565b60038a01611997565b602090601f831160011461058f57600092610584575b50508160011b916000199060031b1c19161760038501555b8051906001600160401b03821161056f5781906103688261035f6004890154611747565b60048901611997565b602090601f83116001146104fd576000926104f2575b50508160011b916000199060031b1c19161760048401555b8551956001600160401b0387116104dd57602097506103c5876103bc6005870154611747565b60058701611997565b8790601f881160011461046b57968091600c969798600092610460575b50508160011b916000199060031b1c19161760058401555b6084356006840155600783015560088201550161ffff198154169055604051908382527f7585f467599d0f008985f231af99293be388626ac16ca59505c2f8f88969cd63339280610452600187019488830190611853565b0390a3600160405191018152f35b0151905038806103e2565b9060058501600052886000209160005b601f198a1681106104c65750918891600193600c98999a601f198116106104ad575b505050811b0160058401556103fa565b015160001960f88460031b161c1916905538808061049d565b91928a60018192868501518155019401920161047b565b87634e487b7160e01b60005260416004526000fd5b01519050388061037e565b9250600486016000526020600020906000935b601f1984168510610554576001945083601f1981161061053b575b505050811b016004840155610396565b015160001960f88460031b161c1916905538808061052b565b81810151835560209485019460019093019290910190610510565b88634e487b7160e01b60005260416004526000fd5b015190503880610323565b9250600387016000526020600020906000935b601f19841685106105e6576001945083601f198116106105cd575b505050811b01600385015561033b565b015160001960f88460031b161c191690553880806105bd565b818101518355602094850194600190930192909101906105a2565b89634e487b7160e01b60005260416004526000fd5b9050870151386102c9565b91506002870160005260206000206000925b601f1983168410610676576001935082601f1981161061065d575b5050811b0160028601556102e0565b89015160001960f88460031b161c19169055388061064e565b89810151825560209384019360019092019101610633565b85634e487b7160e01b60005260116004526000fd5b60405162461bcd60e51b815260206004820152601e818701527f496e73756666696369656e7420746f6b656e7320746f2070726f706f736500006044820152606490fd5b90506020813d602011610716575b8161070260209383611832565b81010312610711575138610225565b600080fd5b3d91506106f5565b6040513d6000823e3d90fd5b34610711576000366003190112610711576002546040516001600160a01b039091168152602090f35b346107115760203660031901126107115761076c611731565b610774611948565b6001600160a01b039081169081156107c357600054826001600160601b0360a01b821617600055167f8be0079c531659141344cd1fd0a4f28419497f9722a3daafe3b4186f6b6457e0600080a3005b604051631e4fbdf760e01b815260006004820152602490fd5b34610711576020366003190112610711576107f5611948565b600435600855005b346107115760203660031901126107115760043560065481101561071157610824906118f7565b5060018060a01b03815416600182015491604051610850816108498160028601611781565b0382611832565b61087f60ff6004600385015494015416916040519586958652602086015260a0604086015260a0850190611853565b916060840152151560808301520390f35b3461071157602036600319011261071157600435806000526003602052600c60406000206108c0815415156119eb565b60018101546108e490336001600160a01b0391821614908115610966575b50611b69565b01805460ff81166109215761ff0019166101001790557f789cf55be980739dad1d0699b93b58e806b51c9d96619bfa8fe0a28abaa7b30c600080a2005b60405162461bcd60e51b815260206004820152601f60248201527f43616e6e6f742063616e63656c2065786563757465642070726f706f73616c006044820152606490fd5b9050600054163314856108de565b346107115760003660031901126107115761098d611948565b6000805481908190819047906001600160a01b03168282156109b2575bf11561071e57005b506108fc6109aa565b34610711576000366003190112610711576020600754604051908152f35b34610711576020366003190112610711576001600160a01b036109fa611731565b1660005260046020526020604060002054604051908152f35b34610711576040366003190112610711576024356001600160a01b03811690819003610711576004356000526003602052600d60406000200190600052602052604060002060405160808101918183106001600160401b03841117610ab75760609260405280549160ff80841615159384835260081c1690816020820152846002600185015494856040850152015491015260405192835260208301526040820152f35b634e487b7160e01b600052604160045260246000fd5b34610711576000366003190112610711576020600a54604051908152f35b3461071157602036600319011261071157600435600052600360205260c0604060002060098101549060ff600a82015491600b8101546008600c83015492015493604051958652602086015260408501528181161515606085015260081c161515608083015260a0820152f35b3461071157606036600319011261071157610b71611731565b60248035906001600160401b0360443581811161071157610b969036906004016118d9565b92610b9f611948565b6001600160a01b03948516938415610dd4578115610d9f57610bc382471015611ba6565b60405160a0810181811085821117610d8a57604052858152602093848201928484526040830190815260608301914283526080840194600086526006549a680100000000000000008c101561060157610c2360019c8d81016006556118f7565b969096610d755751166001600160601b0360a01b865416178555518a850155600284019151998a5191821161056f57610c6682610c608554611747565b85611997565b879a601f8311600114610d0c57829160049798999a9b9c8392600094610d01575b50501b916000199060031b1c19161790555b516003820155019051151560ff80198354169116179055600654926000198401938411610ced5750907fe990bbc612b2ef7dd2b99b9041997140e63555f1bb8a648263c184a9cfb366c891604051908152a3005b634e487b7160e01b60009081526011600452fd5b015192508d80610c87565b601f9291921982169b8460005289600020918d6000905b8110610d5f5750836004999a9b9c9d9e10610d46575b505050811b019055610c99565b015160001960f88460031b161c191690558b8080610d39565b81830151845592850192918b01918b018e610d23565b8a634e487b7160e01b60005260006004526000fd5b85634e487b7160e01b60005260416004526000fd5b60405162461bcd60e51b815260206004820152600e818601526d125b9d985b1a5908185b5bdd5b9d60921b6044820152606490fd5b60405162461bcd60e51b81526020600482015260118186015270125b9d985b1a59081c9958da5c1a595b9d607a1b6044820152606490fd5b34610711576000366003190112610711576000546040516001600160a01b039091168152602090f35b34610711576000366003190112610711576020600b54604051908152f35b3461071157600036600319011261071157610e6c611948565b600080546001600160a01b0319811682556001600160a01b03167f8be0079c531659141344cd1fd0a4f28419497f9722a3daafe3b4186f6b6457e08280a3005b3461071157602036600319011261071157610ec5611948565b600435600955005b3461071157602036600319011261071157610ee6611948565b600435600a55005b346107115760403660031901126107115760043560249081359160ff831692838103610711576002841161117e578260005260209060038252604060002090610f39825415156119eb565b60078201544210611141576008820154421161110a57610f6f60ff600c840154610f6582821615611a37565b60081c1615611a83565b33600052600d8201835260406000209081549060ff82166110d6576002546040516370a0823160e01b8152336004820152969086908890839082906001600160a01b03165afa96871561071e576000976110a7575b50861561107257509061ff0060019260081b169061ffff191617178155836001820155600242910155841560001461104757600a01611004838254611974565b90555b3360005260058152426040600020556040519384528301527fb83d25c6a5d258561330739951487acb4bd09ba5190b5d32c4f261817d90679260403393a3005b600185036110645760090161105d838254611974565b9055611007565b600b0161105d838254611974565b85600f6064926040519262461bcd60e51b845260048401528201526e2737903b37ba34b733903837bbb2b960891b6044820152fd5b9096508581813d83116110cf575b6110bf8183611832565b8101031261071157519589610fc4565b503d6110b5565b60405162461bcd60e51b815260048101869052600d818801526c105b1c9958591e481d9bdd1959609a1b6044820152606490fd5b60405162461bcd60e51b8152600481018490526010818601526f159bdd1a5b99c81a185cc8195b99195960821b6044820152606490fd5b60405162461bcd60e51b81526004810184905260168186015275159bdd1a5b99c81a185cc81b9bdd081cdd185c9d195960521b6044820152606490fd5b60405162461bcd60e51b81526020600482015260118184015270496e76616c696420766f7465207479706560781b6044820152606490fd5b34610711576000366003190112610711576020600954604051908152f35b34610711576020366003190112610711576111ed611948565b600435600b55005b3461071157602036600319011261071157600435611212816118f7565b5061122760018060a01b038254163314611b69565b600481019081549160ff831661129c576000808093819360018897611253824795015480951015611ba6565b60ff1916179055818115611293575b3390f11561071e5733907f7033aae8b8586ca0bec6d403f734dfde435e0e72a890d7e51ee42f4eea448738600080a3005b506108fc611262565b60405162461bcd60e51b815260206004820152600f60248201526e105b1c9958591e4818db185a5b5959608a1b6044820152606490fd5b3461071157602080600319360112610711576004356001916002835414611565576002835581600052600381526040600020611311815415156119eb565b600881015442111561152957600c8101805461133060ff821615611a37565b61134060ff8260081c1615611a83565b6009830154600a840154906113636113588383611974565b600b87015490611974565b600b54116114ef5711156114b25760ff19168517905560048101805461138890611747565b6113b9575b5050507f712ae1383f79ac853f8d882153778e0260ef8f03b504e2866e0593e04d2b291f600080a28055005b7f6c58cbaae43920d66ade17a50db3718212d27fb7d157bbf58aadf6e9707dabd06113e382611ac3565b8481519101206666756e64696e6760c81b8560405161140181611817565b6007815201520361149557504791600682015480931061145157508301546000918291829182916001600160a01b0316828215611448575bf11561071e575b82808061138d565b506108fc611439565b6064906040519062461bcd60e51b82526004820152601b60248201527f496e73756666696369656e742074726561737572792066756e647300000000006044820152fd5b90506114a19150611ac3565b506114ad604051611817565b611440565b60405162461bcd60e51b815260048101859052601560248201527450726f706f73616c20646964206e6f74207061737360581b6044820152606490fd5b60405162461bcd60e51b8152600481018790526012602482015271145d5bdc9d5b481b9bdd081c995858da195960721b6044820152606490fd5b60405162461bcd60e51b8152600481018390526014602482015273159bdd1a5b99c81a185cc81b9bdd08195b99195960621b6044820152606490fd5b604051633ee5aeb560e01b8152600490fd5b34610711576000366003190112610711576020600854604051908152f35b3461071157602036600319011261071157600435600052600360205260406000208054600160a01b6001900360018301541691604051808060028401906115db91611781565b036115e69082611832565b60405191826115f88160038401611781565b036116039084611832565b60405192836116158160048501611781565b036116209085611832565b60405193846116328160058601611781565b0361163d9086611832565b6006830154946007840154600885015491600986015493600a87015495600b88015497600c0154986040519c8d9c8d5260208d01528b6101c06040819201528c0161168791611853565b8b810360608d015261169891611853565b8a810360808c01526116a991611853565b89810360a08b01526116ba91611853565b9660c089015260e088015261010087015261012086015261014085015261016084015260ff8116151561018084015260081c60ff1615156101a08301520390f35b34610711576020366003190112610711576020906001600160a01b0361171f611731565b16600052600582526040600020548152f35b600435906001600160a01b038216820361071157565b90600182811c92168015611777575b602083101461176157565b634e487b7160e01b600052602260045260246000fd5b91607f1691611756565b906000929180549161179283611747565b9182825260019384811690816000146117f457506001146117b4575b50505050565b90919394506000526020928360002092846000945b8386106117e05750505050010190388080806117ae565b8054858701830152940193859082016117c9565b9294505050602093945060ff191683830152151560051b010190388080806117ae565b604081019081106001600160401b03821117610ab757604052565b90601f801991011681019081106001600160401b03821117610ab757604052565b919082519283825260005b84811061187f575050826000602080949584010152601f8019910116010190565b60208183018101518483018201520161185e565b9291926001600160401b038211610ab757604051916118bc601f8201601f191660200184611832565b829481845281830111610711578281602093846000960137010152565b9080601f83011215610711578160206118f493359101611893565b90565b600654811015611932576005906006600052027ff652222313e28459528d920b65115c16c04f3efc82aaedc97be59f3f377c0d3f0190600090565b634e487b7160e01b600052603260045260246000fd5b6000546001600160a01b0316330361195c57565b60405163118cdaa760e01b8152336004820152602490fd5b9190820180921161198157565b634e487b7160e01b600052601160045260246000fd5b90601f81116119a557505050565b600091825260208220906020601f850160051c830194106119e1575b601f0160051c01915b8281106119d657505050565b8181556001016119ca565b90925082906119c1565b156119f257565b60405162461bcd60e51b815260206004820152601760248201527f50726f706f73616c20646f6573206e6f742065786973740000000000000000006044820152606490fd5b15611a3e57565b60405162461bcd60e51b815260206004820152601960248201527f50726f706f73616c20616c7265616479206578656375746564000000000000006044820152606490fd5b15611a8a57565b60405162461bcd60e51b8152602060048201526011602482015270141c9bdc1bdcd85b0818d85b98d95b1959607a1b6044820152606490fd5b9060405191826000825492611ad784611747565b908184526001948581169081600014611b465750600114611b03575b5050611b0192500383611832565b565b9093915060005260209081600020936000915b818310611b2e575050611b0193508201013880611af3565b85548884018501529485019487945091830191611b16565b915050611b0194506020925060ff191682840152151560051b8201013880611af3565b15611b7057565b60405162461bcd60e51b815260206004820152600e60248201526d139bdd08185d5d1a1bdc9a5e995960921b6044820152606490fd5b15611bad57565b60405162461bcd60e51b8152602060048201526012602482015271496e73756666696369656e742066756e647360701b6044820152606490fdfea264697066735822122002981ce8fc9442907b21998462241a9407a5ad5b90b9171ae1245ee1f0f3bb7d64736f6c63430008140033",
  "linkReferences": {},
  "deployedLinkReferences": {}
}