{
  "_format": "hh-sol-artifact-1",
  "contractName": "RiseUpAdvancedMarketplace",
  "sourceName": "contracts/RiseUpAdvancedMarketplace.sol",
  "abi": [
    {
      "inputs": [
        {
          "internalType": "address",
          "name": "_nftContract",
          "type": "address"
        },
        {
          "internalType": "address",
          "name": "_platformWallet",
          "type": "address"
        }
      ],
      "stateMutability": "nonpayable",
      "type": "constructor"
    },
    {
      "inputs": [
        {
          "internalType": "address",
          "name": "owner",
          "type": "address"
        }
      ],
      "name": "OwnableInvalidOwner",
      "type": "error"
    },
    {
      "inputs": [
        {
          "internalType": "address",
          "name": "account",
          "type": "address"
        }
      ],
      "name": "OwnableUnauthorizedAccount",
      "type": "error"
    },
    {
      "inputs": [],
      "name": "ReentrancyGuardReentrantCall",
      "type": "error"
    },
    {
      "anonymous": false,
      "inputs": [
        {
          "indexed": true,
          "internalType": "uint256",
          "name": "listingId",
          "type": "uint256"
        }
      ],
      "name": "AdvancedListingCancelled",
      "type": "event"
    },
    {
      "anonymous": false,
      "inputs": [
        {
          "indexed": true,
          "internalType": "uint256",
          "name": "listingId",
          "type": "uint256"
        },
        {
          "indexed": true,
          "internalType": "uint256",
          "name": "tokenId",
          "type": "uint256"
        },
        {
          "indexed": false,
          "internalType": "uint256",
          "name": "price",
          "type": "uint256"
        }
      ],
      "name": "AdvancedListingCreated",
      "type": "event"
    },
    {
      "anonymous": false,
      "inputs": [
        {
          "indexed": true,
          "internalType": "uint256",
          "name": "listingId",
          "type": "uint256"
        },
        {
          "indexed": false,
          "internalType": "uint256",
          "name": "newPrice",
          "type": "uint256"
        }
      ],
      "name": "AdvancedListingUpdated",
      "type": "event"
    },
    {
      "anonymous": false,
      "inputs": [
        {
          "indexed": true,
          "internalType": "uint256",
          "name": "collectionId",
          "type": "uint256"
        },
        {
          "indexed": false,
          "internalType": "string",
          "name": "name",
          "type": "string"
        },
        {
          "indexed": true,
          "internalType": "address",
          "name": "creator",
          "type": "address"
        }
      ],
      "name": "CollectionCreated",
      "type": "event"
    },
    {
      "anonymous": false,
      "inputs": [
        {
          "indexed": true,
          "internalType": "uint256",
          "name": "collectionId",
          "type": "uint256"
        },
        {
          "indexed": true,
          "internalType": "uint256",
          "name": "tokenId",
          "type": "uint256"
        }
      ],
      "name": "NFTAddedToCollection",
      "type": "event"
    },
    {
      "anonymous": false,
      "inputs": [
        {
          "indexed": true,
          "internalType": "uint256",
          "name": "tokenId",
          "type": "uint256"
        },
        {
          "indexed": true,
          "internalType": "address",
          "name": "buyer",
          "type": "address"
        },
        {
          "indexed": true,
          "internalType": "address",
          "name": "seller",
          "type": "address"
        },
        {
          "indexed": false,
          "internalType": "uint256",
          "name": "price",
          "type": "uint256"
        }
      ],
      "name": "NFTSold",
      "type": "event"
    },
    {
      "anonymous": false,
      "inputs": [
        {
          "indexed": true,
          "internalType": "address",
          "name": "previousOwner",
          "type": "address"
        },
        {
          "indexed": true,
          "internalType": "address",
          "name": "newOwner",
          "type": "address"
        }
      ],
      "name": "OwnershipTransferred",
      "type": "event"
    },
    {
      "anonymous": false,
      "inputs": [
        {
          "indexed": true,
          "internalType": "uint256",
          "name": "tokenId",
          "type": "uint256"
        },
        {
          "indexed": false,
          "internalType": "uint256",
          "name": "price",
          "type": "uint256"
        },
        {
          "indexed": false,
          "internalType": "string",
          "name": "transactionType",
          "type": "string"
        }
      ],
      "name": "PriceHistoryRecorded",
      "type": "event"
    },
    {
      "inputs": [
        {
          "internalType": "uint256",
          "name": "collectionId",
          "type": "uint256"
        },
        {
          "internalType": "uint256",
          "name": "tokenId",
          "type": "uint256"
        }
      ],
      "name": "addNFTToCollection",
      "outputs": [],
      "stateMutability": "nonpayable",
      "type": "function"
    },
    {
      "inputs": [
        {
          "internalType": "uint256",
          "name": "",
          "type": "uint256"
        }
      ],
      "name": "advancedListings",
      "outputs": [
        {
          "internalType": "uint256",
          "name": "tokenId",
          "type": "uint256"
        },
        {
          "internalType": "address",
          "name": "seller",
          "type": "address"
        },
        {
          "internalType": "uint256",
          "name": "price",
          "type": "uint256"
        },
        {
          "internalType": "uint256",
          "name": "minPrice",
          "type": "uint256"
        },
        {
          "internalType": "uint256",
          "name": "maxPrice",
          "type": "uint256"
        },
        {
          "internalType": "string",
          "name": "category",
          "type": "string"
        },
        {
          "internalType": "uint256",
          "name": "rarity",
          "type": "uint256"
        },
        {
          "internalType": "bool",
          "name": "isActive",
          "type": "bool"
        },
        {
          "internalType": "uint256",
          "name": "listedAt",
          "type": "uint256"
        },
        {
          "internalType": "uint256",
          "name": "collectionId",
          "type": "uint256"
        }
      ],
      "stateMutability": "view",
      "type": "function"
    },
    {
      "inputs": [
        {
          "internalType": "uint256[]",
          "name": "tokenIds",
          "type": "uint256[]"
        },
        {
          "internalType": "uint256[]",
          "name": "prices",
          "type": "uint256[]"
        },
        {
          "internalType": "string[]",
          "name": "categories",
          "type": "string[]"
        }
      ],
      "name": "batchCreateListings",
      "outputs": [
        {
          "internalType": "uint256[]",
          "name": "",
          "type": "uint256[]"
        }
      ],
      "stateMutability": "nonpayable",
      "type": "function"
    },
    {
      "inputs": [
        {
          "internalType": "uint256",
          "name": "listingId",
          "type": "uint256"
        }
      ],
      "name": "buyFromAdvancedListing",
      "outputs": [],
      "stateMutability": "payable",
      "type": "function"
    },
    {
      "inputs": [
        {
          "internalType": "uint256",
          "name": "listingId",
          "type": "uint256"
        }
      ],
      "name": "cancelAdvancedListing",
      "outputs": [],
      "stateMutability": "nonpayable",
      "type": "function"
    },
    {
      "inputs": [
        {
          "internalType": "uint256",
          "name": "",
          "type": "uint256"
        }
      ],
      "name": "collectionTokenCount",
      "outputs": [
        {
          "internalType": "uint256",
          "name": "",
          "type": "uint256"
        }
      ],
      "stateMutability": "view",
      "type": "function"
    },
    {
      "inputs": [
        {
          "internalType": "uint256",
          "name": "",
          "type": "uint256"
        }
      ],
      "name": "collections",
      "outputs": [
        {
          "internalType": "uint256",
          "name": "id",
          "type": "uint256"
        },
        {
          "internalType": "string",
          "name": "name",
          "type": "string"
        },
        {
          "internalType": "string",
          "name": "description",
          "type": "string"
        },
        {
          "internalType": "address",
          "name": "creator",
          "type": "address"
        },
        {
          "internalType": "uint256",
          "name": "createdAt",
          "type": "uint256"
        },
        {
          "internalType": "bool",
          "name": "isActive",
          "type": "bool"
        }
      ],
      "stateMutability": "view",
      "type": "function"
    },
    {
      "inputs": [
        {
          "internalType": "uint256",
          "name": "tokenId",
          "type": "uint256"
        },
        {
          "internalType": "uint256",
          "name": "price",
          "type": "uint256"
        },
        {
          "internalType": "uint256",
          "name": "minPrice",
          "type": "uint256"
        },
        {
          "internalType": "uint256",
          "name": "maxPrice",
          "type": "uint256"
        },
        {
          "internalType": "string",
          "name": "category",
          "type": "string"
        },
        {
          "internalType": "string[]",
          "name": "tags",
          "type": "string[]"
        },
        {
          "internalType": "uint256",
          "name": "rarity",
          "type": "uint256"
        },
        {
          "internalType": "uint256",
          "name": "collectionId",
          "type": "uint256"
        }
      ],
      "name": "createAdvancedListing",
      "outputs": [
        {
          "internalType": "uint256",
          "name": "",
          "type": "uint256"
        }
      ],
      "stateMutability": "nonpayable",
      "type": "function"
    },
    {
      "inputs": [
        {
          "internalType": "string",
          "name": "name",
          "type": "string"
        },
        {
          "internalType": "string",
          "name": "description",
          "type": "string"
        }
      ],
      "name": "createCollection",
      "outputs": [
        {
          "internalType": "uint256",
          "name": "",
          "type": "uint256"
        }
      ],
      "stateMutability": "nonpayable",
      "type": "function"
    },
    {
      "inputs": [
        {
          "internalType": "uint256",
          "name": "collectionId",
          "type": "uint256"
        }
      ],
      "name": "getCollection",
      "outputs": [
        {
          "components": [
            {
              "internalType": "uint256",
              "name": "id",
              "type": "uint256"
            },
            {
              "internalType": "string",
              "name": "name",
              "type": "string"
            },
            {
              "internalType": "string",
              "name": "description",
              "type": "string"
            },
            {
              "internalType": "address",
              "name": "creator",
              "type": "address"
            },
            {
              "internalType": "uint256",
              "name": "createdAt",
              "type": "uint256"
            },
            {
              "internalType": "bool",
              "name": "isActive",
              "type": "bool"
            },
            {
              "internalType": "uint256[]",
              "name": "tokenIds",
              "type": "uint256[]"
            }
          ],
          "internalType": "struct RiseUpAdvancedMarketplace.Collection",
          "name": "",
          "type": "tuple"
        }
      ],
      "stateMutability": "view",
      "type": "function"
    },
    {
      "inputs": [
        {
          "internalType": "uint256",
          "name": "collectionId",
          "type": "uint256"
        }
      ],
      "name": "getCollectionNFTs",
      "outputs": [
        {
          "internalType": "uint256[]",
          "name": "",
          "type": "uint256[]"
        }
      ],
      "stateMutability": "view",
      "type": "function"
    },
    {
      "inputs": [
        {
          "internalType": "string",
          "name": "category",
          "type": "string"
        },
        {
          "internalType": "uint256",
          "name": "minPrice",
          "type": "uint256"
        },
        {
          "internalType": "uint256",
          "name": "maxPrice",
          "type": "uint256"
        },
        {
          "internalType": "uint256",
          "name": "minRarity",
          "type": "uint256"
        },
        {
          "internalType": "uint256",
          "name": "maxRarity",
          "type": "uint256"
        },
        {
          "internalType": "uint256",
          "name": "collectionId",
          "type": "uint256"
        },
        {
          "internalType": "uint256",
          "name": "limit",
          "type": "uint256"
        },
        {
          "internalType": "uint256",
          "name": "offset",
          "type": "uint256"
        }
      ],
      "name": "getListingsByFilters",
      "outputs": [
        {
          "components": [
            {
              "internalType": "uint256",
              "name": "tokenId",
              "type": "uint256"
            },
            {
              "internalType": "address",
              "name": "seller",
              "type": "address"
            },
            {
              "internalType": "uint256",
              "name": "price",
              "type": "uint256"
            },
            {
              "internalType": "uint256",
              "name": "minPrice",
              "type": "uint256"
            },
            {
              "internalType": "uint256",
              "name": "maxPrice",
              "type": "uint256"
            },
            {
              "internalType": "string",
              "name": "category",
              "type": "string"
            },
            {
              "internalType": "string[]",
              "name": "tags",
              "type": "string[]"
            },
            {
              "internalType": "uint256",
              "name": "rarity",
              "type": "uint256"
            },
            {
              "internalType": "bool",
              "name": "isActive",
              "type": "bool"
            },
            {
              "internalType": "uint256",
              "name": "listedAt",
              "type": "uint256"
            },
            {
              "internalType": "uint256",
              "name": "collectionId",
              "type": "uint256"
            }
          ],
          "internalType": "struct RiseUpAdvancedMarketplace.AdvancedListing[]",
          "name": "",
          "type": "tuple[]"
        },
        {
          "internalType": "uint256",
          "name": "",
          "type": "uint256"
        }
      ],
      "stateMutability": "view",
      "type": "function"
    },
    {
      "inputs": [
        {
          "internalType": "uint256",
          "name": "tokenId",
          "type": "uint256"
        }
      ],
      "name": "getPriceHistory",
      "outputs": [
        {
          "components": [
            {
              "internalType": "uint256",
              "name": "tokenId",
              "type": "uint256"
            },
            {
              "internalType": "uint256",
              "name": "price",
              "type": "uint256"
            },
            {
              "internalType": "address",
              "name": "seller",
              "type": "address"
            },
            {
              "internalType": "address",
              "name": "buyer",
              "type": "address"
            },
            {
              "internalType": "uint256",
              "name": "timestamp",
              "type": "uint256"
            },
            {
              "internalType": "string",
              "name": "transactionType",
              "type": "string"
            }
          ],
          "internalType": "struct RiseUpAdvancedMarketplace.PriceHistory[]",
          "name": "",
          "type": "tuple[]"
        }
      ],
      "stateMutability": "view",
      "type": "function"
    },
    {
      "inputs": [],
      "name": "nextCollectionId",
      "outputs": [
        {
          "internalType": "uint256",
          "name": "",
          "type": "uint256"
        }
      ],
      "stateMutability": "view",
      "type": "function"
    },
    {
      "inputs": [],
      "name": "nextListingId",
      "outputs": [
        {
          "internalType": "uint256",
          "name": "",
          "type": "uint256"
        }
      ],
      "stateMutability": "view",
      "type": "function"
    },
    {
      "inputs": [],
      "name": "nftContract",
      "outputs": [
        {
          "internalType": "contract RiseUpNFT",
          "name": "",
          "type": "address"
        }
      ],
      "stateMutability": "view",
      "type": "function"
    },
    {
      "inputs": [],
      "name": "owner",
      "outputs": [
        {
          "internalType": "address",
          "name": "",
          "type": "address"
        }
      ],
      "stateMutability": "view",
      "type": "function"
    },
    {
      "inputs": [],
      "name": "platformFee",
      "outputs": [
        {
          "internalType": "uint256",
          "name": "",
          "type": "uint256"
        }
      ],
      "stateMutability": "view",
      "type": "function"
    },
    {
      "inputs": [],
      "name": "platformWallet",
      "outputs": [
        {
          "internalType": "address",
          "name": "",
          "type": "address"
        }
      ],
      "stateMutability": "view",
      "type": "function"
    },
    {
      "inputs": [
        {
          "internalType": "uint256",
          "name": "",
          "type": "uint256"
        },
        {
          "internalType": "uint256",
          "name": "",
          "type": "uint256"
        }
      ],
      "name": "priceHistories",
      "outputs": [
        {
          "internalType": "uint256",
          "name": "tokenId",
          "type": "uint256"
        },
        {
          "internalType": "uint256",
          "name": "price",
          "type": "uint256"
        },
        {
          "internalType": "address",
          "name": "seller",
          "type": "address"
        },
        {
          "internalType": "address",
          "name": "buyer",
          "type": "address"
        },
        {
          "internalType": "uint256",
          "name": "timestamp",
          "type": "uint256"
        },
        {
          "internalType": "string",
          "name": "transactionType",
          "type": "string"
        }
      ],
      "stateMutability": "view",
      "type": "function"
    },
    {
      "inputs": [],
      "name": "renounceOwnership",
      "outputs": [],
      "stateMutability": "nonpayable",
      "type": "function"
    },
    {
      "inputs": [
        {
          "internalType": "address",
          "name": "newOwner",
          "type": "address"
        }
      ],
      "name": "transferOwnership",
      "outputs": [],
      "stateMutability": "nonpayable",
      "type": "function"
    },
    {
      "inputs": [
        {
          "internalType": "uint256",
          "name": "listingId",
          "type": "uint256"
        },
        {
          "internalType": "uint256",
          "name": "newPrice",
          "type": "uint256"
        },
        {
          "internalType": "string",
          "name": "newCategory",
          "type": "string"
        },
        {
          "internalType": "string[]",
          "name": "newTags",
          "type": "string[]"
        }
      ],
      "name": "updateAdvancedListing",
      "outputs": [],
      "stateMutability": "nonpayable",
      "type": "function"
    },
    {
      "inputs": [
        {
          "internalType": "uint256",
          "name": "newFee",
          "type": "uint256"
        }
      ],
      "name": "updatePlatformFee",
      "outputs": [],
      "stateMutability": "nonpayable",
      "type": "function"
    },
    {
      "inputs": [
        {
          "internalType": "address",
          "name": "newWallet",
          "type": "address"
        }
      ],
      "name": "updatePlatformWallet",
      "outputs": [],
      "stateMutability": "nonpayable",
      "type": "function"
    }
  ],
  "bytecode": "0x60803462000198576200316a90601f38839003908101601f19168201906001600160401b038211838310176200019d578083916040958694855283398101031262000198576200005d60206200005583620001b3565b9201620001b3565b60016000553315620001805760018054336001600160a01b0319808316821790935585519492936001600160a01b0393909284929083167f8be0079c531659141344cd1fd0a4f28419497f9722a3daafe3b4186f6b6457e0600080a360fa60035560016009556001600a55169384156200013e575016918215620000fa57816002541617600255600454161760045551612fa19081620001c98239f35b835162461bcd60e51b815260206004820152601760248201527f496e76616c696420706c6174666f726d2077616c6c65740000000000000000006044820152606490fd5b62461bcd60e51b815260206004820152601460248201527f496e76616c6964204e465420636f6e74726163740000000000000000000000006044820152606490fd5b8251631e4fbdf760e01b815260006004820152602490fd5b600080fd5b634e487b7160e01b600052604160045260246000fd5b51906001600160a01b0382168203620001985756fe6080604052600436101561001257600080fd5b6000803560e01c806302c7837914612419578063176b9b7514612047578063243d9d1814611a6657806326232a2e14611a485780634b8be1c8146115515780634bd738c7146114c2578063558d2b1314610e2a5780635a1f3c2814610cf6578063715018a614610c9857806385bb61e5146108e05780638da5cb5b146108b75780639e889b4c14610871578063a03dfbe1146107bd578063aa0b59881461075d578063aaccf1ec1461073f578063ada4ef30146106b6578063b83abbe4146104d4578063d56d229d146104ab578063e77d6f7c1461048d578063f2fde38b146103fc578063f35c742a14610383578063f6165be014610359578063fa2af9da14610330578063fd1a98a5146101cc5763fdbda0ec1461013057600080fd5b346101c95760203660031901126101c9576040906004358152600560205220805461015d60018301612ba6565b9161016a60028201612ba6565b60018060a01b03600383015416916101b360ff6005600484015493015416926101a5604051978897885260c0602089015260c0880190612aff565b908682036040880152612aff565b9260608501526080840152151560a08301520390f35b80fd5b50346101c95760208060031936011261032c5790600435815260078252604081208054916101f983612a45565b9261020760405194856129bd565b8084528484018093835285832083915b8383106102c05750505050604051928484019085855251809152604084019460408260051b8601019392955b8287106102505785850386f35b9091929382806102b0600193603f198a82030186528851805182528381015184830152858060a01b038060408301511660408401526060908183015116908301526080808201519083015260a0809101519160c080928201520190612aff565b9601920196019592919092610243565b60068860019260409a99979a516102d68161296b565b855481528486015483820152848060a01b0380600288015416604083015260038701541660608201526004860154608082015261031560058701612ba6565b60a082015281520192019201919096939596610217565b5080fd5b50346101c957806003193601126101c9576004546040516001600160a01b039091168152602090f35b50346101c95760203660031901126101c95760406020916004358152600883522054604051908152f35b50346101c95760203660031901126101c95760043580825260066020526040822060088101906103cf8254916103bb60ff8416612dab565b600101546001600160a01b03163314612dec565b60ff191690557f543e88fd0dfffca3f81612600eee4cf27ce7894fa5672e79939576be1af475a18280a280f35b50346101c95760203660031901126101c9576004356001600160a01b03818116918290036104895761042c612cde565b811561047057600154826001600160601b0360a01b821617600155167f8be0079c531659141344cd1fd0a4f28419497f9722a3daafe3b4186f6b6457e0600080a380f35b604051631e4fbdf760e01b815260048101849052602490fd5b8280fd5b50346101c957806003193601126101c9576020600954604051908152f35b50346101c957806003193601126101c9576002546040516001600160a01b039091168152602090f35b50346101c9576104e336612b24565b9080835260206005815260ff6005604086200154161561067a578184526005815260408420600301546001600160a01b03908116330361063c57808260249260025416604051938480926331a9108f60e11b82528960048301525afa9081156106315786916105f5575b61055a9250163314612d6d565b8184526005815260066040852001805490600160401b8210156105e157600182018082558210156105cd576008929185918752828720015582855252604083206105a48154612d0a565b90557f3b3f4a0879adb468f95af56c9da744059b4df6c7189edae9d2ddb821161c4d1c8380a380f35b634e487b7160e01b86526032600452602486fd5b634e487b7160e01b86526041600452602486fd5b90508282813d831161062a575b61060c81836129bd565b810103126106265761062061055a92612d59565b9061054d565b8580fd5b503d610602565b6040513d88823e3d90fd5b60405162461bcd60e51b81526004810183905260166024820152752737ba1031b7b63632b1ba34b7b71031b932b0ba37b960511b6044820152606490fd5b6064906040519062461bcd60e51b825260048201526015602482015274436f6c6c656374696f6e206e6f742061637469766560581b6044820152fd5b50346101c95760203660031901126101c9576004356001600160a01b0381169081900361032c576106e5612cde565b8015610701576001600160601b0360a01b600454161760045580f35b60405162461bcd60e51b8152602060048201526016602482015275496e76616c69642077616c6c6574206164647265737360501b6044820152606490fd5b50346101c957806003193601126101c9576020600a54604051908152f35b50346101c95760203660031901126101c95760043561077a612cde565b6103e881116107895760035580f35b60405162461bcd60e51b815260206004820152600c60248201526b08ccaca40e8dede40d0d2ced60a31b6044820152606490fd5b50346101c95760203660031901126101c9576040906004358152600660205220805460018060a01b0360018301541691600281015460038201549160048101549261085461080d60058401612ba6565b60078401549560ff60088601541693600a6009870154960154966040519a8b9a8b5260208b015260408a0152606089015260808801526101408060a0890152870190612aff565b9360c0860152151560e08501526101008401526101208301520390f35b50346101c95760203660031901126101c95761089f600660406108b393600435815260056020522001612e4e565b604051918291602083526020830190612caa565b0390f35b50346101c957806003193601126101c9576001546040516001600160a01b039091168152602090f35b50346101c95760803660031901126101c9576044356001600160401b03811161032c576109119036906004016129f9565b906064356001600160401b03811161032c57610931903690600401612a5c565b600435825260066020526040822061094f60ff600883015416612dab565b61096660018060a01b036001830154163314612dec565b602435600282015583516001600160401b038111610bda5761098b6005830154612b6c565b601f8111610c65575b506020601f8211600114610bf95784958293949592610bee575b50508160011b916000199060031b1c19161760058201555b815191600160401b8311610bda576006820154836006840155808410610b62575b50602060069101910183526020832083915b838310610a34578460405160243581527f2b68deab8c6ce665a36c28bc0d0231cabd37061af1f27ae4bab2f5d53fdb6ff8602060043592a280f35b80518051906001600160401b038211610b4e57610a518454612b6c565b601f8111610b13575b50602090601f8311600114610aa65792826001949360209386958b92610a9b575b5050600019600383901b1c191690841b1785555b019201920191906109f9565b015190503880610a7b565b908488526020882091885b601f1985168110610afb575083602093600196938796938794601f19811610610ae2575b505050811b018555610a8f565b015160001960f88460031b161c19169055388080610ad5565b91926020600181928685015181550194019201610ab1565b610b3e9085895260208920601f850160051c81019160208610610b44575b601f0160051c0190612d2f565b38610a5a565b9091508190610b31565b634e487b7160e01b87526041600452602487fd5b60068301855260208520908482015b8183018110610b815750506109e7565b8087610b8f60019354612b6c565b80610b9d575b505001610b71565b601f81118414610bb5575050600081555b8738610b95565b828252610bd0601f60208420920160051c8201858301612d2f565b6000835555610bae565b634e487b7160e01b84526041600452602484fd5b0151905038806109ae565b6005830185526020852090855b601f1984168110610c4d575060019394959683601f19811610610c34575b505050811b0160058201556109c6565b015160001960f88460031b161c19169055388080610c24565b9091602060018192858b015181550193019101610c06565b610c929060058401865260208620601f840160051c81019160208510610b4457601f0160051c0190612d2f565b38610994565b50346101c957806003193601126101c957610cb1612cde565b600180546001600160a01b031981169091556000906001600160a01b03167f8be0079c531659141344cd1fd0a4f28419497f9722a3daafe3b4186f6b6457e08280a380f35b50346101c95760208060031936011261032c576108b3604060c0938151610d1c81612950565b81815260609581878781940152828582015283838201528360808201528360a082015201526004358152600584522060405193610d5885612950565b81548552610d6860018301612ba6565b84860190815285610d7b60028501612ba6565b936040820194855260018060a01b03610e048160038401541696868501978852610df0610dc760066004870154966080890197885260a060ff6005830154169901981515895201612e4e565b9660c08d019788528b6040519d8e9d8e5251908d01525160e060408d01526101008c0190612aff565b9051601f1997888c840301908c0152612aff565b95511660808801525160a087015251151560c086015251908483030160e0850152612caa565b50346101c95760603660031901126101c9576004356001600160401b03811161032c57610e5b903690600401612c4c565b6024356001600160401b03811161048957610e7a903690600401612c4c565b916044356001600160401b03811161032c57610e9a903690600401612a5c565b8251845180911490816114b7575b501561147a57825193610eba85612a45565b94610ec860405196876129bd565b808652610ed7601f1991612a45565b01366020870137825b845181101561146457610ef38186612e3a565b51610efe8284612e3a565b5190610f0a8385612e3a565b5191828060011b046002148315171561145057610f278487612e3a565b5192604051610f35816129a2565b8881526002546040516331a9108f60e11b81526004810186905290602090829060249082906001600160a01b03165afa801561144457600090611409575b610f8891506001600160a01b03163314612d6d565b82156113c457600a5494610f9b86612d0a565b600a5560405192610fab84612986565b8584523360208501528460408501526000606085015260011b608084015260a083015260c0820152603260e08201526001610100820152426101208201526000610140820152836000526006602052604060002090805182556001820160018060a01b036020830151166001600160601b0360a01b82541617905560408101516002830155606081015160038301556080810151600483015560a08101518051906001600160401b0382116112845781906110696005860154612b6c565b601f811161138f575b50602090601f831160011461131d57600092611312575b50508160011b916000199060031b1c19161760058301555b60c0810151805190600160401b821161128457600684015482600686015580831061129a575b50602001906006840160005260206000206000925b82841061116f5750505050602085949361116a979693600a6101408560e07fe15fa7bc105a629983f2b947bae7c26f79d0bc3d65c79e8642492f18c6b3f35397015160078501556111436101008201511515600886019060ff801983541691151516179055565b61012081015160098501550151910155604051908152a36111648289612e3a565b52612d0a565b610ee0565b80518051906001600160401b0382116112845761118c8454612b6c565b601f8111611252575b50602090601f83116001146111e25792826001949360209386956000926111d7575b5050600019600383901b1c191690841b1785555b019201930192906110dc565b0151905038806111b7565b908460005260206000209160005b601f198516811061123a575083602093600196938796938794601f19811610611221575b505050811b0185556111cb565b015160001960f88460031b161c19169055388080611214565b919260206001819286850151815501940192016111f0565b61127e90856000526020600020601f850160051c81019160208610610b4457601f0160051c0190612d2f565b38611195565b634e487b7160e01b600052604160045260246000fd5b600685016000526020600020908382015b81830181106112bb5750506110c7565b806112c860019254612b6c565b806112d5575b50016112ab565b601f811183146112eb5750600081555b386112ce565b600090828252611309601f60208420920160051c8201858301612d2f565b818355556112e5565b015190503880611089565b9250600585016000526020600020906000935b601f1984168510611374576001945083601f1981161061135b575b505050811b0160058301556110a1565b015160001960f88460031b161c1916905538808061134b565b81810151835560209485019460019093019290910190611330565b6113be90600587016000526020600020601f850160051c81019160208610610b4457601f0160051c0190612d2f565b38611072565b60405162461bcd60e51b815260206004820152601c60248201527f5072696365206d7573742062652067726561746572207468616e2030000000006044820152606490fd5b6020823d60201161143c575b81611422602093836129bd565b810103126101c95750611437610f8891612d59565b610f73565b3d9150611415565b6040513d6000823e3d90fd5b634e487b7160e01b87526011600452602487fd5b604051602080825281906108b390820189612caa565b60405162461bcd60e51b8152602060048201526015602482015274082e4e4c2f240d8cadccee8d040dad2e6dac2e8c6d605b1b6044820152606490fd5b905081511438610ea8565b50346101c9576114d136612b24565b9082526007602052604082208054821015610489576114f09250612b3a565b5080546108b360018301549260018060a01b03908160028201541691600382015416611523600560048401549301612ba6565b926040519687968752602087015260408601526060850152608084015260c060a084015260c0830190612aff565b50346101c9576101003660031901126101c9576004356001600160401b03811161032c576115839036906004016129f9565b90600a549081600019810111611a34578060015b6000198401811115611905575060c435808211156118fd57915b6115d36115bd84612a45565b936115cb60405195866129bd565b808552612a45565b601f1901815b8181106118a15750508091819060015b600019870181111580611897575b1561175e57808452600680602052604085206040519161161683612986565b8154835260018201546001600160a01b0316602084015260028201546040840152600382015460608401526004820154608084015261165760058301612ba6565b60a08401528082015461166981612a45565b9161167760405193846129bd565b81835283018852602080892090899084015b838210611741575050505060c0830152600781015460e0830152600881015460ff1615156101008301526009810154610120830152600a01546101408201526116e160a4356084356064356044356024358e87612e9d565b6116f5575b506116f090612d0a565b6115e9565b90949060e435841061172c5781611724916117136116f0948a612e3a565b5261171e8189612e3a565b50612d0a565b945b906116e6565b50939161173b6116f091612d0a565b92611726565b60016020819261175086612ba6565b815201930191019091611689565b83828760405191604083016040845282518091526060840190602060608260051b87010194019186905b82821061179c578680878760208301520390f35b90919294605f198782030182528551908151815260018060a01b0360208301511660208201526040820151604082015260608201516060820152608080830151908201526117fa60a080840151906101608091850152830190612aff565b9160c08101519282810360c0840152835180825260208201906020808260051b8501019601928d5b82811061186c5750505060e0808401519085015250506101008082015115159083015261012080820151908301526101409081015191015294602090810193926001019101611788565b909192939660208061188a600193601f198782030189528b51612aff565b9901950193929101611822565b50855185106115f7565b6020906040516118b081612986565b848152828581830152856040830152606086818401528660808401528060a084015260c08301528560e08301528561010083015285610120830152856101408301528288010152016115d9565b5080916115b1565b8083526006602052604083206040519061191e82612986565b8054825260018101546001600160a01b0316602083015260028101546040830152600381015460608301526004810154608083015261195f60058201612ba6565b60a083015260068101805461197381612a45565b9161198160405193846129bd565b8183528752602080882090889084015b838210611a17575050505060c0830152600781015460e0830152600881015460ff1615156101008301526009810154610120830152600a01546101408201526119ef9060a43590608435906064359060443590602435908b90612e9d565b611a02575b6119fd90612d0a565b611597565b90611a0f6119fd91612d0a565b9190506119f4565b600160208192611a2686612ba6565b815201930191019091611991565b634e487b7160e01b81526011600452602490fd5b50346101c957806003193601126101c9576020600354604051908152f35b5060203660031901126101c957600281541461203557600281556004358152600660205260408120906008820191611aa160ff845416612dab565b6002810154803410611ff95760018201549154600254604051634954101560e01b815260048101839052956001600160a01b0394851694909116908587602481855afa9687156106315786908798611f25575b50612710611b1081611b0860035489612d46565b049987612d46565b0491611b2583611b208b89612e2d565b612e2d565b93803b15611f21578880916064604051809481936323b872dd60e01b83528d60048401523360248401528b60448401525af18015611f1657611ee7575b5060ff198154169055604051978860408101106001600160401b0360408b0111176112845760408901604052600489526373616c6560e01b60208a01528488526007602052604088209860405199611bb98b61296b565b868b528760208c01528860408c01523360608c01524260808c01528160a08c0152805490600160401b821015611ebf5790611bf991600182018155612b3a565b9a909a611ed35780518b55602081015160018c0155604081015160028c0180546001600160a01b039283166001600160a01b031991821617909155606083015160038e018054919093169116179055608081015160048c015560a001518051909a906001600160401b038111611ebf57611c766005830154612b6c565b601f8111611e8c575b506020601f8211600114611dee5793887fc17b41c5fc5d1d8e1be6ebdf02ae3a7f4057936ec576149b4126a357d0a541298d9e958e9b9c9d9e97956005868a99978a998a998a92611de3575b50508160011b916000199060031b1c1916179101555b8d611cfe6040519283928352604060208401526040830190612aff565b0390a26004546001600160a01b0316828215611dda575bf115611da65783808093819382908215611dd0575b6001600160a01b031690f115611dc3578180809287828215611dba575bf115611da657813411611d88575b6040519182527f8562eb94748e30bb0071e932744ce902b460c683474fcb3bfd567ffa16b1afb260203393a46001815580f35b83808080611d968634612e2d565b818115611db1575b3390f1611d55575b6040513d85823e3d90fd5b506108fc611d9e565b506108fc611d47565b50604051903d90823e3d90fd5b6108fc9150611d2a565b506108fc611d15565b015190503880611ccb565b600583018c5260208c20908c5b601f1984168110611e745750987fc17b41c5fc5d1d8e1be6ebdf02ae3a7f4057936ec576149b4126a357d0a541298d9e958e9b95839d9e9f98946001876005928c9b9a8c9b8c9b601f19811610611e5b575b505050811b01910155611ce1565b015160001960f88460031b161c19169055388080611e4d565b8e820151835560019092019160209182019101611dfb565b611eb990600584018d5260208d20601f840160051c81019160208510610b4457601f0160051c0190612d2f565b38611c7f565b634e487b7160e01b8b52604160045260248bfd5b634e487b7160e01b8a5260048a905260248afd5b6001600160401b038199929911611f02576040529638611b62565b634e487b7160e01b82526041600452602482fd5b6040513d8b823e3d90fd5b8880fd5b9750503d8087893e611f3781896129bd565b87019661018081890312611ff557600581511015611ff557611f5b60208201612d59565b90611f6860408201612d59565b5060608101519860a08201516001600160401b038111611ff157820181601f82011215611ff157805191611f9b836129de565b90611fa960405192836129bd565b83825260208484010111611fed5790602080611fc89493019101612adc565b60e081015180151503611fe957610140611fe29101612d59565b5038611af4565b8780fd5b8a80fd5b8980fd5b8680fd5b60405162461bcd60e51b8152602060048201526014602482015273125b9cdd59999a58da595b9d081c185e5b595b9d60621b6044820152606490fd5b604051633ee5aeb560e01b8152600490fd5b50346101c95760403660031901126101c9576004356001600160401b03811161032c576120789036906004016129f9565b906024356001600160401b03811161032c576120989036906004016129f9565b91600954916120a683612d0a565b600955604051936120b6856129a2565b818552604051946120c686612950565b84865260208601918483526040870152336060870152426080870152600160a087015260c08601528382526005602052604082209085518255518051906001600160401b038211610bda5781906121206001850154612b6c565b601f81116123e6575b50602090601f831160011461237757859261236c575b50508160011b916000199060031b1c19161760018201555b60408501518051906001600160401b038211610bda5761217a6002840154612b6c565b601f8111612339575b50602090601f83116001146122c757918060c0949260069487926122bc575b50508160011b916000199060031b1c19161760028201555b6003810160018060a01b036060890151166001600160601b0360a01b8254161790556080870151600482015561220560a08801511515600583019060ff801983541691151516179055565b01940151908151916001600160401b038311611f0257600160401b8311611f025760209086548488558085106122a2575b500194815260208120905b82811061228e5760208585817f28264f4036324f7af9abd02761740048265f0c980737a3f97365dad3162cbe6560405185815280612283339588830190612aff565b0390a3604051908152f35b600190602087519701968184015501612241565b8784528284206122b6918101908601612d2f565b38612236565b0151905038806121a2565b906002840185526020852091855b601f198516811061232157509260c0949260019260069583601f19811610612308575b505050811b0160028201556121ba565b015160001960f88460031b161c191690553880806122f8565b919260206001819286850151815501940192016122d5565b6123669060028501865260208620601f850160051c81019160208610610b4457601f0160051c0190612d2f565b38612183565b01519050388061213f565b9250600184018552602085209085935b601f19841685106123cb576001945083601f198116106123b2575b505050811b016001820155612157565b015160001960f88460031b161c191690553880806123a2565b81810151835560209485019460019093019290910190612387565b6124139060018601875260208720601f850160051c81019160208610610b4457601f0160051c0190612d2f565b38612129565b50346101c9576101003660031901126101c9576084356001600160401b03811161032c5761244b9036906004016129f9565b9060a4356001600160401b03811161032c5761246b903690600401612a5c565b906024602060018060a01b0360025416604051928380926331a9108f60e11b825260043560048301525afa801561294557829061290a575b6124b891506001600160a01b03163314612d6d565b602435156113c457606460c435116128ce57600a54916124d783612d0a565b600a55604051936124e785612986565b600435855233602086015260243560408601526044356060860152606435608086015260a085015260c084015260c43560e084015260016101008401524261012084015260e43561014084015281815260066020526040812090835182556001820160018060a01b036020860151166001600160601b0360a01b82541617905560408401516002830155606084015160038301556080840151600483015560a084015180516001600160401b03811161281b578060058501926125aa8454612b6c565b601f811161289e575b50602090601f831160011461283a57859261282f575b50508160011b916000199060031b1c19161790555b60c0840151805190600160401b821161281b5760068401548260068601558083106127a7575b506020016006840183526020832083915b8383106126985760208787600a6101408c60e081015160078501556126506101008201511515600886019060ff801983541691151516179055565b610120810151600985015501519101556040516024358152817fe15fa7bc105a629983f2b947bae7c26f79d0bc3d65c79e8642492f18c6b3f3538460043593a3604051908152f35b80518051906001600160401b038211610b4e576126b58454612b6c565b601f8111612777575b50602090601f831160011461270a5792826001949360209386958b926126ff575b5050600019600383901b1c191690841b1785555b01920192019190612615565b0151905038806126df565b908488526020882091885b601f198516811061275f575083602093600196938796938794601f19811610612746575b505050811b0185556126f3565b015160001960f88460031b161c19169055388080612739565b91926020600181928685015181550194019201612715565b6127a19085895260208920601f850160051c81019160208610610b4457601f0160051c0190612d2f565b386126be565b60068501845260208420908382015b81830181106127c6575050612604565b80866127d460019354612b6c565b806127e2575b5050016127b6565b601f811184146127f7575081555b86386127da565b828252612812601f60208420920160051c8201858301612d2f565b818355556127f0565b634e487b7160e01b83526041600452602483fd5b0151905038806125c9565b848652602086209250601f198416865b818110612886575090846001959493921061286d575b505050811b0190556125de565b015160001960f88460031b161c19169055388080612860565b9293602060018192878601518155019501930161284a565b6128c89085875260208720601f850160051c81019160208610610b4457601f0160051c0190612d2f565b386125b3565b60405162461bcd60e51b81526020600482015260146024820152730526172697479206d75737420626520302d3130360641b6044820152606490fd5b506020813d60201161293d575b81612924602093836129bd565b8101031261032c576129386124b891612d59565b6124a3565b3d9150612917565b6040513d84823e3d90fd5b60e081019081106001600160401b0382111761128457604052565b60c081019081106001600160401b0382111761128457604052565b61016081019081106001600160401b0382111761128457604052565b602081019081106001600160401b0382111761128457604052565b90601f801991011681019081106001600160401b0382111761128457604052565b6001600160401b03811161128457601f01601f191660200190565b81601f82011215612a4057803590612a10826129de565b92612a1e60405194856129bd565b82845260208383010111612a4057816000926020809301838601378301015290565b600080fd5b6001600160401b0381116112845760051b60200190565b9080601f83011215612a4057813590612a7482612a45565b92612a8260405194856129bd565b828452602092838086019160051b83010192808411612a4057848301915b848310612ab05750505050505090565b82356001600160401b038111612a40578691612ad1848480948901016129f9565b815201920191612aa0565b60005b838110612aef5750506000910152565b8181015183820152602001612adf565b90602091612b1881518092818552858086019101612adc565b601f01601f1916010190565b6040906003190112612a40576004359060243590565b8054821015612b56576000526006602060002091020190600090565b634e487b7160e01b600052603260045260246000fd5b90600182811c92168015612b9c575b6020831014612b8657565b634e487b7160e01b600052602260045260246000fd5b91607f1691612b7b565b9060405191826000825492612bba84612b6c565b908184526001948581169081600014612c295750600114612be6575b5050612be4925003836129bd565b565b9093915060005260209081600020936000915b818310612c11575050612be493508201013880612bd6565b85548884018501529485019487945091830191612bf9565b915050612be494506020925060ff191682840152151560051b8201013880612bd6565b81601f82011215612a4057803591612c6383612a45565b92612c7160405194856129bd565b808452602092838086019260051b820101928311612a40578301905b828210612c9b575050505090565b81358152908301908301612c8d565b90815180825260208080930193019160005b828110612cca575050505090565b835185529381019392810192600101612cbc565b6001546001600160a01b03163303612cf257565b60405163118cdaa760e01b8152336004820152602490fd5b6000198114612d195760010190565b634e487b7160e01b600052601160045260246000fd5b818110612d3a575050565b60008155600101612d2f565b81810292918115918404141715612d1957565b51906001600160a01b0382168203612a4057565b15612d7457565b60405162461bcd60e51b815260206004820152600f60248201526e2737ba103a37b5b2b71037bbb732b960891b6044820152606490fd5b15612db257565b60405162461bcd60e51b81526020600482015260126024820152714c697374696e67206e6f742061637469766560701b6044820152606490fd5b15612df357565b60405162461bcd60e51b81526020600482015260126024820152712737ba103634b9ba34b7339039b2b63632b960711b6044820152606490fd5b91908203918211612d1957565b8051821015612b565760209160051b010190565b9060405191828154918282526020928383019160005283600020936000905b828210612e8357505050612be4925003836129bd565b855484526001958601958895509381019390910190612e6d565b9594929061010087015115612f5f578051908115159182612f44575b5050612f39576040860151918210918215612f2f575b5050612f265760e0840151918210918215612f1c575b5050612f15578015159182612f05575b5050612f0057600190565b600090565b6101400151141590503880612ef5565b5050600090565b1190503880612ee5565b50505050600090565b1190503880612ecf565b505050505050600090565b60a08901518051602091820120920120141590503880612eb9565b5050505050505060009056fea26469706673582212204f54993a6abdc278b487f1448b153a2b553ae2bd4808b4600ddb6ac0d29da17d64736f6c63430008140033",
  "linkReferences": {},
  "deployedLinkReferences": {}
}