{
  "_format": "hh-sol-artifact-1",
  "contractName": "RiseUpMarketplace",
  "sourceName": "contracts/RiseUpMarketplace.sol",
  "abi": [
    {
      "inputs": [
        {
          "internalType": "address",
          "name": "_nftContract",
          "type": "address"
        },
        {
          "internalType": "address",
          "name": "_platformWallet",
          "type": "address"
        }
      ],
      "stateMutability": "nonpayable",
      "type": "constructor"
    },
    {
      "inputs": [
        {
          "internalType": "address",
          "name": "owner",
          "type": "address"
        }
      ],
      "name": "OwnableInvalidOwner",
      "type": "error"
    },
    {
      "inputs": [
        {
          "internalType": "address",
          "name": "account",
          "type": "address"
        }
      ],
      "name": "OwnableUnauthorizedAccount",
      "type": "error"
    },
    {
      "inputs": [],
      "name": "ReentrancyGuardReentrantCall",
      "type": "error"
    },
    {
      "anonymous": false,
      "inputs": [
        {
          "indexed": true,
          "internalType": "uint256",
          "name": "tokenId",
          "type": "uint256"
        },
        {
          "indexed": true,
          "internalType": "address",
          "name": "winner",
          "type": "address"
        },
        {
          "indexed": false,
          "internalType": "uint256",
          "name": "amount",
          "type": "uint256"
        }
      ],
      "name": "AuctionEnded",
      "type": "event"
    },
    {
      "anonymous": false,
      "inputs": [
        {
          "indexed": true,
          "internalType": "uint256",
          "name": "tokenId",
          "type": "uint256"
        },
        {
          "indexed": true,
          "internalType": "address",
          "name": "seller",
          "type": "address"
        },
        {
          "indexed": false,
          "internalType": "uint256",
          "name": "startingPrice",
          "type": "uint256"
        },
        {
          "indexed": false,
          "internalType": "uint256",
          "name": "endTime",
          "type": "uint256"
        }
      ],
      "name": "AuctionStarted",
      "type": "event"
    },
    {
      "anonymous": false,
      "inputs": [
        {
          "indexed": true,
          "internalType": "uint256",
          "name": "tokenId",
          "type": "uint256"
        },
        {
          "indexed": true,
          "internalType": "address",
          "name": "bidder",
          "type": "address"
        },
        {
          "indexed": false,
          "internalType": "uint256",
          "name": "amount",
          "type": "uint256"
        }
      ],
      "name": "BidPlaced",
      "type": "event"
    },
    {
      "anonymous": false,
      "inputs": [
        {
          "indexed": true,
          "internalType": "uint256",
          "name": "tokenId",
          "type": "uint256"
        },
        {
          "indexed": true,
          "internalType": "address",
          "name": "seller",
          "type": "address"
        },
        {
          "indexed": false,
          "internalType": "uint256",
          "name": "price",
          "type": "uint256"
        }
      ],
      "name": "NFTListed",
      "type": "event"
    },
    {
      "anonymous": false,
      "inputs": [
        {
          "indexed": true,
          "internalType": "uint256",
          "name": "tokenId",
          "type": "uint256"
        },
        {
          "indexed": true,
          "internalType": "address",
          "name": "buyer",
          "type": "address"
        },
        {
          "indexed": true,
          "internalType": "address",
          "name": "seller",
          "type": "address"
        },
        {
          "indexed": false,
          "internalType": "uint256",
          "name": "price",
          "type": "uint256"
        }
      ],
      "name": "NFTSold",
      "type": "event"
    },
    {
      "anonymous": false,
      "inputs": [
        {
          "indexed": true,
          "internalType": "uint256",
          "name": "tokenId",
          "type": "uint256"
        },
        {
          "indexed": true,
          "internalType": "address",
          "name": "seller",
          "type": "address"
        }
      ],
      "name": "NFTUnlisted",
      "type": "event"
    },
    {
      "anonymous": false,
      "inputs": [
        {
          "indexed": true,
          "internalType": "address",
          "name": "previousOwner",
          "type": "address"
        },
        {
          "indexed": true,
          "internalType": "address",
          "name": "newOwner",
          "type": "address"
        }
      ],
      "name": "OwnershipTransferred",
      "type": "event"
    },
    {
      "inputs": [
        {
          "internalType": "uint256",
          "name": "",
          "type": "uint256"
        }
      ],
      "name": "auctions",
      "outputs": [
        {
          "internalType": "uint256",
          "name": "tokenId",
          "type": "uint256"
        },
        {
          "internalType": "address",
          "name": "seller",
          "type": "address"
        },
        {
          "internalType": "uint256",
          "name": "startingPrice",
          "type": "uint256"
        },
        {
          "internalType": "uint256",
          "name": "highestBid",
          "type": "uint256"
        },
        {
          "internalType": "address",
          "name": "highestBidder",
          "type": "address"
        },
        {
          "internalType": "uint256",
          "name": "endTime",
          "type": "uint256"
        },
        {
          "internalType": "bool",
          "name": "isActive",
          "type": "bool"
        },
        {
          "internalType": "uint256",
          "name": "startedAt",
          "type": "uint256"
        }
      ],
      "stateMutability": "view",
      "type": "function"
    },
    {
      "inputs": [
        {
          "internalType": "uint256",
          "name": "tokenId",
          "type": "uint256"
        }
      ],
      "name": "buyNFT",
      "outputs": [],
      "stateMutability": "payable",
      "type": "function"
    },
    {
      "inputs": [],
      "name": "emergencyWithdraw",
      "outputs": [],
      "stateMutability": "nonpayable",
      "type": "function"
    },
    {
      "inputs": [
        {
          "internalType": "uint256",
          "name": "tokenId",
          "type": "uint256"
        }
      ],
      "name": "endAuction",
      "outputs": [],
      "stateMutability": "nonpayable",
      "type": "function"
    },
    {
      "inputs": [
        {
          "internalType": "uint256",
          "name": "tokenId",
          "type": "uint256"
        }
      ],
      "name": "getAuction",
      "outputs": [
        {
          "components": [
            {
              "internalType": "uint256",
              "name": "tokenId",
              "type": "uint256"
            },
            {
              "internalType": "address",
              "name": "seller",
              "type": "address"
            },
            {
              "internalType": "uint256",
              "name": "startingPrice",
              "type": "uint256"
            },
            {
              "internalType": "uint256",
              "name": "highestBid",
              "type": "uint256"
            },
            {
              "internalType": "address",
              "name": "highestBidder",
              "type": "address"
            },
            {
              "internalType": "uint256",
              "name": "endTime",
              "type": "uint256"
            },
            {
              "internalType": "bool",
              "name": "isActive",
              "type": "bool"
            },
            {
              "internalType": "uint256",
              "name": "startedAt",
              "type": "uint256"
            }
          ],
          "internalType": "struct RiseUpMarketplace.Auction",
          "name": "",
          "type": "tuple"
        }
      ],
      "stateMutability": "view",
      "type": "function"
    },
    {
      "inputs": [
        {
          "internalType": "uint256",
          "name": "tokenId",
          "type": "uint256"
        }
      ],
      "name": "getListing",
      "outputs": [
        {
          "components": [
            {
              "internalType": "uint256",
              "name": "tokenId",
              "type": "uint256"
            },
            {
              "internalType": "address",
              "name": "seller",
              "type": "address"
            },
            {
              "internalType": "uint256",
              "name": "price",
              "type": "uint256"
            },
            {
              "internalType": "bool",
              "name": "isActive",
              "type": "bool"
            },
            {
              "internalType": "uint256",
              "name": "listedAt",
              "type": "uint256"
            }
          ],
          "internalType": "struct RiseUpMarketplace.Listing",
          "name": "",
          "type": "tuple"
        }
      ],
      "stateMutability": "view",
      "type": "function"
    },
    {
      "inputs": [
        {
          "internalType": "uint256",
          "name": "tokenId",
          "type": "uint256"
        },
        {
          "internalType": "uint256",
          "name": "price",
          "type": "uint256"
        }
      ],
      "name": "listNFT",
      "outputs": [],
      "stateMutability": "nonpayable",
      "type": "function"
    },
    {
      "inputs": [
        {
          "internalType": "uint256",
          "name": "",
          "type": "uint256"
        }
      ],
      "name": "listings",
      "outputs": [
        {
          "internalType": "uint256",
          "name": "tokenId",
          "type": "uint256"
        },
        {
          "internalType": "address",
          "name": "seller",
          "type": "address"
        },
        {
          "internalType": "uint256",
          "name": "price",
          "type": "uint256"
        },
        {
          "internalType": "bool",
          "name": "isActive",
          "type": "bool"
        },
        {
          "internalType": "uint256",
          "name": "listedAt",
          "type": "uint256"
        }
      ],
      "stateMutability": "view",
      "type": "function"
    },
    {
      "inputs": [],
      "name": "nftContract",
      "outputs": [
        {
          "internalType": "contract RiseUpNFT",
          "name": "",
          "type": "address"
        }
      ],
      "stateMutability": "view",
      "type": "function"
    },
    {
      "inputs": [],
      "name": "owner",
      "outputs": [
        {
          "internalType": "address",
          "name": "",
          "type": "address"
        }
      ],
      "stateMutability": "view",
      "type": "function"
    },
    {
      "inputs": [
        {
          "internalType": "uint256",
          "name": "tokenId",
          "type": "uint256"
        }
      ],
      "name": "placeBid",
      "outputs": [],
      "stateMutability": "payable",
      "type": "function"
    },
    {
      "inputs": [],
      "name": "platformFee",
      "outputs": [
        {
          "internalType": "uint256",
          "name": "",
          "type": "uint256"
        }
      ],
      "stateMutability": "view",
      "type": "function"
    },
    {
      "inputs": [],
      "name": "platformWallet",
      "outputs": [
        {
          "internalType": "address",
          "name": "",
          "type": "address"
        }
      ],
      "stateMutability": "view",
      "type": "function"
    },
    {
      "inputs": [],
      "name": "renounceOwnership",
      "outputs": [],
      "stateMutability": "nonpayable",
      "type": "function"
    },
    {
      "inputs": [
        {
          "internalType": "uint256",
          "name": "tokenId",
          "type": "uint256"
        },
        {
          "internalType": "uint256",
          "name": "startingPrice",
          "type": "uint256"
        },
        {
          "internalType": "uint256",
          "name": "duration",
          "type": "uint256"
        }
      ],
      "name": "startAuction",
      "outputs": [],
      "stateMutability": "nonpayable",
      "type": "function"
    },
    {
      "inputs": [
        {
          "internalType": "address",
          "name": "newOwner",
          "type": "address"
        }
      ],
      "name": "transferOwnership",
      "outputs": [],
      "stateMutability": "nonpayable",
      "type": "function"
    },
    {
      "inputs": [
        {
          "internalType": "uint256",
          "name": "tokenId",
          "type": "uint256"
        }
      ],
      "name": "unlistNFT",
      "outputs": [],
      "stateMutability": "nonpayable",
      "type": "function"
    },
    {
      "inputs": [
        {
          "internalType": "uint256",
          "name": "newFee",
          "type": "uint256"
        }
      ],
      "name": "updatePlatformFee",
      "outputs": [],
      "stateMutability": "nonpayable",
      "type": "function"
    },
    {
      "inputs": [
        {
          "internalType": "address",
          "name": "newWallet",
          "type": "address"
        }
      ],
      "name": "updatePlatformWallet",
      "outputs": [],
      "stateMutability": "nonpayable",
      "type": "function"
    }
  ],
  "bytecode": "0x6080346200018e57620019cb90601f38839003908101601f19168201906001600160401b038211838310176200019357808391604095869485528339810103126200018e576200005d60206200005583620001a9565b9201620001a9565b60016000553315620001765760018054336001600160a01b0319808316821790935585519492936001600160a01b0393909284929083167f8be0079c531659141344cd1fd0a4f28419497f9722a3daafe3b4186f6b6457e0600080a360fa6003551693841562000134575016918215620000f05781600254161760025560045416176004555161180c9081620001bf8239f35b835162461bcd60e51b815260206004820152601760248201527f496e76616c696420706c6174666f726d2077616c6c65740000000000000000006044820152606490fd5b62461bcd60e51b815260206004820152601c60248201527f496e76616c6964204e465420636f6e74726163742061646472657373000000006044820152606490fd5b8251631e4fbdf760e01b815260006004820152602490fd5b600080fd5b634e487b7160e01b600052604160045260246000fd5b51906001600160a01b03821682036200018e5756fe6080604081815260048036101561001557600080fd5b60009260e08435811c918263107a274a146114075750816326232a2e146113e757816351ed82881461115b578163571a26a0146110da578163715018a61461107957816378bd793514610f755781638da5cb5b14610f4b57816391e078bb14610c085750806394383f14146109a0578063961f0944146108605780639979ef45146106d8578063aa0b598814610678578063ada4ef30146105f0578063b9a2de3a1461028e578063d56d229d14610265578063db2e21bc14610211578063de74e57b146101b3578063f2fde38b146101205763fa2af9da146100f657600080fd5b3461011c578260031936011261011c575490516001600160a01b03909116815260209150f35b8280fd5b50903461011c57602036600319011261011c576001600160a01b038235818116939192908490036101af576101536114bb565b8315610199575050600154826001600160601b0360a01b821617600155167f8be0079c531659141344cd1fd0a4f28419497f9722a3daafe3b4186f6b6457e0600080a380f35b51631e4fbdf760e01b8152908101849052602490fd5b8480fd5b50903461011c57602036600319011261011c578060a09383358152600560205220805492600180861b036001830154169260028301549160ff6003850154169301549381519586526020860152840152151560608301526080820152f35b50503461026157816003193601126102615761022b6114bb565b8180808060018060a01b03600154164790828215610258575bf11561024e575080f35b51903d90823e3d90fd5b506108fc610244565b5080fd5b50503461026157816003193601126102615760025490516001600160a01b039091168152602090f35b503461011c57602036600319011261011c5780356102aa611600565b80845260066020528284206102c560ff600683015416611795565b600581015442108015906105da575b156105a357828101546003820154869493926001600160a01b03928316928315158061059a575b15610500578060025416908851634954101560e01b815286888201528881602481865afa9081156104935789908a926104d1575b5061271061034b816103436003548a611752565b049388611752565b04916103608361035b838a61177b565b61177b565b94803b156104cd578c516323b872dd60e01b815230818d019081526001600160a01b038b166020820152604081018c905290918d9183919082908490829060600103925af19081156104c3578b86918e936104a6575b50829383928392541682821561049d575bf115610493578980809381938683918315610489575b1690f11561047f578780939281939260018394015416828215610476575bf11561046c57918591817fd2aa34a4fdbbc6dff6a3e56f46e0f3ae2a31d7785ff3487aa5c95c642acea50160208899966007999751908152a35b8252600660205281209181835581600184015581600284015581600384015582015582600582015582600682015501556001815580f35b85513d86823e3d90fd5b506108fc6103fb565b88513d89823e3d90fd5b6108fc92506103dd565b8a513d8b823e3d90fd5b506108fc6103c7565b90506104b29150611519565b6104bf578a848b386103b6565b8a80fd5b8d513d8e823e3d90fd5b8b80fd5b90506104ef91503d808b833e6104e7818361154a565b810190611660565b50505050505050509250503861032f565b6001919697949350809250600254169501541693803b156105965782516323b872dd60e01b8152308582019081526001600160a01b03909616602087015260408601839052948691869182908490829060600103925af1801561058c579085929161056f575b60079450610435565b91909361057b90611519565b61058757828491610566565b505050fd5b82513d87823e3d90fd5b8580fd5b508215156102fb565b835162461bcd60e51b81526020818501526011602482015270105d58dd1a5bdb881b9bdd08195b991959607a1b6044820152606490fd5b5060018101546001600160a01b031633146102d4565b50903461011c57602036600319011261011c5781356001600160a01b0381169190829003610674576106206114bb565b8115610639575081546001600160a01b03191617905580f35b5162461bcd60e51b81526020818401526016602482015275496e76616c69642077616c6c6574206164647265737360501b6044820152606490fd5b8380fd5b503461011c57602036600319011261011c578035916106956114bb565b6103e883116106a657505060035580f35b906020606492519162461bcd60e51b8352820152600c60248201526b08ccaca40e8dede40d0d2ced60a31b6044820152fd5b5060209182600319360112610674578135916106f2611600565b828552600684528185209061070d60ff600684015416611795565b600582015442101561082d57600282015434106107ea576003820190815492833411156107b957018054909287916001600160a01b031680610795575b505050907f0e54eff26401bf69b81b26f60bd85ef47f5d85275c1d268d84f68d6897431c479291349055336001600160601b0360a01b82541617905551923484523393a36001815580f35b82809281928282156107b0575bf11561058c5785388061074a565b506108fc6107a2565b845162461bcd60e51b8152808301889052600b60248201526a42696420746f6f206c6f7760a81b6044820152606490fd5b825162461bcd60e51b8152908101859052601860248201527f4269642062656c6f77207374617274696e6720707269636500000000000000006044820152606490fd5b825162461bcd60e51b8152908101859052600d60248201526c105d58dd1a5bdb88195b991959609a1b6044820152606490fd5b50903461011c57602036600319011261011c5781359161087e611600565b8284526005602052600182852061089b60ff600383015416611623565b818060a01b0391829101541633036109705790849160025416803b1561011c5783516323b872dd60e01b81523092810192835233602084015260408301869052918391839182908490829060600103925af1801561096657610952575b50908261092592526005602052832060046000918281558260018201558260028201558260038201550155565b33907fb765e971c123cbdac007f49987b1aac638149f995ba62034fc509604cac5f01e8380a36001815580f35b61095b90611519565b61011c5782386108f8565b83513d84823e3d90fd5b506020606492519162461bcd60e51b8352820152600a6024820152692737ba1039b2b63632b960b11b6044820152fd5b503461011c578160031936011261011c57803590602435926109c0611600565b60025481516331a9108f60e11b8152838101859052602092916001600160a01b0391908216908481602481855afa8015610bfe578990610bc4575b610a09915083163314611585565b8615610b815785885260058452610a2960ff6003858b20015416156115c3565b8588526006845260ff6006848a20015416610b51578088913b156102615783516323b872dd60e01b815233878201908152306020820152604081018990529091839183919082908490829060600103925af18015610b4757610b2f575b50937f5f9c03de076f5063cd3ebcfe8ef7aa8af378e4b35a83c77ba9777e97083879a294610b1d845193610ab9856114e7565b888552868501338152868601908b82526060870192600184528860808901964288528d815260058c522097518855600188019151166001600160601b0360a01b825416179055516002860155511515600385019060ff801983541691151516179055565b51910155519384523393a36001815580f35b610b3890611519565b610b43578638610a86565b8680fd5b84513d84823e3d90fd5b50505162461bcd60e51b815291820152600a60248201526924b71030bab1ba34b7b760b11b604482015260649150fd5b50505162461bcd60e51b815291820152601c60248201527f5072696365206d7573742062652067726561746572207468616e203000000000604482015260649150fd5b508481813d8311610bf7575b610bda818361154a565b81010312610bf357610bee610a099161156c565b6109fb565b8880fd5b503d610bd0565b84513d8b823e3d90fd5b849150833461011c57606036600319011261011c5783359060243592604435610c2f611600565b60025483516331a9108f60e11b81528089018690526001600160a01b0391821698602094909185816024818e5afa8015610f41578a90610f07575b610c78915084163314611585565b8715610eb657610e1084101580610ea9575b15610e735786895260058552610ca960ff6003888c20015416156115c3565b8689526006855260ff6006878b20015416610e3b5789899a999798993b15610e375786516323b872dd60e01b815233848201908152306020820152604081018b90529091899183919082908490829060600103925af18015610e2d57918a93918a9593610e0c575b50600188947fbf6dc7bdf2f23af5a506fe03ee1221f47d023a2227fbc949c6b812ae44534e6d9a896007968a9996610def96610d50610df99d42611788565b958b519b8c96610d5f8861152d565b8b8852600687890197338952838a0194855260608a019583875260808b019a848c5260a081019c8d5260c081019d8e52019d8e429052835252209b518c558360018d01955116946001600160601b0360a01b95868254161790555160028c01555160038b0155890192511690825416179055516005860155511515600685019060ff801983541691151516179055565b5191015542611788565b9082519586528501523393a36001815580f35b610e1d919695508992939450611519565b610b43579088918893948c610d11565b87513d8a823e3d90fd5b8780fd5b855162461bcd60e51b8152808301869052601260248201527120b63932b0b23c9034b71030bab1ba34b7b760711b6044820152606490fd5b855162461bcd60e51b8152808301869052601060248201526f24b73b30b634b210323ab930ba34b7b760811b6044820152606490fd5b5062278d00841115610c8a565b855162461bcd60e51b8152808301869052602560248201527f5374617274696e67207072696365206d75737420626520677265617465722074604482015264068616e20360dc1b6064820152608490fd5b508581813d8311610f3a575b610f1d818361154a565b81010312610f3657610f31610c789161156c565b610c6a565b8980fd5b503d610f13565b87513d8c823e3d90fd5b5050503461026157816003193601126102615760015490516001600160a01b039091168152602090f35b9190503461067457602036600319011261067457828461010095848351610f9b8161152d565b82815282602082015282858201528260608201528260808201528260a08201528260c0820152015282358152600660205220835191610fd98361152d565b81549485845260018060a01b039081600185015416926020860193845260028501549180870192835283600387015492606089019384528701541692608088019384528460058801549660a08a019788528a600760ff60068c0154169a60c08d019b15158c5201549a01998a5283519b8c52511660208b01525190890152516060880152511660808601525160a085015251151560c08401525190820152f35b84346110d757806003193601126110d7576110926114bb565b600180546001600160a01b031981169091556000906001600160a01b03167f8be0079c531659141344cd1fd0a4f28419497f9722a3daafe3b4186f6b6457e08280a380f35b80fd5b9050346106745760203660031901126106745782610100948335815260066020522080549360018060a01b0380600184015416946002840154916003850154918501541691600585015493600760ff600688015416960154978151998a5260208a01528801526060870152608086015260a0850152151560c0840152820152f35b505090602060031936011261011c578135611174611600565b80845260056020528184209161119060ff600385015416611623565b6002830154928334106113ad57600101546002548251634954101560e01b81528087018590526001600160a01b0392831696918316928882602481875afa80156113a35789928a91611379575b506127106111f9816111f16003548c611752565b04928a611752565b04938a61120a8661035b858d61177b565b96803b156102615788516323b872dd60e01b815230848201908152336020820152604081018c9052909291839182908490829060600103925af1801561136f57611354575b508a80808594819998979682958d845260056020526112888d852060046000918281558260018201558260028201558260038201550155565b541682821561134b575bf11561046c578480938193829383918315611341575b1690f11561133557818080928882821561132c575bf11561131a578234116112fc575b519182527f8562eb94748e30bb0071e932744ce902b460c683474fcb3bfd567ffa16b1afb260203393a46001815580f35b8480808061130a873461177b565b818115611323575b3390f16112cb575b513d85823e3d90fd5b506108fc611312565b506108fc6112bd565b509051903d90823e3d90fd5b6108fc92506112a8565b506108fc611292565b9a6113648497969594939c611519565b9a919293949561124f565b88513d8e823e3d90fd5b90506113909192503d808b833e6104e7818361154a565b50505050505050509392505091386111dd565b85513d8b823e3d90fd5b815162461bcd60e51b81526020818701526014602482015273125b9cdd59999a58da595b9d081c185e5b595b9d60621b6044820152606490fd5b505050346102615781600319360112610261576020906003549051908152f35b8385879234610674576020366003190112610674578360a09460808361142d86956114e7565b8281528260208201528285820152826060820152015283358152600560205220815191611459836114e7565b815493848452600180871b038060018501541660208601908152608060028601549385880194855260ff600388015416966060890197151588520154960195865283519687525116602086015251908401525115156060830152516080820152f35b6001546001600160a01b031633036114cf57565b60405163118cdaa760e01b8152336004820152602490fd5b60a0810190811067ffffffffffffffff82111761150357604052565b634e487b7160e01b600052604160045260246000fd5b67ffffffffffffffff811161150357604052565b610100810190811067ffffffffffffffff82111761150357604052565b90601f8019910116810190811067ffffffffffffffff82111761150357604052565b51906001600160a01b038216820361158057565b600080fd5b1561158c57565b60405162461bcd60e51b815260206004820152600f60248201526e2737ba103a37b5b2b71037bbb732b960891b6044820152606490fd5b156115ca57565b60405162461bcd60e51b815260206004820152600e60248201526d105b1c9958591e481b1a5cdd195960921b6044820152606490fd5b600260005414611611576002600055565b604051633ee5aeb560e01b8152600490fd5b1561162a57565b60405162461bcd60e51b815260206004820152600e60248201526d139195081b9bdd081b1a5cdd195960921b6044820152606490fd5b9190916101808184031261158057805160058110156115805792602061168781840161156c565b936116946040850161156c565b9360608101519360808201519360a083015167ffffffffffffffff9081811161158057840183601f8201121561158057805191821161150357604051936116e4601f8401601f191685018661154a565b8285528383830101116115805760005b82811061173f57505090600091830101529160c08201519160e0810151801515810361158057916101008201519161012081015191610160611739610140840161156c565b92015190565b81810184015185820185015283016116f4565b8181029291811591840414171561176557565b634e487b7160e01b600052601160045260246000fd5b9190820391821161176557565b9190820180921161176557565b1561179c57565b60405162461bcd60e51b815260206004820152601260248201527141756374696f6e206e6f742061637469766560701b6044820152606490fdfea26469706673582212206fc2b79bd7b78ce43ba38e5d566a19d0455a748e74a56424297e13b29cd5bfb764736f6c63430008140033",
  "linkReferences": {},
  "deployedLinkReferences": {}
}