{
  "_format": "hh-sol-artifact-1",
  "contractName": "RiseUpNFT",
  "sourceName": "contracts/RiseUpNFT.sol",
  "abi": [
    {
      "inputs": [
        {
          "internalType": "address",
          "name": "_platformWallet",
          "type": "address"
        }
      ],
      "stateMutability": "nonpayable",
      "type": "constructor"
    },
    {
      "inputs": [
        {
          "internalType": "address",
          "name": "sender",
          "type": "address"
        },
        {
          "internalType": "uint256",
          "name": "tokenId",
          "type": "uint256"
        },
        {
          "internalType": "address",
          "name": "owner",
          "type": "address"
        }
      ],
      "name": "ERC721IncorrectOwner",
      "type": "error"
    },
    {
      "inputs": [
        {
          "internalType": "address",
          "name": "operator",
          "type": "address"
        },
        {
          "internalType": "uint256",
          "name": "tokenId",
          "type": "uint256"
        }
      ],
      "name": "ERC721InsufficientApproval",
      "type": "error"
    },
    {
      "inputs": [
        {
          "internalType": "address",
          "name": "approver",
          "type": "address"
        }
      ],
      "name": "ERC721InvalidApprover",
      "type": "error"
    },
    {
      "inputs": [
        {
          "internalType": "address",
          "name": "operator",
          "type": "address"
        }
      ],
      "name": "ERC721InvalidOperator",
      "type": "error"
    },
    {
      "inputs": [
        {
          "internalType": "address",
          "name": "owner",
          "type": "address"
        }
      ],
      "name": "ERC721InvalidOwner",
      "type": "error"
    },
    {
      "inputs": [
        {
          "internalType": "address",
          "name": "receiver",
          "type": "address"
        }
      ],
      "name": "ERC721InvalidReceiver",
      "type": "error"
    },
    {
      "inputs": [
        {
          "internalType": "address",
          "name": "sender",
          "type": "address"
        }
      ],
      "name": "ERC721InvalidSender",
      "type": "error"
    },
    {
      "inputs": [
        {
          "internalType": "uint256",
          "name": "tokenId",
          "type": "uint256"
        }
      ],
      "name": "ERC721NonexistentToken",
      "type": "error"
    },
    {
      "inputs": [
        {
          "internalType": "address",
          "name": "owner",
          "type": "address"
        }
      ],
      "name": "OwnableInvalidOwner",
      "type": "error"
    },
    {
      "inputs": [
        {
          "internalType": "address",
          "name": "account",
          "type": "address"
        }
      ],
      "name": "OwnableUnauthorizedAccount",
      "type": "error"
    },
    {
      "inputs": [],
      "name": "ReentrancyGuardReentrantCall",
      "type": "error"
    },
    {
      "anonymous": false,
      "inputs": [
        {
          "indexed": true,
          "internalType": "address",
          "name": "owner",
          "type": "address"
        },
        {
          "indexed": true,
          "internalType": "address",
          "name": "approved",
          "type": "address"
        },
        {
          "indexed": true,
          "internalType": "uint256",
          "name": "tokenId",
          "type": "uint256"
        }
      ],
      "name": "Approval",
      "type": "event"
    },
    {
      "anonymous": false,
      "inputs": [
        {
          "indexed": true,
          "internalType": "address",
          "name": "owner",
          "type": "address"
        },
        {
          "indexed": true,
          "internalType": "address",
          "name": "operator",
          "type": "address"
        },
        {
          "indexed": false,
          "internalType": "bool",
          "name": "approved",
          "type": "bool"
        }
      ],
      "name": "ApprovalForAll",
      "type": "event"
    },
    {
      "anonymous": false,
      "inputs": [
        {
          "indexed": true,
          "internalType": "uint256",
          "name": "tokenId",
          "type": "uint256"
        },
        {
          "indexed": true,
          "internalType": "address",
          "name": "winner",
          "type": "address"
        },
        {
          "indexed": false,
          "internalType": "uint256",
          "name": "amount",
          "type": "uint256"
        }
      ],
      "name": "AuctionEnded",
      "type": "event"
    },
    {
      "anonymous": false,
      "inputs": [
        {
          "indexed": false,
          "internalType": "uint256",
          "name": "_fromTokenId",
          "type": "uint256"
        },
        {
          "indexed": false,
          "internalType": "uint256",
          "name": "_toTokenId",
          "type": "uint256"
        }
      ],
      "name": "BatchMetadataUpdate",
      "type": "event"
    },
    {
      "anonymous": false,
      "inputs": [
        {
          "indexed": true,
          "internalType": "uint256",
          "name": "tokenId",
          "type": "uint256"
        },
        {
          "indexed": true,
          "internalType": "address",
          "name": "bidder",
          "type": "address"
        },
        {
          "indexed": false,
          "internalType": "uint256",
          "name": "amount",
          "type": "uint256"
        }
      ],
      "name": "BidPlaced",
      "type": "event"
    },
    {
      "anonymous": false,
      "inputs": [
        {
          "indexed": false,
          "internalType": "uint256",
          "name": "_tokenId",
          "type": "uint256"
        }
      ],
      "name": "MetadataUpdate",
      "type": "event"
    },
    {
      "anonymous": false,
      "inputs": [
        {
          "indexed": true,
          "internalType": "uint256",
          "name": "tokenId",
          "type": "uint256"
        },
        {
          "indexed": false,
          "internalType": "uint256",
          "name": "price",
          "type": "uint256"
        }
      ],
      "name": "NFTListed",
      "type": "event"
    },
    {
      "anonymous": false,
      "inputs": [
        {
          "indexed": true,
          "internalType": "uint256",
          "name": "tokenId",
          "type": "uint256"
        },
        {
          "indexed": true,
          "internalType": "address",
          "name": "creator",
          "type": "address"
        },
        {
          "indexed": false,
          "internalType": "enum RiseUpNFT.ContentType",
          "name": "contentType",
          "type": "uint8"
        },
        {
          "indexed": false,
          "internalType": "string",
          "name": "tokenURI",
          "type": "string"
        }
      ],
      "name": "NFTMinted",
      "type": "event"
    },
    {
      "anonymous": false,
      "inputs": [
        {
          "indexed": true,
          "internalType": "uint256",
          "name": "tokenId",
          "type": "uint256"
        },
        {
          "indexed": true,
          "internalType": "address",
          "name": "buyer",
          "type": "address"
        },
        {
          "indexed": true,
          "internalType": "address",
          "name": "seller",
          "type": "address"
        },
        {
          "indexed": false,
          "internalType": "uint256",
          "name": "price",
          "type": "uint256"
        }
      ],
      "name": "NFTPurchased",
      "type": "event"
    },
    {
      "anonymous": false,
      "inputs": [
        {
          "indexed": true,
          "internalType": "address",
          "name": "previousOwner",
          "type": "address"
        },
        {
          "indexed": true,
          "internalType": "address",
          "name": "newOwner",
          "type": "address"
        }
      ],
      "name": "OwnershipTransferred",
      "type": "event"
    },
    {
      "anonymous": false,
      "inputs": [
        {
          "indexed": true,
          "internalType": "address",
          "name": "from",
          "type": "address"
        },
        {
          "indexed": true,
          "internalType": "address",
          "name": "to",
          "type": "address"
        },
        {
          "indexed": true,
          "internalType": "uint256",
          "name": "tokenId",
          "type": "uint256"
        }
      ],
      "name": "Transfer",
      "type": "event"
    },
    {
      "inputs": [
        {
          "internalType": "address",
          "name": "to",
          "type": "address"
        },
        {
          "internalType": "uint256",
          "name": "tokenId",
          "type": "uint256"
        }
      ],
      "name": "approve",
      "outputs": [],
      "stateMutability": "nonpayable",
      "type": "function"
    },
    {
      "inputs": [
        {
          "internalType": "address",
          "name": "owner",
          "type": "address"
        }
      ],
      "name": "balanceOf",
      "outputs": [
        {
          "internalType": "uint256",
          "name": "",
          "type": "uint256"
        }
      ],
      "stateMutability": "view",
      "type": "function"
    },
    {
      "inputs": [
        {
          "internalType": "uint256",
          "name": "tokenId",
          "type": "uint256"
        }
      ],
      "name": "buyNFT",
      "outputs": [],
      "stateMutability": "payable",
      "type": "function"
    },
    {
      "inputs": [
        {
          "internalType": "uint256",
          "name": "tokenId",
          "type": "uint256"
        }
      ],
      "name": "endAuction",
      "outputs": [],
      "stateMutability": "nonpayable",
      "type": "function"
    },
    {
      "inputs": [
        {
          "internalType": "uint256",
          "name": "tokenId",
          "type": "uint256"
        }
      ],
      "name": "getApproved",
      "outputs": [
        {
          "internalType": "address",
          "name": "",
          "type": "address"
        }
      ],
      "stateMutability": "view",
      "type": "function"
    },
    {
      "inputs": [
        {
          "internalType": "uint256",
          "name": "tokenId",
          "type": "uint256"
        }
      ],
      "name": "getNFTMetadata",
      "outputs": [
        {
          "components": [
            {
              "internalType": "enum RiseUpNFT.ContentType",
              "name": "contentType",
              "type": "uint8"
            },
            {
              "internalType": "address",
              "name": "creator",
              "type": "address"
            },
            {
              "internalType": "address",
              "name": "platform",
              "type": "address"
            },
            {
              "internalType": "uint256",
              "name": "royaltyPercentage",
              "type": "uint256"
            },
            {
              "internalType": "uint256",
              "name": "platformFee",
              "type": "uint256"
            },
            {
              "internalType": "string",
              "name": "contentHash",
              "type": "string"
            },
            {
              "internalType": "uint256",
              "name": "originalContentId",
              "type": "uint256"
            },
            {
              "internalType": "bool",
              "name": "isListed",
              "type": "bool"
            },
            {
              "internalType": "uint256",
              "name": "price",
              "type": "uint256"
            },
            {
              "internalType": "uint256",
              "name": "auctionEndTime",
              "type": "uint256"
            },
            {
              "internalType": "address",
              "name": "highestBidder",
              "type": "address"
            },
            {
              "internalType": "uint256",
              "name": "highestBid",
              "type": "uint256"
            }
          ],
          "internalType": "struct RiseUpNFT.NFTMetadata",
          "name": "",
          "type": "tuple"
        }
      ],
      "stateMutability": "view",
      "type": "function"
    },
    {
      "inputs": [
        {
          "internalType": "address",
          "name": "owner",
          "type": "address"
        },
        {
          "internalType": "address",
          "name": "operator",
          "type": "address"
        }
      ],
      "name": "isApprovedForAll",
      "outputs": [
        {
          "internalType": "bool",
          "name": "",
          "type": "bool"
        }
      ],
      "stateMutability": "view",
      "type": "function"
    },
    {
      "inputs": [
        {
          "internalType": "uint256",
          "name": "tokenId",
          "type": "uint256"
        },
        {
          "internalType": "uint256",
          "name": "price",
          "type": "uint256"
        }
      ],
      "name": "listNFT",
      "outputs": [],
      "stateMutability": "nonpayable",
      "type": "function"
    },
    {
      "inputs": [
        {
          "internalType": "address",
          "name": "to",
          "type": "address"
        },
        {
          "internalType": "string",
          "name": "_tokenURI",
          "type": "string"
        },
        {
          "internalType": "enum RiseUpNFT.ContentType",
          "name": "contentType",
          "type": "uint8"
        },
        {
          "internalType": "uint256",
          "name": "royaltyPercentage",
          "type": "uint256"
        },
        {
          "internalType": "uint256",
          "name": "platformFee",
          "type": "uint256"
        },
        {
          "internalType": "string",
          "name": "contentHash",
          "type": "string"
        },
        {
          "internalType": "uint256",
          "name": "originalContentId",
          "type": "uint256"
        }
      ],
      "name": "mintNFT",
      "outputs": [
        {
          "internalType": "uint256",
          "name": "",
          "type": "uint256"
        }
      ],
      "stateMutability": "nonpayable",
      "type": "function"
    },
    {
      "inputs": [],
      "name": "name",
      "outputs": [
        {
          "internalType": "string",
          "name": "",
          "type": "string"
        }
      ],
      "stateMutability": "view",
      "type": "function"
    },
    {
      "inputs": [
        {
          "internalType": "uint256",
          "name": "",
          "type": "uint256"
        }
      ],
      "name": "nftMetadata",
      "outputs": [
        {
          "internalType": "enum RiseUpNFT.ContentType",
          "name": "contentType",
          "type": "uint8"
        },
        {
          "internalType": "address",
          "name": "creator",
          "type": "address"
        },
        {
          "internalType": "address",
          "name": "platform",
          "type": "address"
        },
        {
          "internalType": "uint256",
          "name": "royaltyPercentage",
          "type": "uint256"
        },
        {
          "internalType": "uint256",
          "name": "platformFee",
          "type": "uint256"
        },
        {
          "internalType": "string",
          "name": "contentHash",
          "type": "string"
        },
        {
          "internalType": "uint256",
          "name": "originalContentId",
          "type": "uint256"
        },
        {
          "internalType": "bool",
          "name": "isListed",
          "type": "bool"
        },
        {
          "internalType": "uint256",
          "name": "price",
          "type": "uint256"
        },
        {
          "internalType": "uint256",
          "name": "auctionEndTime",
          "type": "uint256"
        },
        {
          "internalType": "address",
          "name": "highestBidder",
          "type": "address"
        },
        {
          "internalType": "uint256",
          "name": "highestBid",
          "type": "uint256"
        }
      ],
      "stateMutability": "view",
      "type": "function"
    },
    {
      "inputs": [],
      "name": "owner",
      "outputs": [
        {
          "internalType": "address",
          "name": "",
          "type": "address"
        }
      ],
      "stateMutability": "view",
      "type": "function"
    },
    {
      "inputs": [
        {
          "internalType": "uint256",
          "name": "tokenId",
          "type": "uint256"
        }
      ],
      "name": "ownerOf",
      "outputs": [
        {
          "internalType": "address",
          "name": "",
          "type": "address"
        }
      ],
      "stateMutability": "view",
      "type": "function"
    },
    {
      "inputs": [
        {
          "internalType": "uint256",
          "name": "tokenId",
          "type": "uint256"
        }
      ],
      "name": "placeBid",
      "outputs": [],
      "stateMutability": "payable",
      "type": "function"
    },
    {
      "inputs": [],
      "name": "platformWallet",
      "outputs": [
        {
          "internalType": "address",
          "name": "",
          "type": "address"
        }
      ],
      "stateMutability": "view",
      "type": "function"
    },
    {
      "inputs": [],
      "name": "renounceOwnership",
      "outputs": [],
      "stateMutability": "nonpayable",
      "type": "function"
    },
    {
      "inputs": [
        {
          "internalType": "address",
          "name": "from",
          "type": "address"
        },
        {
          "internalType": "address",
          "name": "to",
          "type": "address"
        },
        {
          "internalType": "uint256",
          "name": "tokenId",
          "type": "uint256"
        }
      ],
      "name": "safeTransferFrom",
      "outputs": [],
      "stateMutability": "nonpayable",
      "type": "function"
    },
    {
      "inputs": [
        {
          "internalType": "address",
          "name": "from",
          "type": "address"
        },
        {
          "internalType": "address",
          "name": "to",
          "type": "address"
        },
        {
          "internalType": "uint256",
          "name": "tokenId",
          "type": "uint256"
        },
        {
          "internalType": "bytes",
          "name": "data",
          "type": "bytes"
        }
      ],
      "name": "safeTransferFrom",
      "outputs": [],
      "stateMutability": "nonpayable",
      "type": "function"
    },
    {
      "inputs": [
        {
          "internalType": "address",
          "name": "operator",
          "type": "address"
        },
        {
          "internalType": "bool",
          "name": "approved",
          "type": "bool"
        }
      ],
      "name": "setApprovalForAll",
      "outputs": [],
      "stateMutability": "nonpayable",
      "type": "function"
    },
    {
      "inputs": [
        {
          "internalType": "uint256",
          "name": "tokenId",
          "type": "uint256"
        },
        {
          "internalType": "uint256",
          "name": "startingPrice",
          "type": "uint256"
        },
        {
          "internalType": "uint256",
          "name": "duration",
          "type": "uint256"
        }
      ],
      "name": "startAuction",
      "outputs": [],
      "stateMutability": "nonpayable",
      "type": "function"
    },
    {
      "inputs": [
        {
          "internalType": "bytes4",
          "name": "interfaceId",
          "type": "bytes4"
        }
      ],
      "name": "supportsInterface",
      "outputs": [
        {
          "internalType": "bool",
          "name": "",
          "type": "bool"
        }
      ],
      "stateMutability": "view",
      "type": "function"
    },
    {
      "inputs": [],
      "name": "symbol",
      "outputs": [
        {
          "internalType": "string",
          "name": "",
          "type": "string"
        }
      ],
      "stateMutability": "view",
      "type": "function"
    },
    {
      "inputs": [
        {
          "internalType": "uint256",
          "name": "tokenId",
          "type": "uint256"
        }
      ],
      "name": "tokenURI",
      "outputs": [
        {
          "internalType": "string",
          "name": "",
          "type": "string"
        }
      ],
      "stateMutability": "view",
      "type": "function"
    },
    {
      "inputs": [
        {
          "internalType": "address",
          "name": "from",
          "type": "address"
        },
        {
          "internalType": "address",
          "name": "to",
          "type": "address"
        },
        {
          "internalType": "uint256",
          "name": "tokenId",
          "type": "uint256"
        }
      ],
      "name": "transferFrom",
      "outputs": [],
      "stateMutability": "nonpayable",
      "type": "function"
    },
    {
      "inputs": [
        {
          "internalType": "address",
          "name": "newOwner",
          "type": "address"
        }
      ],
      "name": "transferOwnership",
      "outputs": [],
      "stateMutability": "nonpayable",
      "type": "function"
    },
    {
      "inputs": [
        {
          "internalType": "address",
          "name": "newWallet",
          "type": "address"
        }
      ],
      "name": "updatePlatformWallet",
      "outputs": [],
      "stateMutability": "nonpayable",
      "type": "function"
    }
  ],
  "bytecode": "0x6080346200040857601f90601f19906001600160401b0390620024bb388190038581018516830184811184821017620003f2578392829160405283396020928391810103126200040857516001600160a01b03808216959093909186900362000408576200006c6200040d565b91600a835269149a5cd9555c0813919560b21b848401526200008d6200040d565b600381526205255560ec1b85820152835196838811620003f2576000978854956001968781811c91168015620003e7575b89821014620003d35790818684931162000380575b5088908683116001146200031f578b9262000313575b5050600019600383901b1c191690861b1788555b8151938411620002ff5784548581811c91168015620002f4575b87821014620002e057908184869594931162000289575b508692841160011462000228575087926200021c575b5050600019600383901b1c191690821b1781555b3315620002035760075460018060a01b03199433868316176007557f8be0079c531659141344cd1fd0a4f28419497f9722a3daafe3b4186f6b6457e0604051953393169180a36008558315620001c2575050600b541617600b5560405161208d90816200042e8239f35b62461bcd60e51b82526004820152601760248201527f496e76616c696420706c6174666f726d2077616c6c6574000000000000000000604482015260649150fd5b604051631e4fbdf760e01b815260048101859052602490fd5b01519050388062000144565b85895286892086959093929116895b8882821062000272575050841162000258575b505050811b01815562000158565b015160001960f88460031b161c191690553880806200024a565b838501518655889790950194938401930162000237565b90919293508589528689208480870160051c820192898810620002d6575b9187968992969594930160051c01915b828110620002c75750506200012e565b8b8155879650889101620002b7565b92508192620002a7565b634e487b7160e01b89526022600452602489fd5b90607f169062000117565b634e487b7160e01b88526041600452602488fd5b015190503880620000e9565b9084899416918c80528a8d20928d5b8c8282106200036957505084116200034f575b505050811b018855620000fd565b015160001960f88460031b161c1916905538808062000341565b8385015186558c979095019493840193016200032e565b9091508a8052888b208680850160051c8201928b8610620003c9575b918a91869594930160051c01915b828110620003ba575050620000d3565b8d81558594508a9101620003aa565b925081926200039c565b634e487b7160e01b8b52602260045260248bfd5b90607f1690620000be565b634e487b7160e01b600052604160045260246000fd5b600080fd5b60408051919082016001600160401b03811183821017620003f25760405256fe608080604052600436101561001357600080fd5b60003560e01c90816301ffc9a7146118275750806306fdde0314611784578063081812fc14611746578063095ea7b31461165f57806323b872dd1461164857806342842e0e14611620578063495410151461154457806351ed8288146113575780636352211e146113275780636be9a6f1146110f25780636cda59af14610b3d57806370a0823114610ae4578063715018a614610a875780638da5cb5b14610a5e57806391e078bb1461093057806394383f141461086457806395d89b41146107855780639979ef4514610645578063a22cb46514610597578063ada4ef3014610511578063b88d4fde146104af578063b9a2de3a146102a7578063c87b56dd1461024a578063e985e9c5146101f4578063f2fde38b1461016b5763fa2af9da1461013d57600080fd5b3461016657600036600319011261016657600b546040516001600160a01b039091168152602090f35b600080fd5b34610166576020366003190112610166576101846118ec565b61018c611b06565b6001600160a01b039081169081156101db57600754826001600160601b0360a01b821617600755167f8be0079c531659141344cd1fd0a4f28419497f9722a3daafe3b4186f6b6457e0600080a3005b604051631e4fbdf760e01b815260006004820152602490fd5b346101665760403660031901126101665761020d6118ec565b610215611902565b9060018060a01b03809116600052600560205260406000209116600052602052602060ff604060002054166040519015158152f35b346101665760203660031901126101665760043561026781611ed3565b5060005260066020526102a361028060406000206119e2565b600060405161028e816119a4565b526040519182916020835260208301906118ac565b0390f35b34610166576020366003190112610166576004356102c3611ff3565b80600052600a602052604060002090600682016102e360ff825416612016565b600883019283544210610476576009810180546001600160a01b039391929190841690811561044057859261031784611ed3565b92600a82018054998a94612710938460038701546103359089611f58565b0480956002880154610347908a611f58565b0497889161035491611f6b565b9061035e91611f6b565b986103699189611f78565b60ff198154169055600784016000905560009055600090556001600160601b0360a01b865416865586600b541660008215600093849384938493610437575bf1156104185760008080938882945460081c1682821561042e575bf11561041857600080809381938783918315610424575b1690f115610418577fd2aa34a4fdbbc6dff6a3e56f46e0f3ae2a31d7785ff3487aa5c95c642acea50191602091541693604051908152a36001600855005b6040513d6000823e3d90fd5b6108fc92506103da565b506108fc6103c3565b506108fc6103a8565b60405162461bcd60e51b815260206004820152600e60248201526d139bc8189a591cc81c1b1858d95960921b6044820152606490fd5b60405162461bcd60e51b8152602060048201526011602482015270105d58dd1a5bdb881b9bdd08195b991959607a1b6044820152606490fd5b34610166576080366003190112610166576104c86118ec565b6104d0611902565b6064359167ffffffffffffffff831161016657366023840112156101665761050561050f933690602481600401359101611ab1565b9160443591611cc2565b005b346101665760203660031901126101665761052a6118ec565b610532611b06565b6001600160a01b03168015610559576001600160601b0360a01b600b541617600b55600080f35b60405162461bcd60e51b8152602060048201526016602482015275496e76616c69642077616c6c6574206164647265737360501b6044820152606490fd5b34610166576040366003190112610166576105b06118ec565b6024359081151590818303610166576001600160a01b031691821561062c576105fe9033600052600560205260406000208460005260205260406000209060ff801983541691151516179055565b6040519081527f17307eab39ab6107e8899845ad3d59bd9653f200f220920489ca2b5937696c3160203392a3005b604051630b61174360e31b815260048101849052602490fd5b60203660031901126101665760043561065c611ff3565b80600052600a602052604060002061067a60ff600683015416612016565b600881015442101561075057600a8101908154908134111561071d5760090180549091906001600160a01b0316806106f8575b5050336001600160601b0360a01b825416179055349055604051903482527f0e54eff26401bf69b81b26f60bd85ef47f5d85275c1d268d84f68d6897431c4760203393a36001600855005b60008080938193828215610714575bf1156104185783806106ad565b506108fc610707565b60405162461bcd60e51b815260206004820152600b60248201526a42696420746f6f206c6f7760a81b6044820152606490fd5b60405162461bcd60e51b815260206004820152600d60248201526c105d58dd1a5bdb88195b991959609a1b6044820152606490fd5b3461016657600036600319011261016657604051600060018054906107a98261194d565b8085529181811690811561083d57506001146107e4575b6102a3846107d0818603826119c0565b6040519182916020835260208301906118ac565b600081815292507fb10e2d527612073b26eecdfd717e6a320cf44b4afac2b0732d9fcbe2b7fa0cf65b8284106108255750505081016020016107d0826107c0565b8054602085870181019190915290930192810161080d565b60ff191660208087019190915292151560051b850190920192506107d091508390506107c0565b346101665760403660031901126101665760043560243561089761088783611ed3565b6001600160a01b03163314611f1a565b80156108eb5760207fa6cd73580a273eec6c1026108f6b63479fbaef5356dde4ff43e4b38dd187485f9183600052600a8252806007604060002060068101600160ff198254161790550155604051908152a2005b60405162461bcd60e51b815260206004820152601c60248201527f5072696365206d7573742062652067726561746572207468616e2030000000006044820152606490fd5b346101665760603660031901126101665760243560443560043561095661088782611ed3565b8215610a0b5781156109c657600052600a60205260406000209160068301600160ff1982541617905560078301554201908142116109b05760088101919091556000600a82015560090180546001600160a01b0319169055005b634e487b7160e01b600052601160045260246000fd5b60405162461bcd60e51b815260206004820152601f60248201527f4475726174696f6e206d7573742062652067726561746572207468616e2030006044820152606490fd5b60405162461bcd60e51b815260206004820152602560248201527f5374617274696e67207072696365206d75737420626520677265617465722074604482015264068616e20360dc1b6064820152608490fd5b34610166576000366003190112610166576007546040516001600160a01b039091168152602090f35b3461016657600036600319011261016657610aa0611b06565b600780546001600160a01b031981169091556000906001600160a01b03167f8be0079c531659141344cd1fd0a4f28419497f9722a3daafe3b4186f6b6457e08280a3005b34610166576020366003190112610166576001600160a01b03610b056118ec565b168015610b245760005260036020526020604060002054604051908152f35b6040516322718ad960e21b815260006004820152602490fd5b346101665760e036600319011261016657610b566118ec565b60243567ffffffffffffffff811161016657610b76903690600401611ae8565b90600560443510156101665760a43567ffffffffffffffff811161016657610ba2903690600401611ae8565b9161271080606435116110ba576084351161107d576009549160001983146109b057600183016009556001600160a01b03811615611064576001600160a01b0390610bf1906001850190611e17565b1661104b576001820160005260066020526040600020815167ffffffffffffffff8111610f6957610c22825461194d565b601f8111611007575b50806020601f8211600114610fa057600091610f95575b508160011b916000199060031b1c19161790555b7ff8e1a15aba9398e019f0b49df1a4fde98ee17ae345cb5f6b5e2c27f5033e8ce76020604051600185018152a1600b5460405193906001600160a01b0316610c9d85611987565b610ca960443586611f0e565b33602086015260408501526064356060850152608435608085015260a084015260c43560c0840152600060e0840152600061010084015260006101208401526000610140840152600061016084015260018201600052600a602052604060002083516005811015610f7f57815460ff610100600160a81b03602088015160081b169216906affffffffffffffffffffff60a81b161717815560018060a01b036040850151166001600160601b0360a01b600183015416176001820155606084015160028201556080840151600382015560a084015193845167ffffffffffffffff8111610f6957610d9d600484015461194d565b95601f8711610f22575b602096508690601f8311600114610eae579180600a949261016094600092610ea3575b50508160011b916000199060031b1c19161760048501555b60c08101516005850155610e0b60e08201511515600686019060ff801983541691151516179055565b610100810151600785015561012081015160088501556009840160018060a01b03610140830151166001600160601b0360a01b825416179055015191015560405190610e5982604435611a88565b6040848301527fb7b37e2492d607bae7599a39d53c1892b28fb0c4ecbc83938cc737c001cf7494339280610e95600187019460408301906118ac565b0390a3600160405191018152f35b015190508980610dca565b9060048501600052876000209160005b601f1985168110610f0b575092600a94926001926101609583601f19811610610ef2575b505050811b016004850155610de2565b015160001960f88460031b161c19169055898080610ee2565b919289600181928685015181550194019201610ebe565b600484016000526020600020601f830160051c810160208410610f62575b601f890160051c82018110610f56575050610da7565b60008155600101610f40565b5080610f40565b634e487b7160e01b600052604160045260246000fd5b634e487b7160e01b600052602160045260246000fd5b905083015186610c42565b91508260005260206000206000925b601f1983168410610fef576001935082601f19811610610fd6575b5050811b019055610c56565b85015160001960f88460031b161c191690558680610fca565b85810151825560209384019360019092019101610faf565b826000526020600020601f830160051c810160208410611044575b601f830160051c82018110611038575050610c2b565b60008155600101611022565b5080611022565b6040516339e3563760e11b815260006004820152602490fd5b604051633250574960e11b815260006004820152602490fd5b60405162461bcd60e51b81526020600482015260156024820152740a0d8c2e8ccdee4da40cccaca40e8dede40d0d2ced605b1b6044820152606490fd5b60405162461bcd60e51b815260206004820152601060248201526f0a4def2c2d8e8f240e8dede40d0d2ced60831b6044820152606490fd5b3461016657602036600319011261016657600435600061016060405161111781611987565b828152826020820152826040820152826060820152826080820152606060a08201528260c08201528260e0820152826101008201528261012082015282610140820152015280600052600260205260018060a01b0360406000205416156112eb57600052600a6020526040600020600a6040519161119483611987565b80546111a360ff821685611f0e565b60081c6001600160a01b039081166020850152600182015416604084015260028101546060840152600381015460808401526111e1600482016119e2565b60a0840152600581015460c084015260ff600682015416151560e08401526007810154610100840152600881015461012084015260018060a01b036009820154166101408401520154610160820152604051809160208252611247602083018251611a88565b60018060a01b03602082015116604083015260018060a01b03604082015116606083015260608101516080830152608081015160a083015260a081015161016061129f610180928360c08701526101a08601906118ac565b9260c081015160e086015260e0810151151561010086015261010081015161012086015261012081015161014086015260018060a01b0361014082015116828601520151908301520390f35b60405162461bcd60e51b8152602060048201526014602482015273151bdad95b88191bd95cc81b9bdd08195e1a5cdd60621b6044820152606490fd5b34610166576020366003190112610166576020611345600435611ed3565b6040516001600160a01b039091168152f35b60203660031901126101665760043561136e611ff3565b80600052600a6020526040600020600681019160ff8354161561150e5760078201918254928334106114d2576113a383611ed3565b90612710926000846113b9600384015489611f58565b04946113c9600284015489611f58565b04926113de846113d9888b611f6b565b611f6b565b986113ea883388611f78565b60ff19815416905555600080808060018060a01b039788600b54168282156114c9575bf11561041857600080809381935487839183156114bf575b60081c1690f11561041857600080809381931696878282156114b6575bf11561041857813411611483575b6040519182527fef1fb2bd31f5ed737e6054243d9b5eacd3af967f35af45e8fb844ca6dbbe98f960203393a46001600855005b60008080806114928634611f6b565b8181156114ad575b3390f1611450576040513d6000823e3d90fd5b506108fc61149a565b506108fc611442565b6108fc9250611425565b506108fc61140d565b60405162461bcd60e51b8152602060048201526014602482015273125b9cdd59999a58da595b9d081c185e5b595b9d60621b6044820152606490fd5b60405162461bcd60e51b815260206004820152600e60248201526d139195081b9bdd081b1a5cdd195960921b6044820152606490fd5b3461016657602036600319011261016657600435600052600a60205260406000206115ce81549160018060a01b038060018301541691600281015492600382015493611592600484016119e2565b946115f760058501549660ff60068701541692600787015494600888015496600a8a60098b015416990154996040519d8e9d8e60ff8316611a88565b60081c1660208d015260408c015260608b015260808a01526101808060a08b01528901906118ac565b9560c0880152151560e08701526101008601526101208501526101408401526101608301520390f35b346101665761050f61163136611918565b906040519261163f846119a4565b60008452611cc2565b346101665761050f61165936611918565b91611b32565b34610166576040366003190112610166576116786118ec565b60243561168481611ed3565b33151580611733575b80611706575b6116ee576001600160a01b039283169282918491167f8c5be1e5ebec7d5bd14f71427d1e84f3dd0314c0f7b2291e5b200ac8c7c3b925600080a4600090815260046020526040902080546001600160a01b0319169091179055005b60405163a9fbf51f60e01b8152336004820152602490fd5b5060018060a01b038116600052600560205260406000203360005260205260ff6040600020541615611693565b506001600160a01b03811633141561168d565b346101665760203660031901126101665760043561176381611ed3565b506000526004602052602060018060a01b0360406000205416604051908152f35b3461016657600036600319011261016657604051600080546117a58161194d565b8084529060019081811690811561083d57506001146117ce576102a3846107d0818603826119c0565b600080805292507f290decd9548b62a8d60345a988386fc84ba6bc95484008f6362f93160ef3e5635b82841061180f5750505081016020016107d0826107c0565b805460208587018101919091529093019281016117f7565b34610166576020366003190112610166576004359063ffffffff60e01b821680920361016657602091632483248360e11b8114908115611869575b5015158152f35b6380ac58cd60e01b81149150811561189b575b811561188a575b5083611862565b6301ffc9a760e01b14905083611883565b635b5e139f60e01b8114915061187c565b919082519283825260005b8481106118d8575050826000602080949584010152601f8019910116010190565b6020818301810151848301820152016118b7565b600435906001600160a01b038216820361016657565b602435906001600160a01b038216820361016657565b6060906003190112610166576001600160a01b0390600435828116810361016657916024359081168103610166579060443590565b90600182811c9216801561197d575b602083101461196757565b634e487b7160e01b600052602260045260246000fd5b91607f169161195c565b610180810190811067ffffffffffffffff821117610f6957604052565b6020810190811067ffffffffffffffff821117610f6957604052565b90601f8019910116810190811067ffffffffffffffff821117610f6957604052565b90604051918260008254926119f68461194d565b908184526001948581169081600014611a655750600114611a22575b5050611a20925003836119c0565b565b9093915060005260209081600020936000915b818310611a4d575050611a2093508201013880611a12565b85548884018501529485019487945091830191611a35565b915050611a2094506020925060ff191682840152151560051b8201013880611a12565b906005821015610f7f5752565b67ffffffffffffffff8111610f6957601f01601f191660200190565b929192611abd82611a95565b91611acb60405193846119c0565b829481845281830111610166578281602093846000960137010152565b9080601f8301121561016657816020611b0393359101611ab1565b90565b6007546001600160a01b03163303611b1a57565b60405163118cdaa760e01b8152336004820152602490fd5b906001600160a01b03908116801561106457600091848352846020926002845260409383858720541695869133151580611c2c575b509060027fddf252ad1be2c89b69c2b068fc378daa952ba7f163c4a11628f55a4df523b3ef9284611bf9575b85835260038152888320805460010190558683525286812080546001600160a01b0319168517905580a483168203611bcb5750505050565b516364283d7b60e01b81526001600160a01b0392831660048201526024810193909352166044820152606490fd5b600087815260046020526040902080546001600160a01b0319169055848352600381528883208054600019019055611b93565b91939450915080611c81575b15611c4857879291869138611b67565b848887611c65576024915190637e27328960e01b82526004820152fd5b604491519063177e802f60e01b82523360048301526024820152fd5b503386148015611ca6575b80611c385750878252600481523384868420541614611c38565b5085825260058152848220338352815260ff8583205416611c8c565b929092611cd0838583611b32565b833b611cdd575b50505050565b604051630a85bd0160e11b8082523360048301526001600160a01b0392831660248301526044820194909452608060648201529493169260209290918590611d299060848301906118ac565b039483816000978189895af1869181611dd3575b50611d9e575050503d600014611d95573d611d5781611a95565b90611d6560405192836119c0565b81528093823d92013e5b82519283611d9057604051633250574960e11b815260048101849052602490fd5b019050fd5b60609250611d6f565b919450915063ffffffff60e01b1603611dbb575038808080611cd7565b60249060405190633250574960e11b82526004820152fd5b9091508481813d8311611e10575b611deb81836119c0565b81010312611e0c57516001600160e01b031981168103611e0c579038611d3d565b8680fd5b503d611de1565b6000828152600260205260408120546001600160a01b03908116939284917fddf252ad1be2c89b69c2b068fc378daa952ba7f163c4a11628f55a4df523b3ef9183611e9e575b169283611e86575b84815260026020526040812080546001600160a01b0319168517905580a490565b83815260036020526040812060018154019055611e65565b600086815260046020526040902080546001600160a01b03191690558385526003602052604085208054600019019055611e5d565b6000818152600260205260409020546001600160a01b0316908115611ef6575090565b60249060405190637e27328960e01b82526004820152fd5b6005821015610f7f5752565b15611f2157565b60405162461bcd60e51b815260206004820152600f60248201526e2737ba103a37b5b2b71037bbb732b960891b6044820152606490fd5b818102929181159184041417156109b057565b919082039182116109b057565b906001600160a01b0390818116156110645783611f9491611e17565b908082169081611fb757604051637e27328960e01b815260048101869052602490fd5b831603611fc357505050565b6040516364283d7b60e01b81526001600160a01b0392831660048201526024810193909352166044820152606490fd5b600260085414612004576002600855565b604051633ee5aeb560e01b8152600490fd5b1561201d57565b60405162461bcd60e51b815260206004820152601260248201527127232a103737ba1034b71030bab1ba34b7b760711b6044820152606490fdfea2646970667358221220f0d109f47339d42b889e4d5182468f9212a2da6c1375d0161f327a30d8b2a1af64736f6c63430008140033",
  "linkReferences": {},
  "deployedLinkReferences": {}
}